{
	"DPay-proof-of-concept/contracts/coin_contracts/wbtc.sol": {
		"WBTC": {
			"abi": [
				{
					"constant": true,
					"inputs": [],
					"name": "mintingFinished",
					"outputs": [
						{
							"name": "",
							"type": "bool"
						}
					],
					"payable": false,
					"stateMutability": "view",
					"type": "function"
				},
				{
					"constant": true,
					"inputs": [],
					"name": "name",
					"outputs": [
						{
							"name": "",
							"type": "string"
						}
					],
					"payable": false,
					"stateMutability": "view",
					"type": "function"
				},
				{
					"constant": false,
					"inputs": [
						{
							"name": "_spender",
							"type": "address"
						},
						{
							"name": "_value",
							"type": "uint256"
						}
					],
					"name": "approve",
					"outputs": [
						{
							"name": "",
							"type": "bool"
						}
					],
					"payable": false,
					"stateMutability": "nonpayable",
					"type": "function"
				},
				{
					"constant": false,
					"inputs": [
						{
							"name": "_token",
							"type": "address"
						}
					],
					"name": "reclaimToken",
					"outputs": [],
					"payable": false,
					"stateMutability": "nonpayable",
					"type": "function"
				},
				{
					"constant": true,
					"inputs": [],
					"name": "totalSupply",
					"outputs": [
						{
							"name": "",
							"type": "uint256"
						}
					],
					"payable": false,
					"stateMutability": "view",
					"type": "function"
				},
				{
					"constant": false,
					"inputs": [
						{
							"name": "_from",
							"type": "address"
						},
						{
							"name": "_to",
							"type": "address"
						},
						{
							"name": "_value",
							"type": "uint256"
						}
					],
					"name": "transferFrom",
					"outputs": [
						{
							"name": "",
							"type": "bool"
						}
					],
					"payable": false,
					"stateMutability": "nonpayable",
					"type": "function"
				},
				{
					"constant": true,
					"inputs": [],
					"name": "decimals",
					"outputs": [
						{
							"name": "",
							"type": "uint8"
						}
					],
					"payable": false,
					"stateMutability": "view",
					"type": "function"
				},
				{
					"constant": false,
					"inputs": [],
					"name": "unpause",
					"outputs": [],
					"payable": false,
					"stateMutability": "nonpayable",
					"type": "function"
				},
				{
					"constant": false,
					"inputs": [
						{
							"name": "_to",
							"type": "address"
						},
						{
							"name": "_amount",
							"type": "uint256"
						}
					],
					"name": "mint",
					"outputs": [
						{
							"name": "",
							"type": "bool"
						}
					],
					"payable": false,
					"stateMutability": "nonpayable",
					"type": "function"
				},
				{
					"constant": false,
					"inputs": [
						{
							"name": "value",
							"type": "uint256"
						}
					],
					"name": "burn",
					"outputs": [],
					"payable": false,
					"stateMutability": "nonpayable",
					"type": "function"
				},
				{
					"constant": false,
					"inputs": [],
					"name": "claimOwnership",
					"outputs": [],
					"payable": false,
					"stateMutability": "nonpayable",
					"type": "function"
				},
				{
					"constant": true,
					"inputs": [],
					"name": "paused",
					"outputs": [
						{
							"name": "",
							"type": "bool"
						}
					],
					"payable": false,
					"stateMutability": "view",
					"type": "function"
				},
				{
					"constant": false,
					"inputs": [
						{
							"name": "_spender",
							"type": "address"
						},
						{
							"name": "_subtractedValue",
							"type": "uint256"
						}
					],
					"name": "decreaseApproval",
					"outputs": [
						{
							"name": "success",
							"type": "bool"
						}
					],
					"payable": false,
					"stateMutability": "nonpayable",
					"type": "function"
				},
				{
					"constant": true,
					"inputs": [
						{
							"name": "_owner",
							"type": "address"
						}
					],
					"name": "balanceOf",
					"outputs": [
						{
							"name": "",
							"type": "uint256"
						}
					],
					"payable": false,
					"stateMutability": "view",
					"type": "function"
				},
				{
					"constant": false,
					"inputs": [],
					"name": "renounceOwnership",
					"outputs": [],
					"payable": false,
					"stateMutability": "nonpayable",
					"type": "function"
				},
				{
					"constant": false,
					"inputs": [],
					"name": "finishMinting",
					"outputs": [
						{
							"name": "",
							"type": "bool"
						}
					],
					"payable": false,
					"stateMutability": "nonpayable",
					"type": "function"
				},
				{
					"constant": false,
					"inputs": [],
					"name": "pause",
					"outputs": [],
					"payable": false,
					"stateMutability": "nonpayable",
					"type": "function"
				},
				{
					"constant": true,
					"inputs": [],
					"name": "owner",
					"outputs": [
						{
							"name": "",
							"type": "address"
						}
					],
					"payable": false,
					"stateMutability": "view",
					"type": "function"
				},
				{
					"constant": true,
					"inputs": [],
					"name": "symbol",
					"outputs": [
						{
							"name": "",
							"type": "string"
						}
					],
					"payable": false,
					"stateMutability": "view",
					"type": "function"
				},
				{
					"constant": false,
					"inputs": [
						{
							"name": "_to",
							"type": "address"
						},
						{
							"name": "_value",
							"type": "uint256"
						}
					],
					"name": "transfer",
					"outputs": [
						{
							"name": "",
							"type": "bool"
						}
					],
					"payable": false,
					"stateMutability": "nonpayable",
					"type": "function"
				},
				{
					"constant": false,
					"inputs": [
						{
							"name": "_spender",
							"type": "address"
						},
						{
							"name": "_addedValue",
							"type": "uint256"
						}
					],
					"name": "increaseApproval",
					"outputs": [
						{
							"name": "success",
							"type": "bool"
						}
					],
					"payable": false,
					"stateMutability": "nonpayable",
					"type": "function"
				},
				{
					"constant": true,
					"inputs": [
						{
							"name": "_owner",
							"type": "address"
						},
						{
							"name": "_spender",
							"type": "address"
						}
					],
					"name": "allowance",
					"outputs": [
						{
							"name": "",
							"type": "uint256"
						}
					],
					"payable": false,
					"stateMutability": "view",
					"type": "function"
				},
				{
					"constant": true,
					"inputs": [],
					"name": "pendingOwner",
					"outputs": [
						{
							"name": "",
							"type": "address"
						}
					],
					"payable": false,
					"stateMutability": "view",
					"type": "function"
				},
				{
					"constant": false,
					"inputs": [
						{
							"name": "newOwner",
							"type": "address"
						}
					],
					"name": "transferOwnership",
					"outputs": [],
					"payable": false,
					"stateMutability": "nonpayable",
					"type": "function"
				},
				{
					"anonymous": false,
					"inputs": [],
					"name": "Pause",
					"type": "event"
				},
				{
					"anonymous": false,
					"inputs": [],
					"name": "Unpause",
					"type": "event"
				},
				{
					"anonymous": false,
					"inputs": [
						{
							"indexed": true,
							"name": "burner",
							"type": "address"
						},
						{
							"indexed": false,
							"name": "value",
							"type": "uint256"
						}
					],
					"name": "Burn",
					"type": "event"
				},
				{
					"anonymous": false,
					"inputs": [
						{
							"indexed": true,
							"name": "to",
							"type": "address"
						},
						{
							"indexed": false,
							"name": "amount",
							"type": "uint256"
						}
					],
					"name": "Mint",
					"type": "event"
				},
				{
					"anonymous": false,
					"inputs": [],
					"name": "MintFinished",
					"type": "event"
				},
				{
					"anonymous": false,
					"inputs": [
						{
							"indexed": true,
							"name": "previousOwner",
							"type": "address"
						}
					],
					"name": "OwnershipRenounced",
					"type": "event"
				},
				{
					"anonymous": false,
					"inputs": [
						{
							"indexed": true,
							"name": "previousOwner",
							"type": "address"
						},
						{
							"indexed": true,
							"name": "newOwner",
							"type": "address"
						}
					],
					"name": "OwnershipTransferred",
					"type": "event"
				},
				{
					"anonymous": false,
					"inputs": [
						{
							"indexed": true,
							"name": "owner",
							"type": "address"
						},
						{
							"indexed": true,
							"name": "spender",
							"type": "address"
						},
						{
							"indexed": false,
							"name": "value",
							"type": "uint256"
						}
					],
					"name": "Approval",
					"type": "event"
				},
				{
					"anonymous": false,
					"inputs": [
						{
							"indexed": true,
							"name": "from",
							"type": "address"
						},
						{
							"indexed": true,
							"name": "to",
							"type": "address"
						},
						{
							"indexed": false,
							"name": "value",
							"type": "uint256"
						}
					],
					"name": "Transfer",
					"type": "event"
				}
			],
			"devdoc": {
				"methods": {
					"allowance(address,address)": {
						"details": "Function to check the amount of tokens that an owner allowed to a spender.",
						"params": {
							"_owner": "address The address which owns the funds.",
							"_spender": "address The address which will spend the funds."
						},
						"return": "A uint256 specifying the amount of tokens still available for the spender."
					},
					"balanceOf(address)": {
						"details": "Gets the balance of the specified address.",
						"params": {
							"_owner": "The address to query the the balance of."
						},
						"return": "An uint256 representing the amount owned by the passed address."
					},
					"claimOwnership()": {
						"details": "Allows the pendingOwner address to finalize the transfer."
					},
					"mint(address,uint256)": {
						"details": "Function to mint tokens",
						"params": {
							"_amount": "The amount of tokens to mint.",
							"_to": "The address that will receive the minted tokens."
						},
						"return": "A boolean that indicates if the operation was successful."
					},
					"pause()": {
						"details": "called by the owner to pause, triggers stopped state"
					},
					"reclaimToken(address)": {
						"details": "Reclaim all ERC20Basic compatible tokens",
						"params": {
							"_token": "ERC20Basic The address of the token contract"
						}
					},
					"totalSupply()": {
						"details": "Total number of tokens in existence"
					},
					"transferOwnership(address)": {
						"details": "Allows the current owner to set the pendingOwner address.",
						"params": {
							"newOwner": "The address to transfer ownership to."
						}
					},
					"unpause()": {
						"details": "called by the owner to unpause, returns to normal state"
					}
				}
			},
			"evm": {
				"assembly": "    /* \"DPay-proof-of-concept/contracts/coin_contracts/wbtc.sol\":17269:17695  contract WBTC is StandardToken, DetailedERC20(\"Wrapped BTC\", \"WBTC\", 8),... */\n  mstore(0x40, 0x80)\n    /* \"DPay-proof-of-concept/contracts/coin_contracts/wbtc.sol\":10591:10596  false */\n  0x0\n    /* \"DPay-proof-of-concept/contracts/coin_contracts/wbtc.sol\":10561:10596  bool public mintingFinished = false */\n  0x5\n  exp(0x100, 0x15)\n  dup2\n  sload\n  dup2\n  0xff\n  mul\n  not\n  and\n  swap1\n  dup4\n  iszero\n  iszero\n  mul\n  or\n  swap1\n  sstore\n  pop\n    /* \"DPay-proof-of-concept/contracts/coin_contracts/wbtc.sol\":12707:12712  false */\n  0x0\n    /* \"DPay-proof-of-concept/contracts/coin_contracts/wbtc.sol\":12686:12712  bool public paused = false */\n  0x5\n  exp(0x100, 0x16)\n  dup2\n  sload\n  dup2\n  0xff\n  mul\n  not\n  and\n  swap1\n  dup4\n  iszero\n  iszero\n  mul\n  or\n  swap1\n  sstore\n  pop\n    /* \"DPay-proof-of-concept/contracts/coin_contracts/wbtc.sol\":8284:8421  constructor(string _name, string _symbol, uint8 _decimals) public {... */\n  0x40\n  dup1\n  mload\n  swap1\n  dup2\n  add\n  0x40\n  mstore\n  dup1\n  0xb\n  dup2\n  mstore\n  0x20\n  add\n  0x5772617070656420425443000000000000000000000000000000000000000000\n  dup2\n  mstore\n  pop\n  0x40\n  dup1\n  mload\n  swap1\n  dup2\n  add\n  0x40\n  mstore\n  dup1\n  0x4\n  dup2\n  mstore\n  0x20\n  add\n  0x5742544300000000000000000000000000000000000000000000000000000000\n  dup2\n  mstore\n  pop\n    /* \"DPay-proof-of-concept/contracts/coin_contracts/wbtc.sol\":17338:17339  8 */\n  0x8\n    /* \"DPay-proof-of-concept/contracts/coin_contracts/wbtc.sol\":8363:8368  _name */\n  dup3\n    /* \"DPay-proof-of-concept/contracts/coin_contracts/wbtc.sol\":8356:8360  name */\n  0x3\n    /* \"DPay-proof-of-concept/contracts/coin_contracts/wbtc.sol\":8356:8368  name = _name */\n  swap1\n  dup1\n  mload\n  swap1\n  0x20\n  add\n  swap1\n  tag_4\n  swap3\n  swap2\n  swap1\n  jump\t// in(tag_5)\ntag_4:\n  pop\n    /* \"DPay-proof-of-concept/contracts/coin_contracts/wbtc.sol\":8383:8390  _symbol */\n  dup2\n    /* \"DPay-proof-of-concept/contracts/coin_contracts/wbtc.sol\":8374:8380  symbol */\n  0x4\n    /* \"DPay-proof-of-concept/contracts/coin_contracts/wbtc.sol\":8374:8390  symbol = _symbol */\n  swap1\n  dup1\n  mload\n  swap1\n  0x20\n  add\n  swap1\n  tag_6\n  swap3\n  swap2\n  swap1\n  jump\t// in(tag_5)\ntag_6:\n  pop\n    /* \"DPay-proof-of-concept/contracts/coin_contracts/wbtc.sol\":8407:8416  _decimals */\n  dup1\n    /* \"DPay-proof-of-concept/contracts/coin_contracts/wbtc.sol\":8396:8404  decimals */\n  0x5\n  0x0\n    /* \"DPay-proof-of-concept/contracts/coin_contracts/wbtc.sol\":8396:8416  decimals = _decimals */\n  0x100\n  exp\n  dup2\n  sload\n  dup2\n  0xff\n  mul\n  not\n  and\n  swap1\n  dup4\n  0xff\n  and\n  mul\n  or\n  swap1\n  sstore\n  pop\n    /* \"DPay-proof-of-concept/contracts/coin_contracts/wbtc.sol\":8284:8421  constructor(string _name, string _symbol, uint8 _decimals) public {... */\n  pop\n  pop\n  pop\n    /* \"DPay-proof-of-concept/contracts/coin_contracts/wbtc.sol\":9037:9047  msg.sender */\n  caller\n    /* \"DPay-proof-of-concept/contracts/coin_contracts/wbtc.sol\":9029:9034  owner */\n  0x5\n  0x1\n    /* \"DPay-proof-of-concept/contracts/coin_contracts/wbtc.sol\":9029:9047  owner = msg.sender */\n  0x100\n  exp\n  dup2\n  sload\n  dup2\n  0xffffffffffffffffffffffffffffffffffffffff\n  mul\n  not\n  and\n  swap1\n  dup4\n  0xffffffffffffffffffffffffffffffffffffffff\n  and\n  mul\n  or\n  swap1\n  sstore\n  pop\n    /* \"DPay-proof-of-concept/contracts/coin_contracts/wbtc.sol\":17269:17695  contract WBTC is StandardToken, DetailedERC20(\"Wrapped BTC\", \"WBTC\", 8),... */\n  jump(tag_8)\ntag_5:\n  dup3\n  dup1\n  sload\n  0x1\n  dup2\n  0x1\n  and\n  iszero\n  0x100\n  mul\n  sub\n  and\n  0x2\n  swap1\n  div\n  swap1\n  0x0\n  mstore\n  keccak256(0x0, 0x20)\n  swap1\n  0x1f\n  add\n  0x20\n  swap1\n  div\n  dup2\n  add\n  swap3\n  dup3\n  0x1f\n  lt\n  tag_10\n  jumpi\n  dup1\n  mload\n  not(0xff)\n  and\n  dup4\n  dup1\n  add\n  or\n  dup6\n  sstore\n  jump(tag_9)\ntag_10:\n  dup3\n  dup1\n  add\n  0x1\n  add\n  dup6\n  sstore\n  dup3\n  iszero\n  tag_9\n  jumpi\n  swap2\n  dup3\n  add\ntag_11:\n  dup3\n  dup2\n  gt\n  iszero\n  tag_12\n  jumpi\n  dup3\n  mload\n  dup3\n  sstore\n  swap2\n  0x20\n  add\n  swap2\n  swap1\n  0x1\n  add\n  swap1\n  jump(tag_11)\ntag_12:\ntag_9:\n  pop\n  swap1\n  pop\n  tag_13\n  swap2\n  swap1\n  jump\t// in(tag_14)\ntag_13:\n  pop\n  swap1\n  jump\t// out\ntag_14:\n  tag_15\n  swap2\n  swap1\ntag_16:\n  dup1\n  dup3\n  gt\n  iszero\n  tag_17\n  jumpi\n  0x0\n  dup2\n  0x0\n  swap1\n  sstore\n  pop\n  0x1\n  add\n  jump(tag_16)\ntag_17:\n  pop\n  swap1\n  jump\ntag_15:\n  swap1\n  jump\t// out\ntag_8:\n  dataSize(sub_0)\n  dup1\n  dataOffset(sub_0)\n  0x0\n  codecopy\n  0x0\n  return\nstop\n\nsub_0: assembly {\n        /* \"DPay-proof-of-concept/contracts/coin_contracts/wbtc.sol\":17269:17695  contract WBTC is StandardToken, DetailedERC20(\"Wrapped BTC\", \"WBTC\", 8),... */\n      mstore(0x40, 0x80)\n      jumpi(tag_1, lt(calldatasize, 0x4))\n      calldataload(0x0)\n      0x100000000000000000000000000000000000000000000000000000000\n      swap1\n      div\n      0xffffffff\n      and\n      dup1\n      0x5d2035b\n      eq\n      tag_2\n      jumpi\n      dup1\n      0x6fdde03\n      eq\n      tag_3\n      jumpi\n      dup1\n      0x95ea7b3\n      eq\n      tag_4\n      jumpi\n      dup1\n      0x17ffc320\n      eq\n      tag_5\n      jumpi\n      dup1\n      0x18160ddd\n      eq\n      tag_6\n      jumpi\n      dup1\n      0x23b872dd\n      eq\n      tag_7\n      jumpi\n      dup1\n      0x313ce567\n      eq\n      tag_8\n      jumpi\n      dup1\n      0x3f4ba83a\n      eq\n      tag_9\n      jumpi\n      dup1\n      0x40c10f19\n      eq\n      tag_10\n      jumpi\n      dup1\n      0x42966c68\n      eq\n      tag_11\n      jumpi\n      dup1\n      0x4e71e0c8\n      eq\n      tag_12\n      jumpi\n      dup1\n      0x5c975abb\n      eq\n      tag_13\n      jumpi\n      dup1\n      0x66188463\n      eq\n      tag_14\n      jumpi\n      dup1\n      0x70a08231\n      eq\n      tag_15\n      jumpi\n      dup1\n      0x715018a6\n      eq\n      tag_16\n      jumpi\n      dup1\n      0x7d64bcb4\n      eq\n      tag_17\n      jumpi\n      dup1\n      0x8456cb59\n      eq\n      tag_18\n      jumpi\n      dup1\n      0x8da5cb5b\n      eq\n      tag_19\n      jumpi\n      dup1\n      0x95d89b41\n      eq\n      tag_20\n      jumpi\n      dup1\n      0xa9059cbb\n      eq\n      tag_21\n      jumpi\n      dup1\n      0xd73dd623\n      eq\n      tag_22\n      jumpi\n      dup1\n      0xdd62ed3e\n      eq\n      tag_23\n      jumpi\n      dup1\n      0xe30c3978\n      eq\n      tag_24\n      jumpi\n      dup1\n      0xf2fde38b\n      eq\n      tag_25\n      jumpi\n    tag_1:\n      0x0\n      dup1\n      revert\n        /* \"DPay-proof-of-concept/contracts/coin_contracts/wbtc.sol\":10561:10596  bool public mintingFinished = false */\n    tag_2:\n      callvalue\n        /* \"--CODEGEN--\":8:17   */\n      dup1\n        /* \"--CODEGEN--\":5:7   */\n      iszero\n      tag_26\n      jumpi\n        /* \"--CODEGEN--\":30:31   */\n      0x0\n        /* \"--CODEGEN--\":27:28   */\n      dup1\n        /* \"--CODEGEN--\":20:32   */\n      revert\n        /* \"--CODEGEN--\":5:7   */\n    tag_26:\n        /* \"DPay-proof-of-concept/contracts/coin_contracts/wbtc.sol\":10561:10596  bool public mintingFinished = false */\n      pop\n      tag_27\n      jump(tag_28)\n    tag_27:\n      mload(0x40)\n      dup1\n      dup3\n      iszero\n      iszero\n      iszero\n      iszero\n      dup2\n      mstore\n      0x20\n      add\n      swap2\n      pop\n      pop\n      mload(0x40)\n      dup1\n      swap2\n      sub\n      swap1\n      return\n        /* \"DPay-proof-of-concept/contracts/coin_contracts/wbtc.sol\":8212:8230  string public name */\n    tag_3:\n      callvalue\n        /* \"--CODEGEN--\":8:17   */\n      dup1\n        /* \"--CODEGEN--\":5:7   */\n      iszero\n      tag_29\n      jumpi\n        /* \"--CODEGEN--\":30:31   */\n      0x0\n        /* \"--CODEGEN--\":27:28   */\n      dup1\n        /* \"--CODEGEN--\":20:32   */\n      revert\n        /* \"--CODEGEN--\":5:7   */\n    tag_29:\n        /* \"DPay-proof-of-concept/contracts/coin_contracts/wbtc.sol\":8212:8230  string public name */\n      pop\n      tag_30\n      jump(tag_31)\n    tag_30:\n      mload(0x40)\n      dup1\n      dup1\n      0x20\n      add\n      dup3\n      dup2\n      sub\n      dup3\n      mstore\n      dup4\n      dup2\n      dup2\n      mload\n      dup2\n      mstore\n      0x20\n      add\n      swap2\n      pop\n      dup1\n      mload\n      swap1\n      0x20\n      add\n      swap1\n      dup1\n      dup4\n      dup4\n        /* \"--CODEGEN--\":23:24   */\n      0x0\n        /* \"--CODEGEN--\":8:108   */\n    tag_32:\n        /* \"--CODEGEN--\":33:36   */\n      dup4\n        /* \"--CODEGEN--\":30:31   */\n      dup2\n        /* \"--CODEGEN--\":27:37   */\n      lt\n        /* \"--CODEGEN--\":8:108   */\n      iszero\n      tag_33\n      jumpi\n        /* \"--CODEGEN--\":99:100   */\n      dup1\n        /* \"--CODEGEN--\":94:97   */\n      dup3\n        /* \"--CODEGEN--\":90:101   */\n      add\n        /* \"--CODEGEN--\":84:102   */\n      mload\n        /* \"--CODEGEN--\":80:81   */\n      dup2\n        /* \"--CODEGEN--\":75:78   */\n      dup5\n        /* \"--CODEGEN--\":71:82   */\n      add\n        /* \"--CODEGEN--\":64:103   */\n      mstore\n        /* \"--CODEGEN--\":52:54   */\n      0x20\n        /* \"--CODEGEN--\":49:50   */\n      dup2\n        /* \"--CODEGEN--\":45:55   */\n      add\n        /* \"--CODEGEN--\":40:55   */\n      swap1\n      pop\n        /* \"--CODEGEN--\":8:108   */\n      jump(tag_32)\n    tag_33:\n        /* \"--CODEGEN--\":12:26   */\n      pop\n        /* \"DPay-proof-of-concept/contracts/coin_contracts/wbtc.sol\":8212:8230  string public name */\n      pop\n      pop\n      pop\n      swap1\n      pop\n      swap1\n      dup2\n      add\n      swap1\n      0x1f\n      and\n      dup1\n      iszero\n      tag_35\n      jumpi\n      dup1\n      dup3\n      sub\n      dup1\n      mload\n      0x1\n      dup4\n      0x20\n      sub\n      0x100\n      exp\n      sub\n      not\n      and\n      dup2\n      mstore\n      0x20\n      add\n      swap2\n      pop\n    tag_35:\n      pop\n      swap3\n      pop\n      pop\n      pop\n      mload(0x40)\n      dup1\n      swap2\n      sub\n      swap1\n      return\n        /* \"DPay-proof-of-concept/contracts/coin_contracts/wbtc.sol\":13940:14102  function approve(... */\n    tag_4:\n      callvalue\n        /* \"--CODEGEN--\":8:17   */\n      dup1\n        /* \"--CODEGEN--\":5:7   */\n      iszero\n      tag_36\n      jumpi\n        /* \"--CODEGEN--\":30:31   */\n      0x0\n        /* \"--CODEGEN--\":27:28   */\n      dup1\n        /* \"--CODEGEN--\":20:32   */\n      revert\n        /* \"--CODEGEN--\":5:7   */\n    tag_36:\n        /* \"DPay-proof-of-concept/contracts/coin_contracts/wbtc.sol\":13940:14102  function approve(... */\n      pop\n      tag_37\n      0x4\n      dup1\n      calldatasize\n      sub\n      dup2\n      add\n      swap1\n      dup1\n      dup1\n      calldataload\n      0xffffffffffffffffffffffffffffffffffffffff\n      and\n      swap1\n      0x20\n      add\n      swap1\n      swap3\n      swap2\n      swap1\n      dup1\n      calldataload\n      swap1\n      0x20\n      add\n      swap1\n      swap3\n      swap2\n      swap1\n      pop\n      pop\n      pop\n      jump(tag_38)\n    tag_37:\n      mload(0x40)\n      dup1\n      dup3\n      iszero\n      iszero\n      iszero\n      iszero\n      dup2\n      mstore\n      0x20\n      add\n      swap2\n      pop\n      pop\n      mload(0x40)\n      dup1\n      swap2\n      sub\n      swap1\n      return\n        /* \"DPay-proof-of-concept/contracts/coin_contracts/wbtc.sol\":16866:17018  function reclaimToken(ERC20Basic _token) external onlyOwner {... */\n    tag_5:\n      callvalue\n        /* \"--CODEGEN--\":8:17   */\n      dup1\n        /* \"--CODEGEN--\":5:7   */\n      iszero\n      tag_39\n      jumpi\n        /* \"--CODEGEN--\":30:31   */\n      0x0\n        /* \"--CODEGEN--\":27:28   */\n      dup1\n        /* \"--CODEGEN--\":20:32   */\n      revert\n        /* \"--CODEGEN--\":5:7   */\n    tag_39:\n        /* \"DPay-proof-of-concept/contracts/coin_contracts/wbtc.sol\":16866:17018  function reclaimToken(ERC20Basic _token) external onlyOwner {... */\n      pop\n      tag_40\n      0x4\n      dup1\n      calldatasize\n      sub\n      dup2\n      add\n      swap1\n      dup1\n      dup1\n      calldataload\n      0xffffffffffffffffffffffffffffffffffffffff\n      and\n      swap1\n      0x20\n      add\n      swap1\n      swap3\n      swap2\n      swap1\n      pop\n      pop\n      pop\n      jump(tag_41)\n    tag_40:\n      stop\n        /* \"DPay-proof-of-concept/contracts/coin_contracts/wbtc.sol\":2349:2432  function totalSupply() public view returns (uint256) {... */\n    tag_6:\n      callvalue\n        /* \"--CODEGEN--\":8:17   */\n      dup1\n        /* \"--CODEGEN--\":5:7   */\n      iszero\n      tag_42\n      jumpi\n        /* \"--CODEGEN--\":30:31   */\n      0x0\n        /* \"--CODEGEN--\":27:28   */\n      dup1\n        /* \"--CODEGEN--\":20:32   */\n      revert\n        /* \"--CODEGEN--\":5:7   */\n    tag_42:\n        /* \"DPay-proof-of-concept/contracts/coin_contracts/wbtc.sol\":2349:2432  function totalSupply() public view returns (uint256) {... */\n      pop\n      tag_43\n      jump(tag_44)\n    tag_43:\n      mload(0x40)\n      dup1\n      dup3\n      dup2\n      mstore\n      0x20\n      add\n      swap2\n      pop\n      pop\n      mload(0x40)\n      dup1\n      swap2\n      sub\n      swap1\n      return\n        /* \"DPay-proof-of-concept/contracts/coin_contracts/wbtc.sol\":13748:13936  function transferFrom(... */\n    tag_7:\n      callvalue\n        /* \"--CODEGEN--\":8:17   */\n      dup1\n        /* \"--CODEGEN--\":5:7   */\n      iszero\n      tag_45\n      jumpi\n        /* \"--CODEGEN--\":30:31   */\n      0x0\n        /* \"--CODEGEN--\":27:28   */\n      dup1\n        /* \"--CODEGEN--\":20:32   */\n      revert\n        /* \"--CODEGEN--\":5:7   */\n    tag_45:\n        /* \"DPay-proof-of-concept/contracts/coin_contracts/wbtc.sol\":13748:13936  function transferFrom(... */\n      pop\n      tag_46\n      0x4\n      dup1\n      calldatasize\n      sub\n      dup2\n      add\n      swap1\n      dup1\n      dup1\n      calldataload\n      0xffffffffffffffffffffffffffffffffffffffff\n      and\n      swap1\n      0x20\n      add\n      swap1\n      swap3\n      swap2\n      swap1\n      dup1\n      calldataload\n      0xffffffffffffffffffffffffffffffffffffffff\n      and\n      swap1\n      0x20\n      add\n      swap1\n      swap3\n      swap2\n      swap1\n      dup1\n      calldataload\n      swap1\n      0x20\n      add\n      swap1\n      swap3\n      swap2\n      swap1\n      pop\n      pop\n      pop\n      jump(tag_47)\n    tag_46:\n      mload(0x40)\n      dup1\n      dup3\n      iszero\n      iszero\n      iszero\n      iszero\n      dup2\n      mstore\n      0x20\n      add\n      swap2\n      pop\n      pop\n      mload(0x40)\n      dup1\n      swap2\n      sub\n      swap1\n      return\n        /* \"DPay-proof-of-concept/contracts/coin_contracts/wbtc.sol\":8258:8279  uint8 public decimals */\n    tag_8:\n      callvalue\n        /* \"--CODEGEN--\":8:17   */\n      dup1\n        /* \"--CODEGEN--\":5:7   */\n      iszero\n      tag_48\n      jumpi\n        /* \"--CODEGEN--\":30:31   */\n      0x0\n        /* \"--CODEGEN--\":27:28   */\n      dup1\n        /* \"--CODEGEN--\":20:32   */\n      revert\n        /* \"--CODEGEN--\":5:7   */\n    tag_48:\n        /* \"DPay-proof-of-concept/contracts/coin_contracts/wbtc.sol\":8258:8279  uint8 public decimals */\n      pop\n      tag_49\n      jump(tag_50)\n    tag_49:\n      mload(0x40)\n      dup1\n      dup3\n      0xff\n      and\n      0xff\n      and\n      dup2\n      mstore\n      0x20\n      add\n      swap2\n      pop\n      pop\n      mload(0x40)\n      dup1\n      swap2\n      sub\n      swap1\n      return\n        /* \"DPay-proof-of-concept/contracts/coin_contracts/wbtc.sol\":13277:13369  function unpause() public onlyOwner whenPaused {... */\n    tag_9:\n      callvalue\n        /* \"--CODEGEN--\":8:17   */\n      dup1\n        /* \"--CODEGEN--\":5:7   */\n      iszero\n      tag_51\n      jumpi\n        /* \"--CODEGEN--\":30:31   */\n      0x0\n        /* \"--CODEGEN--\":27:28   */\n      dup1\n        /* \"--CODEGEN--\":20:32   */\n      revert\n        /* \"--CODEGEN--\":5:7   */\n    tag_51:\n        /* \"DPay-proof-of-concept/contracts/coin_contracts/wbtc.sol\":13277:13369  function unpause() public onlyOwner whenPaused {... */\n      pop\n      tag_52\n      jump(tag_53)\n    tag_52:\n      stop\n        /* \"DPay-proof-of-concept/contracts/coin_contracts/wbtc.sol\":10979:11291  function mint(... */\n    tag_10:\n      callvalue\n        /* \"--CODEGEN--\":8:17   */\n      dup1\n        /* \"--CODEGEN--\":5:7   */\n      iszero\n      tag_54\n      jumpi\n        /* \"--CODEGEN--\":30:31   */\n      0x0\n        /* \"--CODEGEN--\":27:28   */\n      dup1\n        /* \"--CODEGEN--\":20:32   */\n      revert\n        /* \"--CODEGEN--\":5:7   */\n    tag_54:\n        /* \"DPay-proof-of-concept/contracts/coin_contracts/wbtc.sol\":10979:11291  function mint(... */\n      pop\n      tag_55\n      0x4\n      dup1\n      calldatasize\n      sub\n      dup2\n      add\n      swap1\n      dup1\n      dup1\n      calldataload\n      0xffffffffffffffffffffffffffffffffffffffff\n      and\n      swap1\n      0x20\n      add\n      swap1\n      swap3\n      swap2\n      swap1\n      dup1\n      calldataload\n      swap1\n      0x20\n      add\n      swap1\n      swap3\n      swap2\n      swap1\n      pop\n      pop\n      pop\n      jump(tag_56)\n    tag_55:\n      mload(0x40)\n      dup1\n      dup3\n      iszero\n      iszero\n      iszero\n      iszero\n      dup2\n      mstore\n      0x20\n      add\n      swap2\n      pop\n      pop\n      mload(0x40)\n      dup1\n      swap2\n      sub\n      swap1\n      return\n        /* \"DPay-proof-of-concept/contracts/coin_contracts/wbtc.sol\":17414:17491  function burn(uint value) public onlyOwner {... */\n    tag_11:\n      callvalue\n        /* \"--CODEGEN--\":8:17   */\n      dup1\n        /* \"--CODEGEN--\":5:7   */\n      iszero\n      tag_57\n      jumpi\n        /* \"--CODEGEN--\":30:31   */\n      0x0\n        /* \"--CODEGEN--\":27:28   */\n      dup1\n        /* \"--CODEGEN--\":20:32   */\n      revert\n        /* \"--CODEGEN--\":5:7   */\n    tag_57:\n        /* \"DPay-proof-of-concept/contracts/coin_contracts/wbtc.sol\":17414:17491  function burn(uint value) public onlyOwner {... */\n      pop\n      tag_58\n      0x4\n      dup1\n      calldatasize\n      sub\n      dup2\n      add\n      swap1\n      dup1\n      dup1\n      calldataload\n      swap1\n      0x20\n      add\n      swap1\n      swap3\n      swap2\n      swap1\n      pop\n      pop\n      pop\n      jump(tag_59)\n    tag_58:\n      stop\n        /* \"DPay-proof-of-concept/contracts/coin_contracts/wbtc.sol\":15308:15472  function claimOwnership() public onlyPendingOwner {... */\n    tag_12:\n      callvalue\n        /* \"--CODEGEN--\":8:17   */\n      dup1\n        /* \"--CODEGEN--\":5:7   */\n      iszero\n      tag_60\n      jumpi\n        /* \"--CODEGEN--\":30:31   */\n      0x0\n        /* \"--CODEGEN--\":27:28   */\n      dup1\n        /* \"--CODEGEN--\":20:32   */\n      revert\n        /* \"--CODEGEN--\":5:7   */\n    tag_60:\n        /* \"DPay-proof-of-concept/contracts/coin_contracts/wbtc.sol\":15308:15472  function claimOwnership() public onlyPendingOwner {... */\n      pop\n      tag_61\n      jump(tag_62)\n    tag_61:\n      stop\n        /* \"DPay-proof-of-concept/contracts/coin_contracts/wbtc.sol\":12686:12712  bool public paused = false */\n    tag_13:\n      callvalue\n        /* \"--CODEGEN--\":8:17   */\n      dup1\n        /* \"--CODEGEN--\":5:7   */\n      iszero\n      tag_63\n      jumpi\n        /* \"--CODEGEN--\":30:31   */\n      0x0\n        /* \"--CODEGEN--\":27:28   */\n      dup1\n        /* \"--CODEGEN--\":20:32   */\n      revert\n        /* \"--CODEGEN--\":5:7   */\n    tag_63:\n        /* \"DPay-proof-of-concept/contracts/coin_contracts/wbtc.sol\":12686:12712  bool public paused = false */\n      pop\n      tag_64\n      jump(tag_65)\n    tag_64:\n      mload(0x40)\n      dup1\n      dup3\n      iszero\n      iszero\n      iszero\n      iszero\n      dup2\n      mstore\n      0x20\n      add\n      swap2\n      pop\n      pop\n      mload(0x40)\n      dup1\n      swap2\n      sub\n      swap1\n      return\n        /* \"DPay-proof-of-concept/contracts/coin_contracts/wbtc.sol\":14305:14510  function decreaseApproval(... */\n    tag_14:\n      callvalue\n        /* \"--CODEGEN--\":8:17   */\n      dup1\n        /* \"--CODEGEN--\":5:7   */\n      iszero\n      tag_66\n      jumpi\n        /* \"--CODEGEN--\":30:31   */\n      0x0\n        /* \"--CODEGEN--\":27:28   */\n      dup1\n        /* \"--CODEGEN--\":20:32   */\n      revert\n        /* \"--CODEGEN--\":5:7   */\n    tag_66:\n        /* \"DPay-proof-of-concept/contracts/coin_contracts/wbtc.sol\":14305:14510  function decreaseApproval(... */\n      pop\n      tag_67\n      0x4\n      dup1\n      calldatasize\n      sub\n      dup2\n      add\n      swap1\n      dup1\n      dup1\n      calldataload\n      0xffffffffffffffffffffffffffffffffffffffff\n      and\n      swap1\n      0x20\n      add\n      swap1\n      swap3\n      swap2\n      swap1\n      dup1\n      calldataload\n      swap1\n      0x20\n      add\n      swap1\n      swap3\n      swap2\n      swap1\n      pop\n      pop\n      pop\n      jump(tag_68)\n    tag_67:\n      mload(0x40)\n      dup1\n      dup3\n      iszero\n      iszero\n      iszero\n      iszero\n      dup2\n      mstore\n      0x20\n      add\n      swap2\n      pop\n      pop\n      mload(0x40)\n      dup1\n      swap2\n      sub\n      swap1\n      return\n        /* \"DPay-proof-of-concept/contracts/coin_contracts/wbtc.sol\":3109:3208  function balanceOf(address _owner) public view returns (uint256) {... */\n    tag_15:\n      callvalue\n        /* \"--CODEGEN--\":8:17   */\n      dup1\n        /* \"--CODEGEN--\":5:7   */\n      iszero\n      tag_69\n      jumpi\n        /* \"--CODEGEN--\":30:31   */\n      0x0\n        /* \"--CODEGEN--\":27:28   */\n      dup1\n        /* \"--CODEGEN--\":20:32   */\n      revert\n        /* \"--CODEGEN--\":5:7   */\n    tag_69:\n        /* \"DPay-proof-of-concept/contracts/coin_contracts/wbtc.sol\":3109:3208  function balanceOf(address _owner) public view returns (uint256) {... */\n      pop\n      tag_70\n      0x4\n      dup1\n      calldatasize\n      sub\n      dup2\n      add\n      swap1\n      dup1\n      dup1\n      calldataload\n      0xffffffffffffffffffffffffffffffffffffffff\n      and\n      swap1\n      0x20\n      add\n      swap1\n      swap3\n      swap2\n      swap1\n      pop\n      pop\n      pop\n      jump(tag_71)\n    tag_70:\n      mload(0x40)\n      dup1\n      dup3\n      dup2\n      mstore\n      0x20\n      add\n      swap2\n      pop\n      pop\n      mload(0x40)\n      dup1\n      swap2\n      sub\n      swap1\n      return\n        /* \"DPay-proof-of-concept/contracts/coin_contracts/wbtc.sol\":17589:17693  function renounceOwnership() public onlyOwner {... */\n    tag_16:\n      callvalue\n        /* \"--CODEGEN--\":8:17   */\n      dup1\n        /* \"--CODEGEN--\":5:7   */\n      iszero\n      tag_72\n      jumpi\n        /* \"--CODEGEN--\":30:31   */\n      0x0\n        /* \"--CODEGEN--\":27:28   */\n      dup1\n        /* \"--CODEGEN--\":20:32   */\n      revert\n        /* \"--CODEGEN--\":5:7   */\n    tag_72:\n        /* \"DPay-proof-of-concept/contracts/coin_contracts/wbtc.sol\":17589:17693  function renounceOwnership() public onlyOwner {... */\n      pop\n      tag_73\n      jump(tag_74)\n    tag_73:\n      stop\n        /* \"DPay-proof-of-concept/contracts/coin_contracts/wbtc.sol\":17497:17583  function finishMinting() public onlyOwner returns (bool) {... */\n    tag_17:\n      callvalue\n        /* \"--CODEGEN--\":8:17   */\n      dup1\n        /* \"--CODEGEN--\":5:7   */\n      iszero\n      tag_75\n      jumpi\n        /* \"--CODEGEN--\":30:31   */\n      0x0\n        /* \"--CODEGEN--\":27:28   */\n      dup1\n        /* \"--CODEGEN--\":20:32   */\n      revert\n        /* \"--CODEGEN--\":5:7   */\n    tag_75:\n        /* \"DPay-proof-of-concept/contracts/coin_contracts/wbtc.sol\":17497:17583  function finishMinting() public onlyOwner returns (bool) {... */\n      pop\n      tag_76\n      jump(tag_77)\n    tag_76:\n      mload(0x40)\n      dup1\n      dup3\n      iszero\n      iszero\n      iszero\n      iszero\n      dup2\n      mstore\n      0x20\n      add\n      swap2\n      pop\n      pop\n      mload(0x40)\n      dup1\n      swap2\n      sub\n      swap1\n      return\n        /* \"DPay-proof-of-concept/contracts/coin_contracts/wbtc.sol\":13105:13195  function pause() public onlyOwner whenNotPaused {... */\n    tag_18:\n      callvalue\n        /* \"--CODEGEN--\":8:17   */\n      dup1\n        /* \"--CODEGEN--\":5:7   */\n      iszero\n      tag_78\n      jumpi\n        /* \"--CODEGEN--\":30:31   */\n      0x0\n        /* \"--CODEGEN--\":27:28   */\n      dup1\n        /* \"--CODEGEN--\":20:32   */\n      revert\n        /* \"--CODEGEN--\":5:7   */\n    tag_78:\n        /* \"DPay-proof-of-concept/contracts/coin_contracts/wbtc.sol\":13105:13195  function pause() public onlyOwner whenNotPaused {... */\n      pop\n      tag_79\n      jump(tag_80)\n    tag_79:\n      stop\n        /* \"DPay-proof-of-concept/contracts/coin_contracts/wbtc.sol\":8700:8720  address public owner */\n    tag_19:\n      callvalue\n        /* \"--CODEGEN--\":8:17   */\n      dup1\n        /* \"--CODEGEN--\":5:7   */\n      iszero\n      tag_81\n      jumpi\n        /* \"--CODEGEN--\":30:31   */\n      0x0\n        /* \"--CODEGEN--\":27:28   */\n      dup1\n        /* \"--CODEGEN--\":20:32   */\n      revert\n        /* \"--CODEGEN--\":5:7   */\n    tag_81:\n        /* \"DPay-proof-of-concept/contracts/coin_contracts/wbtc.sol\":8700:8720  address public owner */\n      pop\n      tag_82\n      jump(tag_83)\n    tag_82:\n      mload(0x40)\n      dup1\n      dup3\n      0xffffffffffffffffffffffffffffffffffffffff\n      and\n      0xffffffffffffffffffffffffffffffffffffffff\n      and\n      dup2\n      mstore\n      0x20\n      add\n      swap2\n      pop\n      pop\n      mload(0x40)\n      dup1\n      swap2\n      sub\n      swap1\n      return\n        /* \"DPay-proof-of-concept/contracts/coin_contracts/wbtc.sol\":8234:8254  string public symbol */\n    tag_20:\n      callvalue\n        /* \"--CODEGEN--\":8:17   */\n      dup1\n        /* \"--CODEGEN--\":5:7   */\n      iszero\n      tag_84\n      jumpi\n        /* \"--CODEGEN--\":30:31   */\n      0x0\n        /* \"--CODEGEN--\":27:28   */\n      dup1\n        /* \"--CODEGEN--\":20:32   */\n      revert\n        /* \"--CODEGEN--\":5:7   */\n    tag_84:\n        /* \"DPay-proof-of-concept/contracts/coin_contracts/wbtc.sol\":8234:8254  string public symbol */\n      pop\n      tag_85\n      jump(tag_86)\n    tag_85:\n      mload(0x40)\n      dup1\n      dup1\n      0x20\n      add\n      dup3\n      dup2\n      sub\n      dup3\n      mstore\n      dup4\n      dup2\n      dup2\n      mload\n      dup2\n      mstore\n      0x20\n      add\n      swap2\n      pop\n      dup1\n      mload\n      swap1\n      0x20\n      add\n      swap1\n      dup1\n      dup4\n      dup4\n        /* \"--CODEGEN--\":23:24   */\n      0x0\n        /* \"--CODEGEN--\":8:108   */\n    tag_87:\n        /* \"--CODEGEN--\":33:36   */\n      dup4\n        /* \"--CODEGEN--\":30:31   */\n      dup2\n        /* \"--CODEGEN--\":27:37   */\n      lt\n        /* \"--CODEGEN--\":8:108   */\n      iszero\n      tag_88\n      jumpi\n        /* \"--CODEGEN--\":99:100   */\n      dup1\n        /* \"--CODEGEN--\":94:97   */\n      dup3\n        /* \"--CODEGEN--\":90:101   */\n      add\n        /* \"--CODEGEN--\":84:102   */\n      mload\n        /* \"--CODEGEN--\":80:81   */\n      dup2\n        /* \"--CODEGEN--\":75:78   */\n      dup5\n        /* \"--CODEGEN--\":71:82   */\n      add\n        /* \"--CODEGEN--\":64:103   */\n      mstore\n        /* \"--CODEGEN--\":52:54   */\n      0x20\n        /* \"--CODEGEN--\":49:50   */\n      dup2\n        /* \"--CODEGEN--\":45:55   */\n      add\n        /* \"--CODEGEN--\":40:55   */\n      swap1\n      pop\n        /* \"--CODEGEN--\":8:108   */\n      jump(tag_87)\n    tag_88:\n        /* \"--CODEGEN--\":12:26   */\n      pop\n        /* \"DPay-proof-of-concept/contracts/coin_contracts/wbtc.sol\":8234:8254  string public symbol */\n      pop\n      pop\n      pop\n      swap1\n      pop\n      swap1\n      dup2\n      add\n      swap1\n      0x1f\n      and\n      dup1\n      iszero\n      tag_90\n      jumpi\n      dup1\n      dup3\n      sub\n      dup1\n      mload\n      0x1\n      dup4\n      0x20\n      sub\n      0x100\n      exp\n      sub\n      not\n      and\n      dup2\n      mstore\n      0x20\n      add\n      swap2\n      pop\n    tag_90:\n      pop\n      swap3\n      pop\n      pop\n      pop\n      mload(0x40)\n      dup1\n      swap2\n      sub\n      swap1\n      return\n        /* \"DPay-proof-of-concept/contracts/coin_contracts/wbtc.sol\":13590:13744  function transfer(... */\n    tag_21:\n      callvalue\n        /* \"--CODEGEN--\":8:17   */\n      dup1\n        /* \"--CODEGEN--\":5:7   */\n      iszero\n      tag_91\n      jumpi\n        /* \"--CODEGEN--\":30:31   */\n      0x0\n        /* \"--CODEGEN--\":27:28   */\n      dup1\n        /* \"--CODEGEN--\":20:32   */\n      revert\n        /* \"--CODEGEN--\":5:7   */\n    tag_91:\n        /* \"DPay-proof-of-concept/contracts/coin_contracts/wbtc.sol\":13590:13744  function transfer(... */\n      pop\n      tag_92\n      0x4\n      dup1\n      calldatasize\n      sub\n      dup2\n      add\n      swap1\n      dup1\n      dup1\n      calldataload\n      0xffffffffffffffffffffffffffffffffffffffff\n      and\n      swap1\n      0x20\n      add\n      swap1\n      swap3\n      swap2\n      swap1\n      dup1\n      calldataload\n      swap1\n      0x20\n      add\n      swap1\n      swap3\n      swap2\n      swap1\n      pop\n      pop\n      pop\n      jump(tag_93)\n    tag_92:\n      mload(0x40)\n      dup1\n      dup3\n      iszero\n      iszero\n      iszero\n      iszero\n      dup2\n      mstore\n      0x20\n      add\n      swap2\n      pop\n      pop\n      mload(0x40)\n      dup1\n      swap2\n      sub\n      swap1\n      return\n        /* \"DPay-proof-of-concept/contracts/coin_contracts/wbtc.sol\":14106:14301  function increaseApproval(... */\n    tag_22:\n      callvalue\n        /* \"--CODEGEN--\":8:17   */\n      dup1\n        /* \"--CODEGEN--\":5:7   */\n      iszero\n      tag_94\n      jumpi\n        /* \"--CODEGEN--\":30:31   */\n      0x0\n        /* \"--CODEGEN--\":27:28   */\n      dup1\n        /* \"--CODEGEN--\":20:32   */\n      revert\n        /* \"--CODEGEN--\":5:7   */\n    tag_94:\n        /* \"DPay-proof-of-concept/contracts/coin_contracts/wbtc.sol\":14106:14301  function increaseApproval(... */\n      pop\n      tag_95\n      0x4\n      dup1\n      calldatasize\n      sub\n      dup2\n      add\n      swap1\n      dup1\n      dup1\n      calldataload\n      0xffffffffffffffffffffffffffffffffffffffff\n      and\n      swap1\n      0x20\n      add\n      swap1\n      swap3\n      swap2\n      swap1\n      dup1\n      calldataload\n      swap1\n      0x20\n      add\n      swap1\n      swap3\n      swap2\n      swap1\n      pop\n      pop\n      pop\n      jump(tag_96)\n    tag_95:\n      mload(0x40)\n      dup1\n      dup3\n      iszero\n      iszero\n      iszero\n      iszero\n      dup2\n      mstore\n      0x20\n      add\n      swap2\n      pop\n      pop\n      mload(0x40)\n      dup1\n      swap2\n      sub\n      swap1\n      return\n        /* \"DPay-proof-of-concept/contracts/coin_contracts/wbtc.sol\":6076:6229  function allowance(... */\n    tag_23:\n      callvalue\n        /* \"--CODEGEN--\":8:17   */\n      dup1\n        /* \"--CODEGEN--\":5:7   */\n      iszero\n      tag_97\n      jumpi\n        /* \"--CODEGEN--\":30:31   */\n      0x0\n        /* \"--CODEGEN--\":27:28   */\n      dup1\n        /* \"--CODEGEN--\":20:32   */\n      revert\n        /* \"--CODEGEN--\":5:7   */\n    tag_97:\n        /* \"DPay-proof-of-concept/contracts/coin_contracts/wbtc.sol\":6076:6229  function allowance(... */\n      pop\n      tag_98\n      0x4\n      dup1\n      calldatasize\n      sub\n      dup2\n      add\n      swap1\n      dup1\n      dup1\n      calldataload\n      0xffffffffffffffffffffffffffffffffffffffff\n      and\n      swap1\n      0x20\n      add\n      swap1\n      swap3\n      swap2\n      swap1\n      dup1\n      calldataload\n      0xffffffffffffffffffffffffffffffffffffffff\n      and\n      swap1\n      0x20\n      add\n      swap1\n      swap3\n      swap2\n      swap1\n      pop\n      pop\n      pop\n      jump(tag_99)\n    tag_98:\n      mload(0x40)\n      dup1\n      dup3\n      dup2\n      mstore\n      0x20\n      add\n      swap2\n      pop\n      pop\n      mload(0x40)\n      dup1\n      swap2\n      sub\n      swap1\n      return\n        /* \"DPay-proof-of-concept/contracts/coin_contracts/wbtc.sol\":14780:14807  address public pendingOwner */\n    tag_24:\n      callvalue\n        /* \"--CODEGEN--\":8:17   */\n      dup1\n        /* \"--CODEGEN--\":5:7   */\n      iszero\n      tag_100\n      jumpi\n        /* \"--CODEGEN--\":30:31   */\n      0x0\n        /* \"--CODEGEN--\":27:28   */\n      dup1\n        /* \"--CODEGEN--\":20:32   */\n      revert\n        /* \"--CODEGEN--\":5:7   */\n    tag_100:\n        /* \"DPay-proof-of-concept/contracts/coin_contracts/wbtc.sol\":14780:14807  address public pendingOwner */\n      pop\n      tag_101\n      jump(tag_102)\n    tag_101:\n      mload(0x40)\n      dup1\n      dup3\n      0xffffffffffffffffffffffffffffffffffffffff\n      and\n      0xffffffffffffffffffffffffffffffffffffffff\n      and\n      dup2\n      mstore\n      0x20\n      add\n      swap2\n      pop\n      pop\n      mload(0x40)\n      dup1\n      swap2\n      sub\n      swap1\n      return\n        /* \"DPay-proof-of-concept/contracts/coin_contracts/wbtc.sol\":15128:15224  function transferOwnership(address newOwner) public onlyOwner {... */\n    tag_25:\n      callvalue\n        /* \"--CODEGEN--\":8:17   */\n      dup1\n        /* \"--CODEGEN--\":5:7   */\n      iszero\n      tag_103\n      jumpi\n        /* \"--CODEGEN--\":30:31   */\n      0x0\n        /* \"--CODEGEN--\":27:28   */\n      dup1\n        /* \"--CODEGEN--\":20:32   */\n      revert\n        /* \"--CODEGEN--\":5:7   */\n    tag_103:\n        /* \"DPay-proof-of-concept/contracts/coin_contracts/wbtc.sol\":15128:15224  function transferOwnership(address newOwner) public onlyOwner {... */\n      pop\n      tag_104\n      0x4\n      dup1\n      calldatasize\n      sub\n      dup2\n      add\n      swap1\n      dup1\n      dup1\n      calldataload\n      0xffffffffffffffffffffffffffffffffffffffff\n      and\n      swap1\n      0x20\n      add\n      swap1\n      swap3\n      swap2\n      swap1\n      pop\n      pop\n      pop\n      jump(tag_105)\n    tag_104:\n      stop\n        /* \"DPay-proof-of-concept/contracts/coin_contracts/wbtc.sol\":10561:10596  bool public mintingFinished = false */\n    tag_28:\n      0x5\n      0x15\n      swap1\n      sload\n      swap1\n      0x100\n      exp\n      swap1\n      div\n      0xff\n      and\n      dup2\n      jump\t// out\n        /* \"DPay-proof-of-concept/contracts/coin_contracts/wbtc.sol\":8212:8230  string public name */\n    tag_31:\n      0x3\n      dup1\n      sload\n      0x1\n      dup2\n      0x1\n      and\n      iszero\n      0x100\n      mul\n      sub\n      and\n      0x2\n      swap1\n      div\n      dup1\n      0x1f\n      add\n      0x20\n      dup1\n      swap2\n      div\n      mul\n      0x20\n      add\n      mload(0x40)\n      swap1\n      dup2\n      add\n      0x40\n      mstore\n      dup1\n      swap3\n      swap2\n      swap1\n      dup2\n      dup2\n      mstore\n      0x20\n      add\n      dup3\n      dup1\n      sload\n      0x1\n      dup2\n      0x1\n      and\n      iszero\n      0x100\n      mul\n      sub\n      and\n      0x2\n      swap1\n      div\n      dup1\n      iszero\n      tag_106\n      jumpi\n      dup1\n      0x1f\n      lt\n      tag_107\n      jumpi\n      0x100\n      dup1\n      dup4\n      sload\n      div\n      mul\n      dup4\n      mstore\n      swap2\n      0x20\n      add\n      swap2\n      jump(tag_106)\n    tag_107:\n      dup3\n      add\n      swap2\n      swap1\n      0x0\n      mstore\n      keccak256(0x0, 0x20)\n      swap1\n    tag_108:\n      dup2\n      sload\n      dup2\n      mstore\n      swap1\n      0x1\n      add\n      swap1\n      0x20\n      add\n      dup1\n      dup4\n      gt\n      tag_108\n      jumpi\n      dup3\n      swap1\n      sub\n      0x1f\n      and\n      dup3\n      add\n      swap2\n    tag_106:\n      pop\n      pop\n      pop\n      pop\n      pop\n      dup2\n      jump\t// out\n        /* \"DPay-proof-of-concept/contracts/coin_contracts/wbtc.sol\":13940:14102  function approve(... */\n    tag_38:\n        /* \"DPay-proof-of-concept/contracts/coin_contracts/wbtc.sol\":14045:14049  bool */\n      0x0\n        /* \"DPay-proof-of-concept/contracts/coin_contracts/wbtc.sol\":12855:12861  paused */\n      0x5\n      0x16\n      swap1\n      sload\n      swap1\n      0x100\n      exp\n      swap1\n      div\n      0xff\n      and\n        /* \"DPay-proof-of-concept/contracts/coin_contracts/wbtc.sol\":12854:12861  !paused */\n      iszero\n        /* \"DPay-proof-of-concept/contracts/coin_contracts/wbtc.sol\":12846:12862  require(!paused) */\n      iszero\n      iszero\n      tag_110\n      jumpi\n      0x0\n      dup1\n      revert\n    tag_110:\n        /* \"DPay-proof-of-concept/contracts/coin_contracts/wbtc.sol\":14066:14097  super.approve(_spender, _value) */\n      tag_112\n        /* \"DPay-proof-of-concept/contracts/coin_contracts/wbtc.sol\":14080:14088  _spender */\n      dup4\n        /* \"DPay-proof-of-concept/contracts/coin_contracts/wbtc.sol\":14090:14096  _value */\n      dup4\n        /* \"DPay-proof-of-concept/contracts/coin_contracts/wbtc.sol\":14066:14079  super.approve */\n      tag_113\n        /* \"DPay-proof-of-concept/contracts/coin_contracts/wbtc.sol\":14066:14097  super.approve(_spender, _value) */\n      jump\t// in\n    tag_112:\n        /* \"DPay-proof-of-concept/contracts/coin_contracts/wbtc.sol\":14059:14097  return super.approve(_spender, _value) */\n      swap1\n      pop\n        /* \"DPay-proof-of-concept/contracts/coin_contracts/wbtc.sol\":13940:14102  function approve(... */\n      swap3\n      swap2\n      pop\n      pop\n      jump\t// out\n        /* \"DPay-proof-of-concept/contracts/coin_contracts/wbtc.sol\":16866:17018  function reclaimToken(ERC20Basic _token) external onlyOwner {... */\n    tag_41:\n        /* \"DPay-proof-of-concept/contracts/coin_contracts/wbtc.sol\":16932:16947  uint256 balance */\n      0x0\n        /* \"DPay-proof-of-concept/contracts/coin_contracts/wbtc.sol\":9181:9186  owner */\n      0x5\n      0x1\n      swap1\n      sload\n      swap1\n      0x100\n      exp\n      swap1\n      div\n      0xffffffffffffffffffffffffffffffffffffffff\n      and\n        /* \"DPay-proof-of-concept/contracts/coin_contracts/wbtc.sol\":9167:9186  msg.sender == owner */\n      0xffffffffffffffffffffffffffffffffffffffff\n      and\n        /* \"DPay-proof-of-concept/contracts/coin_contracts/wbtc.sol\":9167:9177  msg.sender */\n      caller\n        /* \"DPay-proof-of-concept/contracts/coin_contracts/wbtc.sol\":9167:9186  msg.sender == owner */\n      0xffffffffffffffffffffffffffffffffffffffff\n      and\n      eq\n        /* \"DPay-proof-of-concept/contracts/coin_contracts/wbtc.sol\":9159:9187  require(msg.sender == owner) */\n      iszero\n      iszero\n      tag_115\n      jumpi\n      0x0\n      dup1\n      revert\n    tag_115:\n        /* \"DPay-proof-of-concept/contracts/coin_contracts/wbtc.sol\":16950:16956  _token */\n      dup2\n        /* \"DPay-proof-of-concept/contracts/coin_contracts/wbtc.sol\":16950:16966  _token.balanceOf */\n      0xffffffffffffffffffffffffffffffffffffffff\n      and\n      0x70a08231\n        /* \"DPay-proof-of-concept/contracts/coin_contracts/wbtc.sol\":16967:16971  this */\n      address\n        /* \"DPay-proof-of-concept/contracts/coin_contracts/wbtc.sol\":16950:16972  _token.balanceOf(this) */\n      mload(0x40)\n      dup3\n      0xffffffff\n      and\n      0x100000000000000000000000000000000000000000000000000000000\n      mul\n      dup2\n      mstore\n      0x4\n      add\n      dup1\n      dup3\n      0xffffffffffffffffffffffffffffffffffffffff\n      and\n      0xffffffffffffffffffffffffffffffffffffffff\n      and\n      dup2\n      mstore\n      0x20\n      add\n      swap2\n      pop\n      pop\n      0x20\n      mload(0x40)\n      dup1\n      dup4\n      sub\n      dup2\n      0x0\n      dup8\n      dup1\n      extcodesize\n      iszero\n        /* \"--CODEGEN--\":8:17   */\n      dup1\n        /* \"--CODEGEN--\":5:7   */\n      iszero\n      tag_117\n      jumpi\n        /* \"--CODEGEN--\":30:31   */\n      0x0\n        /* \"--CODEGEN--\":27:28   */\n      dup1\n        /* \"--CODEGEN--\":20:32   */\n      revert\n        /* \"--CODEGEN--\":5:7   */\n    tag_117:\n        /* \"DPay-proof-of-concept/contracts/coin_contracts/wbtc.sol\":16950:16972  _token.balanceOf(this) */\n      pop\n      gas\n      call\n      iszero\n        /* \"--CODEGEN--\":8:17   */\n      dup1\n        /* \"--CODEGEN--\":5:7   */\n      iszero\n      tag_118\n      jumpi\n        /* \"--CODEGEN--\":45:61   */\n      returndatasize\n        /* \"--CODEGEN--\":42:43   */\n      0x0\n        /* \"--CODEGEN--\":39:40   */\n      dup1\n        /* \"--CODEGEN--\":24:62   */\n      returndatacopy\n        /* \"--CODEGEN--\":77:93   */\n      returndatasize\n        /* \"--CODEGEN--\":74:75   */\n      0x0\n        /* \"--CODEGEN--\":67:94   */\n      revert\n        /* \"--CODEGEN--\":5:7   */\n    tag_118:\n        /* \"DPay-proof-of-concept/contracts/coin_contracts/wbtc.sol\":16950:16972  _token.balanceOf(this) */\n      pop\n      pop\n      pop\n      pop\n      mload(0x40)\n      returndatasize\n        /* \"--CODEGEN--\":13:15   */\n      0x20\n        /* \"--CODEGEN--\":8:11   */\n      dup2\n        /* \"--CODEGEN--\":5:16   */\n      lt\n        /* \"--CODEGEN--\":2:4   */\n      iszero\n      tag_119\n      jumpi\n        /* \"--CODEGEN--\":29:30   */\n      0x0\n        /* \"--CODEGEN--\":26:27   */\n      dup1\n        /* \"--CODEGEN--\":19:31   */\n      revert\n        /* \"--CODEGEN--\":2:4   */\n    tag_119:\n        /* \"DPay-proof-of-concept/contracts/coin_contracts/wbtc.sol\":16950:16972  _token.balanceOf(this) */\n      dup2\n      add\n      swap1\n      dup1\n      dup1\n      mload\n      swap1\n      0x20\n      add\n      swap1\n      swap3\n      swap2\n      swap1\n      pop\n      pop\n      pop\n        /* \"DPay-proof-of-concept/contracts/coin_contracts/wbtc.sol\":16932:16972  uint256 balance = _token.balanceOf(this) */\n      swap1\n      pop\n        /* \"DPay-proof-of-concept/contracts/coin_contracts/wbtc.sol\":16978:17013  _token.safeTransfer(owner, balance) */\n      tag_120\n        /* \"DPay-proof-of-concept/contracts/coin_contracts/wbtc.sol\":16998:17003  owner */\n      0x5\n      0x1\n      swap1\n      sload\n      swap1\n      0x100\n      exp\n      swap1\n      div\n      0xffffffffffffffffffffffffffffffffffffffff\n      and\n        /* \"DPay-proof-of-concept/contracts/coin_contracts/wbtc.sol\":17005:17012  balance */\n      dup3\n        /* \"DPay-proof-of-concept/contracts/coin_contracts/wbtc.sol\":16978:16984  _token */\n      dup5\n        /* \"DPay-proof-of-concept/contracts/coin_contracts/wbtc.sol\":16978:16997  _token.safeTransfer */\n      0xffffffffffffffffffffffffffffffffffffffff\n      and\n      tag_121\n      swap1\n        /* \"DPay-proof-of-concept/contracts/coin_contracts/wbtc.sol\":16978:17013  _token.safeTransfer(owner, balance) */\n      swap3\n      swap2\n      swap1\n      0xffffffff\n      and\n      jump\t// in\n    tag_120:\n        /* \"DPay-proof-of-concept/contracts/coin_contracts/wbtc.sol\":16866:17018  function reclaimToken(ERC20Basic _token) external onlyOwner {... */\n      pop\n      pop\n      jump\t// out\n        /* \"DPay-proof-of-concept/contracts/coin_contracts/wbtc.sol\":2349:2432  function totalSupply() public view returns (uint256) {... */\n    tag_44:\n        /* \"DPay-proof-of-concept/contracts/coin_contracts/wbtc.sol\":2393:2400  uint256 */\n      0x0\n        /* \"DPay-proof-of-concept/contracts/coin_contracts/wbtc.sol\":2415:2427  totalSupply_ */\n      sload(0x1)\n        /* \"DPay-proof-of-concept/contracts/coin_contracts/wbtc.sol\":2408:2427  return totalSupply_ */\n      swap1\n      pop\n        /* \"DPay-proof-of-concept/contracts/coin_contracts/wbtc.sol\":2349:2432  function totalSupply() public view returns (uint256) {... */\n      swap1\n      jump\t// out\n        /* \"DPay-proof-of-concept/contracts/coin_contracts/wbtc.sol\":13748:13936  function transferFrom(... */\n    tag_47:\n        /* \"DPay-proof-of-concept/contracts/coin_contracts/wbtc.sol\":13872:13876  bool */\n      0x0\n        /* \"DPay-proof-of-concept/contracts/coin_contracts/wbtc.sol\":12855:12861  paused */\n      0x5\n      0x16\n      swap1\n      sload\n      swap1\n      0x100\n      exp\n      swap1\n      div\n      0xff\n      and\n        /* \"DPay-proof-of-concept/contracts/coin_contracts/wbtc.sol\":12854:12861  !paused */\n      iszero\n        /* \"DPay-proof-of-concept/contracts/coin_contracts/wbtc.sol\":12846:12862  require(!paused) */\n      iszero\n      iszero\n      tag_124\n      jumpi\n      0x0\n      dup1\n      revert\n    tag_124:\n        /* \"DPay-proof-of-concept/contracts/coin_contracts/wbtc.sol\":13893:13931  super.transferFrom(_from, _to, _value) */\n      tag_126\n        /* \"DPay-proof-of-concept/contracts/coin_contracts/wbtc.sol\":13912:13917  _from */\n      dup5\n        /* \"DPay-proof-of-concept/contracts/coin_contracts/wbtc.sol\":13919:13922  _to */\n      dup5\n        /* \"DPay-proof-of-concept/contracts/coin_contracts/wbtc.sol\":13924:13930  _value */\n      dup5\n        /* \"DPay-proof-of-concept/contracts/coin_contracts/wbtc.sol\":13893:13911  super.transferFrom */\n      tag_127\n        /* \"DPay-proof-of-concept/contracts/coin_contracts/wbtc.sol\":13893:13931  super.transferFrom(_from, _to, _value) */\n      jump\t// in\n    tag_126:\n        /* \"DPay-proof-of-concept/contracts/coin_contracts/wbtc.sol\":13886:13931  return super.transferFrom(_from, _to, _value) */\n      swap1\n      pop\n        /* \"DPay-proof-of-concept/contracts/coin_contracts/wbtc.sol\":13748:13936  function transferFrom(... */\n      swap4\n      swap3\n      pop\n      pop\n      pop\n      jump\t// out\n        /* \"DPay-proof-of-concept/contracts/coin_contracts/wbtc.sol\":8258:8279  uint8 public decimals */\n    tag_50:\n      0x5\n      0x0\n      swap1\n      sload\n      swap1\n      0x100\n      exp\n      swap1\n      div\n      0xff\n      and\n      dup2\n      jump\t// out\n        /* \"DPay-proof-of-concept/contracts/coin_contracts/wbtc.sol\":13277:13369  function unpause() public onlyOwner whenPaused {... */\n    tag_53:\n        /* \"DPay-proof-of-concept/contracts/coin_contracts/wbtc.sol\":9181:9186  owner */\n      0x5\n      0x1\n      swap1\n      sload\n      swap1\n      0x100\n      exp\n      swap1\n      div\n      0xffffffffffffffffffffffffffffffffffffffff\n      and\n        /* \"DPay-proof-of-concept/contracts/coin_contracts/wbtc.sol\":9167:9186  msg.sender == owner */\n      0xffffffffffffffffffffffffffffffffffffffff\n      and\n        /* \"DPay-proof-of-concept/contracts/coin_contracts/wbtc.sol\":9167:9177  msg.sender */\n      caller\n        /* \"DPay-proof-of-concept/contracts/coin_contracts/wbtc.sol\":9167:9186  msg.sender == owner */\n      0xffffffffffffffffffffffffffffffffffffffff\n      and\n      eq\n        /* \"DPay-proof-of-concept/contracts/coin_contracts/wbtc.sol\":9159:9187  require(msg.sender == owner) */\n      iszero\n      iszero\n      tag_129\n      jumpi\n      0x0\n      dup1\n      revert\n    tag_129:\n        /* \"DPay-proof-of-concept/contracts/coin_contracts/wbtc.sol\":13007:13013  paused */\n      0x5\n      0x16\n      swap1\n      sload\n      swap1\n      0x100\n      exp\n      swap1\n      div\n      0xff\n      and\n        /* \"DPay-proof-of-concept/contracts/coin_contracts/wbtc.sol\":12999:13014  require(paused) */\n      iszero\n      iszero\n      tag_131\n      jumpi\n      0x0\n      dup1\n      revert\n    tag_131:\n        /* \"DPay-proof-of-concept/contracts/coin_contracts/wbtc.sol\":13339:13344  false */\n      0x0\n        /* \"DPay-proof-of-concept/contracts/coin_contracts/wbtc.sol\":13330:13336  paused */\n      0x5\n      0x16\n        /* \"DPay-proof-of-concept/contracts/coin_contracts/wbtc.sol\":13330:13344  paused = false */\n      0x100\n      exp\n      dup2\n      sload\n      dup2\n      0xff\n      mul\n      not\n      and\n      swap1\n      dup4\n      iszero\n      iszero\n      mul\n      or\n      swap1\n      sstore\n      pop\n        /* \"DPay-proof-of-concept/contracts/coin_contracts/wbtc.sol\":13355:13364  Unpause() */\n      0x7805862f689e2f13df9f062ff482ad3ad112aca9e0847911ed832e158c525b33\n      mload(0x40)\n      mload(0x40)\n      dup1\n      swap2\n      sub\n      swap1\n      log1\n        /* \"DPay-proof-of-concept/contracts/coin_contracts/wbtc.sol\":13277:13369  function unpause() public onlyOwner whenPaused {... */\n      jump\t// out\n        /* \"DPay-proof-of-concept/contracts/coin_contracts/wbtc.sol\":10979:11291  function mint(... */\n    tag_56:\n        /* \"DPay-proof-of-concept/contracts/coin_contracts/wbtc.sol\":11093:11097  bool */\n      0x0\n        /* \"DPay-proof-of-concept/contracts/coin_contracts/wbtc.sol\":10725:10730  owner */\n      0x5\n      0x1\n      swap1\n      sload\n      swap1\n      0x100\n      exp\n      swap1\n      div\n      0xffffffffffffffffffffffffffffffffffffffff\n      and\n        /* \"DPay-proof-of-concept/contracts/coin_contracts/wbtc.sol\":10711:10730  msg.sender == owner */\n      0xffffffffffffffffffffffffffffffffffffffff\n      and\n        /* \"DPay-proof-of-concept/contracts/coin_contracts/wbtc.sol\":10711:10721  msg.sender */\n      caller\n        /* \"DPay-proof-of-concept/contracts/coin_contracts/wbtc.sol\":10711:10730  msg.sender == owner */\n      0xffffffffffffffffffffffffffffffffffffffff\n      and\n      eq\n        /* \"DPay-proof-of-concept/contracts/coin_contracts/wbtc.sol\":10703:10731  require(msg.sender == owner) */\n      iszero\n      iszero\n      tag_134\n      jumpi\n      0x0\n      dup1\n      revert\n    tag_134:\n        /* \"DPay-proof-of-concept/contracts/coin_contracts/wbtc.sol\":10636:10651  mintingFinished */\n      0x5\n      0x15\n      swap1\n      sload\n      swap1\n      0x100\n      exp\n      swap1\n      div\n      0xff\n      and\n        /* \"DPay-proof-of-concept/contracts/coin_contracts/wbtc.sol\":10635:10651  !mintingFinished */\n      iszero\n        /* \"DPay-proof-of-concept/contracts/coin_contracts/wbtc.sol\":10627:10652  require(!mintingFinished) */\n      iszero\n      iszero\n      tag_136\n      jumpi\n      0x0\n      dup1\n      revert\n    tag_136:\n        /* \"DPay-proof-of-concept/contracts/coin_contracts/wbtc.sol\":11122:11147  totalSupply_.add(_amount) */\n      tag_138\n        /* \"DPay-proof-of-concept/contracts/coin_contracts/wbtc.sol\":11139:11146  _amount */\n      dup3\n        /* \"DPay-proof-of-concept/contracts/coin_contracts/wbtc.sol\":11122:11134  totalSupply_ */\n      sload(0x1)\n        /* \"DPay-proof-of-concept/contracts/coin_contracts/wbtc.sol\":11122:11138  totalSupply_.add */\n      tag_139\n      swap1\n        /* \"DPay-proof-of-concept/contracts/coin_contracts/wbtc.sol\":11122:11147  totalSupply_.add(_amount) */\n      swap2\n      swap1\n      0xffffffff\n      and\n      jump\t// in\n    tag_138:\n        /* \"DPay-proof-of-concept/contracts/coin_contracts/wbtc.sol\":11107:11119  totalSupply_ */\n      0x1\n        /* \"DPay-proof-of-concept/contracts/coin_contracts/wbtc.sol\":11107:11147  totalSupply_ = totalSupply_.add(_amount) */\n      dup2\n      swap1\n      sstore\n      pop\n        /* \"DPay-proof-of-concept/contracts/coin_contracts/wbtc.sol\":11169:11195  balances[_to].add(_amount) */\n      tag_140\n        /* \"DPay-proof-of-concept/contracts/coin_contracts/wbtc.sol\":11187:11194  _amount */\n      dup3\n        /* \"DPay-proof-of-concept/contracts/coin_contracts/wbtc.sol\":11169:11177  balances */\n      0x0\n        /* \"DPay-proof-of-concept/contracts/coin_contracts/wbtc.sol\":11169:11182  balances[_to] */\n      dup1\n        /* \"DPay-proof-of-concept/contracts/coin_contracts/wbtc.sol\":11178:11181  _to */\n      dup7\n        /* \"DPay-proof-of-concept/contracts/coin_contracts/wbtc.sol\":11169:11182  balances[_to] */\n      0xffffffffffffffffffffffffffffffffffffffff\n      and\n      0xffffffffffffffffffffffffffffffffffffffff\n      and\n      dup2\n      mstore\n      0x20\n      add\n      swap1\n      dup2\n      mstore\n      0x20\n      add\n      0x0\n      keccak256\n      sload\n        /* \"DPay-proof-of-concept/contracts/coin_contracts/wbtc.sol\":11169:11186  balances[_to].add */\n      tag_139\n      swap1\n        /* \"DPay-proof-of-concept/contracts/coin_contracts/wbtc.sol\":11169:11195  balances[_to].add(_amount) */\n      swap2\n      swap1\n      0xffffffff\n      and\n      jump\t// in\n    tag_140:\n        /* \"DPay-proof-of-concept/contracts/coin_contracts/wbtc.sol\":11153:11161  balances */\n      0x0\n        /* \"DPay-proof-of-concept/contracts/coin_contracts/wbtc.sol\":11153:11166  balances[_to] */\n      dup1\n        /* \"DPay-proof-of-concept/contracts/coin_contracts/wbtc.sol\":11162:11165  _to */\n      dup6\n        /* \"DPay-proof-of-concept/contracts/coin_contracts/wbtc.sol\":11153:11166  balances[_to] */\n      0xffffffffffffffffffffffffffffffffffffffff\n      and\n      0xffffffffffffffffffffffffffffffffffffffff\n      and\n      dup2\n      mstore\n      0x20\n      add\n      swap1\n      dup2\n      mstore\n      0x20\n      add\n      0x0\n      keccak256\n        /* \"DPay-proof-of-concept/contracts/coin_contracts/wbtc.sol\":11153:11195  balances[_to] = balances[_to].add(_amount) */\n      dup2\n      swap1\n      sstore\n      pop\n        /* \"DPay-proof-of-concept/contracts/coin_contracts/wbtc.sol\":11211:11214  _to */\n      dup3\n        /* \"DPay-proof-of-concept/contracts/coin_contracts/wbtc.sol\":11206:11224  Mint(_to, _amount) */\n      0xffffffffffffffffffffffffffffffffffffffff\n      and\n      0xf6798a560793a54c3bcfe86a93cde1e73087d944c0ea20544137d4121396885\n        /* \"DPay-proof-of-concept/contracts/coin_contracts/wbtc.sol\":11216:11223  _amount */\n      dup4\n        /* \"DPay-proof-of-concept/contracts/coin_contracts/wbtc.sol\":11206:11224  Mint(_to, _amount) */\n      mload(0x40)\n      dup1\n      dup3\n      dup2\n      mstore\n      0x20\n      add\n      swap2\n      pop\n      pop\n      mload(0x40)\n      dup1\n      swap2\n      sub\n      swap1\n      log2\n        /* \"DPay-proof-of-concept/contracts/coin_contracts/wbtc.sol\":11256:11259  _to */\n      dup3\n        /* \"DPay-proof-of-concept/contracts/coin_contracts/wbtc.sol\":11235:11269  Transfer(address(0), _to, _amount) */\n      0xffffffffffffffffffffffffffffffffffffffff\n      and\n        /* \"DPay-proof-of-concept/contracts/coin_contracts/wbtc.sol\":11252:11253  0 */\n      0x0\n        /* \"DPay-proof-of-concept/contracts/coin_contracts/wbtc.sol\":11235:11269  Transfer(address(0), _to, _amount) */\n      0xffffffffffffffffffffffffffffffffffffffff\n      and\n      0xddf252ad1be2c89b69c2b068fc378daa952ba7f163c4a11628f55a4df523b3ef\n        /* \"DPay-proof-of-concept/contracts/coin_contracts/wbtc.sol\":11261:11268  _amount */\n      dup5\n        /* \"DPay-proof-of-concept/contracts/coin_contracts/wbtc.sol\":11235:11269  Transfer(address(0), _to, _amount) */\n      mload(0x40)\n      dup1\n      dup3\n      dup2\n      mstore\n      0x20\n      add\n      swap2\n      pop\n      pop\n      mload(0x40)\n      dup1\n      swap2\n      sub\n      swap1\n      log3\n        /* \"DPay-proof-of-concept/contracts/coin_contracts/wbtc.sol\":11282:11286  true */\n      0x1\n        /* \"DPay-proof-of-concept/contracts/coin_contracts/wbtc.sol\":11275:11286  return true */\n      swap1\n      pop\n        /* \"DPay-proof-of-concept/contracts/coin_contracts/wbtc.sol\":10979:11291  function mint(... */\n      swap3\n      swap2\n      pop\n      pop\n      jump\t// out\n        /* \"DPay-proof-of-concept/contracts/coin_contracts/wbtc.sol\":17414:17491  function burn(uint value) public onlyOwner {... */\n    tag_59:\n        /* \"DPay-proof-of-concept/contracts/coin_contracts/wbtc.sol\":9181:9186  owner */\n      0x5\n      0x1\n      swap1\n      sload\n      swap1\n      0x100\n      exp\n      swap1\n      div\n      0xffffffffffffffffffffffffffffffffffffffff\n      and\n        /* \"DPay-proof-of-concept/contracts/coin_contracts/wbtc.sol\":9167:9186  msg.sender == owner */\n      0xffffffffffffffffffffffffffffffffffffffff\n      and\n        /* \"DPay-proof-of-concept/contracts/coin_contracts/wbtc.sol\":9167:9177  msg.sender */\n      caller\n        /* \"DPay-proof-of-concept/contracts/coin_contracts/wbtc.sol\":9167:9186  msg.sender == owner */\n      0xffffffffffffffffffffffffffffffffffffffff\n      and\n      eq\n        /* \"DPay-proof-of-concept/contracts/coin_contracts/wbtc.sol\":9159:9187  require(msg.sender == owner) */\n      iszero\n      iszero\n      tag_142\n      jumpi\n      0x0\n      dup1\n      revert\n    tag_142:\n        /* \"DPay-proof-of-concept/contracts/coin_contracts/wbtc.sol\":17467:17484  super.burn(value) */\n      tag_144\n        /* \"DPay-proof-of-concept/contracts/coin_contracts/wbtc.sol\":17478:17483  value */\n      dup2\n        /* \"DPay-proof-of-concept/contracts/coin_contracts/wbtc.sol\":17467:17477  super.burn */\n      tag_145\n        /* \"DPay-proof-of-concept/contracts/coin_contracts/wbtc.sol\":17467:17484  super.burn(value) */\n      jump\t// in\n    tag_144:\n        /* \"DPay-proof-of-concept/contracts/coin_contracts/wbtc.sol\":17414:17491  function burn(uint value) public onlyOwner {... */\n      pop\n      jump\t// out\n        /* \"DPay-proof-of-concept/contracts/coin_contracts/wbtc.sol\":15308:15472  function claimOwnership() public onlyPendingOwner {... */\n    tag_62:\n        /* \"DPay-proof-of-concept/contracts/coin_contracts/wbtc.sol\":14960:14972  pendingOwner */\n      0x6\n      0x0\n      swap1\n      sload\n      swap1\n      0x100\n      exp\n      swap1\n      div\n      0xffffffffffffffffffffffffffffffffffffffff\n      and\n        /* \"DPay-proof-of-concept/contracts/coin_contracts/wbtc.sol\":14946:14972  msg.sender == pendingOwner */\n      0xffffffffffffffffffffffffffffffffffffffff\n      and\n        /* \"DPay-proof-of-concept/contracts/coin_contracts/wbtc.sol\":14946:14956  msg.sender */\n      caller\n        /* \"DPay-proof-of-concept/contracts/coin_contracts/wbtc.sol\":14946:14972  msg.sender == pendingOwner */\n      0xffffffffffffffffffffffffffffffffffffffff\n      and\n      eq\n        /* \"DPay-proof-of-concept/contracts/coin_contracts/wbtc.sol\":14938:14973  require(msg.sender == pendingOwner) */\n      iszero\n      iszero\n      tag_147\n      jumpi\n      0x0\n      dup1\n      revert\n    tag_147:\n        /* \"DPay-proof-of-concept/contracts/coin_contracts/wbtc.sol\":15397:15409  pendingOwner */\n      0x6\n      0x0\n      swap1\n      sload\n      swap1\n      0x100\n      exp\n      swap1\n      div\n      0xffffffffffffffffffffffffffffffffffffffff\n      and\n        /* \"DPay-proof-of-concept/contracts/coin_contracts/wbtc.sol\":15369:15410  OwnershipTransferred(owner, pendingOwner) */\n      0xffffffffffffffffffffffffffffffffffffffff\n      and\n        /* \"DPay-proof-of-concept/contracts/coin_contracts/wbtc.sol\":15390:15395  owner */\n      0x5\n      0x1\n      swap1\n      sload\n      swap1\n      0x100\n      exp\n      swap1\n      div\n      0xffffffffffffffffffffffffffffffffffffffff\n      and\n        /* \"DPay-proof-of-concept/contracts/coin_contracts/wbtc.sol\":15369:15410  OwnershipTransferred(owner, pendingOwner) */\n      0xffffffffffffffffffffffffffffffffffffffff\n      and\n      0x8be0079c531659141344cd1fd0a4f28419497f9722a3daafe3b4186f6b6457e0\n      mload(0x40)\n      mload(0x40)\n      dup1\n      swap2\n      sub\n      swap1\n      log3\n        /* \"DPay-proof-of-concept/contracts/coin_contracts/wbtc.sol\":15424:15436  pendingOwner */\n      0x6\n      0x0\n      swap1\n      sload\n      swap1\n      0x100\n      exp\n      swap1\n      div\n      0xffffffffffffffffffffffffffffffffffffffff\n      and\n        /* \"DPay-proof-of-concept/contracts/coin_contracts/wbtc.sol\":15416:15421  owner */\n      0x5\n      0x1\n        /* \"DPay-proof-of-concept/contracts/coin_contracts/wbtc.sol\":15416:15436  owner = pendingOwner */\n      0x100\n      exp\n      dup2\n      sload\n      dup2\n      0xffffffffffffffffffffffffffffffffffffffff\n      mul\n      not\n      and\n      swap1\n      dup4\n      0xffffffffffffffffffffffffffffffffffffffff\n      and\n      mul\n      or\n      swap1\n      sstore\n      pop\n        /* \"DPay-proof-of-concept/contracts/coin_contracts/wbtc.sol\":15465:15466  0 */\n      0x0\n        /* \"DPay-proof-of-concept/contracts/coin_contracts/wbtc.sol\":15442:15454  pendingOwner */\n      0x6\n      0x0\n        /* \"DPay-proof-of-concept/contracts/coin_contracts/wbtc.sol\":15442:15467  pendingOwner = address(0) */\n      0x100\n      exp\n      dup2\n      sload\n      dup2\n      0xffffffffffffffffffffffffffffffffffffffff\n      mul\n      not\n      and\n      swap1\n      dup4\n      0xffffffffffffffffffffffffffffffffffffffff\n      and\n      mul\n      or\n      swap1\n      sstore\n      pop\n        /* \"DPay-proof-of-concept/contracts/coin_contracts/wbtc.sol\":15308:15472  function claimOwnership() public onlyPendingOwner {... */\n      jump\t// out\n        /* \"DPay-proof-of-concept/contracts/coin_contracts/wbtc.sol\":12686:12712  bool public paused = false */\n    tag_65:\n      0x5\n      0x16\n      swap1\n      sload\n      swap1\n      0x100\n      exp\n      swap1\n      div\n      0xff\n      and\n      dup2\n      jump\t// out\n        /* \"DPay-proof-of-concept/contracts/coin_contracts/wbtc.sol\":14305:14510  function decreaseApproval(... */\n    tag_68:\n        /* \"DPay-proof-of-concept/contracts/coin_contracts/wbtc.sol\":14426:14438  bool success */\n      0x0\n        /* \"DPay-proof-of-concept/contracts/coin_contracts/wbtc.sol\":12855:12861  paused */\n      0x5\n      0x16\n      swap1\n      sload\n      swap1\n      0x100\n      exp\n      swap1\n      div\n      0xff\n      and\n        /* \"DPay-proof-of-concept/contracts/coin_contracts/wbtc.sol\":12854:12861  !paused */\n      iszero\n        /* \"DPay-proof-of-concept/contracts/coin_contracts/wbtc.sol\":12846:12862  require(!paused) */\n      iszero\n      iszero\n      tag_150\n      jumpi\n      0x0\n      dup1\n      revert\n    tag_150:\n        /* \"DPay-proof-of-concept/contracts/coin_contracts/wbtc.sol\":14455:14505  super.decreaseApproval(_spender, _subtractedValue) */\n      tag_152\n        /* \"DPay-proof-of-concept/contracts/coin_contracts/wbtc.sol\":14478:14486  _spender */\n      dup4\n        /* \"DPay-proof-of-concept/contracts/coin_contracts/wbtc.sol\":14488:14504  _subtractedValue */\n      dup4\n        /* \"DPay-proof-of-concept/contracts/coin_contracts/wbtc.sol\":14455:14477  super.decreaseApproval */\n      tag_153\n        /* \"DPay-proof-of-concept/contracts/coin_contracts/wbtc.sol\":14455:14505  super.decreaseApproval(_spender, _subtractedValue) */\n      jump\t// in\n    tag_152:\n        /* \"DPay-proof-of-concept/contracts/coin_contracts/wbtc.sol\":14448:14505  return super.decreaseApproval(_spender, _subtractedValue) */\n      swap1\n      pop\n        /* \"DPay-proof-of-concept/contracts/coin_contracts/wbtc.sol\":14305:14510  function decreaseApproval(... */\n      swap3\n      swap2\n      pop\n      pop\n      jump\t// out\n        /* \"DPay-proof-of-concept/contracts/coin_contracts/wbtc.sol\":3109:3208  function balanceOf(address _owner) public view returns (uint256) {... */\n    tag_71:\n        /* \"DPay-proof-of-concept/contracts/coin_contracts/wbtc.sol\":3165:3172  uint256 */\n      0x0\n        /* \"DPay-proof-of-concept/contracts/coin_contracts/wbtc.sol\":3187:3195  balances */\n      dup1\n        /* \"DPay-proof-of-concept/contracts/coin_contracts/wbtc.sol\":3187:3203  balances[_owner] */\n      0x0\n        /* \"DPay-proof-of-concept/contracts/coin_contracts/wbtc.sol\":3196:3202  _owner */\n      dup4\n        /* \"DPay-proof-of-concept/contracts/coin_contracts/wbtc.sol\":3187:3203  balances[_owner] */\n      0xffffffffffffffffffffffffffffffffffffffff\n      and\n      0xffffffffffffffffffffffffffffffffffffffff\n      and\n      dup2\n      mstore\n      0x20\n      add\n      swap1\n      dup2\n      mstore\n      0x20\n      add\n      0x0\n      keccak256\n      sload\n        /* \"DPay-proof-of-concept/contracts/coin_contracts/wbtc.sol\":3180:3203  return balances[_owner] */\n      swap1\n      pop\n        /* \"DPay-proof-of-concept/contracts/coin_contracts/wbtc.sol\":3109:3208  function balanceOf(address _owner) public view returns (uint256) {... */\n      swap2\n      swap1\n      pop\n      jump\t// out\n        /* \"DPay-proof-of-concept/contracts/coin_contracts/wbtc.sol\":17589:17693  function renounceOwnership() public onlyOwner {... */\n    tag_74:\n        /* \"DPay-proof-of-concept/contracts/coin_contracts/wbtc.sol\":9181:9186  owner */\n      0x5\n      0x1\n      swap1\n      sload\n      swap1\n      0x100\n      exp\n      swap1\n      div\n      0xffffffffffffffffffffffffffffffffffffffff\n      and\n        /* \"DPay-proof-of-concept/contracts/coin_contracts/wbtc.sol\":9167:9186  msg.sender == owner */\n      0xffffffffffffffffffffffffffffffffffffffff\n      and\n        /* \"DPay-proof-of-concept/contracts/coin_contracts/wbtc.sol\":9167:9177  msg.sender */\n      caller\n        /* \"DPay-proof-of-concept/contracts/coin_contracts/wbtc.sol\":9167:9186  msg.sender == owner */\n      0xffffffffffffffffffffffffffffffffffffffff\n      and\n      eq\n        /* \"DPay-proof-of-concept/contracts/coin_contracts/wbtc.sol\":9159:9187  require(msg.sender == owner) */\n      iszero\n      iszero\n      tag_156\n      jumpi\n      0x0\n      dup1\n      revert\n    tag_156:\n        /* \"DPay-proof-of-concept/contracts/coin_contracts/wbtc.sol\":17645:17686  revert(\"renouncing ownership is blocked\") */\n      mload(0x40)\n      0x8c379a000000000000000000000000000000000000000000000000000000000\n      dup2\n      mstore\n      0x4\n      add\n      dup1\n      dup1\n      0x20\n      add\n      dup3\n      dup2\n      sub\n      dup3\n      mstore\n      0x1f\n      dup2\n      mstore\n      0x20\n      add\n      dup1\n      0x72656e6f756e63696e67206f776e65727368697020697320626c6f636b656400\n      dup2\n      mstore\n      pop\n      0x20\n      add\n      swap2\n      pop\n      pop\n      mload(0x40)\n      dup1\n      swap2\n      sub\n      swap1\n      revert\n        /* \"DPay-proof-of-concept/contracts/coin_contracts/wbtc.sol\":17497:17583  function finishMinting() public onlyOwner returns (bool) {... */\n    tag_77:\n        /* \"DPay-proof-of-concept/contracts/coin_contracts/wbtc.sol\":17548:17552  bool */\n      0x0\n        /* \"DPay-proof-of-concept/contracts/coin_contracts/wbtc.sol\":9181:9186  owner */\n      0x5\n      0x1\n      swap1\n      sload\n      swap1\n      0x100\n      exp\n      swap1\n      div\n      0xffffffffffffffffffffffffffffffffffffffff\n      and\n        /* \"DPay-proof-of-concept/contracts/coin_contracts/wbtc.sol\":9167:9186  msg.sender == owner */\n      0xffffffffffffffffffffffffffffffffffffffff\n      and\n        /* \"DPay-proof-of-concept/contracts/coin_contracts/wbtc.sol\":9167:9177  msg.sender */\n      caller\n        /* \"DPay-proof-of-concept/contracts/coin_contracts/wbtc.sol\":9167:9186  msg.sender == owner */\n      0xffffffffffffffffffffffffffffffffffffffff\n      and\n      eq\n        /* \"DPay-proof-of-concept/contracts/coin_contracts/wbtc.sol\":9159:9187  require(msg.sender == owner) */\n      iszero\n      iszero\n      tag_159\n      jumpi\n      0x0\n      dup1\n      revert\n    tag_159:\n        /* \"DPay-proof-of-concept/contracts/coin_contracts/wbtc.sol\":17571:17576  false */\n      0x0\n        /* \"DPay-proof-of-concept/contracts/coin_contracts/wbtc.sol\":17564:17576  return false */\n      swap1\n      pop\n        /* \"DPay-proof-of-concept/contracts/coin_contracts/wbtc.sol\":17497:17583  function finishMinting() public onlyOwner returns (bool) {... */\n      swap1\n      jump\t// out\n        /* \"DPay-proof-of-concept/contracts/coin_contracts/wbtc.sol\":13105:13195  function pause() public onlyOwner whenNotPaused {... */\n    tag_80:\n        /* \"DPay-proof-of-concept/contracts/coin_contracts/wbtc.sol\":9181:9186  owner */\n      0x5\n      0x1\n      swap1\n      sload\n      swap1\n      0x100\n      exp\n      swap1\n      div\n      0xffffffffffffffffffffffffffffffffffffffff\n      and\n        /* \"DPay-proof-of-concept/contracts/coin_contracts/wbtc.sol\":9167:9186  msg.sender == owner */\n      0xffffffffffffffffffffffffffffffffffffffff\n      and\n        /* \"DPay-proof-of-concept/contracts/coin_contracts/wbtc.sol\":9167:9177  msg.sender */\n      caller\n        /* \"DPay-proof-of-concept/contracts/coin_contracts/wbtc.sol\":9167:9186  msg.sender == owner */\n      0xffffffffffffffffffffffffffffffffffffffff\n      and\n      eq\n        /* \"DPay-proof-of-concept/contracts/coin_contracts/wbtc.sol\":9159:9187  require(msg.sender == owner) */\n      iszero\n      iszero\n      tag_162\n      jumpi\n      0x0\n      dup1\n      revert\n    tag_162:\n        /* \"DPay-proof-of-concept/contracts/coin_contracts/wbtc.sol\":12855:12861  paused */\n      0x5\n      0x16\n      swap1\n      sload\n      swap1\n      0x100\n      exp\n      swap1\n      div\n      0xff\n      and\n        /* \"DPay-proof-of-concept/contracts/coin_contracts/wbtc.sol\":12854:12861  !paused */\n      iszero\n        /* \"DPay-proof-of-concept/contracts/coin_contracts/wbtc.sol\":12846:12862  require(!paused) */\n      iszero\n      iszero\n      tag_164\n      jumpi\n      0x0\n      dup1\n      revert\n    tag_164:\n        /* \"DPay-proof-of-concept/contracts/coin_contracts/wbtc.sol\":13168:13172  true */\n      0x1\n        /* \"DPay-proof-of-concept/contracts/coin_contracts/wbtc.sol\":13159:13165  paused */\n      0x5\n      0x16\n        /* \"DPay-proof-of-concept/contracts/coin_contracts/wbtc.sol\":13159:13172  paused = true */\n      0x100\n      exp\n      dup2\n      sload\n      dup2\n      0xff\n      mul\n      not\n      and\n      swap1\n      dup4\n      iszero\n      iszero\n      mul\n      or\n      swap1\n      sstore\n      pop\n        /* \"DPay-proof-of-concept/contracts/coin_contracts/wbtc.sol\":13183:13190  Pause() */\n      0x6985a02210a168e66602d3235cb6db0e70f92b3ba4d376a33c0f3d9434bff625\n      mload(0x40)\n      mload(0x40)\n      dup1\n      swap2\n      sub\n      swap1\n      log1\n        /* \"DPay-proof-of-concept/contracts/coin_contracts/wbtc.sol\":13105:13195  function pause() public onlyOwner whenNotPaused {... */\n      jump\t// out\n        /* \"DPay-proof-of-concept/contracts/coin_contracts/wbtc.sol\":8700:8720  address public owner */\n    tag_83:\n      0x5\n      0x1\n      swap1\n      sload\n      swap1\n      0x100\n      exp\n      swap1\n      div\n      0xffffffffffffffffffffffffffffffffffffffff\n      and\n      dup2\n      jump\t// out\n        /* \"DPay-proof-of-concept/contracts/coin_contracts/wbtc.sol\":8234:8254  string public symbol */\n    tag_86:\n      0x4\n      dup1\n      sload\n      0x1\n      dup2\n      0x1\n      and\n      iszero\n      0x100\n      mul\n      sub\n      and\n      0x2\n      swap1\n      div\n      dup1\n      0x1f\n      add\n      0x20\n      dup1\n      swap2\n      div\n      mul\n      0x20\n      add\n      mload(0x40)\n      swap1\n      dup2\n      add\n      0x40\n      mstore\n      dup1\n      swap3\n      swap2\n      swap1\n      dup2\n      dup2\n      mstore\n      0x20\n      add\n      dup3\n      dup1\n      sload\n      0x1\n      dup2\n      0x1\n      and\n      iszero\n      0x100\n      mul\n      sub\n      and\n      0x2\n      swap1\n      div\n      dup1\n      iszero\n      tag_166\n      jumpi\n      dup1\n      0x1f\n      lt\n      tag_167\n      jumpi\n      0x100\n      dup1\n      dup4\n      sload\n      div\n      mul\n      dup4\n      mstore\n      swap2\n      0x20\n      add\n      swap2\n      jump(tag_166)\n    tag_167:\n      dup3\n      add\n      swap2\n      swap1\n      0x0\n      mstore\n      keccak256(0x0, 0x20)\n      swap1\n    tag_168:\n      dup2\n      sload\n      dup2\n      mstore\n      swap1\n      0x1\n      add\n      swap1\n      0x20\n      add\n      dup1\n      dup4\n      gt\n      tag_168\n      jumpi\n      dup3\n      swap1\n      sub\n      0x1f\n      and\n      dup3\n      add\n      swap2\n    tag_166:\n      pop\n      pop\n      pop\n      pop\n      pop\n      dup2\n      jump\t// out\n        /* \"DPay-proof-of-concept/contracts/coin_contracts/wbtc.sol\":13590:13744  function transfer(... */\n    tag_93:\n        /* \"DPay-proof-of-concept/contracts/coin_contracts/wbtc.sol\":13691:13695  bool */\n      0x0\n        /* \"DPay-proof-of-concept/contracts/coin_contracts/wbtc.sol\":12855:12861  paused */\n      0x5\n      0x16\n      swap1\n      sload\n      swap1\n      0x100\n      exp\n      swap1\n      div\n      0xff\n      and\n        /* \"DPay-proof-of-concept/contracts/coin_contracts/wbtc.sol\":12854:12861  !paused */\n      iszero\n        /* \"DPay-proof-of-concept/contracts/coin_contracts/wbtc.sol\":12846:12862  require(!paused) */\n      iszero\n      iszero\n      tag_170\n      jumpi\n      0x0\n      dup1\n      revert\n    tag_170:\n        /* \"DPay-proof-of-concept/contracts/coin_contracts/wbtc.sol\":13712:13739  super.transfer(_to, _value) */\n      tag_172\n        /* \"DPay-proof-of-concept/contracts/coin_contracts/wbtc.sol\":13727:13730  _to */\n      dup4\n        /* \"DPay-proof-of-concept/contracts/coin_contracts/wbtc.sol\":13732:13738  _value */\n      dup4\n        /* \"DPay-proof-of-concept/contracts/coin_contracts/wbtc.sol\":13712:13726  super.transfer */\n      tag_173\n        /* \"DPay-proof-of-concept/contracts/coin_contracts/wbtc.sol\":13712:13739  super.transfer(_to, _value) */\n      jump\t// in\n    tag_172:\n        /* \"DPay-proof-of-concept/contracts/coin_contracts/wbtc.sol\":13705:13739  return super.transfer(_to, _value) */\n      swap1\n      pop\n        /* \"DPay-proof-of-concept/contracts/coin_contracts/wbtc.sol\":13590:13744  function transfer(... */\n      swap3\n      swap2\n      pop\n      pop\n      jump\t// out\n        /* \"DPay-proof-of-concept/contracts/coin_contracts/wbtc.sol\":14106:14301  function increaseApproval(... */\n    tag_96:\n        /* \"DPay-proof-of-concept/contracts/coin_contracts/wbtc.sol\":14222:14234  bool success */\n      0x0\n        /* \"DPay-proof-of-concept/contracts/coin_contracts/wbtc.sol\":12855:12861  paused */\n      0x5\n      0x16\n      swap1\n      sload\n      swap1\n      0x100\n      exp\n      swap1\n      div\n      0xff\n      and\n        /* \"DPay-proof-of-concept/contracts/coin_contracts/wbtc.sol\":12854:12861  !paused */\n      iszero\n        /* \"DPay-proof-of-concept/contracts/coin_contracts/wbtc.sol\":12846:12862  require(!paused) */\n      iszero\n      iszero\n      tag_175\n      jumpi\n      0x0\n      dup1\n      revert\n    tag_175:\n        /* \"DPay-proof-of-concept/contracts/coin_contracts/wbtc.sol\":14251:14296  super.increaseApproval(_spender, _addedValue) */\n      tag_177\n        /* \"DPay-proof-of-concept/contracts/coin_contracts/wbtc.sol\":14274:14282  _spender */\n      dup4\n        /* \"DPay-proof-of-concept/contracts/coin_contracts/wbtc.sol\":14284:14295  _addedValue */\n      dup4\n        /* \"DPay-proof-of-concept/contracts/coin_contracts/wbtc.sol\":14251:14273  super.increaseApproval */\n      tag_178\n        /* \"DPay-proof-of-concept/contracts/coin_contracts/wbtc.sol\":14251:14296  super.increaseApproval(_spender, _addedValue) */\n      jump\t// in\n    tag_177:\n        /* \"DPay-proof-of-concept/contracts/coin_contracts/wbtc.sol\":14244:14296  return super.increaseApproval(_spender, _addedValue) */\n      swap1\n      pop\n        /* \"DPay-proof-of-concept/contracts/coin_contracts/wbtc.sol\":14106:14301  function increaseApproval(... */\n      swap3\n      swap2\n      pop\n      pop\n      jump\t// out\n        /* \"DPay-proof-of-concept/contracts/coin_contracts/wbtc.sol\":6076:6229  function allowance(... */\n    tag_99:\n        /* \"DPay-proof-of-concept/contracts/coin_contracts/wbtc.sol\":6175:6182  uint256 */\n      0x0\n        /* \"DPay-proof-of-concept/contracts/coin_contracts/wbtc.sol\":6199:6206  allowed */\n      0x2\n        /* \"DPay-proof-of-concept/contracts/coin_contracts/wbtc.sol\":6199:6214  allowed[_owner] */\n      0x0\n        /* \"DPay-proof-of-concept/contracts/coin_contracts/wbtc.sol\":6207:6213  _owner */\n      dup5\n        /* \"DPay-proof-of-concept/contracts/coin_contracts/wbtc.sol\":6199:6214  allowed[_owner] */\n      0xffffffffffffffffffffffffffffffffffffffff\n      and\n      0xffffffffffffffffffffffffffffffffffffffff\n      and\n      dup2\n      mstore\n      0x20\n      add\n      swap1\n      dup2\n      mstore\n      0x20\n      add\n      0x0\n      keccak256\n        /* \"DPay-proof-of-concept/contracts/coin_contracts/wbtc.sol\":6199:6224  allowed[_owner][_spender] */\n      0x0\n        /* \"DPay-proof-of-concept/contracts/coin_contracts/wbtc.sol\":6215:6223  _spender */\n      dup4\n        /* \"DPay-proof-of-concept/contracts/coin_contracts/wbtc.sol\":6199:6224  allowed[_owner][_spender] */\n      0xffffffffffffffffffffffffffffffffffffffff\n      and\n      0xffffffffffffffffffffffffffffffffffffffff\n      and\n      dup2\n      mstore\n      0x20\n      add\n      swap1\n      dup2\n      mstore\n      0x20\n      add\n      0x0\n      keccak256\n      sload\n        /* \"DPay-proof-of-concept/contracts/coin_contracts/wbtc.sol\":6192:6224  return allowed[_owner][_spender] */\n      swap1\n      pop\n        /* \"DPay-proof-of-concept/contracts/coin_contracts/wbtc.sol\":6076:6229  function allowance(... */\n      swap3\n      swap2\n      pop\n      pop\n      jump\t// out\n        /* \"DPay-proof-of-concept/contracts/coin_contracts/wbtc.sol\":14780:14807  address public pendingOwner */\n    tag_102:\n      0x6\n      0x0\n      swap1\n      sload\n      swap1\n      0x100\n      exp\n      swap1\n      div\n      0xffffffffffffffffffffffffffffffffffffffff\n      and\n      dup2\n      jump\t// out\n        /* \"DPay-proof-of-concept/contracts/coin_contracts/wbtc.sol\":15128:15224  function transferOwnership(address newOwner) public onlyOwner {... */\n    tag_105:\n        /* \"DPay-proof-of-concept/contracts/coin_contracts/wbtc.sol\":9181:9186  owner */\n      0x5\n      0x1\n      swap1\n      sload\n      swap1\n      0x100\n      exp\n      swap1\n      div\n      0xffffffffffffffffffffffffffffffffffffffff\n      and\n        /* \"DPay-proof-of-concept/contracts/coin_contracts/wbtc.sol\":9167:9186  msg.sender == owner */\n      0xffffffffffffffffffffffffffffffffffffffff\n      and\n        /* \"DPay-proof-of-concept/contracts/coin_contracts/wbtc.sol\":9167:9177  msg.sender */\n      caller\n        /* \"DPay-proof-of-concept/contracts/coin_contracts/wbtc.sol\":9167:9186  msg.sender == owner */\n      0xffffffffffffffffffffffffffffffffffffffff\n      and\n      eq\n        /* \"DPay-proof-of-concept/contracts/coin_contracts/wbtc.sol\":9159:9187  require(msg.sender == owner) */\n      iszero\n      iszero\n      tag_181\n      jumpi\n      0x0\n      dup1\n      revert\n    tag_181:\n        /* \"DPay-proof-of-concept/contracts/coin_contracts/wbtc.sol\":15211:15219  newOwner */\n      dup1\n        /* \"DPay-proof-of-concept/contracts/coin_contracts/wbtc.sol\":15196:15208  pendingOwner */\n      0x6\n      0x0\n        /* \"DPay-proof-of-concept/contracts/coin_contracts/wbtc.sol\":15196:15219  pendingOwner = newOwner */\n      0x100\n      exp\n      dup2\n      sload\n      dup2\n      0xffffffffffffffffffffffffffffffffffffffff\n      mul\n      not\n      and\n      swap1\n      dup4\n      0xffffffffffffffffffffffffffffffffffffffff\n      and\n      mul\n      or\n      swap1\n      sstore\n      pop\n        /* \"DPay-proof-of-concept/contracts/coin_contracts/wbtc.sol\":15128:15224  function transferOwnership(address newOwner) public onlyOwner {... */\n      pop\n      jump\t// out\n        /* \"DPay-proof-of-concept/contracts/coin_contracts/wbtc.sol\":5569:5757  function approve(address _spender, uint256 _value) public returns (bool) {... */\n    tag_113:\n        /* \"DPay-proof-of-concept/contracts/coin_contracts/wbtc.sol\":5636:5640  bool */\n      0x0\n        /* \"DPay-proof-of-concept/contracts/coin_contracts/wbtc.sol\":5680:5686  _value */\n      dup2\n        /* \"DPay-proof-of-concept/contracts/coin_contracts/wbtc.sol\":5648:5655  allowed */\n      0x2\n        /* \"DPay-proof-of-concept/contracts/coin_contracts/wbtc.sol\":5648:5667  allowed[msg.sender] */\n      0x0\n        /* \"DPay-proof-of-concept/contracts/coin_contracts/wbtc.sol\":5656:5666  msg.sender */\n      caller\n        /* \"DPay-proof-of-concept/contracts/coin_contracts/wbtc.sol\":5648:5667  allowed[msg.sender] */\n      0xffffffffffffffffffffffffffffffffffffffff\n      and\n      0xffffffffffffffffffffffffffffffffffffffff\n      and\n      dup2\n      mstore\n      0x20\n      add\n      swap1\n      dup2\n      mstore\n      0x20\n      add\n      0x0\n      keccak256\n        /* \"DPay-proof-of-concept/contracts/coin_contracts/wbtc.sol\":5648:5677  allowed[msg.sender][_spender] */\n      0x0\n        /* \"DPay-proof-of-concept/contracts/coin_contracts/wbtc.sol\":5668:5676  _spender */\n      dup6\n        /* \"DPay-proof-of-concept/contracts/coin_contracts/wbtc.sol\":5648:5677  allowed[msg.sender][_spender] */\n      0xffffffffffffffffffffffffffffffffffffffff\n      and\n      0xffffffffffffffffffffffffffffffffffffffff\n      and\n      dup2\n      mstore\n      0x20\n      add\n      swap1\n      dup2\n      mstore\n      0x20\n      add\n      0x0\n      keccak256\n        /* \"DPay-proof-of-concept/contracts/coin_contracts/wbtc.sol\":5648:5686  allowed[msg.sender][_spender] = _value */\n      dup2\n      swap1\n      sstore\n      pop\n        /* \"DPay-proof-of-concept/contracts/coin_contracts/wbtc.sol\":5718:5726  _spender */\n      dup3\n        /* \"DPay-proof-of-concept/contracts/coin_contracts/wbtc.sol\":5697:5735  Approval(msg.sender, _spender, _value) */\n      0xffffffffffffffffffffffffffffffffffffffff\n      and\n        /* \"DPay-proof-of-concept/contracts/coin_contracts/wbtc.sol\":5706:5716  msg.sender */\n      caller\n        /* \"DPay-proof-of-concept/contracts/coin_contracts/wbtc.sol\":5697:5735  Approval(msg.sender, _spender, _value) */\n      0xffffffffffffffffffffffffffffffffffffffff\n      and\n      0x8c5be1e5ebec7d5bd14f71427d1e84f3dd0314c0f7b2291e5b200ac8c7c3b925\n        /* \"DPay-proof-of-concept/contracts/coin_contracts/wbtc.sol\":5728:5734  _value */\n      dup5\n        /* \"DPay-proof-of-concept/contracts/coin_contracts/wbtc.sol\":5697:5735  Approval(msg.sender, _spender, _value) */\n      mload(0x40)\n      dup1\n      dup3\n      dup2\n      mstore\n      0x20\n      add\n      swap2\n      pop\n      pop\n      mload(0x40)\n      dup1\n      swap2\n      sub\n      swap1\n      log3\n        /* \"DPay-proof-of-concept/contracts/coin_contracts/wbtc.sol\":5748:5752  true */\n      0x1\n        /* \"DPay-proof-of-concept/contracts/coin_contracts/wbtc.sol\":5741:5752  return true */\n      swap1\n      pop\n        /* \"DPay-proof-of-concept/contracts/coin_contracts/wbtc.sol\":5569:5757  function approve(address _spender, uint256 _value) public returns (bool) {... */\n      swap3\n      swap2\n      pop\n      pop\n      jump\t// out\n        /* \"DPay-proof-of-concept/contracts/coin_contracts/wbtc.sol\":15835:15984  function safeTransfer(... */\n    tag_121:\n        /* \"DPay-proof-of-concept/contracts/coin_contracts/wbtc.sol\":15950:15956  _token */\n      dup3\n        /* \"DPay-proof-of-concept/contracts/coin_contracts/wbtc.sol\":15950:15965  _token.transfer */\n      0xffffffffffffffffffffffffffffffffffffffff\n      and\n      0xa9059cbb\n        /* \"DPay-proof-of-concept/contracts/coin_contracts/wbtc.sol\":15966:15969  _to */\n      dup4\n        /* \"DPay-proof-of-concept/contracts/coin_contracts/wbtc.sol\":15971:15977  _value */\n      dup4\n        /* \"DPay-proof-of-concept/contracts/coin_contracts/wbtc.sol\":15950:15978  _token.transfer(_to, _value) */\n      mload(0x40)\n      dup4\n      0xffffffff\n      and\n      0x100000000000000000000000000000000000000000000000000000000\n      mul\n      dup2\n      mstore\n      0x4\n      add\n      dup1\n      dup4\n      0xffffffffffffffffffffffffffffffffffffffff\n      and\n      0xffffffffffffffffffffffffffffffffffffffff\n      and\n      dup2\n      mstore\n      0x20\n      add\n      dup3\n      dup2\n      mstore\n      0x20\n      add\n      swap3\n      pop\n      pop\n      pop\n      0x20\n      mload(0x40)\n      dup1\n      dup4\n      sub\n      dup2\n      0x0\n      dup8\n      dup1\n      extcodesize\n      iszero\n        /* \"--CODEGEN--\":8:17   */\n      dup1\n        /* \"--CODEGEN--\":5:7   */\n      iszero\n      tag_185\n      jumpi\n        /* \"--CODEGEN--\":30:31   */\n      0x0\n        /* \"--CODEGEN--\":27:28   */\n      dup1\n        /* \"--CODEGEN--\":20:32   */\n      revert\n        /* \"--CODEGEN--\":5:7   */\n    tag_185:\n        /* \"DPay-proof-of-concept/contracts/coin_contracts/wbtc.sol\":15950:15978  _token.transfer(_to, _value) */\n      pop\n      gas\n      call\n      iszero\n        /* \"--CODEGEN--\":8:17   */\n      dup1\n        /* \"--CODEGEN--\":5:7   */\n      iszero\n      tag_186\n      jumpi\n        /* \"--CODEGEN--\":45:61   */\n      returndatasize\n        /* \"--CODEGEN--\":42:43   */\n      0x0\n        /* \"--CODEGEN--\":39:40   */\n      dup1\n        /* \"--CODEGEN--\":24:62   */\n      returndatacopy\n        /* \"--CODEGEN--\":77:93   */\n      returndatasize\n        /* \"--CODEGEN--\":74:75   */\n      0x0\n        /* \"--CODEGEN--\":67:94   */\n      revert\n        /* \"--CODEGEN--\":5:7   */\n    tag_186:\n        /* \"DPay-proof-of-concept/contracts/coin_contracts/wbtc.sol\":15950:15978  _token.transfer(_to, _value) */\n      pop\n      pop\n      pop\n      pop\n      mload(0x40)\n      returndatasize\n        /* \"--CODEGEN--\":13:15   */\n      0x20\n        /* \"--CODEGEN--\":8:11   */\n      dup2\n        /* \"--CODEGEN--\":5:16   */\n      lt\n        /* \"--CODEGEN--\":2:4   */\n      iszero\n      tag_187\n      jumpi\n        /* \"--CODEGEN--\":29:30   */\n      0x0\n        /* \"--CODEGEN--\":26:27   */\n      dup1\n        /* \"--CODEGEN--\":19:31   */\n      revert\n        /* \"--CODEGEN--\":2:4   */\n    tag_187:\n        /* \"DPay-proof-of-concept/contracts/coin_contracts/wbtc.sol\":15950:15978  _token.transfer(_to, _value) */\n      dup2\n      add\n      swap1\n      dup1\n      dup1\n      mload\n      swap1\n      0x20\n      add\n      swap1\n      swap3\n      swap2\n      swap1\n      pop\n      pop\n      pop\n        /* \"DPay-proof-of-concept/contracts/coin_contracts/wbtc.sol\":15942:15979  require(_token.transfer(_to, _value)) */\n      iszero\n      iszero\n      tag_188\n      jumpi\n      0x0\n      dup1\n      revert\n    tag_188:\n        /* \"DPay-proof-of-concept/contracts/coin_contracts/wbtc.sol\":15835:15984  function safeTransfer(... */\n      pop\n      pop\n      pop\n      jump\t// out\n        /* \"DPay-proof-of-concept/contracts/coin_contracts/wbtc.sol\":4481:4951  function transferFrom(... */\n    tag_127:\n        /* \"DPay-proof-of-concept/contracts/coin_contracts/wbtc.sol\":4587:4591  bool */\n      0x0\n        /* \"DPay-proof-of-concept/contracts/coin_contracts/wbtc.sol\":4619:4627  balances */\n      dup1\n        /* \"DPay-proof-of-concept/contracts/coin_contracts/wbtc.sol\":4619:4634  balances[_from] */\n      0x0\n        /* \"DPay-proof-of-concept/contracts/coin_contracts/wbtc.sol\":4628:4633  _from */\n      dup6\n        /* \"DPay-proof-of-concept/contracts/coin_contracts/wbtc.sol\":4619:4634  balances[_from] */\n      0xffffffffffffffffffffffffffffffffffffffff\n      and\n      0xffffffffffffffffffffffffffffffffffffffff\n      and\n      dup2\n      mstore\n      0x20\n      add\n      swap1\n      dup2\n      mstore\n      0x20\n      add\n      0x0\n      keccak256\n      sload\n        /* \"DPay-proof-of-concept/contracts/coin_contracts/wbtc.sol\":4609:4615  _value */\n      dup3\n        /* \"DPay-proof-of-concept/contracts/coin_contracts/wbtc.sol\":4609:4634  _value <= balances[_from] */\n      gt\n      iszero\n        /* \"DPay-proof-of-concept/contracts/coin_contracts/wbtc.sol\":4601:4635  require(_value <= balances[_from]) */\n      iszero\n      iszero\n      tag_190\n      jumpi\n      0x0\n      dup1\n      revert\n    tag_190:\n        /* \"DPay-proof-of-concept/contracts/coin_contracts/wbtc.sol\":4659:4666  allowed */\n      0x2\n        /* \"DPay-proof-of-concept/contracts/coin_contracts/wbtc.sol\":4659:4673  allowed[_from] */\n      0x0\n        /* \"DPay-proof-of-concept/contracts/coin_contracts/wbtc.sol\":4667:4672  _from */\n      dup6\n        /* \"DPay-proof-of-concept/contracts/coin_contracts/wbtc.sol\":4659:4673  allowed[_from] */\n      0xffffffffffffffffffffffffffffffffffffffff\n      and\n      0xffffffffffffffffffffffffffffffffffffffff\n      and\n      dup2\n      mstore\n      0x20\n      add\n      swap1\n      dup2\n      mstore\n      0x20\n      add\n      0x0\n      keccak256\n        /* \"DPay-proof-of-concept/contracts/coin_contracts/wbtc.sol\":4659:4685  allowed[_from][msg.sender] */\n      0x0\n        /* \"DPay-proof-of-concept/contracts/coin_contracts/wbtc.sol\":4674:4684  msg.sender */\n      caller\n        /* \"DPay-proof-of-concept/contracts/coin_contracts/wbtc.sol\":4659:4685  allowed[_from][msg.sender] */\n      0xffffffffffffffffffffffffffffffffffffffff\n      and\n      0xffffffffffffffffffffffffffffffffffffffff\n      and\n      dup2\n      mstore\n      0x20\n      add\n      swap1\n      dup2\n      mstore\n      0x20\n      add\n      0x0\n      keccak256\n      sload\n        /* \"DPay-proof-of-concept/contracts/coin_contracts/wbtc.sol\":4649:4655  _value */\n      dup3\n        /* \"DPay-proof-of-concept/contracts/coin_contracts/wbtc.sol\":4649:4685  _value <= allowed[_from][msg.sender] */\n      gt\n      iszero\n        /* \"DPay-proof-of-concept/contracts/coin_contracts/wbtc.sol\":4641:4686  require(_value <= allowed[_from][msg.sender]) */\n      iszero\n      iszero\n      tag_191\n      jumpi\n      0x0\n      dup1\n      revert\n    tag_191:\n        /* \"DPay-proof-of-concept/contracts/coin_contracts/wbtc.sol\":4715:4716  0 */\n      0x0\n        /* \"DPay-proof-of-concept/contracts/coin_contracts/wbtc.sol\":4700:4717  _to != address(0) */\n      0xffffffffffffffffffffffffffffffffffffffff\n      and\n        /* \"DPay-proof-of-concept/contracts/coin_contracts/wbtc.sol\":4700:4703  _to */\n      dup4\n        /* \"DPay-proof-of-concept/contracts/coin_contracts/wbtc.sol\":4700:4717  _to != address(0) */\n      0xffffffffffffffffffffffffffffffffffffffff\n      and\n      eq\n      iszero\n        /* \"DPay-proof-of-concept/contracts/coin_contracts/wbtc.sol\":4692:4718  require(_to != address(0)) */\n      iszero\n      iszero\n      tag_192\n      jumpi\n      0x0\n      dup1\n      revert\n    tag_192:\n        /* \"DPay-proof-of-concept/contracts/coin_contracts/wbtc.sol\":4743:4770  balances[_from].sub(_value) */\n      tag_193\n        /* \"DPay-proof-of-concept/contracts/coin_contracts/wbtc.sol\":4763:4769  _value */\n      dup3\n        /* \"DPay-proof-of-concept/contracts/coin_contracts/wbtc.sol\":4743:4751  balances */\n      0x0\n        /* \"DPay-proof-of-concept/contracts/coin_contracts/wbtc.sol\":4743:4758  balances[_from] */\n      dup1\n        /* \"DPay-proof-of-concept/contracts/coin_contracts/wbtc.sol\":4752:4757  _from */\n      dup8\n        /* \"DPay-proof-of-concept/contracts/coin_contracts/wbtc.sol\":4743:4758  balances[_from] */\n      0xffffffffffffffffffffffffffffffffffffffff\n      and\n      0xffffffffffffffffffffffffffffffffffffffff\n      and\n      dup2\n      mstore\n      0x20\n      add\n      swap1\n      dup2\n      mstore\n      0x20\n      add\n      0x0\n      keccak256\n      sload\n        /* \"DPay-proof-of-concept/contracts/coin_contracts/wbtc.sol\":4743:4762  balances[_from].sub */\n      tag_194\n      swap1\n        /* \"DPay-proof-of-concept/contracts/coin_contracts/wbtc.sol\":4743:4770  balances[_from].sub(_value) */\n      swap2\n      swap1\n      0xffffffff\n      and\n      jump\t// in\n    tag_193:\n        /* \"DPay-proof-of-concept/contracts/coin_contracts/wbtc.sol\":4725:4733  balances */\n      0x0\n        /* \"DPay-proof-of-concept/contracts/coin_contracts/wbtc.sol\":4725:4740  balances[_from] */\n      dup1\n        /* \"DPay-proof-of-concept/contracts/coin_contracts/wbtc.sol\":4734:4739  _from */\n      dup7\n        /* \"DPay-proof-of-concept/contracts/coin_contracts/wbtc.sol\":4725:4740  balances[_from] */\n      0xffffffffffffffffffffffffffffffffffffffff\n      and\n      0xffffffffffffffffffffffffffffffffffffffff\n      and\n      dup2\n      mstore\n      0x20\n      add\n      swap1\n      dup2\n      mstore\n      0x20\n      add\n      0x0\n      keccak256\n        /* \"DPay-proof-of-concept/contracts/coin_contracts/wbtc.sol\":4725:4770  balances[_from] = balances[_from].sub(_value) */\n      dup2\n      swap1\n      sstore\n      pop\n        /* \"DPay-proof-of-concept/contracts/coin_contracts/wbtc.sol\":4792:4817  balances[_to].add(_value) */\n      tag_195\n        /* \"DPay-proof-of-concept/contracts/coin_contracts/wbtc.sol\":4810:4816  _value */\n      dup3\n        /* \"DPay-proof-of-concept/contracts/coin_contracts/wbtc.sol\":4792:4800  balances */\n      0x0\n        /* \"DPay-proof-of-concept/contracts/coin_contracts/wbtc.sol\":4792:4805  balances[_to] */\n      dup1\n        /* \"DPay-proof-of-concept/contracts/coin_contracts/wbtc.sol\":4801:4804  _to */\n      dup7\n        /* \"DPay-proof-of-concept/contracts/coin_contracts/wbtc.sol\":4792:4805  balances[_to] */\n      0xffffffffffffffffffffffffffffffffffffffff\n      and\n      0xffffffffffffffffffffffffffffffffffffffff\n      and\n      dup2\n      mstore\n      0x20\n      add\n      swap1\n      dup2\n      mstore\n      0x20\n      add\n      0x0\n      keccak256\n      sload\n        /* \"DPay-proof-of-concept/contracts/coin_contracts/wbtc.sol\":4792:4809  balances[_to].add */\n      tag_139\n      swap1\n        /* \"DPay-proof-of-concept/contracts/coin_contracts/wbtc.sol\":4792:4817  balances[_to].add(_value) */\n      swap2\n      swap1\n      0xffffffff\n      and\n      jump\t// in\n    tag_195:\n        /* \"DPay-proof-of-concept/contracts/coin_contracts/wbtc.sol\":4776:4784  balances */\n      0x0\n        /* \"DPay-proof-of-concept/contracts/coin_contracts/wbtc.sol\":4776:4789  balances[_to] */\n      dup1\n        /* \"DPay-proof-of-concept/contracts/coin_contracts/wbtc.sol\":4785:4788  _to */\n      dup6\n        /* \"DPay-proof-of-concept/contracts/coin_contracts/wbtc.sol\":4776:4789  balances[_to] */\n      0xffffffffffffffffffffffffffffffffffffffff\n      and\n      0xffffffffffffffffffffffffffffffffffffffff\n      and\n      dup2\n      mstore\n      0x20\n      add\n      swap1\n      dup2\n      mstore\n      0x20\n      add\n      0x0\n      keccak256\n        /* \"DPay-proof-of-concept/contracts/coin_contracts/wbtc.sol\":4776:4817  balances[_to] = balances[_to].add(_value) */\n      dup2\n      swap1\n      sstore\n      pop\n        /* \"DPay-proof-of-concept/contracts/coin_contracts/wbtc.sol\":4852:4890  allowed[_from][msg.sender].sub(_value) */\n      tag_196\n        /* \"DPay-proof-of-concept/contracts/coin_contracts/wbtc.sol\":4883:4889  _value */\n      dup3\n        /* \"DPay-proof-of-concept/contracts/coin_contracts/wbtc.sol\":4852:4859  allowed */\n      0x2\n        /* \"DPay-proof-of-concept/contracts/coin_contracts/wbtc.sol\":4852:4866  allowed[_from] */\n      0x0\n        /* \"DPay-proof-of-concept/contracts/coin_contracts/wbtc.sol\":4860:4865  _from */\n      dup8\n        /* \"DPay-proof-of-concept/contracts/coin_contracts/wbtc.sol\":4852:4866  allowed[_from] */\n      0xffffffffffffffffffffffffffffffffffffffff\n      and\n      0xffffffffffffffffffffffffffffffffffffffff\n      and\n      dup2\n      mstore\n      0x20\n      add\n      swap1\n      dup2\n      mstore\n      0x20\n      add\n      0x0\n      keccak256\n        /* \"DPay-proof-of-concept/contracts/coin_contracts/wbtc.sol\":4852:4878  allowed[_from][msg.sender] */\n      0x0\n        /* \"DPay-proof-of-concept/contracts/coin_contracts/wbtc.sol\":4867:4877  msg.sender */\n      caller\n        /* \"DPay-proof-of-concept/contracts/coin_contracts/wbtc.sol\":4852:4878  allowed[_from][msg.sender] */\n      0xffffffffffffffffffffffffffffffffffffffff\n      and\n      0xffffffffffffffffffffffffffffffffffffffff\n      and\n      dup2\n      mstore\n      0x20\n      add\n      swap1\n      dup2\n      mstore\n      0x20\n      add\n      0x0\n      keccak256\n      sload\n        /* \"DPay-proof-of-concept/contracts/coin_contracts/wbtc.sol\":4852:4882  allowed[_from][msg.sender].sub */\n      tag_194\n      swap1\n        /* \"DPay-proof-of-concept/contracts/coin_contracts/wbtc.sol\":4852:4890  allowed[_from][msg.sender].sub(_value) */\n      swap2\n      swap1\n      0xffffffff\n      and\n      jump\t// in\n    tag_196:\n        /* \"DPay-proof-of-concept/contracts/coin_contracts/wbtc.sol\":4823:4830  allowed */\n      0x2\n        /* \"DPay-proof-of-concept/contracts/coin_contracts/wbtc.sol\":4823:4837  allowed[_from] */\n      0x0\n        /* \"DPay-proof-of-concept/contracts/coin_contracts/wbtc.sol\":4831:4836  _from */\n      dup7\n        /* \"DPay-proof-of-concept/contracts/coin_contracts/wbtc.sol\":4823:4837  allowed[_from] */\n      0xffffffffffffffffffffffffffffffffffffffff\n      and\n      0xffffffffffffffffffffffffffffffffffffffff\n      and\n      dup2\n      mstore\n      0x20\n      add\n      swap1\n      dup2\n      mstore\n      0x20\n      add\n      0x0\n      keccak256\n        /* \"DPay-proof-of-concept/contracts/coin_contracts/wbtc.sol\":4823:4849  allowed[_from][msg.sender] */\n      0x0\n        /* \"DPay-proof-of-concept/contracts/coin_contracts/wbtc.sol\":4838:4848  msg.sender */\n      caller\n        /* \"DPay-proof-of-concept/contracts/coin_contracts/wbtc.sol\":4823:4849  allowed[_from][msg.sender] */\n      0xffffffffffffffffffffffffffffffffffffffff\n      and\n      0xffffffffffffffffffffffffffffffffffffffff\n      and\n      dup2\n      mstore\n      0x20\n      add\n      swap1\n      dup2\n      mstore\n      0x20\n      add\n      0x0\n      keccak256\n        /* \"DPay-proof-of-concept/contracts/coin_contracts/wbtc.sol\":4823:4890  allowed[_from][msg.sender] = allowed[_from][msg.sender].sub(_value) */\n      dup2\n      swap1\n      sstore\n      pop\n        /* \"DPay-proof-of-concept/contracts/coin_contracts/wbtc.sol\":4917:4920  _to */\n      dup3\n        /* \"DPay-proof-of-concept/contracts/coin_contracts/wbtc.sol\":4901:4929  Transfer(_from, _to, _value) */\n      0xffffffffffffffffffffffffffffffffffffffff\n      and\n        /* \"DPay-proof-of-concept/contracts/coin_contracts/wbtc.sol\":4910:4915  _from */\n      dup5\n        /* \"DPay-proof-of-concept/contracts/coin_contracts/wbtc.sol\":4901:4929  Transfer(_from, _to, _value) */\n      0xffffffffffffffffffffffffffffffffffffffff\n      and\n      0xddf252ad1be2c89b69c2b068fc378daa952ba7f163c4a11628f55a4df523b3ef\n        /* \"DPay-proof-of-concept/contracts/coin_contracts/wbtc.sol\":4922:4928  _value */\n      dup5\n        /* \"DPay-proof-of-concept/contracts/coin_contracts/wbtc.sol\":4901:4929  Transfer(_from, _to, _value) */\n      mload(0x40)\n      dup1\n      dup3\n      dup2\n      mstore\n      0x20\n      add\n      swap2\n      pop\n      pop\n      mload(0x40)\n      dup1\n      swap2\n      sub\n      swap1\n      log3\n        /* \"DPay-proof-of-concept/contracts/coin_contracts/wbtc.sol\":4942:4946  true */\n      0x1\n        /* \"DPay-proof-of-concept/contracts/coin_contracts/wbtc.sol\":4935:4946  return true */\n      swap1\n      pop\n        /* \"DPay-proof-of-concept/contracts/coin_contracts/wbtc.sol\":4481:4951  function transferFrom(... */\n      swap4\n      swap3\n      pop\n      pop\n      pop\n      jump\t// out\n        /* \"DPay-proof-of-concept/contracts/coin_contracts/wbtc.sol\":1849:1977  function add(uint256 _a, uint256 _b) internal pure returns (uint256 c) {... */\n    tag_139:\n        /* \"DPay-proof-of-concept/contracts/coin_contracts/wbtc.sol\":1909:1918  uint256 c */\n      0x0\n        /* \"DPay-proof-of-concept/contracts/coin_contracts/wbtc.sol\":1935:1937  _b */\n      dup2\n        /* \"DPay-proof-of-concept/contracts/coin_contracts/wbtc.sol\":1930:1932  _a */\n      dup4\n        /* \"DPay-proof-of-concept/contracts/coin_contracts/wbtc.sol\":1930:1937  _a + _b */\n      add\n        /* \"DPay-proof-of-concept/contracts/coin_contracts/wbtc.sol\":1926:1937  c = _a + _b */\n      swap1\n      pop\n        /* \"DPay-proof-of-concept/contracts/coin_contracts/wbtc.sol\":1955:1957  _a */\n      dup3\n        /* \"DPay-proof-of-concept/contracts/coin_contracts/wbtc.sol\":1950:1951  c */\n      dup2\n        /* \"DPay-proof-of-concept/contracts/coin_contracts/wbtc.sol\":1950:1957  c >= _a */\n      lt\n      iszero\n        /* \"DPay-proof-of-concept/contracts/coin_contracts/wbtc.sol\":1943:1958  assert(c >= _a) */\n      iszero\n      iszero\n      tag_198\n      jumpi\n      invalid\n    tag_198:\n        /* \"DPay-proof-of-concept/contracts/coin_contracts/wbtc.sol\":1971:1972  c */\n      dup1\n        /* \"DPay-proof-of-concept/contracts/coin_contracts/wbtc.sol\":1964:1972  return c */\n      swap1\n      pop\n        /* \"DPay-proof-of-concept/contracts/coin_contracts/wbtc.sol\":1849:1977  function add(uint256 _a, uint256 _b) internal pure returns (uint256 c) {... */\n      swap3\n      swap2\n      pop\n      pop\n      jump\t// out\n        /* \"DPay-proof-of-concept/contracts/coin_contracts/wbtc.sol\":11919:11992  function burn(uint256 _value) public {... */\n    tag_145:\n        /* \"DPay-proof-of-concept/contracts/coin_contracts/wbtc.sol\":11962:11987  _burn(msg.sender, _value) */\n      tag_200\n        /* \"DPay-proof-of-concept/contracts/coin_contracts/wbtc.sol\":11968:11978  msg.sender */\n      caller\n        /* \"DPay-proof-of-concept/contracts/coin_contracts/wbtc.sol\":11980:11986  _value */\n      dup3\n        /* \"DPay-proof-of-concept/contracts/coin_contracts/wbtc.sol\":11962:11967  _burn */\n      tag_201\n        /* \"DPay-proof-of-concept/contracts/coin_contracts/wbtc.sol\":11962:11987  _burn(msg.sender, _value) */\n      jump\t// in\n    tag_200:\n        /* \"DPay-proof-of-concept/contracts/coin_contracts/wbtc.sol\":11919:11992  function burn(uint256 _value) public {... */\n      pop\n      jump\t// out\n        /* \"DPay-proof-of-concept/contracts/coin_contracts/wbtc.sol\":7434:7866  function decreaseApproval(... */\n    tag_153:\n        /* \"DPay-proof-of-concept/contracts/coin_contracts/wbtc.sol\":7540:7544  bool */\n      0x0\n        /* \"DPay-proof-of-concept/contracts/coin_contracts/wbtc.sol\":7554:7570  uint256 oldValue */\n      dup1\n        /* \"DPay-proof-of-concept/contracts/coin_contracts/wbtc.sol\":7573:7580  allowed */\n      0x2\n        /* \"DPay-proof-of-concept/contracts/coin_contracts/wbtc.sol\":7573:7592  allowed[msg.sender] */\n      0x0\n        /* \"DPay-proof-of-concept/contracts/coin_contracts/wbtc.sol\":7581:7591  msg.sender */\n      caller\n        /* \"DPay-proof-of-concept/contracts/coin_contracts/wbtc.sol\":7573:7592  allowed[msg.sender] */\n      0xffffffffffffffffffffffffffffffffffffffff\n      and\n      0xffffffffffffffffffffffffffffffffffffffff\n      and\n      dup2\n      mstore\n      0x20\n      add\n      swap1\n      dup2\n      mstore\n      0x20\n      add\n      0x0\n      keccak256\n        /* \"DPay-proof-of-concept/contracts/coin_contracts/wbtc.sol\":7573:7602  allowed[msg.sender][_spender] */\n      0x0\n        /* \"DPay-proof-of-concept/contracts/coin_contracts/wbtc.sol\":7593:7601  _spender */\n      dup6\n        /* \"DPay-proof-of-concept/contracts/coin_contracts/wbtc.sol\":7573:7602  allowed[msg.sender][_spender] */\n      0xffffffffffffffffffffffffffffffffffffffff\n      and\n      0xffffffffffffffffffffffffffffffffffffffff\n      and\n      dup2\n      mstore\n      0x20\n      add\n      swap1\n      dup2\n      mstore\n      0x20\n      add\n      0x0\n      keccak256\n      sload\n        /* \"DPay-proof-of-concept/contracts/coin_contracts/wbtc.sol\":7554:7602  uint256 oldValue = allowed[msg.sender][_spender] */\n      swap1\n      pop\n        /* \"DPay-proof-of-concept/contracts/coin_contracts/wbtc.sol\":7632:7640  oldValue */\n      dup1\n        /* \"DPay-proof-of-concept/contracts/coin_contracts/wbtc.sol\":7612:7628  _subtractedValue */\n      dup4\n        /* \"DPay-proof-of-concept/contracts/coin_contracts/wbtc.sol\":7612:7640  _subtractedValue >= oldValue */\n      lt\n      iszero\n        /* \"DPay-proof-of-concept/contracts/coin_contracts/wbtc.sol\":7608:7773  if (_subtractedValue >= oldValue) {... */\n      iszero\n      tag_203\n      jumpi\n        /* \"DPay-proof-of-concept/contracts/coin_contracts/wbtc.sol\":7682:7683  0 */\n      0x0\n        /* \"DPay-proof-of-concept/contracts/coin_contracts/wbtc.sol\":7650:7657  allowed */\n      0x2\n        /* \"DPay-proof-of-concept/contracts/coin_contracts/wbtc.sol\":7650:7669  allowed[msg.sender] */\n      0x0\n        /* \"DPay-proof-of-concept/contracts/coin_contracts/wbtc.sol\":7658:7668  msg.sender */\n      caller\n        /* \"DPay-proof-of-concept/contracts/coin_contracts/wbtc.sol\":7650:7669  allowed[msg.sender] */\n      0xffffffffffffffffffffffffffffffffffffffff\n      and\n      0xffffffffffffffffffffffffffffffffffffffff\n      and\n      dup2\n      mstore\n      0x20\n      add\n      swap1\n      dup2\n      mstore\n      0x20\n      add\n      0x0\n      keccak256\n        /* \"DPay-proof-of-concept/contracts/coin_contracts/wbtc.sol\":7650:7679  allowed[msg.sender][_spender] */\n      0x0\n        /* \"DPay-proof-of-concept/contracts/coin_contracts/wbtc.sol\":7670:7678  _spender */\n      dup7\n        /* \"DPay-proof-of-concept/contracts/coin_contracts/wbtc.sol\":7650:7679  allowed[msg.sender][_spender] */\n      0xffffffffffffffffffffffffffffffffffffffff\n      and\n      0xffffffffffffffffffffffffffffffffffffffff\n      and\n      dup2\n      mstore\n      0x20\n      add\n      swap1\n      dup2\n      mstore\n      0x20\n      add\n      0x0\n      keccak256\n        /* \"DPay-proof-of-concept/contracts/coin_contracts/wbtc.sol\":7650:7683  allowed[msg.sender][_spender] = 0 */\n      dup2\n      swap1\n      sstore\n      pop\n        /* \"DPay-proof-of-concept/contracts/coin_contracts/wbtc.sol\":7608:7773  if (_subtractedValue >= oldValue) {... */\n      jump(tag_204)\n    tag_203:\n        /* \"DPay-proof-of-concept/contracts/coin_contracts/wbtc.sol\":7736:7766  oldValue.sub(_subtractedValue) */\n      tag_205\n        /* \"DPay-proof-of-concept/contracts/coin_contracts/wbtc.sol\":7749:7765  _subtractedValue */\n      dup4\n        /* \"DPay-proof-of-concept/contracts/coin_contracts/wbtc.sol\":7736:7744  oldValue */\n      dup3\n        /* \"DPay-proof-of-concept/contracts/coin_contracts/wbtc.sol\":7736:7748  oldValue.sub */\n      tag_194\n      swap1\n        /* \"DPay-proof-of-concept/contracts/coin_contracts/wbtc.sol\":7736:7766  oldValue.sub(_subtractedValue) */\n      swap2\n      swap1\n      0xffffffff\n      and\n      jump\t// in\n    tag_205:\n        /* \"DPay-proof-of-concept/contracts/coin_contracts/wbtc.sol\":7704:7711  allowed */\n      0x2\n        /* \"DPay-proof-of-concept/contracts/coin_contracts/wbtc.sol\":7704:7723  allowed[msg.sender] */\n      0x0\n        /* \"DPay-proof-of-concept/contracts/coin_contracts/wbtc.sol\":7712:7722  msg.sender */\n      caller\n        /* \"DPay-proof-of-concept/contracts/coin_contracts/wbtc.sol\":7704:7723  allowed[msg.sender] */\n      0xffffffffffffffffffffffffffffffffffffffff\n      and\n      0xffffffffffffffffffffffffffffffffffffffff\n      and\n      dup2\n      mstore\n      0x20\n      add\n      swap1\n      dup2\n      mstore\n      0x20\n      add\n      0x0\n      keccak256\n        /* \"DPay-proof-of-concept/contracts/coin_contracts/wbtc.sol\":7704:7733  allowed[msg.sender][_spender] */\n      0x0\n        /* \"DPay-proof-of-concept/contracts/coin_contracts/wbtc.sol\":7724:7732  _spender */\n      dup7\n        /* \"DPay-proof-of-concept/contracts/coin_contracts/wbtc.sol\":7704:7733  allowed[msg.sender][_spender] */\n      0xffffffffffffffffffffffffffffffffffffffff\n      and\n      0xffffffffffffffffffffffffffffffffffffffff\n      and\n      dup2\n      mstore\n      0x20\n      add\n      swap1\n      dup2\n      mstore\n      0x20\n      add\n      0x0\n      keccak256\n        /* \"DPay-proof-of-concept/contracts/coin_contracts/wbtc.sol\":7704:7766  allowed[msg.sender][_spender] = oldValue.sub(_subtractedValue) */\n      dup2\n      swap1\n      sstore\n      pop\n        /* \"DPay-proof-of-concept/contracts/coin_contracts/wbtc.sol\":7608:7773  if (_subtractedValue >= oldValue) {... */\n    tag_204:\n        /* \"DPay-proof-of-concept/contracts/coin_contracts/wbtc.sol\":7804:7812  _spender */\n      dup4\n        /* \"DPay-proof-of-concept/contracts/coin_contracts/wbtc.sol\":7783:7844  Approval(msg.sender, _spender, allowed[msg.sender][_spender]) */\n      0xffffffffffffffffffffffffffffffffffffffff\n      and\n        /* \"DPay-proof-of-concept/contracts/coin_contracts/wbtc.sol\":7792:7802  msg.sender */\n      caller\n        /* \"DPay-proof-of-concept/contracts/coin_contracts/wbtc.sol\":7783:7844  Approval(msg.sender, _spender, allowed[msg.sender][_spender]) */\n      0xffffffffffffffffffffffffffffffffffffffff\n      and\n      0x8c5be1e5ebec7d5bd14f71427d1e84f3dd0314c0f7b2291e5b200ac8c7c3b925\n        /* \"DPay-proof-of-concept/contracts/coin_contracts/wbtc.sol\":7814:7821  allowed */\n      0x2\n        /* \"DPay-proof-of-concept/contracts/coin_contracts/wbtc.sol\":7814:7833  allowed[msg.sender] */\n      0x0\n        /* \"DPay-proof-of-concept/contracts/coin_contracts/wbtc.sol\":7822:7832  msg.sender */\n      caller\n        /* \"DPay-proof-of-concept/contracts/coin_contracts/wbtc.sol\":7814:7833  allowed[msg.sender] */\n      0xffffffffffffffffffffffffffffffffffffffff\n      and\n      0xffffffffffffffffffffffffffffffffffffffff\n      and\n      dup2\n      mstore\n      0x20\n      add\n      swap1\n      dup2\n      mstore\n      0x20\n      add\n      0x0\n      keccak256\n        /* \"DPay-proof-of-concept/contracts/coin_contracts/wbtc.sol\":7814:7843  allowed[msg.sender][_spender] */\n      0x0\n        /* \"DPay-proof-of-concept/contracts/coin_contracts/wbtc.sol\":7834:7842  _spender */\n      dup9\n        /* \"DPay-proof-of-concept/contracts/coin_contracts/wbtc.sol\":7814:7843  allowed[msg.sender][_spender] */\n      0xffffffffffffffffffffffffffffffffffffffff\n      and\n      0xffffffffffffffffffffffffffffffffffffffff\n      and\n      dup2\n      mstore\n      0x20\n      add\n      swap1\n      dup2\n      mstore\n      0x20\n      add\n      0x0\n      keccak256\n      sload\n        /* \"DPay-proof-of-concept/contracts/coin_contracts/wbtc.sol\":7783:7844  Approval(msg.sender, _spender, allowed[msg.sender][_spender]) */\n      mload(0x40)\n      dup1\n      dup3\n      dup2\n      mstore\n      0x20\n      add\n      swap2\n      pop\n      pop\n      mload(0x40)\n      dup1\n      swap2\n      sub\n      swap1\n      log3\n        /* \"DPay-proof-of-concept/contracts/coin_contracts/wbtc.sol\":7857:7861  true */\n      0x1\n        /* \"DPay-proof-of-concept/contracts/coin_contracts/wbtc.sol\":7850:7861  return true */\n      swap2\n      pop\n        /* \"DPay-proof-of-concept/contracts/coin_contracts/wbtc.sol\":7434:7866  function decreaseApproval(... */\n      pop\n      swap3\n      swap2\n      pop\n      pop\n      jump\t// out\n        /* \"DPay-proof-of-concept/contracts/coin_contracts/wbtc.sol\":2586:2907  function transfer(address _to, uint256 _value) public returns (bool) {... */\n    tag_173:\n        /* \"DPay-proof-of-concept/contracts/coin_contracts/wbtc.sol\":2649:2653  bool */\n      0x0\n        /* \"DPay-proof-of-concept/contracts/coin_contracts/wbtc.sol\":2679:2687  balances */\n      dup1\n        /* \"DPay-proof-of-concept/contracts/coin_contracts/wbtc.sol\":2679:2699  balances[msg.sender] */\n      0x0\n        /* \"DPay-proof-of-concept/contracts/coin_contracts/wbtc.sol\":2688:2698  msg.sender */\n      caller\n        /* \"DPay-proof-of-concept/contracts/coin_contracts/wbtc.sol\":2679:2699  balances[msg.sender] */\n      0xffffffffffffffffffffffffffffffffffffffff\n      and\n      0xffffffffffffffffffffffffffffffffffffffff\n      and\n      dup2\n      mstore\n      0x20\n      add\n      swap1\n      dup2\n      mstore\n      0x20\n      add\n      0x0\n      keccak256\n      sload\n        /* \"DPay-proof-of-concept/contracts/coin_contracts/wbtc.sol\":2669:2675  _value */\n      dup3\n        /* \"DPay-proof-of-concept/contracts/coin_contracts/wbtc.sol\":2669:2699  _value <= balances[msg.sender] */\n      gt\n      iszero\n        /* \"DPay-proof-of-concept/contracts/coin_contracts/wbtc.sol\":2661:2700  require(_value <= balances[msg.sender]) */\n      iszero\n      iszero\n      tag_207\n      jumpi\n      0x0\n      dup1\n      revert\n    tag_207:\n        /* \"DPay-proof-of-concept/contracts/coin_contracts/wbtc.sol\":2729:2730  0 */\n      0x0\n        /* \"DPay-proof-of-concept/contracts/coin_contracts/wbtc.sol\":2714:2731  _to != address(0) */\n      0xffffffffffffffffffffffffffffffffffffffff\n      and\n        /* \"DPay-proof-of-concept/contracts/coin_contracts/wbtc.sol\":2714:2717  _to */\n      dup4\n        /* \"DPay-proof-of-concept/contracts/coin_contracts/wbtc.sol\":2714:2731  _to != address(0) */\n      0xffffffffffffffffffffffffffffffffffffffff\n      and\n      eq\n      iszero\n        /* \"DPay-proof-of-concept/contracts/coin_contracts/wbtc.sol\":2706:2732  require(_to != address(0)) */\n      iszero\n      iszero\n      tag_208\n      jumpi\n      0x0\n      dup1\n      revert\n    tag_208:\n        /* \"DPay-proof-of-concept/contracts/coin_contracts/wbtc.sol\":2762:2794  balances[msg.sender].sub(_value) */\n      tag_209\n        /* \"DPay-proof-of-concept/contracts/coin_contracts/wbtc.sol\":2787:2793  _value */\n      dup3\n        /* \"DPay-proof-of-concept/contracts/coin_contracts/wbtc.sol\":2762:2770  balances */\n      0x0\n        /* \"DPay-proof-of-concept/contracts/coin_contracts/wbtc.sol\":2762:2782  balances[msg.sender] */\n      dup1\n        /* \"DPay-proof-of-concept/contracts/coin_contracts/wbtc.sol\":2771:2781  msg.sender */\n      caller\n        /* \"DPay-proof-of-concept/contracts/coin_contracts/wbtc.sol\":2762:2782  balances[msg.sender] */\n      0xffffffffffffffffffffffffffffffffffffffff\n      and\n      0xffffffffffffffffffffffffffffffffffffffff\n      and\n      dup2\n      mstore\n      0x20\n      add\n      swap1\n      dup2\n      mstore\n      0x20\n      add\n      0x0\n      keccak256\n      sload\n        /* \"DPay-proof-of-concept/contracts/coin_contracts/wbtc.sol\":2762:2786  balances[msg.sender].sub */\n      tag_194\n      swap1\n        /* \"DPay-proof-of-concept/contracts/coin_contracts/wbtc.sol\":2762:2794  balances[msg.sender].sub(_value) */\n      swap2\n      swap1\n      0xffffffff\n      and\n      jump\t// in\n    tag_209:\n        /* \"DPay-proof-of-concept/contracts/coin_contracts/wbtc.sol\":2739:2747  balances */\n      0x0\n        /* \"DPay-proof-of-concept/contracts/coin_contracts/wbtc.sol\":2739:2759  balances[msg.sender] */\n      dup1\n        /* \"DPay-proof-of-concept/contracts/coin_contracts/wbtc.sol\":2748:2758  msg.sender */\n      caller\n        /* \"DPay-proof-of-concept/contracts/coin_contracts/wbtc.sol\":2739:2759  balances[msg.sender] */\n      0xffffffffffffffffffffffffffffffffffffffff\n      and\n      0xffffffffffffffffffffffffffffffffffffffff\n      and\n      dup2\n      mstore\n      0x20\n      add\n      swap1\n      dup2\n      mstore\n      0x20\n      add\n      0x0\n      keccak256\n        /* \"DPay-proof-of-concept/contracts/coin_contracts/wbtc.sol\":2739:2794  balances[msg.sender] = balances[msg.sender].sub(_value) */\n      dup2\n      swap1\n      sstore\n      pop\n        /* \"DPay-proof-of-concept/contracts/coin_contracts/wbtc.sol\":2816:2841  balances[_to].add(_value) */\n      tag_210\n        /* \"DPay-proof-of-concept/contracts/coin_contracts/wbtc.sol\":2834:2840  _value */\n      dup3\n        /* \"DPay-proof-of-concept/contracts/coin_contracts/wbtc.sol\":2816:2824  balances */\n      0x0\n        /* \"DPay-proof-of-concept/contracts/coin_contracts/wbtc.sol\":2816:2829  balances[_to] */\n      dup1\n        /* \"DPay-proof-of-concept/contracts/coin_contracts/wbtc.sol\":2825:2828  _to */\n      dup7\n        /* \"DPay-proof-of-concept/contracts/coin_contracts/wbtc.sol\":2816:2829  balances[_to] */\n      0xffffffffffffffffffffffffffffffffffffffff\n      and\n      0xffffffffffffffffffffffffffffffffffffffff\n      and\n      dup2\n      mstore\n      0x20\n      add\n      swap1\n      dup2\n      mstore\n      0x20\n      add\n      0x0\n      keccak256\n      sload\n        /* \"DPay-proof-of-concept/contracts/coin_contracts/wbtc.sol\":2816:2833  balances[_to].add */\n      tag_139\n      swap1\n        /* \"DPay-proof-of-concept/contracts/coin_contracts/wbtc.sol\":2816:2841  balances[_to].add(_value) */\n      swap2\n      swap1\n      0xffffffff\n      and\n      jump\t// in\n    tag_210:\n        /* \"DPay-proof-of-concept/contracts/coin_contracts/wbtc.sol\":2800:2808  balances */\n      0x0\n        /* \"DPay-proof-of-concept/contracts/coin_contracts/wbtc.sol\":2800:2813  balances[_to] */\n      dup1\n        /* \"DPay-proof-of-concept/contracts/coin_contracts/wbtc.sol\":2809:2812  _to */\n      dup6\n        /* \"DPay-proof-of-concept/contracts/coin_contracts/wbtc.sol\":2800:2813  balances[_to] */\n      0xffffffffffffffffffffffffffffffffffffffff\n      and\n      0xffffffffffffffffffffffffffffffffffffffff\n      and\n      dup2\n      mstore\n      0x20\n      add\n      swap1\n      dup2\n      mstore\n      0x20\n      add\n      0x0\n      keccak256\n        /* \"DPay-proof-of-concept/contracts/coin_contracts/wbtc.sol\":2800:2841  balances[_to] = balances[_to].add(_value) */\n      dup2\n      swap1\n      sstore\n      pop\n        /* \"DPay-proof-of-concept/contracts/coin_contracts/wbtc.sol\":2873:2876  _to */\n      dup3\n        /* \"DPay-proof-of-concept/contracts/coin_contracts/wbtc.sol\":2852:2885  Transfer(msg.sender, _to, _value) */\n      0xffffffffffffffffffffffffffffffffffffffff\n      and\n        /* \"DPay-proof-of-concept/contracts/coin_contracts/wbtc.sol\":2861:2871  msg.sender */\n      caller\n        /* \"DPay-proof-of-concept/contracts/coin_contracts/wbtc.sol\":2852:2885  Transfer(msg.sender, _to, _value) */\n      0xffffffffffffffffffffffffffffffffffffffff\n      and\n      0xddf252ad1be2c89b69c2b068fc378daa952ba7f163c4a11628f55a4df523b3ef\n        /* \"DPay-proof-of-concept/contracts/coin_contracts/wbtc.sol\":2878:2884  _value */\n      dup5\n        /* \"DPay-proof-of-concept/contracts/coin_contracts/wbtc.sol\":2852:2885  Transfer(msg.sender, _to, _value) */\n      mload(0x40)\n      dup1\n      dup3\n      dup2\n      mstore\n      0x20\n      add\n      swap2\n      pop\n      pop\n      mload(0x40)\n      dup1\n      swap2\n      sub\n      swap1\n      log3\n        /* \"DPay-proof-of-concept/contracts/coin_contracts/wbtc.sol\":2898:2902  true */\n      0x1\n        /* \"DPay-proof-of-concept/contracts/coin_contracts/wbtc.sol\":2891:2902  return true */\n      swap1\n      pop\n        /* \"DPay-proof-of-concept/contracts/coin_contracts/wbtc.sol\":2586:2907  function transfer(address _to, uint256 _value) public returns (bool) {... */\n      swap3\n      swap2\n      pop\n      pop\n      jump\t// out\n        /* \"DPay-proof-of-concept/contracts/coin_contracts/wbtc.sol\":6681:6977  function increaseApproval(... */\n    tag_178:\n        /* \"DPay-proof-of-concept/contracts/coin_contracts/wbtc.sol\":6782:6786  bool */\n      0x0\n        /* \"DPay-proof-of-concept/contracts/coin_contracts/wbtc.sol\":6836:6882  allowed[msg.sender][_spender].add(_addedValue) */\n      tag_212\n        /* \"DPay-proof-of-concept/contracts/coin_contracts/wbtc.sol\":6870:6881  _addedValue */\n      dup3\n        /* \"DPay-proof-of-concept/contracts/coin_contracts/wbtc.sol\":6836:6843  allowed */\n      0x2\n        /* \"DPay-proof-of-concept/contracts/coin_contracts/wbtc.sol\":6836:6855  allowed[msg.sender] */\n      0x0\n        /* \"DPay-proof-of-concept/contracts/coin_contracts/wbtc.sol\":6844:6854  msg.sender */\n      caller\n        /* \"DPay-proof-of-concept/contracts/coin_contracts/wbtc.sol\":6836:6855  allowed[msg.sender] */\n      0xffffffffffffffffffffffffffffffffffffffff\n      and\n      0xffffffffffffffffffffffffffffffffffffffff\n      and\n      dup2\n      mstore\n      0x20\n      add\n      swap1\n      dup2\n      mstore\n      0x20\n      add\n      0x0\n      keccak256\n        /* \"DPay-proof-of-concept/contracts/coin_contracts/wbtc.sol\":6836:6865  allowed[msg.sender][_spender] */\n      0x0\n        /* \"DPay-proof-of-concept/contracts/coin_contracts/wbtc.sol\":6856:6864  _spender */\n      dup7\n        /* \"DPay-proof-of-concept/contracts/coin_contracts/wbtc.sol\":6836:6865  allowed[msg.sender][_spender] */\n      0xffffffffffffffffffffffffffffffffffffffff\n      and\n      0xffffffffffffffffffffffffffffffffffffffff\n      and\n      dup2\n      mstore\n      0x20\n      add\n      swap1\n      dup2\n      mstore\n      0x20\n      add\n      0x0\n      keccak256\n      sload\n        /* \"DPay-proof-of-concept/contracts/coin_contracts/wbtc.sol\":6836:6869  allowed[msg.sender][_spender].add */\n      tag_139\n      swap1\n        /* \"DPay-proof-of-concept/contracts/coin_contracts/wbtc.sol\":6836:6882  allowed[msg.sender][_spender].add(_addedValue) */\n      swap2\n      swap1\n      0xffffffff\n      and\n      jump\t// in\n    tag_212:\n        /* \"DPay-proof-of-concept/contracts/coin_contracts/wbtc.sol\":6796:6803  allowed */\n      0x2\n        /* \"DPay-proof-of-concept/contracts/coin_contracts/wbtc.sol\":6796:6815  allowed[msg.sender] */\n      0x0\n        /* \"DPay-proof-of-concept/contracts/coin_contracts/wbtc.sol\":6804:6814  msg.sender */\n      caller\n        /* \"DPay-proof-of-concept/contracts/coin_contracts/wbtc.sol\":6796:6815  allowed[msg.sender] */\n      0xffffffffffffffffffffffffffffffffffffffff\n      and\n      0xffffffffffffffffffffffffffffffffffffffff\n      and\n      dup2\n      mstore\n      0x20\n      add\n      swap1\n      dup2\n      mstore\n      0x20\n      add\n      0x0\n      keccak256\n        /* \"DPay-proof-of-concept/contracts/coin_contracts/wbtc.sol\":6796:6825  allowed[msg.sender][_spender] */\n      0x0\n        /* \"DPay-proof-of-concept/contracts/coin_contracts/wbtc.sol\":6816:6824  _spender */\n      dup6\n        /* \"DPay-proof-of-concept/contracts/coin_contracts/wbtc.sol\":6796:6825  allowed[msg.sender][_spender] */\n      0xffffffffffffffffffffffffffffffffffffffff\n      and\n      0xffffffffffffffffffffffffffffffffffffffff\n      and\n      dup2\n      mstore\n      0x20\n      add\n      swap1\n      dup2\n      mstore\n      0x20\n      add\n      0x0\n      keccak256\n        /* \"DPay-proof-of-concept/contracts/coin_contracts/wbtc.sol\":6796:6883  allowed[msg.sender][_spender] = (... */\n      dup2\n      swap1\n      sstore\n      pop\n        /* \"DPay-proof-of-concept/contracts/coin_contracts/wbtc.sol\":6915:6923  _spender */\n      dup3\n        /* \"DPay-proof-of-concept/contracts/coin_contracts/wbtc.sol\":6894:6955  Approval(msg.sender, _spender, allowed[msg.sender][_spender]) */\n      0xffffffffffffffffffffffffffffffffffffffff\n      and\n        /* \"DPay-proof-of-concept/contracts/coin_contracts/wbtc.sol\":6903:6913  msg.sender */\n      caller\n        /* \"DPay-proof-of-concept/contracts/coin_contracts/wbtc.sol\":6894:6955  Approval(msg.sender, _spender, allowed[msg.sender][_spender]) */\n      0xffffffffffffffffffffffffffffffffffffffff\n      and\n      0x8c5be1e5ebec7d5bd14f71427d1e84f3dd0314c0f7b2291e5b200ac8c7c3b925\n        /* \"DPay-proof-of-concept/contracts/coin_contracts/wbtc.sol\":6925:6932  allowed */\n      0x2\n        /* \"DPay-proof-of-concept/contracts/coin_contracts/wbtc.sol\":6925:6944  allowed[msg.sender] */\n      0x0\n        /* \"DPay-proof-of-concept/contracts/coin_contracts/wbtc.sol\":6933:6943  msg.sender */\n      caller\n        /* \"DPay-proof-of-concept/contracts/coin_contracts/wbtc.sol\":6925:6944  allowed[msg.sender] */\n      0xffffffffffffffffffffffffffffffffffffffff\n      and\n      0xffffffffffffffffffffffffffffffffffffffff\n      and\n      dup2\n      mstore\n      0x20\n      add\n      swap1\n      dup2\n      mstore\n      0x20\n      add\n      0x0\n      keccak256\n        /* \"DPay-proof-of-concept/contracts/coin_contracts/wbtc.sol\":6925:6954  allowed[msg.sender][_spender] */\n      0x0\n        /* \"DPay-proof-of-concept/contracts/coin_contracts/wbtc.sol\":6945:6953  _spender */\n      dup8\n        /* \"DPay-proof-of-concept/contracts/coin_contracts/wbtc.sol\":6925:6954  allowed[msg.sender][_spender] */\n      0xffffffffffffffffffffffffffffffffffffffff\n      and\n      0xffffffffffffffffffffffffffffffffffffffff\n      and\n      dup2\n      mstore\n      0x20\n      add\n      swap1\n      dup2\n      mstore\n      0x20\n      add\n      0x0\n      keccak256\n      sload\n        /* \"DPay-proof-of-concept/contracts/coin_contracts/wbtc.sol\":6894:6955  Approval(msg.sender, _spender, allowed[msg.sender][_spender]) */\n      mload(0x40)\n      dup1\n      dup3\n      dup2\n      mstore\n      0x20\n      add\n      swap2\n      pop\n      pop\n      mload(0x40)\n      dup1\n      swap2\n      sub\n      swap1\n      log3\n        /* \"DPay-proof-of-concept/contracts/coin_contracts/wbtc.sol\":6968:6972  true */\n      0x1\n        /* \"DPay-proof-of-concept/contracts/coin_contracts/wbtc.sol\":6961:6972  return true */\n      swap1\n      pop\n        /* \"DPay-proof-of-concept/contracts/coin_contracts/wbtc.sol\":6681:6977  function increaseApproval(... */\n      swap3\n      swap2\n      pop\n      pop\n      jump\t// out\n        /* \"DPay-proof-of-concept/contracts/coin_contracts/wbtc.sol\":1671:1787  function sub(uint256 _a, uint256 _b) internal pure returns (uint256) {... */\n    tag_194:\n        /* \"DPay-proof-of-concept/contracts/coin_contracts/wbtc.sol\":1731:1738  uint256 */\n      0x0\n        /* \"DPay-proof-of-concept/contracts/coin_contracts/wbtc.sol\":1759:1761  _a */\n      dup3\n        /* \"DPay-proof-of-concept/contracts/coin_contracts/wbtc.sol\":1753:1755  _b */\n      dup3\n        /* \"DPay-proof-of-concept/contracts/coin_contracts/wbtc.sol\":1753:1761  _b <= _a */\n      gt\n      iszero\n        /* \"DPay-proof-of-concept/contracts/coin_contracts/wbtc.sol\":1746:1762  assert(_b <= _a) */\n      iszero\n      iszero\n      tag_214\n      jumpi\n      invalid\n    tag_214:\n        /* \"DPay-proof-of-concept/contracts/coin_contracts/wbtc.sol\":1780:1782  _b */\n      dup2\n        /* \"DPay-proof-of-concept/contracts/coin_contracts/wbtc.sol\":1775:1777  _a */\n      dup4\n        /* \"DPay-proof-of-concept/contracts/coin_contracts/wbtc.sol\":1775:1782  _a - _b */\n      sub\n        /* \"DPay-proof-of-concept/contracts/coin_contracts/wbtc.sol\":1768:1782  return _a - _b */\n      swap1\n      pop\n        /* \"DPay-proof-of-concept/contracts/coin_contracts/wbtc.sol\":1671:1787  function sub(uint256 _a, uint256 _b) internal pure returns (uint256) {... */\n      swap3\n      swap2\n      pop\n      pop\n      jump\t// out\n        /* \"DPay-proof-of-concept/contracts/coin_contracts/wbtc.sol\":11996:12434  function _burn(address _who, uint256 _value) internal {... */\n    tag_201:\n        /* \"DPay-proof-of-concept/contracts/coin_contracts/wbtc.sol\":12074:12082  balances */\n      0x0\n        /* \"DPay-proof-of-concept/contracts/coin_contracts/wbtc.sol\":12074:12088  balances[_who] */\n      dup1\n        /* \"DPay-proof-of-concept/contracts/coin_contracts/wbtc.sol\":12083:12087  _who */\n      dup4\n        /* \"DPay-proof-of-concept/contracts/coin_contracts/wbtc.sol\":12074:12088  balances[_who] */\n      0xffffffffffffffffffffffffffffffffffffffff\n      and\n      0xffffffffffffffffffffffffffffffffffffffff\n      and\n      dup2\n      mstore\n      0x20\n      add\n      swap1\n      dup2\n      mstore\n      0x20\n      add\n      0x0\n      keccak256\n      sload\n        /* \"DPay-proof-of-concept/contracts/coin_contracts/wbtc.sol\":12064:12070  _value */\n      dup2\n        /* \"DPay-proof-of-concept/contracts/coin_contracts/wbtc.sol\":12064:12088  _value <= balances[_who] */\n      gt\n      iszero\n        /* \"DPay-proof-of-concept/contracts/coin_contracts/wbtc.sol\":12056:12089  require(_value <= balances[_who]) */\n      iszero\n      iszero\n      tag_216\n      jumpi\n      0x0\n      dup1\n      revert\n    tag_216:\n        /* \"DPay-proof-of-concept/contracts/coin_contracts/wbtc.sol\":12284:12310  balances[_who].sub(_value) */\n      tag_217\n        /* \"DPay-proof-of-concept/contracts/coin_contracts/wbtc.sol\":12303:12309  _value */\n      dup2\n        /* \"DPay-proof-of-concept/contracts/coin_contracts/wbtc.sol\":12284:12292  balances */\n      0x0\n        /* \"DPay-proof-of-concept/contracts/coin_contracts/wbtc.sol\":12284:12298  balances[_who] */\n      dup1\n        /* \"DPay-proof-of-concept/contracts/coin_contracts/wbtc.sol\":12293:12297  _who */\n      dup6\n        /* \"DPay-proof-of-concept/contracts/coin_contracts/wbtc.sol\":12284:12298  balances[_who] */\n      0xffffffffffffffffffffffffffffffffffffffff\n      and\n      0xffffffffffffffffffffffffffffffffffffffff\n      and\n      dup2\n      mstore\n      0x20\n      add\n      swap1\n      dup2\n      mstore\n      0x20\n      add\n      0x0\n      keccak256\n      sload\n        /* \"DPay-proof-of-concept/contracts/coin_contracts/wbtc.sol\":12284:12302  balances[_who].sub */\n      tag_194\n      swap1\n        /* \"DPay-proof-of-concept/contracts/coin_contracts/wbtc.sol\":12284:12310  balances[_who].sub(_value) */\n      swap2\n      swap1\n      0xffffffff\n      and\n      jump\t// in\n    tag_217:\n        /* \"DPay-proof-of-concept/contracts/coin_contracts/wbtc.sol\":12267:12275  balances */\n      0x0\n        /* \"DPay-proof-of-concept/contracts/coin_contracts/wbtc.sol\":12267:12281  balances[_who] */\n      dup1\n        /* \"DPay-proof-of-concept/contracts/coin_contracts/wbtc.sol\":12276:12280  _who */\n      dup5\n        /* \"DPay-proof-of-concept/contracts/coin_contracts/wbtc.sol\":12267:12281  balances[_who] */\n      0xffffffffffffffffffffffffffffffffffffffff\n      and\n      0xffffffffffffffffffffffffffffffffffffffff\n      and\n      dup2\n      mstore\n      0x20\n      add\n      swap1\n      dup2\n      mstore\n      0x20\n      add\n      0x0\n      keccak256\n        /* \"DPay-proof-of-concept/contracts/coin_contracts/wbtc.sol\":12267:12310  balances[_who] = balances[_who].sub(_value) */\n      dup2\n      swap1\n      sstore\n      pop\n        /* \"DPay-proof-of-concept/contracts/coin_contracts/wbtc.sol\":12331:12355  totalSupply_.sub(_value) */\n      tag_218\n        /* \"DPay-proof-of-concept/contracts/coin_contracts/wbtc.sol\":12348:12354  _value */\n      dup2\n        /* \"DPay-proof-of-concept/contracts/coin_contracts/wbtc.sol\":12331:12343  totalSupply_ */\n      sload(0x1)\n        /* \"DPay-proof-of-concept/contracts/coin_contracts/wbtc.sol\":12331:12347  totalSupply_.sub */\n      tag_194\n      swap1\n        /* \"DPay-proof-of-concept/contracts/coin_contracts/wbtc.sol\":12331:12355  totalSupply_.sub(_value) */\n      swap2\n      swap1\n      0xffffffff\n      and\n      jump\t// in\n    tag_218:\n        /* \"DPay-proof-of-concept/contracts/coin_contracts/wbtc.sol\":12316:12328  totalSupply_ */\n      0x1\n        /* \"DPay-proof-of-concept/contracts/coin_contracts/wbtc.sol\":12316:12355  totalSupply_ = totalSupply_.sub(_value) */\n      dup2\n      swap1\n      sstore\n      pop\n        /* \"DPay-proof-of-concept/contracts/coin_contracts/wbtc.sol\":12371:12375  _who */\n      dup2\n        /* \"DPay-proof-of-concept/contracts/coin_contracts/wbtc.sol\":12366:12384  Burn(_who, _value) */\n      0xffffffffffffffffffffffffffffffffffffffff\n      and\n      0xcc16f5dbb4873280815c1ee09dbd06736cffcc184412cf7a71a0fdb75d397ca5\n        /* \"DPay-proof-of-concept/contracts/coin_contracts/wbtc.sol\":12377:12383  _value */\n      dup3\n        /* \"DPay-proof-of-concept/contracts/coin_contracts/wbtc.sol\":12366:12384  Burn(_who, _value) */\n      mload(0x40)\n      dup1\n      dup3\n      dup2\n      mstore\n      0x20\n      add\n      swap2\n      pop\n      pop\n      mload(0x40)\n      dup1\n      swap2\n      sub\n      swap1\n      log2\n        /* \"DPay-proof-of-concept/contracts/coin_contracts/wbtc.sol\":12418:12419  0 */\n      0x0\n        /* \"DPay-proof-of-concept/contracts/coin_contracts/wbtc.sol\":12395:12429  Transfer(_who, address(0), _value) */\n      0xffffffffffffffffffffffffffffffffffffffff\n      and\n        /* \"DPay-proof-of-concept/contracts/coin_contracts/wbtc.sol\":12404:12408  _who */\n      dup3\n        /* \"DPay-proof-of-concept/contracts/coin_contracts/wbtc.sol\":12395:12429  Transfer(_who, address(0), _value) */\n      0xffffffffffffffffffffffffffffffffffffffff\n      and\n      0xddf252ad1be2c89b69c2b068fc378daa952ba7f163c4a11628f55a4df523b3ef\n        /* \"DPay-proof-of-concept/contracts/coin_contracts/wbtc.sol\":12422:12428  _value */\n      dup4\n        /* \"DPay-proof-of-concept/contracts/coin_contracts/wbtc.sol\":12395:12429  Transfer(_who, address(0), _value) */\n      mload(0x40)\n      dup1\n      dup3\n      dup2\n      mstore\n      0x20\n      add\n      swap2\n      pop\n      pop\n      mload(0x40)\n      dup1\n      swap2\n      sub\n      swap1\n      log3\n        /* \"DPay-proof-of-concept/contracts/coin_contracts/wbtc.sol\":11996:12434  function _burn(address _who, uint256 _value) internal {... */\n      pop\n      pop\n      jump\t// out\n\n    auxdata: 0xa165627a7a7230582081cc5489d3ce7af59e0c479c22e434c295a30d96af0c6cbb78f1f3dffba305c20029\n}\n",
				"bytecode": {
					"linkReferences": {},
					"object": "60806040526000600560156101000a81548160ff0219169083151502179055506000600560166101000a81548160ff0219169083151502179055506040805190810160405280600b81526020017f57726170706564204254430000000000000000000000000000000000000000008152506040805190810160405280600481526020017f574254430000000000000000000000000000000000000000000000000000000081525060088260039080519060200190620000c09291906200013f565b508160049080519060200190620000d99291906200013f565b5080600560006101000a81548160ff021916908360ff16021790555050505033600560016101000a81548173ffffffffffffffffffffffffffffffffffffffff021916908373ffffffffffffffffffffffffffffffffffffffff160217905550620001ee565b828054600181600116156101000203166002900490600052602060002090601f016020900481019282601f106200018257805160ff1916838001178555620001b3565b82800160010185558215620001b3579182015b82811115620001b257825182559160200191906001019062000195565b5b509050620001c29190620001c6565b5090565b620001eb91905b80821115620001e7576000816000905550600101620001cd565b5090565b90565b61231180620001fe6000396000f30060806040526004361061013e576000357c0100000000000000000000000000000000000000000000000000000000900463ffffffff16806305d2035b1461014357806306fdde0314610172578063095ea7b31461020257806317ffc3201461026757806318160ddd146102aa57806323b872dd146102d5578063313ce5671461035a5780633f4ba83a1461038b57806340c10f19146103a257806342966c68146104075780634e71e0c8146104345780635c975abb1461044b578063661884631461047a57806370a08231146104df578063715018a6146105365780637d64bcb41461054d5780638456cb591461057c5780638da5cb5b1461059357806395d89b41146105ea578063a9059cbb1461067a578063d73dd623146106df578063dd62ed3e14610744578063e30c3978146107bb578063f2fde38b14610812575b600080fd5b34801561014f57600080fd5b50610158610855565b604051808215151515815260200191505060405180910390f35b34801561017e57600080fd5b50610187610868565b6040518080602001828103825283818151815260200191508051906020019080838360005b838110156101c75780820151818401526020810190506101ac565b50505050905090810190601f1680156101f45780820380516001836020036101000a031916815260200191505b509250505060405180910390f35b34801561020e57600080fd5b5061024d600480360381019080803573ffffffffffffffffffffffffffffffffffffffff16906020019092919080359060200190929190505050610906565b604051808215151515815260200191505060405180910390f35b34801561027357600080fd5b506102a8600480360381019080803573ffffffffffffffffffffffffffffffffffffffff169060200190929190505050610936565b005b3480156102b657600080fd5b506102bf610abd565b6040518082815260200191505060405180910390f35b3480156102e157600080fd5b50610340600480360381019080803573ffffffffffffffffffffffffffffffffffffffff169060200190929190803573ffffffffffffffffffffffffffffffffffffffff16906020019092919080359060200190929190505050610ac7565b604051808215151515815260200191505060405180910390f35b34801561036657600080fd5b5061036f610af9565b604051808260ff1660ff16815260200191505060405180910390f35b34801561039757600080fd5b506103a0610b0c565b005b3480156103ae57600080fd5b506103ed600480360381019080803573ffffffffffffffffffffffffffffffffffffffff16906020019092919080359060200190929190505050610bcc565b604051808215151515815260200191505060405180910390f35b34801561041357600080fd5b5061043260048036038101908080359060200190929190505050610db2565b005b34801561044057600080fd5b50610449610e1a565b005b34801561045757600080fd5b50610460610fbb565b604051808215151515815260200191505060405180910390f35b34801561048657600080fd5b506104c5600480360381019080803573ffffffffffffffffffffffffffffffffffffffff16906020019092919080359060200190929190505050610fce565b604051808215151515815260200191505060405180910390f35b3480156104eb57600080fd5b50610520600480360381019080803573ffffffffffffffffffffffffffffffffffffffff169060200190929190505050610ffe565b6040518082815260200191505060405180910390f35b34801561054257600080fd5b5061054b611046565b005b34801561055957600080fd5b50610562611110565b604051808215151515815260200191505060405180910390f35b34801561058857600080fd5b50610591611175565b005b34801561059f57600080fd5b506105a8611236565b604051808273ffffffffffffffffffffffffffffffffffffffff1673ffffffffffffffffffffffffffffffffffffffff16815260200191505060405180910390f35b3480156105f657600080fd5b506105ff61125c565b6040518080602001828103825283818151815260200191508051906020019080838360005b8381101561063f578082015181840152602081019050610624565b50505050905090810190601f16801561066c5780820380516001836020036101000a031916815260200191505b509250505060405180910390f35b34801561068657600080fd5b506106c5600480360381019080803573ffffffffffffffffffffffffffffffffffffffff169060200190929190803590602001909291905050506112fa565b604051808215151515815260200191505060405180910390f35b3480156106eb57600080fd5b5061072a600480360381019080803573ffffffffffffffffffffffffffffffffffffffff1690602001909291908035906020019092919050505061132a565b604051808215151515815260200191505060405180910390f35b34801561075057600080fd5b506107a5600480360381019080803573ffffffffffffffffffffffffffffffffffffffff169060200190929190803573ffffffffffffffffffffffffffffffffffffffff16906020019092919050505061135a565b6040518082815260200191505060405180910390f35b3480156107c757600080fd5b506107d06113e1565b604051808273ffffffffffffffffffffffffffffffffffffffff1673ffffffffffffffffffffffffffffffffffffffff16815260200191505060405180910390f35b34801561081e57600080fd5b50610853600480360381019080803573ffffffffffffffffffffffffffffffffffffffff169060200190929190505050611407565b005b600560159054906101000a900460ff1681565b60038054600181600116156101000203166002900480601f0160208091040260200160405190810160405280929190818152602001828054600181600116156101000203166002900480156108fe5780601f106108d3576101008083540402835291602001916108fe565b820191906000526020600020905b8154815290600101906020018083116108e157829003601f168201915b505050505081565b6000600560169054906101000a900460ff1615151561092457600080fd5b61092e83836114a7565b905092915050565b6000600560019054906101000a900473ffffffffffffffffffffffffffffffffffffffff1673ffffffffffffffffffffffffffffffffffffffff163373ffffffffffffffffffffffffffffffffffffffff1614151561099457600080fd5b8173ffffffffffffffffffffffffffffffffffffffff166370a08231306040518263ffffffff167c0100000000000000000000000000000000000000000000000000000000028152600401808273ffffffffffffffffffffffffffffffffffffffff1673ffffffffffffffffffffffffffffffffffffffff168152602001915050602060405180830381600087803b158015610a2f57600080fd5b505af1158015610a43573d6000803e3d6000fd5b505050506040513d6020811015610a5957600080fd5b81019080805190602001909291905050509050610ab9600560019054906101000a900473ffffffffffffffffffffffffffffffffffffffff16828473ffffffffffffffffffffffffffffffffffffffff166115999092919063ffffffff16565b5050565b6000600154905090565b6000600560169054906101000a900460ff16151515610ae557600080fd5b610af0848484611687565b90509392505050565b600560009054906101000a900460ff1681565b600560019054906101000a900473ffffffffffffffffffffffffffffffffffffffff1673ffffffffffffffffffffffffffffffffffffffff163373ffffffffffffffffffffffffffffffffffffffff16141515610b6857600080fd5b600560169054906101000a900460ff161515610b8357600080fd5b6000600560166101000a81548160ff0219169083151502179055507f7805862f689e2f13df9f062ff482ad3ad112aca9e0847911ed832e158c525b3360405160405180910390a1565b6000600560019054906101000a900473ffffffffffffffffffffffffffffffffffffffff1673ffffffffffffffffffffffffffffffffffffffff163373ffffffffffffffffffffffffffffffffffffffff16141515610c2a57600080fd5b600560159054906101000a900460ff16151515610c4657600080fd5b610c5b82600154611a4290919063ffffffff16565b600181905550610cb2826000808673ffffffffffffffffffffffffffffffffffffffff1673ffffffffffffffffffffffffffffffffffffffff16815260200190815260200160002054611a4290919063ffffffff16565b6000808573ffffffffffffffffffffffffffffffffffffffff1673ffffffffffffffffffffffffffffffffffffffff168152602001908152602001600020819055508273ffffffffffffffffffffffffffffffffffffffff167f0f6798a560793a54c3bcfe86a93cde1e73087d944c0ea20544137d4121396885836040518082815260200191505060405180910390a28273ffffffffffffffffffffffffffffffffffffffff16600073ffffffffffffffffffffffffffffffffffffffff167fddf252ad1be2c89b69c2b068fc378daa952ba7f163c4a11628f55a4df523b3ef846040518082815260200191505060405180910390a36001905092915050565b600560019054906101000a900473ffffffffffffffffffffffffffffffffffffffff1673ffffffffffffffffffffffffffffffffffffffff163373ffffffffffffffffffffffffffffffffffffffff16141515610e0e57600080fd5b610e1781611a5e565b50565b600660009054906101000a900473ffffffffffffffffffffffffffffffffffffffff1673ffffffffffffffffffffffffffffffffffffffff163373ffffffffffffffffffffffffffffffffffffffff16141515610e7657600080fd5b600660009054906101000a900473ffffffffffffffffffffffffffffffffffffffff1673ffffffffffffffffffffffffffffffffffffffff16600560019054906101000a900473ffffffffffffffffffffffffffffffffffffffff1673ffffffffffffffffffffffffffffffffffffffff167f8be0079c531659141344cd1fd0a4f28419497f9722a3daafe3b4186f6b6457e060405160405180910390a3600660009054906101000a900473ffffffffffffffffffffffffffffffffffffffff16600560016101000a81548173ffffffffffffffffffffffffffffffffffffffff021916908373ffffffffffffffffffffffffffffffffffffffff1602179055506000600660006101000a81548173ffffffffffffffffffffffffffffffffffffffff021916908373ffffffffffffffffffffffffffffffffffffffff160217905550565b600560169054906101000a900460ff1681565b6000600560169054906101000a900460ff16151515610fec57600080fd5b610ff68383611a6b565b905092915050565b60008060008373ffffffffffffffffffffffffffffffffffffffff1673ffffffffffffffffffffffffffffffffffffffff168152602001908152602001600020549050919050565b600560019054906101000a900473ffffffffffffffffffffffffffffffffffffffff1673ffffffffffffffffffffffffffffffffffffffff163373ffffffffffffffffffffffffffffffffffffffff161415156110a257600080fd5b6040517f08c379a000000000000000000000000000000000000000000000000000000000815260040180806020018281038252601f8152602001807f72656e6f756e63696e67206f776e65727368697020697320626c6f636b65640081525060200191505060405180910390fd5b6000600560019054906101000a900473ffffffffffffffffffffffffffffffffffffffff1673ffffffffffffffffffffffffffffffffffffffff163373ffffffffffffffffffffffffffffffffffffffff1614151561116e57600080fd5b6000905090565b600560019054906101000a900473ffffffffffffffffffffffffffffffffffffffff1673ffffffffffffffffffffffffffffffffffffffff163373ffffffffffffffffffffffffffffffffffffffff161415156111d157600080fd5b600560169054906101000a900460ff161515156111ed57600080fd5b6001600560166101000a81548160ff0219169083151502179055507f6985a02210a168e66602d3235cb6db0e70f92b3ba4d376a33c0f3d9434bff62560405160405180910390a1565b600560019054906101000a900473ffffffffffffffffffffffffffffffffffffffff1681565b60048054600181600116156101000203166002900480601f0160208091040260200160405190810160405280929190818152602001828054600181600116156101000203166002900480156112f25780601f106112c7576101008083540402835291602001916112f2565b820191906000526020600020905b8154815290600101906020018083116112d557829003601f168201915b505050505081565b6000600560169054906101000a900460ff1615151561131857600080fd5b6113228383611cfd565b905092915050565b6000600560169054906101000a900460ff1615151561134857600080fd5b6113528383611f1d565b905092915050565b6000600260008473ffffffffffffffffffffffffffffffffffffffff1673ffffffffffffffffffffffffffffffffffffffff16815260200190815260200160002060008373ffffffffffffffffffffffffffffffffffffffff1673ffffffffffffffffffffffffffffffffffffffff16815260200190815260200160002054905092915050565b600660009054906101000a900473ffffffffffffffffffffffffffffffffffffffff1681565b600560019054906101000a900473ffffffffffffffffffffffffffffffffffffffff1673ffffffffffffffffffffffffffffffffffffffff163373ffffffffffffffffffffffffffffffffffffffff1614151561146357600080fd5b80600660006101000a81548173ffffffffffffffffffffffffffffffffffffffff021916908373ffffffffffffffffffffffffffffffffffffffff16021790555050565b600081600260003373ffffffffffffffffffffffffffffffffffffffff1673ffffffffffffffffffffffffffffffffffffffff16815260200190815260200160002060008573ffffffffffffffffffffffffffffffffffffffff1673ffffffffffffffffffffffffffffffffffffffff168152602001908152602001600020819055508273ffffffffffffffffffffffffffffffffffffffff163373ffffffffffffffffffffffffffffffffffffffff167f8c5be1e5ebec7d5bd14f71427d1e84f3dd0314c0f7b2291e5b200ac8c7c3b925846040518082815260200191505060405180910390a36001905092915050565b8273ffffffffffffffffffffffffffffffffffffffff1663a9059cbb83836040518363ffffffff167c0100000000000000000000000000000000000000000000000000000000028152600401808373ffffffffffffffffffffffffffffffffffffffff1673ffffffffffffffffffffffffffffffffffffffff16815260200182815260200192505050602060405180830381600087803b15801561163c57600080fd5b505af1158015611650573d6000803e3d6000fd5b505050506040513d602081101561166657600080fd5b8101908080519060200190929190505050151561168257600080fd5b505050565b60008060008573ffffffffffffffffffffffffffffffffffffffff1673ffffffffffffffffffffffffffffffffffffffff1681526020019081526020016000205482111515156116d657600080fd5b600260008573ffffffffffffffffffffffffffffffffffffffff1673ffffffffffffffffffffffffffffffffffffffff16815260200190815260200160002060003373ffffffffffffffffffffffffffffffffffffffff1673ffffffffffffffffffffffffffffffffffffffff16815260200190815260200160002054821115151561176157600080fd5b600073ffffffffffffffffffffffffffffffffffffffff168373ffffffffffffffffffffffffffffffffffffffff161415151561179d57600080fd5b6117ee826000808773ffffffffffffffffffffffffffffffffffffffff1673ffffffffffffffffffffffffffffffffffffffff1681526020019081526020016000205461211990919063ffffffff16565b6000808673ffffffffffffffffffffffffffffffffffffffff1673ffffffffffffffffffffffffffffffffffffffff16815260200190815260200160002081905550611881826000808673ffffffffffffffffffffffffffffffffffffffff1673ffffffffffffffffffffffffffffffffffffffff16815260200190815260200160002054611a4290919063ffffffff16565b6000808573ffffffffffffffffffffffffffffffffffffffff1673ffffffffffffffffffffffffffffffffffffffff1681526020019081526020016000208190555061195282600260008773ffffffffffffffffffffffffffffffffffffffff1673ffffffffffffffffffffffffffffffffffffffff16815260200190815260200160002060003373ffffffffffffffffffffffffffffffffffffffff1673ffffffffffffffffffffffffffffffffffffffff1681526020019081526020016000205461211990919063ffffffff16565b600260008673ffffffffffffffffffffffffffffffffffffffff1673ffffffffffffffffffffffffffffffffffffffff16815260200190815260200160002060003373ffffffffffffffffffffffffffffffffffffffff1673ffffffffffffffffffffffffffffffffffffffff168152602001908152602001600020819055508273ffffffffffffffffffffffffffffffffffffffff168473ffffffffffffffffffffffffffffffffffffffff167fddf252ad1be2c89b69c2b068fc378daa952ba7f163c4a11628f55a4df523b3ef846040518082815260200191505060405180910390a3600190509392505050565b60008183019050828110151515611a5557fe5b80905092915050565b611a683382612132565b50565b600080600260003373ffffffffffffffffffffffffffffffffffffffff1673ffffffffffffffffffffffffffffffffffffffff16815260200190815260200160002060008573ffffffffffffffffffffffffffffffffffffffff1673ffffffffffffffffffffffffffffffffffffffff1681526020019081526020016000205490508083101515611b7d576000600260003373ffffffffffffffffffffffffffffffffffffffff1673ffffffffffffffffffffffffffffffffffffffff16815260200190815260200160002060008673ffffffffffffffffffffffffffffffffffffffff1673ffffffffffffffffffffffffffffffffffffffff16815260200190815260200160002081905550611c11565b611b90838261211990919063ffffffff16565b600260003373ffffffffffffffffffffffffffffffffffffffff1673ffffffffffffffffffffffffffffffffffffffff16815260200190815260200160002060008673ffffffffffffffffffffffffffffffffffffffff1673ffffffffffffffffffffffffffffffffffffffff168152602001908152602001600020819055505b8373ffffffffffffffffffffffffffffffffffffffff163373ffffffffffffffffffffffffffffffffffffffff167f8c5be1e5ebec7d5bd14f71427d1e84f3dd0314c0f7b2291e5b200ac8c7c3b925600260003373ffffffffffffffffffffffffffffffffffffffff1673ffffffffffffffffffffffffffffffffffffffff16815260200190815260200160002060008873ffffffffffffffffffffffffffffffffffffffff1673ffffffffffffffffffffffffffffffffffffffff168152602001908152602001600020546040518082815260200191505060405180910390a3600191505092915050565b60008060003373ffffffffffffffffffffffffffffffffffffffff1673ffffffffffffffffffffffffffffffffffffffff168152602001908152602001600020548211151515611d4c57600080fd5b600073ffffffffffffffffffffffffffffffffffffffff168373ffffffffffffffffffffffffffffffffffffffff1614151515611d8857600080fd5b611dd9826000803373ffffffffffffffffffffffffffffffffffffffff1673ffffffffffffffffffffffffffffffffffffffff1681526020019081526020016000205461211990919063ffffffff16565b6000803373ffffffffffffffffffffffffffffffffffffffff1673ffffffffffffffffffffffffffffffffffffffff16815260200190815260200160002081905550611e6c826000808673ffffffffffffffffffffffffffffffffffffffff1673ffffffffffffffffffffffffffffffffffffffff16815260200190815260200160002054611a4290919063ffffffff16565b6000808573ffffffffffffffffffffffffffffffffffffffff1673ffffffffffffffffffffffffffffffffffffffff168152602001908152602001600020819055508273ffffffffffffffffffffffffffffffffffffffff163373ffffffffffffffffffffffffffffffffffffffff167fddf252ad1be2c89b69c2b068fc378daa952ba7f163c4a11628f55a4df523b3ef846040518082815260200191505060405180910390a36001905092915050565b6000611fae82600260003373ffffffffffffffffffffffffffffffffffffffff1673ffffffffffffffffffffffffffffffffffffffff16815260200190815260200160002060008673ffffffffffffffffffffffffffffffffffffffff1673ffffffffffffffffffffffffffffffffffffffff16815260200190815260200160002054611a4290919063ffffffff16565b600260003373ffffffffffffffffffffffffffffffffffffffff1673ffffffffffffffffffffffffffffffffffffffff16815260200190815260200160002060008573ffffffffffffffffffffffffffffffffffffffff1673ffffffffffffffffffffffffffffffffffffffff168152602001908152602001600020819055508273ffffffffffffffffffffffffffffffffffffffff163373ffffffffffffffffffffffffffffffffffffffff167f8c5be1e5ebec7d5bd14f71427d1e84f3dd0314c0f7b2291e5b200ac8c7c3b925600260003373ffffffffffffffffffffffffffffffffffffffff1673ffffffffffffffffffffffffffffffffffffffff16815260200190815260200160002060008773ffffffffffffffffffffffffffffffffffffffff1673ffffffffffffffffffffffffffffffffffffffff168152602001908152602001600020546040518082815260200191505060405180910390a36001905092915050565b600082821115151561212757fe5b818303905092915050565b6000808373ffffffffffffffffffffffffffffffffffffffff1673ffffffffffffffffffffffffffffffffffffffff16815260200190815260200160002054811115151561217f57600080fd5b6121d0816000808573ffffffffffffffffffffffffffffffffffffffff1673ffffffffffffffffffffffffffffffffffffffff1681526020019081526020016000205461211990919063ffffffff16565b6000808473ffffffffffffffffffffffffffffffffffffffff1673ffffffffffffffffffffffffffffffffffffffff168152602001908152602001600020819055506122278160015461211990919063ffffffff16565b6001819055508173ffffffffffffffffffffffffffffffffffffffff167fcc16f5dbb4873280815c1ee09dbd06736cffcc184412cf7a71a0fdb75d397ca5826040518082815260200191505060405180910390a2600073ffffffffffffffffffffffffffffffffffffffff168273ffffffffffffffffffffffffffffffffffffffff167fddf252ad1be2c89b69c2b068fc378daa952ba7f163c4a11628f55a4df523b3ef836040518082815260200191505060405180910390a350505600a165627a7a7230582081cc5489d3ce7af59e0c479c22e434c295a30d96af0c6cbb78f1f3dffba305c20029",
					"opcodes": "PUSH1 0x80 PUSH1 0x40 MSTORE PUSH1 0x0 PUSH1 0x5 PUSH1 0x15 PUSH2 0x100 EXP DUP2 SLOAD DUP2 PUSH1 0xFF MUL NOT AND SWAP1 DUP4 ISZERO ISZERO MUL OR SWAP1 SSTORE POP PUSH1 0x0 PUSH1 0x5 PUSH1 0x16 PUSH2 0x100 EXP DUP2 SLOAD DUP2 PUSH1 0xFF MUL NOT AND SWAP1 DUP4 ISZERO ISZERO MUL OR SWAP1 SSTORE POP PUSH1 0x40 DUP1 MLOAD SWAP1 DUP2 ADD PUSH1 0x40 MSTORE DUP1 PUSH1 0xB DUP2 MSTORE PUSH1 0x20 ADD PUSH32 0x5772617070656420425443000000000000000000000000000000000000000000 DUP2 MSTORE POP PUSH1 0x40 DUP1 MLOAD SWAP1 DUP2 ADD PUSH1 0x40 MSTORE DUP1 PUSH1 0x4 DUP2 MSTORE PUSH1 0x20 ADD PUSH32 0x5742544300000000000000000000000000000000000000000000000000000000 DUP2 MSTORE POP PUSH1 0x8 DUP3 PUSH1 0x3 SWAP1 DUP1 MLOAD SWAP1 PUSH1 0x20 ADD SWAP1 PUSH3 0xC0 SWAP3 SWAP2 SWAP1 PUSH3 0x13F JUMP JUMPDEST POP DUP2 PUSH1 0x4 SWAP1 DUP1 MLOAD SWAP1 PUSH1 0x20 ADD SWAP1 PUSH3 0xD9 SWAP3 SWAP2 SWAP1 PUSH3 0x13F JUMP JUMPDEST POP DUP1 PUSH1 0x5 PUSH1 0x0 PUSH2 0x100 EXP DUP2 SLOAD DUP2 PUSH1 0xFF MUL NOT AND SWAP1 DUP4 PUSH1 0xFF AND MUL OR SWAP1 SSTORE POP POP POP POP CALLER PUSH1 0x5 PUSH1 0x1 PUSH2 0x100 EXP DUP2 SLOAD DUP2 PUSH20 0xFFFFFFFFFFFFFFFFFFFFFFFFFFFFFFFFFFFFFFFF MUL NOT AND SWAP1 DUP4 PUSH20 0xFFFFFFFFFFFFFFFFFFFFFFFFFFFFFFFFFFFFFFFF AND MUL OR SWAP1 SSTORE POP PUSH3 0x1EE JUMP JUMPDEST DUP3 DUP1 SLOAD PUSH1 0x1 DUP2 PUSH1 0x1 AND ISZERO PUSH2 0x100 MUL SUB AND PUSH1 0x2 SWAP1 DIV SWAP1 PUSH1 0x0 MSTORE PUSH1 0x20 PUSH1 0x0 KECCAK256 SWAP1 PUSH1 0x1F ADD PUSH1 0x20 SWAP1 DIV DUP2 ADD SWAP3 DUP3 PUSH1 0x1F LT PUSH3 0x182 JUMPI DUP1 MLOAD PUSH1 0xFF NOT AND DUP4 DUP1 ADD OR DUP6 SSTORE PUSH3 0x1B3 JUMP JUMPDEST DUP3 DUP1 ADD PUSH1 0x1 ADD DUP6 SSTORE DUP3 ISZERO PUSH3 0x1B3 JUMPI SWAP2 DUP3 ADD JUMPDEST DUP3 DUP2 GT ISZERO PUSH3 0x1B2 JUMPI DUP3 MLOAD DUP3 SSTORE SWAP2 PUSH1 0x20 ADD SWAP2 SWAP1 PUSH1 0x1 ADD SWAP1 PUSH3 0x195 JUMP JUMPDEST JUMPDEST POP SWAP1 POP PUSH3 0x1C2 SWAP2 SWAP1 PUSH3 0x1C6 JUMP JUMPDEST POP SWAP1 JUMP JUMPDEST PUSH3 0x1EB SWAP2 SWAP1 JUMPDEST DUP1 DUP3 GT ISZERO PUSH3 0x1E7 JUMPI PUSH1 0x0 DUP2 PUSH1 0x0 SWAP1 SSTORE POP PUSH1 0x1 ADD PUSH3 0x1CD JUMP JUMPDEST POP SWAP1 JUMP JUMPDEST SWAP1 JUMP JUMPDEST PUSH2 0x2311 DUP1 PUSH3 0x1FE PUSH1 0x0 CODECOPY PUSH1 0x0 RETURN STOP PUSH1 0x80 PUSH1 0x40 MSTORE PUSH1 0x4 CALLDATASIZE LT PUSH2 0x13E JUMPI PUSH1 0x0 CALLDATALOAD PUSH29 0x100000000000000000000000000000000000000000000000000000000 SWAP1 DIV PUSH4 0xFFFFFFFF AND DUP1 PUSH4 0x5D2035B EQ PUSH2 0x143 JUMPI DUP1 PUSH4 0x6FDDE03 EQ PUSH2 0x172 JUMPI DUP1 PUSH4 0x95EA7B3 EQ PUSH2 0x202 JUMPI DUP1 PUSH4 0x17FFC320 EQ PUSH2 0x267 JUMPI DUP1 PUSH4 0x18160DDD EQ PUSH2 0x2AA JUMPI DUP1 PUSH4 0x23B872DD EQ PUSH2 0x2D5 JUMPI DUP1 PUSH4 0x313CE567 EQ PUSH2 0x35A JUMPI DUP1 PUSH4 0x3F4BA83A EQ PUSH2 0x38B JUMPI DUP1 PUSH4 0x40C10F19 EQ PUSH2 0x3A2 JUMPI DUP1 PUSH4 0x42966C68 EQ PUSH2 0x407 JUMPI DUP1 PUSH4 0x4E71E0C8 EQ PUSH2 0x434 JUMPI DUP1 PUSH4 0x5C975ABB EQ PUSH2 0x44B JUMPI DUP1 PUSH4 0x66188463 EQ PUSH2 0x47A JUMPI DUP1 PUSH4 0x70A08231 EQ PUSH2 0x4DF JUMPI DUP1 PUSH4 0x715018A6 EQ PUSH2 0x536 JUMPI DUP1 PUSH4 0x7D64BCB4 EQ PUSH2 0x54D JUMPI DUP1 PUSH4 0x8456CB59 EQ PUSH2 0x57C JUMPI DUP1 PUSH4 0x8DA5CB5B EQ PUSH2 0x593 JUMPI DUP1 PUSH4 0x95D89B41 EQ PUSH2 0x5EA JUMPI DUP1 PUSH4 0xA9059CBB EQ PUSH2 0x67A JUMPI DUP1 PUSH4 0xD73DD623 EQ PUSH2 0x6DF JUMPI DUP1 PUSH4 0xDD62ED3E EQ PUSH2 0x744 JUMPI DUP1 PUSH4 0xE30C3978 EQ PUSH2 0x7BB JUMPI DUP1 PUSH4 0xF2FDE38B EQ PUSH2 0x812 JUMPI JUMPDEST PUSH1 0x0 DUP1 REVERT JUMPDEST CALLVALUE DUP1 ISZERO PUSH2 0x14F JUMPI PUSH1 0x0 DUP1 REVERT JUMPDEST POP PUSH2 0x158 PUSH2 0x855 JUMP JUMPDEST PUSH1 0x40 MLOAD DUP1 DUP3 ISZERO ISZERO ISZERO ISZERO DUP2 MSTORE PUSH1 0x20 ADD SWAP2 POP POP PUSH1 0x40 MLOAD DUP1 SWAP2 SUB SWAP1 RETURN JUMPDEST CALLVALUE DUP1 ISZERO PUSH2 0x17E JUMPI PUSH1 0x0 DUP1 REVERT JUMPDEST POP PUSH2 0x187 PUSH2 0x868 JUMP JUMPDEST PUSH1 0x40 MLOAD DUP1 DUP1 PUSH1 0x20 ADD DUP3 DUP2 SUB DUP3 MSTORE DUP4 DUP2 DUP2 MLOAD DUP2 MSTORE PUSH1 0x20 ADD SWAP2 POP DUP1 MLOAD SWAP1 PUSH1 0x20 ADD SWAP1 DUP1 DUP4 DUP4 PUSH1 0x0 JUMPDEST DUP4 DUP2 LT ISZERO PUSH2 0x1C7 JUMPI DUP1 DUP3 ADD MLOAD DUP2 DUP5 ADD MSTORE PUSH1 0x20 DUP2 ADD SWAP1 POP PUSH2 0x1AC JUMP JUMPDEST POP POP POP POP SWAP1 POP SWAP1 DUP2 ADD SWAP1 PUSH1 0x1F AND DUP1 ISZERO PUSH2 0x1F4 JUMPI DUP1 DUP3 SUB DUP1 MLOAD PUSH1 0x1 DUP4 PUSH1 0x20 SUB PUSH2 0x100 EXP SUB NOT AND DUP2 MSTORE PUSH1 0x20 ADD SWAP2 POP JUMPDEST POP SWAP3 POP POP POP PUSH1 0x40 MLOAD DUP1 SWAP2 SUB SWAP1 RETURN JUMPDEST CALLVALUE DUP1 ISZERO PUSH2 0x20E JUMPI PUSH1 0x0 DUP1 REVERT JUMPDEST POP PUSH2 0x24D PUSH1 0x4 DUP1 CALLDATASIZE SUB DUP2 ADD SWAP1 DUP1 DUP1 CALLDATALOAD PUSH20 0xFFFFFFFFFFFFFFFFFFFFFFFFFFFFFFFFFFFFFFFF AND SWAP1 PUSH1 0x20 ADD SWAP1 SWAP3 SWAP2 SWAP1 DUP1 CALLDATALOAD SWAP1 PUSH1 0x20 ADD SWAP1 SWAP3 SWAP2 SWAP1 POP POP POP PUSH2 0x906 JUMP JUMPDEST PUSH1 0x40 MLOAD DUP1 DUP3 ISZERO ISZERO ISZERO ISZERO DUP2 MSTORE PUSH1 0x20 ADD SWAP2 POP POP PUSH1 0x40 MLOAD DUP1 SWAP2 SUB SWAP1 RETURN JUMPDEST CALLVALUE DUP1 ISZERO PUSH2 0x273 JUMPI PUSH1 0x0 DUP1 REVERT JUMPDEST POP PUSH2 0x2A8 PUSH1 0x4 DUP1 CALLDATASIZE SUB DUP2 ADD SWAP1 DUP1 DUP1 CALLDATALOAD PUSH20 0xFFFFFFFFFFFFFFFFFFFFFFFFFFFFFFFFFFFFFFFF AND SWAP1 PUSH1 0x20 ADD SWAP1 SWAP3 SWAP2 SWAP1 POP POP POP PUSH2 0x936 JUMP JUMPDEST STOP JUMPDEST CALLVALUE DUP1 ISZERO PUSH2 0x2B6 JUMPI PUSH1 0x0 DUP1 REVERT JUMPDEST POP PUSH2 0x2BF PUSH2 0xABD JUMP JUMPDEST PUSH1 0x40 MLOAD DUP1 DUP3 DUP2 MSTORE PUSH1 0x20 ADD SWAP2 POP POP PUSH1 0x40 MLOAD DUP1 SWAP2 SUB SWAP1 RETURN JUMPDEST CALLVALUE DUP1 ISZERO PUSH2 0x2E1 JUMPI PUSH1 0x0 DUP1 REVERT JUMPDEST POP PUSH2 0x340 PUSH1 0x4 DUP1 CALLDATASIZE SUB DUP2 ADD SWAP1 DUP1 DUP1 CALLDATALOAD PUSH20 0xFFFFFFFFFFFFFFFFFFFFFFFFFFFFFFFFFFFFFFFF AND SWAP1 PUSH1 0x20 ADD SWAP1 SWAP3 SWAP2 SWAP1 DUP1 CALLDATALOAD PUSH20 0xFFFFFFFFFFFFFFFFFFFFFFFFFFFFFFFFFFFFFFFF AND SWAP1 PUSH1 0x20 ADD SWAP1 SWAP3 SWAP2 SWAP1 DUP1 CALLDATALOAD SWAP1 PUSH1 0x20 ADD SWAP1 SWAP3 SWAP2 SWAP1 POP POP POP PUSH2 0xAC7 JUMP JUMPDEST PUSH1 0x40 MLOAD DUP1 DUP3 ISZERO ISZERO ISZERO ISZERO DUP2 MSTORE PUSH1 0x20 ADD SWAP2 POP POP PUSH1 0x40 MLOAD DUP1 SWAP2 SUB SWAP1 RETURN JUMPDEST CALLVALUE DUP1 ISZERO PUSH2 0x366 JUMPI PUSH1 0x0 DUP1 REVERT JUMPDEST POP PUSH2 0x36F PUSH2 0xAF9 JUMP JUMPDEST PUSH1 0x40 MLOAD DUP1 DUP3 PUSH1 0xFF AND PUSH1 0xFF AND DUP2 MSTORE PUSH1 0x20 ADD SWAP2 POP POP PUSH1 0x40 MLOAD DUP1 SWAP2 SUB SWAP1 RETURN JUMPDEST CALLVALUE DUP1 ISZERO PUSH2 0x397 JUMPI PUSH1 0x0 DUP1 REVERT JUMPDEST POP PUSH2 0x3A0 PUSH2 0xB0C JUMP JUMPDEST STOP JUMPDEST CALLVALUE DUP1 ISZERO PUSH2 0x3AE JUMPI PUSH1 0x0 DUP1 REVERT JUMPDEST POP PUSH2 0x3ED PUSH1 0x4 DUP1 CALLDATASIZE SUB DUP2 ADD SWAP1 DUP1 DUP1 CALLDATALOAD PUSH20 0xFFFFFFFFFFFFFFFFFFFFFFFFFFFFFFFFFFFFFFFF AND SWAP1 PUSH1 0x20 ADD SWAP1 SWAP3 SWAP2 SWAP1 DUP1 CALLDATALOAD SWAP1 PUSH1 0x20 ADD SWAP1 SWAP3 SWAP2 SWAP1 POP POP POP PUSH2 0xBCC JUMP JUMPDEST PUSH1 0x40 MLOAD DUP1 DUP3 ISZERO ISZERO ISZERO ISZERO DUP2 MSTORE PUSH1 0x20 ADD SWAP2 POP POP PUSH1 0x40 MLOAD DUP1 SWAP2 SUB SWAP1 RETURN JUMPDEST CALLVALUE DUP1 ISZERO PUSH2 0x413 JUMPI PUSH1 0x0 DUP1 REVERT JUMPDEST POP PUSH2 0x432 PUSH1 0x4 DUP1 CALLDATASIZE SUB DUP2 ADD SWAP1 DUP1 DUP1 CALLDATALOAD SWAP1 PUSH1 0x20 ADD SWAP1 SWAP3 SWAP2 SWAP1 POP POP POP PUSH2 0xDB2 JUMP JUMPDEST STOP JUMPDEST CALLVALUE DUP1 ISZERO PUSH2 0x440 JUMPI PUSH1 0x0 DUP1 REVERT JUMPDEST POP PUSH2 0x449 PUSH2 0xE1A JUMP JUMPDEST STOP JUMPDEST CALLVALUE DUP1 ISZERO PUSH2 0x457 JUMPI PUSH1 0x0 DUP1 REVERT JUMPDEST POP PUSH2 0x460 PUSH2 0xFBB JUMP JUMPDEST PUSH1 0x40 MLOAD DUP1 DUP3 ISZERO ISZERO ISZERO ISZERO DUP2 MSTORE PUSH1 0x20 ADD SWAP2 POP POP PUSH1 0x40 MLOAD DUP1 SWAP2 SUB SWAP1 RETURN JUMPDEST CALLVALUE DUP1 ISZERO PUSH2 0x486 JUMPI PUSH1 0x0 DUP1 REVERT JUMPDEST POP PUSH2 0x4C5 PUSH1 0x4 DUP1 CALLDATASIZE SUB DUP2 ADD SWAP1 DUP1 DUP1 CALLDATALOAD PUSH20 0xFFFFFFFFFFFFFFFFFFFFFFFFFFFFFFFFFFFFFFFF AND SWAP1 PUSH1 0x20 ADD SWAP1 SWAP3 SWAP2 SWAP1 DUP1 CALLDATALOAD SWAP1 PUSH1 0x20 ADD SWAP1 SWAP3 SWAP2 SWAP1 POP POP POP PUSH2 0xFCE JUMP JUMPDEST PUSH1 0x40 MLOAD DUP1 DUP3 ISZERO ISZERO ISZERO ISZERO DUP2 MSTORE PUSH1 0x20 ADD SWAP2 POP POP PUSH1 0x40 MLOAD DUP1 SWAP2 SUB SWAP1 RETURN JUMPDEST CALLVALUE DUP1 ISZERO PUSH2 0x4EB JUMPI PUSH1 0x0 DUP1 REVERT JUMPDEST POP PUSH2 0x520 PUSH1 0x4 DUP1 CALLDATASIZE SUB DUP2 ADD SWAP1 DUP1 DUP1 CALLDATALOAD PUSH20 0xFFFFFFFFFFFFFFFFFFFFFFFFFFFFFFFFFFFFFFFF AND SWAP1 PUSH1 0x20 ADD SWAP1 SWAP3 SWAP2 SWAP1 POP POP POP PUSH2 0xFFE JUMP JUMPDEST PUSH1 0x40 MLOAD DUP1 DUP3 DUP2 MSTORE PUSH1 0x20 ADD SWAP2 POP POP PUSH1 0x40 MLOAD DUP1 SWAP2 SUB SWAP1 RETURN JUMPDEST CALLVALUE DUP1 ISZERO PUSH2 0x542 JUMPI PUSH1 0x0 DUP1 REVERT JUMPDEST POP PUSH2 0x54B PUSH2 0x1046 JUMP JUMPDEST STOP JUMPDEST CALLVALUE DUP1 ISZERO PUSH2 0x559 JUMPI PUSH1 0x0 DUP1 REVERT JUMPDEST POP PUSH2 0x562 PUSH2 0x1110 JUMP JUMPDEST PUSH1 0x40 MLOAD DUP1 DUP3 ISZERO ISZERO ISZERO ISZERO DUP2 MSTORE PUSH1 0x20 ADD SWAP2 POP POP PUSH1 0x40 MLOAD DUP1 SWAP2 SUB SWAP1 RETURN JUMPDEST CALLVALUE DUP1 ISZERO PUSH2 0x588 JUMPI PUSH1 0x0 DUP1 REVERT JUMPDEST POP PUSH2 0x591 PUSH2 0x1175 JUMP JUMPDEST STOP JUMPDEST CALLVALUE DUP1 ISZERO PUSH2 0x59F JUMPI PUSH1 0x0 DUP1 REVERT JUMPDEST POP PUSH2 0x5A8 PUSH2 0x1236 JUMP JUMPDEST PUSH1 0x40 MLOAD DUP1 DUP3 PUSH20 0xFFFFFFFFFFFFFFFFFFFFFFFFFFFFFFFFFFFFFFFF AND PUSH20 0xFFFFFFFFFFFFFFFFFFFFFFFFFFFFFFFFFFFFFFFF AND DUP2 MSTORE PUSH1 0x20 ADD SWAP2 POP POP PUSH1 0x40 MLOAD DUP1 SWAP2 SUB SWAP1 RETURN JUMPDEST CALLVALUE DUP1 ISZERO PUSH2 0x5F6 JUMPI PUSH1 0x0 DUP1 REVERT JUMPDEST POP PUSH2 0x5FF PUSH2 0x125C JUMP JUMPDEST PUSH1 0x40 MLOAD DUP1 DUP1 PUSH1 0x20 ADD DUP3 DUP2 SUB DUP3 MSTORE DUP4 DUP2 DUP2 MLOAD DUP2 MSTORE PUSH1 0x20 ADD SWAP2 POP DUP1 MLOAD SWAP1 PUSH1 0x20 ADD SWAP1 DUP1 DUP4 DUP4 PUSH1 0x0 JUMPDEST DUP4 DUP2 LT ISZERO PUSH2 0x63F JUMPI DUP1 DUP3 ADD MLOAD DUP2 DUP5 ADD MSTORE PUSH1 0x20 DUP2 ADD SWAP1 POP PUSH2 0x624 JUMP JUMPDEST POP POP POP POP SWAP1 POP SWAP1 DUP2 ADD SWAP1 PUSH1 0x1F AND DUP1 ISZERO PUSH2 0x66C JUMPI DUP1 DUP3 SUB DUP1 MLOAD PUSH1 0x1 DUP4 PUSH1 0x20 SUB PUSH2 0x100 EXP SUB NOT AND DUP2 MSTORE PUSH1 0x20 ADD SWAP2 POP JUMPDEST POP SWAP3 POP POP POP PUSH1 0x40 MLOAD DUP1 SWAP2 SUB SWAP1 RETURN JUMPDEST CALLVALUE DUP1 ISZERO PUSH2 0x686 JUMPI PUSH1 0x0 DUP1 REVERT JUMPDEST POP PUSH2 0x6C5 PUSH1 0x4 DUP1 CALLDATASIZE SUB DUP2 ADD SWAP1 DUP1 DUP1 CALLDATALOAD PUSH20 0xFFFFFFFFFFFFFFFFFFFFFFFFFFFFFFFFFFFFFFFF AND SWAP1 PUSH1 0x20 ADD SWAP1 SWAP3 SWAP2 SWAP1 DUP1 CALLDATALOAD SWAP1 PUSH1 0x20 ADD SWAP1 SWAP3 SWAP2 SWAP1 POP POP POP PUSH2 0x12FA JUMP JUMPDEST PUSH1 0x40 MLOAD DUP1 DUP3 ISZERO ISZERO ISZERO ISZERO DUP2 MSTORE PUSH1 0x20 ADD SWAP2 POP POP PUSH1 0x40 MLOAD DUP1 SWAP2 SUB SWAP1 RETURN JUMPDEST CALLVALUE DUP1 ISZERO PUSH2 0x6EB JUMPI PUSH1 0x0 DUP1 REVERT JUMPDEST POP PUSH2 0x72A PUSH1 0x4 DUP1 CALLDATASIZE SUB DUP2 ADD SWAP1 DUP1 DUP1 CALLDATALOAD PUSH20 0xFFFFFFFFFFFFFFFFFFFFFFFFFFFFFFFFFFFFFFFF AND SWAP1 PUSH1 0x20 ADD SWAP1 SWAP3 SWAP2 SWAP1 DUP1 CALLDATALOAD SWAP1 PUSH1 0x20 ADD SWAP1 SWAP3 SWAP2 SWAP1 POP POP POP PUSH2 0x132A JUMP JUMPDEST PUSH1 0x40 MLOAD DUP1 DUP3 ISZERO ISZERO ISZERO ISZERO DUP2 MSTORE PUSH1 0x20 ADD SWAP2 POP POP PUSH1 0x40 MLOAD DUP1 SWAP2 SUB SWAP1 RETURN JUMPDEST CALLVALUE DUP1 ISZERO PUSH2 0x750 JUMPI PUSH1 0x0 DUP1 REVERT JUMPDEST POP PUSH2 0x7A5 PUSH1 0x4 DUP1 CALLDATASIZE SUB DUP2 ADD SWAP1 DUP1 DUP1 CALLDATALOAD PUSH20 0xFFFFFFFFFFFFFFFFFFFFFFFFFFFFFFFFFFFFFFFF AND SWAP1 PUSH1 0x20 ADD SWAP1 SWAP3 SWAP2 SWAP1 DUP1 CALLDATALOAD PUSH20 0xFFFFFFFFFFFFFFFFFFFFFFFFFFFFFFFFFFFFFFFF AND SWAP1 PUSH1 0x20 ADD SWAP1 SWAP3 SWAP2 SWAP1 POP POP POP PUSH2 0x135A JUMP JUMPDEST PUSH1 0x40 MLOAD DUP1 DUP3 DUP2 MSTORE PUSH1 0x20 ADD SWAP2 POP POP PUSH1 0x40 MLOAD DUP1 SWAP2 SUB SWAP1 RETURN JUMPDEST CALLVALUE DUP1 ISZERO PUSH2 0x7C7 JUMPI PUSH1 0x0 DUP1 REVERT JUMPDEST POP PUSH2 0x7D0 PUSH2 0x13E1 JUMP JUMPDEST PUSH1 0x40 MLOAD DUP1 DUP3 PUSH20 0xFFFFFFFFFFFFFFFFFFFFFFFFFFFFFFFFFFFFFFFF AND PUSH20 0xFFFFFFFFFFFFFFFFFFFFFFFFFFFFFFFFFFFFFFFF AND DUP2 MSTORE PUSH1 0x20 ADD SWAP2 POP POP PUSH1 0x40 MLOAD DUP1 SWAP2 SUB SWAP1 RETURN JUMPDEST CALLVALUE DUP1 ISZERO PUSH2 0x81E JUMPI PUSH1 0x0 DUP1 REVERT JUMPDEST POP PUSH2 0x853 PUSH1 0x4 DUP1 CALLDATASIZE SUB DUP2 ADD SWAP1 DUP1 DUP1 CALLDATALOAD PUSH20 0xFFFFFFFFFFFFFFFFFFFFFFFFFFFFFFFFFFFFFFFF AND SWAP1 PUSH1 0x20 ADD SWAP1 SWAP3 SWAP2 SWAP1 POP POP POP PUSH2 0x1407 JUMP JUMPDEST STOP JUMPDEST PUSH1 0x5 PUSH1 0x15 SWAP1 SLOAD SWAP1 PUSH2 0x100 EXP SWAP1 DIV PUSH1 0xFF AND DUP2 JUMP JUMPDEST PUSH1 0x3 DUP1 SLOAD PUSH1 0x1 DUP2 PUSH1 0x1 AND ISZERO PUSH2 0x100 MUL SUB AND PUSH1 0x2 SWAP1 DIV DUP1 PUSH1 0x1F ADD PUSH1 0x20 DUP1 SWAP2 DIV MUL PUSH1 0x20 ADD PUSH1 0x40 MLOAD SWAP1 DUP2 ADD PUSH1 0x40 MSTORE DUP1 SWAP3 SWAP2 SWAP1 DUP2 DUP2 MSTORE PUSH1 0x20 ADD DUP3 DUP1 SLOAD PUSH1 0x1 DUP2 PUSH1 0x1 AND ISZERO PUSH2 0x100 MUL SUB AND PUSH1 0x2 SWAP1 DIV DUP1 ISZERO PUSH2 0x8FE JUMPI DUP1 PUSH1 0x1F LT PUSH2 0x8D3 JUMPI PUSH2 0x100 DUP1 DUP4 SLOAD DIV MUL DUP4 MSTORE SWAP2 PUSH1 0x20 ADD SWAP2 PUSH2 0x8FE JUMP JUMPDEST DUP3 ADD SWAP2 SWAP1 PUSH1 0x0 MSTORE PUSH1 0x20 PUSH1 0x0 KECCAK256 SWAP1 JUMPDEST DUP2 SLOAD DUP2 MSTORE SWAP1 PUSH1 0x1 ADD SWAP1 PUSH1 0x20 ADD DUP1 DUP4 GT PUSH2 0x8E1 JUMPI DUP3 SWAP1 SUB PUSH1 0x1F AND DUP3 ADD SWAP2 JUMPDEST POP POP POP POP POP DUP2 JUMP JUMPDEST PUSH1 0x0 PUSH1 0x5 PUSH1 0x16 SWAP1 SLOAD SWAP1 PUSH2 0x100 EXP SWAP1 DIV PUSH1 0xFF AND ISZERO ISZERO ISZERO PUSH2 0x924 JUMPI PUSH1 0x0 DUP1 REVERT JUMPDEST PUSH2 0x92E DUP4 DUP4 PUSH2 0x14A7 JUMP JUMPDEST SWAP1 POP SWAP3 SWAP2 POP POP JUMP JUMPDEST PUSH1 0x0 PUSH1 0x5 PUSH1 0x1 SWAP1 SLOAD SWAP1 PUSH2 0x100 EXP SWAP1 DIV PUSH20 0xFFFFFFFFFFFFFFFFFFFFFFFFFFFFFFFFFFFFFFFF AND PUSH20 0xFFFFFFFFFFFFFFFFFFFFFFFFFFFFFFFFFFFFFFFF AND CALLER PUSH20 0xFFFFFFFFFFFFFFFFFFFFFFFFFFFFFFFFFFFFFFFF AND EQ ISZERO ISZERO PUSH2 0x994 JUMPI PUSH1 0x0 DUP1 REVERT JUMPDEST DUP2 PUSH20 0xFFFFFFFFFFFFFFFFFFFFFFFFFFFFFFFFFFFFFFFF AND PUSH4 0x70A08231 ADDRESS PUSH1 0x40 MLOAD DUP3 PUSH4 0xFFFFFFFF AND PUSH29 0x100000000000000000000000000000000000000000000000000000000 MUL DUP2 MSTORE PUSH1 0x4 ADD DUP1 DUP3 PUSH20 0xFFFFFFFFFFFFFFFFFFFFFFFFFFFFFFFFFFFFFFFF AND PUSH20 0xFFFFFFFFFFFFFFFFFFFFFFFFFFFFFFFFFFFFFFFF AND DUP2 MSTORE PUSH1 0x20 ADD SWAP2 POP POP PUSH1 0x20 PUSH1 0x40 MLOAD DUP1 DUP4 SUB DUP2 PUSH1 0x0 DUP8 DUP1 EXTCODESIZE ISZERO DUP1 ISZERO PUSH2 0xA2F JUMPI PUSH1 0x0 DUP1 REVERT JUMPDEST POP GAS CALL ISZERO DUP1 ISZERO PUSH2 0xA43 JUMPI RETURNDATASIZE PUSH1 0x0 DUP1 RETURNDATACOPY RETURNDATASIZE PUSH1 0x0 REVERT JUMPDEST POP POP POP POP PUSH1 0x40 MLOAD RETURNDATASIZE PUSH1 0x20 DUP2 LT ISZERO PUSH2 0xA59 JUMPI PUSH1 0x0 DUP1 REVERT JUMPDEST DUP2 ADD SWAP1 DUP1 DUP1 MLOAD SWAP1 PUSH1 0x20 ADD SWAP1 SWAP3 SWAP2 SWAP1 POP POP POP SWAP1 POP PUSH2 0xAB9 PUSH1 0x5 PUSH1 0x1 SWAP1 SLOAD SWAP1 PUSH2 0x100 EXP SWAP1 DIV PUSH20 0xFFFFFFFFFFFFFFFFFFFFFFFFFFFFFFFFFFFFFFFF AND DUP3 DUP5 PUSH20 0xFFFFFFFFFFFFFFFFFFFFFFFFFFFFFFFFFFFFFFFF AND PUSH2 0x1599 SWAP1 SWAP3 SWAP2 SWAP1 PUSH4 0xFFFFFFFF AND JUMP JUMPDEST POP POP JUMP JUMPDEST PUSH1 0x0 PUSH1 0x1 SLOAD SWAP1 POP SWAP1 JUMP JUMPDEST PUSH1 0x0 PUSH1 0x5 PUSH1 0x16 SWAP1 SLOAD SWAP1 PUSH2 0x100 EXP SWAP1 DIV PUSH1 0xFF AND ISZERO ISZERO ISZERO PUSH2 0xAE5 JUMPI PUSH1 0x0 DUP1 REVERT JUMPDEST PUSH2 0xAF0 DUP5 DUP5 DUP5 PUSH2 0x1687 JUMP JUMPDEST SWAP1 POP SWAP4 SWAP3 POP POP POP JUMP JUMPDEST PUSH1 0x5 PUSH1 0x0 SWAP1 SLOAD SWAP1 PUSH2 0x100 EXP SWAP1 DIV PUSH1 0xFF AND DUP2 JUMP JUMPDEST PUSH1 0x5 PUSH1 0x1 SWAP1 SLOAD SWAP1 PUSH2 0x100 EXP SWAP1 DIV PUSH20 0xFFFFFFFFFFFFFFFFFFFFFFFFFFFFFFFFFFFFFFFF AND PUSH20 0xFFFFFFFFFFFFFFFFFFFFFFFFFFFFFFFFFFFFFFFF AND CALLER PUSH20 0xFFFFFFFFFFFFFFFFFFFFFFFFFFFFFFFFFFFFFFFF AND EQ ISZERO ISZERO PUSH2 0xB68 JUMPI PUSH1 0x0 DUP1 REVERT JUMPDEST PUSH1 0x5 PUSH1 0x16 SWAP1 SLOAD SWAP1 PUSH2 0x100 EXP SWAP1 DIV PUSH1 0xFF AND ISZERO ISZERO PUSH2 0xB83 JUMPI PUSH1 0x0 DUP1 REVERT JUMPDEST PUSH1 0x0 PUSH1 0x5 PUSH1 0x16 PUSH2 0x100 EXP DUP2 SLOAD DUP2 PUSH1 0xFF MUL NOT AND SWAP1 DUP4 ISZERO ISZERO MUL OR SWAP1 SSTORE POP PUSH32 0x7805862F689E2F13DF9F062FF482AD3AD112ACA9E0847911ED832E158C525B33 PUSH1 0x40 MLOAD PUSH1 0x40 MLOAD DUP1 SWAP2 SUB SWAP1 LOG1 JUMP JUMPDEST PUSH1 0x0 PUSH1 0x5 PUSH1 0x1 SWAP1 SLOAD SWAP1 PUSH2 0x100 EXP SWAP1 DIV PUSH20 0xFFFFFFFFFFFFFFFFFFFFFFFFFFFFFFFFFFFFFFFF AND PUSH20 0xFFFFFFFFFFFFFFFFFFFFFFFFFFFFFFFFFFFFFFFF AND CALLER PUSH20 0xFFFFFFFFFFFFFFFFFFFFFFFFFFFFFFFFFFFFFFFF AND EQ ISZERO ISZERO PUSH2 0xC2A JUMPI PUSH1 0x0 DUP1 REVERT JUMPDEST PUSH1 0x5 PUSH1 0x15 SWAP1 SLOAD SWAP1 PUSH2 0x100 EXP SWAP1 DIV PUSH1 0xFF AND ISZERO ISZERO ISZERO PUSH2 0xC46 JUMPI PUSH1 0x0 DUP1 REVERT JUMPDEST PUSH2 0xC5B DUP3 PUSH1 0x1 SLOAD PUSH2 0x1A42 SWAP1 SWAP2 SWAP1 PUSH4 0xFFFFFFFF AND JUMP JUMPDEST PUSH1 0x1 DUP2 SWAP1 SSTORE POP PUSH2 0xCB2 DUP3 PUSH1 0x0 DUP1 DUP7 PUSH20 0xFFFFFFFFFFFFFFFFFFFFFFFFFFFFFFFFFFFFFFFF AND PUSH20 0xFFFFFFFFFFFFFFFFFFFFFFFFFFFFFFFFFFFFFFFF AND DUP2 MSTORE PUSH1 0x20 ADD SWAP1 DUP2 MSTORE PUSH1 0x20 ADD PUSH1 0x0 KECCAK256 SLOAD PUSH2 0x1A42 SWAP1 SWAP2 SWAP1 PUSH4 0xFFFFFFFF AND JUMP JUMPDEST PUSH1 0x0 DUP1 DUP6 PUSH20 0xFFFFFFFFFFFFFFFFFFFFFFFFFFFFFFFFFFFFFFFF AND PUSH20 0xFFFFFFFFFFFFFFFFFFFFFFFFFFFFFFFFFFFFFFFF AND DUP2 MSTORE PUSH1 0x20 ADD SWAP1 DUP2 MSTORE PUSH1 0x20 ADD PUSH1 0x0 KECCAK256 DUP2 SWAP1 SSTORE POP DUP3 PUSH20 0xFFFFFFFFFFFFFFFFFFFFFFFFFFFFFFFFFFFFFFFF AND PUSH32 0xF6798A560793A54C3BCFE86A93CDE1E73087D944C0EA20544137D4121396885 DUP4 PUSH1 0x40 MLOAD DUP1 DUP3 DUP2 MSTORE PUSH1 0x20 ADD SWAP2 POP POP PUSH1 0x40 MLOAD DUP1 SWAP2 SUB SWAP1 LOG2 DUP3 PUSH20 0xFFFFFFFFFFFFFFFFFFFFFFFFFFFFFFFFFFFFFFFF AND PUSH1 0x0 PUSH20 0xFFFFFFFFFFFFFFFFFFFFFFFFFFFFFFFFFFFFFFFF AND PUSH32 0xDDF252AD1BE2C89B69C2B068FC378DAA952BA7F163C4A11628F55A4DF523B3EF DUP5 PUSH1 0x40 MLOAD DUP1 DUP3 DUP2 MSTORE PUSH1 0x20 ADD SWAP2 POP POP PUSH1 0x40 MLOAD DUP1 SWAP2 SUB SWAP1 LOG3 PUSH1 0x1 SWAP1 POP SWAP3 SWAP2 POP POP JUMP JUMPDEST PUSH1 0x5 PUSH1 0x1 SWAP1 SLOAD SWAP1 PUSH2 0x100 EXP SWAP1 DIV PUSH20 0xFFFFFFFFFFFFFFFFFFFFFFFFFFFFFFFFFFFFFFFF AND PUSH20 0xFFFFFFFFFFFFFFFFFFFFFFFFFFFFFFFFFFFFFFFF AND CALLER PUSH20 0xFFFFFFFFFFFFFFFFFFFFFFFFFFFFFFFFFFFFFFFF AND EQ ISZERO ISZERO PUSH2 0xE0E JUMPI PUSH1 0x0 DUP1 REVERT JUMPDEST PUSH2 0xE17 DUP2 PUSH2 0x1A5E JUMP JUMPDEST POP JUMP JUMPDEST PUSH1 0x6 PUSH1 0x0 SWAP1 SLOAD SWAP1 PUSH2 0x100 EXP SWAP1 DIV PUSH20 0xFFFFFFFFFFFFFFFFFFFFFFFFFFFFFFFFFFFFFFFF AND PUSH20 0xFFFFFFFFFFFFFFFFFFFFFFFFFFFFFFFFFFFFFFFF AND CALLER PUSH20 0xFFFFFFFFFFFFFFFFFFFFFFFFFFFFFFFFFFFFFFFF AND EQ ISZERO ISZERO PUSH2 0xE76 JUMPI PUSH1 0x0 DUP1 REVERT JUMPDEST PUSH1 0x6 PUSH1 0x0 SWAP1 SLOAD SWAP1 PUSH2 0x100 EXP SWAP1 DIV PUSH20 0xFFFFFFFFFFFFFFFFFFFFFFFFFFFFFFFFFFFFFFFF AND PUSH20 0xFFFFFFFFFFFFFFFFFFFFFFFFFFFFFFFFFFFFFFFF AND PUSH1 0x5 PUSH1 0x1 SWAP1 SLOAD SWAP1 PUSH2 0x100 EXP SWAP1 DIV PUSH20 0xFFFFFFFFFFFFFFFFFFFFFFFFFFFFFFFFFFFFFFFF AND PUSH20 0xFFFFFFFFFFFFFFFFFFFFFFFFFFFFFFFFFFFFFFFF AND PUSH32 0x8BE0079C531659141344CD1FD0A4F28419497F9722A3DAAFE3B4186F6B6457E0 PUSH1 0x40 MLOAD PUSH1 0x40 MLOAD DUP1 SWAP2 SUB SWAP1 LOG3 PUSH1 0x6 PUSH1 0x0 SWAP1 SLOAD SWAP1 PUSH2 0x100 EXP SWAP1 DIV PUSH20 0xFFFFFFFFFFFFFFFFFFFFFFFFFFFFFFFFFFFFFFFF AND PUSH1 0x5 PUSH1 0x1 PUSH2 0x100 EXP DUP2 SLOAD DUP2 PUSH20 0xFFFFFFFFFFFFFFFFFFFFFFFFFFFFFFFFFFFFFFFF MUL NOT AND SWAP1 DUP4 PUSH20 0xFFFFFFFFFFFFFFFFFFFFFFFFFFFFFFFFFFFFFFFF AND MUL OR SWAP1 SSTORE POP PUSH1 0x0 PUSH1 0x6 PUSH1 0x0 PUSH2 0x100 EXP DUP2 SLOAD DUP2 PUSH20 0xFFFFFFFFFFFFFFFFFFFFFFFFFFFFFFFFFFFFFFFF MUL NOT AND SWAP1 DUP4 PUSH20 0xFFFFFFFFFFFFFFFFFFFFFFFFFFFFFFFFFFFFFFFF AND MUL OR SWAP1 SSTORE POP JUMP JUMPDEST PUSH1 0x5 PUSH1 0x16 SWAP1 SLOAD SWAP1 PUSH2 0x100 EXP SWAP1 DIV PUSH1 0xFF AND DUP2 JUMP JUMPDEST PUSH1 0x0 PUSH1 0x5 PUSH1 0x16 SWAP1 SLOAD SWAP1 PUSH2 0x100 EXP SWAP1 DIV PUSH1 0xFF AND ISZERO ISZERO ISZERO PUSH2 0xFEC JUMPI PUSH1 0x0 DUP1 REVERT JUMPDEST PUSH2 0xFF6 DUP4 DUP4 PUSH2 0x1A6B JUMP JUMPDEST SWAP1 POP SWAP3 SWAP2 POP POP JUMP JUMPDEST PUSH1 0x0 DUP1 PUSH1 0x0 DUP4 PUSH20 0xFFFFFFFFFFFFFFFFFFFFFFFFFFFFFFFFFFFFFFFF AND PUSH20 0xFFFFFFFFFFFFFFFFFFFFFFFFFFFFFFFFFFFFFFFF AND DUP2 MSTORE PUSH1 0x20 ADD SWAP1 DUP2 MSTORE PUSH1 0x20 ADD PUSH1 0x0 KECCAK256 SLOAD SWAP1 POP SWAP2 SWAP1 POP JUMP JUMPDEST PUSH1 0x5 PUSH1 0x1 SWAP1 SLOAD SWAP1 PUSH2 0x100 EXP SWAP1 DIV PUSH20 0xFFFFFFFFFFFFFFFFFFFFFFFFFFFFFFFFFFFFFFFF AND PUSH20 0xFFFFFFFFFFFFFFFFFFFFFFFFFFFFFFFFFFFFFFFF AND CALLER PUSH20 0xFFFFFFFFFFFFFFFFFFFFFFFFFFFFFFFFFFFFFFFF AND EQ ISZERO ISZERO PUSH2 0x10A2 JUMPI PUSH1 0x0 DUP1 REVERT JUMPDEST PUSH1 0x40 MLOAD PUSH32 0x8C379A000000000000000000000000000000000000000000000000000000000 DUP2 MSTORE PUSH1 0x4 ADD DUP1 DUP1 PUSH1 0x20 ADD DUP3 DUP2 SUB DUP3 MSTORE PUSH1 0x1F DUP2 MSTORE PUSH1 0x20 ADD DUP1 PUSH32 0x72656E6F756E63696E67206F776E65727368697020697320626C6F636B656400 DUP2 MSTORE POP PUSH1 0x20 ADD SWAP2 POP POP PUSH1 0x40 MLOAD DUP1 SWAP2 SUB SWAP1 REVERT JUMPDEST PUSH1 0x0 PUSH1 0x5 PUSH1 0x1 SWAP1 SLOAD SWAP1 PUSH2 0x100 EXP SWAP1 DIV PUSH20 0xFFFFFFFFFFFFFFFFFFFFFFFFFFFFFFFFFFFFFFFF AND PUSH20 0xFFFFFFFFFFFFFFFFFFFFFFFFFFFFFFFFFFFFFFFF AND CALLER PUSH20 0xFFFFFFFFFFFFFFFFFFFFFFFFFFFFFFFFFFFFFFFF AND EQ ISZERO ISZERO PUSH2 0x116E JUMPI PUSH1 0x0 DUP1 REVERT JUMPDEST PUSH1 0x0 SWAP1 POP SWAP1 JUMP JUMPDEST PUSH1 0x5 PUSH1 0x1 SWAP1 SLOAD SWAP1 PUSH2 0x100 EXP SWAP1 DIV PUSH20 0xFFFFFFFFFFFFFFFFFFFFFFFFFFFFFFFFFFFFFFFF AND PUSH20 0xFFFFFFFFFFFFFFFFFFFFFFFFFFFFFFFFFFFFFFFF AND CALLER PUSH20 0xFFFFFFFFFFFFFFFFFFFFFFFFFFFFFFFFFFFFFFFF AND EQ ISZERO ISZERO PUSH2 0x11D1 JUMPI PUSH1 0x0 DUP1 REVERT JUMPDEST PUSH1 0x5 PUSH1 0x16 SWAP1 SLOAD SWAP1 PUSH2 0x100 EXP SWAP1 DIV PUSH1 0xFF AND ISZERO ISZERO ISZERO PUSH2 0x11ED JUMPI PUSH1 0x0 DUP1 REVERT JUMPDEST PUSH1 0x1 PUSH1 0x5 PUSH1 0x16 PUSH2 0x100 EXP DUP2 SLOAD DUP2 PUSH1 0xFF MUL NOT AND SWAP1 DUP4 ISZERO ISZERO MUL OR SWAP1 SSTORE POP PUSH32 0x6985A02210A168E66602D3235CB6DB0E70F92B3BA4D376A33C0F3D9434BFF625 PUSH1 0x40 MLOAD PUSH1 0x40 MLOAD DUP1 SWAP2 SUB SWAP1 LOG1 JUMP JUMPDEST PUSH1 0x5 PUSH1 0x1 SWAP1 SLOAD SWAP1 PUSH2 0x100 EXP SWAP1 DIV PUSH20 0xFFFFFFFFFFFFFFFFFFFFFFFFFFFFFFFFFFFFFFFF AND DUP2 JUMP JUMPDEST PUSH1 0x4 DUP1 SLOAD PUSH1 0x1 DUP2 PUSH1 0x1 AND ISZERO PUSH2 0x100 MUL SUB AND PUSH1 0x2 SWAP1 DIV DUP1 PUSH1 0x1F ADD PUSH1 0x20 DUP1 SWAP2 DIV MUL PUSH1 0x20 ADD PUSH1 0x40 MLOAD SWAP1 DUP2 ADD PUSH1 0x40 MSTORE DUP1 SWAP3 SWAP2 SWAP1 DUP2 DUP2 MSTORE PUSH1 0x20 ADD DUP3 DUP1 SLOAD PUSH1 0x1 DUP2 PUSH1 0x1 AND ISZERO PUSH2 0x100 MUL SUB AND PUSH1 0x2 SWAP1 DIV DUP1 ISZERO PUSH2 0x12F2 JUMPI DUP1 PUSH1 0x1F LT PUSH2 0x12C7 JUMPI PUSH2 0x100 DUP1 DUP4 SLOAD DIV MUL DUP4 MSTORE SWAP2 PUSH1 0x20 ADD SWAP2 PUSH2 0x12F2 JUMP JUMPDEST DUP3 ADD SWAP2 SWAP1 PUSH1 0x0 MSTORE PUSH1 0x20 PUSH1 0x0 KECCAK256 SWAP1 JUMPDEST DUP2 SLOAD DUP2 MSTORE SWAP1 PUSH1 0x1 ADD SWAP1 PUSH1 0x20 ADD DUP1 DUP4 GT PUSH2 0x12D5 JUMPI DUP3 SWAP1 SUB PUSH1 0x1F AND DUP3 ADD SWAP2 JUMPDEST POP POP POP POP POP DUP2 JUMP JUMPDEST PUSH1 0x0 PUSH1 0x5 PUSH1 0x16 SWAP1 SLOAD SWAP1 PUSH2 0x100 EXP SWAP1 DIV PUSH1 0xFF AND ISZERO ISZERO ISZERO PUSH2 0x1318 JUMPI PUSH1 0x0 DUP1 REVERT JUMPDEST PUSH2 0x1322 DUP4 DUP4 PUSH2 0x1CFD JUMP JUMPDEST SWAP1 POP SWAP3 SWAP2 POP POP JUMP JUMPDEST PUSH1 0x0 PUSH1 0x5 PUSH1 0x16 SWAP1 SLOAD SWAP1 PUSH2 0x100 EXP SWAP1 DIV PUSH1 0xFF AND ISZERO ISZERO ISZERO PUSH2 0x1348 JUMPI PUSH1 0x0 DUP1 REVERT JUMPDEST PUSH2 0x1352 DUP4 DUP4 PUSH2 0x1F1D JUMP JUMPDEST SWAP1 POP SWAP3 SWAP2 POP POP JUMP JUMPDEST PUSH1 0x0 PUSH1 0x2 PUSH1 0x0 DUP5 PUSH20 0xFFFFFFFFFFFFFFFFFFFFFFFFFFFFFFFFFFFFFFFF AND PUSH20 0xFFFFFFFFFFFFFFFFFFFFFFFFFFFFFFFFFFFFFFFF AND DUP2 MSTORE PUSH1 0x20 ADD SWAP1 DUP2 MSTORE PUSH1 0x20 ADD PUSH1 0x0 KECCAK256 PUSH1 0x0 DUP4 PUSH20 0xFFFFFFFFFFFFFFFFFFFFFFFFFFFFFFFFFFFFFFFF AND PUSH20 0xFFFFFFFFFFFFFFFFFFFFFFFFFFFFFFFFFFFFFFFF AND DUP2 MSTORE PUSH1 0x20 ADD SWAP1 DUP2 MSTORE PUSH1 0x20 ADD PUSH1 0x0 KECCAK256 SLOAD SWAP1 POP SWAP3 SWAP2 POP POP JUMP JUMPDEST PUSH1 0x6 PUSH1 0x0 SWAP1 SLOAD SWAP1 PUSH2 0x100 EXP SWAP1 DIV PUSH20 0xFFFFFFFFFFFFFFFFFFFFFFFFFFFFFFFFFFFFFFFF AND DUP2 JUMP JUMPDEST PUSH1 0x5 PUSH1 0x1 SWAP1 SLOAD SWAP1 PUSH2 0x100 EXP SWAP1 DIV PUSH20 0xFFFFFFFFFFFFFFFFFFFFFFFFFFFFFFFFFFFFFFFF AND PUSH20 0xFFFFFFFFFFFFFFFFFFFFFFFFFFFFFFFFFFFFFFFF AND CALLER PUSH20 0xFFFFFFFFFFFFFFFFFFFFFFFFFFFFFFFFFFFFFFFF AND EQ ISZERO ISZERO PUSH2 0x1463 JUMPI PUSH1 0x0 DUP1 REVERT JUMPDEST DUP1 PUSH1 0x6 PUSH1 0x0 PUSH2 0x100 EXP DUP2 SLOAD DUP2 PUSH20 0xFFFFFFFFFFFFFFFFFFFFFFFFFFFFFFFFFFFFFFFF MUL NOT AND SWAP1 DUP4 PUSH20 0xFFFFFFFFFFFFFFFFFFFFFFFFFFFFFFFFFFFFFFFF AND MUL OR SWAP1 SSTORE POP POP JUMP JUMPDEST PUSH1 0x0 DUP2 PUSH1 0x2 PUSH1 0x0 CALLER PUSH20 0xFFFFFFFFFFFFFFFFFFFFFFFFFFFFFFFFFFFFFFFF AND PUSH20 0xFFFFFFFFFFFFFFFFFFFFFFFFFFFFFFFFFFFFFFFF AND DUP2 MSTORE PUSH1 0x20 ADD SWAP1 DUP2 MSTORE PUSH1 0x20 ADD PUSH1 0x0 KECCAK256 PUSH1 0x0 DUP6 PUSH20 0xFFFFFFFFFFFFFFFFFFFFFFFFFFFFFFFFFFFFFFFF AND PUSH20 0xFFFFFFFFFFFFFFFFFFFFFFFFFFFFFFFFFFFFFFFF AND DUP2 MSTORE PUSH1 0x20 ADD SWAP1 DUP2 MSTORE PUSH1 0x20 ADD PUSH1 0x0 KECCAK256 DUP2 SWAP1 SSTORE POP DUP3 PUSH20 0xFFFFFFFFFFFFFFFFFFFFFFFFFFFFFFFFFFFFFFFF AND CALLER PUSH20 0xFFFFFFFFFFFFFFFFFFFFFFFFFFFFFFFFFFFFFFFF AND PUSH32 0x8C5BE1E5EBEC7D5BD14F71427D1E84F3DD0314C0F7B2291E5B200AC8C7C3B925 DUP5 PUSH1 0x40 MLOAD DUP1 DUP3 DUP2 MSTORE PUSH1 0x20 ADD SWAP2 POP POP PUSH1 0x40 MLOAD DUP1 SWAP2 SUB SWAP1 LOG3 PUSH1 0x1 SWAP1 POP SWAP3 SWAP2 POP POP JUMP JUMPDEST DUP3 PUSH20 0xFFFFFFFFFFFFFFFFFFFFFFFFFFFFFFFFFFFFFFFF AND PUSH4 0xA9059CBB DUP4 DUP4 PUSH1 0x40 MLOAD DUP4 PUSH4 0xFFFFFFFF AND PUSH29 0x100000000000000000000000000000000000000000000000000000000 MUL DUP2 MSTORE PUSH1 0x4 ADD DUP1 DUP4 PUSH20 0xFFFFFFFFFFFFFFFFFFFFFFFFFFFFFFFFFFFFFFFF AND PUSH20 0xFFFFFFFFFFFFFFFFFFFFFFFFFFFFFFFFFFFFFFFF AND DUP2 MSTORE PUSH1 0x20 ADD DUP3 DUP2 MSTORE PUSH1 0x20 ADD SWAP3 POP POP POP PUSH1 0x20 PUSH1 0x40 MLOAD DUP1 DUP4 SUB DUP2 PUSH1 0x0 DUP8 DUP1 EXTCODESIZE ISZERO DUP1 ISZERO PUSH2 0x163C JUMPI PUSH1 0x0 DUP1 REVERT JUMPDEST POP GAS CALL ISZERO DUP1 ISZERO PUSH2 0x1650 JUMPI RETURNDATASIZE PUSH1 0x0 DUP1 RETURNDATACOPY RETURNDATASIZE PUSH1 0x0 REVERT JUMPDEST POP POP POP POP PUSH1 0x40 MLOAD RETURNDATASIZE PUSH1 0x20 DUP2 LT ISZERO PUSH2 0x1666 JUMPI PUSH1 0x0 DUP1 REVERT JUMPDEST DUP2 ADD SWAP1 DUP1 DUP1 MLOAD SWAP1 PUSH1 0x20 ADD SWAP1 SWAP3 SWAP2 SWAP1 POP POP POP ISZERO ISZERO PUSH2 0x1682 JUMPI PUSH1 0x0 DUP1 REVERT JUMPDEST POP POP POP JUMP JUMPDEST PUSH1 0x0 DUP1 PUSH1 0x0 DUP6 PUSH20 0xFFFFFFFFFFFFFFFFFFFFFFFFFFFFFFFFFFFFFFFF AND PUSH20 0xFFFFFFFFFFFFFFFFFFFFFFFFFFFFFFFFFFFFFFFF AND DUP2 MSTORE PUSH1 0x20 ADD SWAP1 DUP2 MSTORE PUSH1 0x20 ADD PUSH1 0x0 KECCAK256 SLOAD DUP3 GT ISZERO ISZERO ISZERO PUSH2 0x16D6 JUMPI PUSH1 0x0 DUP1 REVERT JUMPDEST PUSH1 0x2 PUSH1 0x0 DUP6 PUSH20 0xFFFFFFFFFFFFFFFFFFFFFFFFFFFFFFFFFFFFFFFF AND PUSH20 0xFFFFFFFFFFFFFFFFFFFFFFFFFFFFFFFFFFFFFFFF AND DUP2 MSTORE PUSH1 0x20 ADD SWAP1 DUP2 MSTORE PUSH1 0x20 ADD PUSH1 0x0 KECCAK256 PUSH1 0x0 CALLER PUSH20 0xFFFFFFFFFFFFFFFFFFFFFFFFFFFFFFFFFFFFFFFF AND PUSH20 0xFFFFFFFFFFFFFFFFFFFFFFFFFFFFFFFFFFFFFFFF AND DUP2 MSTORE PUSH1 0x20 ADD SWAP1 DUP2 MSTORE PUSH1 0x20 ADD PUSH1 0x0 KECCAK256 SLOAD DUP3 GT ISZERO ISZERO ISZERO PUSH2 0x1761 JUMPI PUSH1 0x0 DUP1 REVERT JUMPDEST PUSH1 0x0 PUSH20 0xFFFFFFFFFFFFFFFFFFFFFFFFFFFFFFFFFFFFFFFF AND DUP4 PUSH20 0xFFFFFFFFFFFFFFFFFFFFFFFFFFFFFFFFFFFFFFFF AND EQ ISZERO ISZERO ISZERO PUSH2 0x179D JUMPI PUSH1 0x0 DUP1 REVERT JUMPDEST PUSH2 0x17EE DUP3 PUSH1 0x0 DUP1 DUP8 PUSH20 0xFFFFFFFFFFFFFFFFFFFFFFFFFFFFFFFFFFFFFFFF AND PUSH20 0xFFFFFFFFFFFFFFFFFFFFFFFFFFFFFFFFFFFFFFFF AND DUP2 MSTORE PUSH1 0x20 ADD SWAP1 DUP2 MSTORE PUSH1 0x20 ADD PUSH1 0x0 KECCAK256 SLOAD PUSH2 0x2119 SWAP1 SWAP2 SWAP1 PUSH4 0xFFFFFFFF AND JUMP JUMPDEST PUSH1 0x0 DUP1 DUP7 PUSH20 0xFFFFFFFFFFFFFFFFFFFFFFFFFFFFFFFFFFFFFFFF AND PUSH20 0xFFFFFFFFFFFFFFFFFFFFFFFFFFFFFFFFFFFFFFFF AND DUP2 MSTORE PUSH1 0x20 ADD SWAP1 DUP2 MSTORE PUSH1 0x20 ADD PUSH1 0x0 KECCAK256 DUP2 SWAP1 SSTORE POP PUSH2 0x1881 DUP3 PUSH1 0x0 DUP1 DUP7 PUSH20 0xFFFFFFFFFFFFFFFFFFFFFFFFFFFFFFFFFFFFFFFF AND PUSH20 0xFFFFFFFFFFFFFFFFFFFFFFFFFFFFFFFFFFFFFFFF AND DUP2 MSTORE PUSH1 0x20 ADD SWAP1 DUP2 MSTORE PUSH1 0x20 ADD PUSH1 0x0 KECCAK256 SLOAD PUSH2 0x1A42 SWAP1 SWAP2 SWAP1 PUSH4 0xFFFFFFFF AND JUMP JUMPDEST PUSH1 0x0 DUP1 DUP6 PUSH20 0xFFFFFFFFFFFFFFFFFFFFFFFFFFFFFFFFFFFFFFFF AND PUSH20 0xFFFFFFFFFFFFFFFFFFFFFFFFFFFFFFFFFFFFFFFF AND DUP2 MSTORE PUSH1 0x20 ADD SWAP1 DUP2 MSTORE PUSH1 0x20 ADD PUSH1 0x0 KECCAK256 DUP2 SWAP1 SSTORE POP PUSH2 0x1952 DUP3 PUSH1 0x2 PUSH1 0x0 DUP8 PUSH20 0xFFFFFFFFFFFFFFFFFFFFFFFFFFFFFFFFFFFFFFFF AND PUSH20 0xFFFFFFFFFFFFFFFFFFFFFFFFFFFFFFFFFFFFFFFF AND DUP2 MSTORE PUSH1 0x20 ADD SWAP1 DUP2 MSTORE PUSH1 0x20 ADD PUSH1 0x0 KECCAK256 PUSH1 0x0 CALLER PUSH20 0xFFFFFFFFFFFFFFFFFFFFFFFFFFFFFFFFFFFFFFFF AND PUSH20 0xFFFFFFFFFFFFFFFFFFFFFFFFFFFFFFFFFFFFFFFF AND DUP2 MSTORE PUSH1 0x20 ADD SWAP1 DUP2 MSTORE PUSH1 0x20 ADD PUSH1 0x0 KECCAK256 SLOAD PUSH2 0x2119 SWAP1 SWAP2 SWAP1 PUSH4 0xFFFFFFFF AND JUMP JUMPDEST PUSH1 0x2 PUSH1 0x0 DUP7 PUSH20 0xFFFFFFFFFFFFFFFFFFFFFFFFFFFFFFFFFFFFFFFF AND PUSH20 0xFFFFFFFFFFFFFFFFFFFFFFFFFFFFFFFFFFFFFFFF AND DUP2 MSTORE PUSH1 0x20 ADD SWAP1 DUP2 MSTORE PUSH1 0x20 ADD PUSH1 0x0 KECCAK256 PUSH1 0x0 CALLER PUSH20 0xFFFFFFFFFFFFFFFFFFFFFFFFFFFFFFFFFFFFFFFF AND PUSH20 0xFFFFFFFFFFFFFFFFFFFFFFFFFFFFFFFFFFFFFFFF AND DUP2 MSTORE PUSH1 0x20 ADD SWAP1 DUP2 MSTORE PUSH1 0x20 ADD PUSH1 0x0 KECCAK256 DUP2 SWAP1 SSTORE POP DUP3 PUSH20 0xFFFFFFFFFFFFFFFFFFFFFFFFFFFFFFFFFFFFFFFF AND DUP5 PUSH20 0xFFFFFFFFFFFFFFFFFFFFFFFFFFFFFFFFFFFFFFFF AND PUSH32 0xDDF252AD1BE2C89B69C2B068FC378DAA952BA7F163C4A11628F55A4DF523B3EF DUP5 PUSH1 0x40 MLOAD DUP1 DUP3 DUP2 MSTORE PUSH1 0x20 ADD SWAP2 POP POP PUSH1 0x40 MLOAD DUP1 SWAP2 SUB SWAP1 LOG3 PUSH1 0x1 SWAP1 POP SWAP4 SWAP3 POP POP POP JUMP JUMPDEST PUSH1 0x0 DUP2 DUP4 ADD SWAP1 POP DUP3 DUP2 LT ISZERO ISZERO ISZERO PUSH2 0x1A55 JUMPI INVALID JUMPDEST DUP1 SWAP1 POP SWAP3 SWAP2 POP POP JUMP JUMPDEST PUSH2 0x1A68 CALLER DUP3 PUSH2 0x2132 JUMP JUMPDEST POP JUMP JUMPDEST PUSH1 0x0 DUP1 PUSH1 0x2 PUSH1 0x0 CALLER PUSH20 0xFFFFFFFFFFFFFFFFFFFFFFFFFFFFFFFFFFFFFFFF AND PUSH20 0xFFFFFFFFFFFFFFFFFFFFFFFFFFFFFFFFFFFFFFFF AND DUP2 MSTORE PUSH1 0x20 ADD SWAP1 DUP2 MSTORE PUSH1 0x20 ADD PUSH1 0x0 KECCAK256 PUSH1 0x0 DUP6 PUSH20 0xFFFFFFFFFFFFFFFFFFFFFFFFFFFFFFFFFFFFFFFF AND PUSH20 0xFFFFFFFFFFFFFFFFFFFFFFFFFFFFFFFFFFFFFFFF AND DUP2 MSTORE PUSH1 0x20 ADD SWAP1 DUP2 MSTORE PUSH1 0x20 ADD PUSH1 0x0 KECCAK256 SLOAD SWAP1 POP DUP1 DUP4 LT ISZERO ISZERO PUSH2 0x1B7D JUMPI PUSH1 0x0 PUSH1 0x2 PUSH1 0x0 CALLER PUSH20 0xFFFFFFFFFFFFFFFFFFFFFFFFFFFFFFFFFFFFFFFF AND PUSH20 0xFFFFFFFFFFFFFFFFFFFFFFFFFFFFFFFFFFFFFFFF AND DUP2 MSTORE PUSH1 0x20 ADD SWAP1 DUP2 MSTORE PUSH1 0x20 ADD PUSH1 0x0 KECCAK256 PUSH1 0x0 DUP7 PUSH20 0xFFFFFFFFFFFFFFFFFFFFFFFFFFFFFFFFFFFFFFFF AND PUSH20 0xFFFFFFFFFFFFFFFFFFFFFFFFFFFFFFFFFFFFFFFF AND DUP2 MSTORE PUSH1 0x20 ADD SWAP1 DUP2 MSTORE PUSH1 0x20 ADD PUSH1 0x0 KECCAK256 DUP2 SWAP1 SSTORE POP PUSH2 0x1C11 JUMP JUMPDEST PUSH2 0x1B90 DUP4 DUP3 PUSH2 0x2119 SWAP1 SWAP2 SWAP1 PUSH4 0xFFFFFFFF AND JUMP JUMPDEST PUSH1 0x2 PUSH1 0x0 CALLER PUSH20 0xFFFFFFFFFFFFFFFFFFFFFFFFFFFFFFFFFFFFFFFF AND PUSH20 0xFFFFFFFFFFFFFFFFFFFFFFFFFFFFFFFFFFFFFFFF AND DUP2 MSTORE PUSH1 0x20 ADD SWAP1 DUP2 MSTORE PUSH1 0x20 ADD PUSH1 0x0 KECCAK256 PUSH1 0x0 DUP7 PUSH20 0xFFFFFFFFFFFFFFFFFFFFFFFFFFFFFFFFFFFFFFFF AND PUSH20 0xFFFFFFFFFFFFFFFFFFFFFFFFFFFFFFFFFFFFFFFF AND DUP2 MSTORE PUSH1 0x20 ADD SWAP1 DUP2 MSTORE PUSH1 0x20 ADD PUSH1 0x0 KECCAK256 DUP2 SWAP1 SSTORE POP JUMPDEST DUP4 PUSH20 0xFFFFFFFFFFFFFFFFFFFFFFFFFFFFFFFFFFFFFFFF AND CALLER PUSH20 0xFFFFFFFFFFFFFFFFFFFFFFFFFFFFFFFFFFFFFFFF AND PUSH32 0x8C5BE1E5EBEC7D5BD14F71427D1E84F3DD0314C0F7B2291E5B200AC8C7C3B925 PUSH1 0x2 PUSH1 0x0 CALLER PUSH20 0xFFFFFFFFFFFFFFFFFFFFFFFFFFFFFFFFFFFFFFFF AND PUSH20 0xFFFFFFFFFFFFFFFFFFFFFFFFFFFFFFFFFFFFFFFF AND DUP2 MSTORE PUSH1 0x20 ADD SWAP1 DUP2 MSTORE PUSH1 0x20 ADD PUSH1 0x0 KECCAK256 PUSH1 0x0 DUP9 PUSH20 0xFFFFFFFFFFFFFFFFFFFFFFFFFFFFFFFFFFFFFFFF AND PUSH20 0xFFFFFFFFFFFFFFFFFFFFFFFFFFFFFFFFFFFFFFFF AND DUP2 MSTORE PUSH1 0x20 ADD SWAP1 DUP2 MSTORE PUSH1 0x20 ADD PUSH1 0x0 KECCAK256 SLOAD PUSH1 0x40 MLOAD DUP1 DUP3 DUP2 MSTORE PUSH1 0x20 ADD SWAP2 POP POP PUSH1 0x40 MLOAD DUP1 SWAP2 SUB SWAP1 LOG3 PUSH1 0x1 SWAP2 POP POP SWAP3 SWAP2 POP POP JUMP JUMPDEST PUSH1 0x0 DUP1 PUSH1 0x0 CALLER PUSH20 0xFFFFFFFFFFFFFFFFFFFFFFFFFFFFFFFFFFFFFFFF AND PUSH20 0xFFFFFFFFFFFFFFFFFFFFFFFFFFFFFFFFFFFFFFFF AND DUP2 MSTORE PUSH1 0x20 ADD SWAP1 DUP2 MSTORE PUSH1 0x20 ADD PUSH1 0x0 KECCAK256 SLOAD DUP3 GT ISZERO ISZERO ISZERO PUSH2 0x1D4C JUMPI PUSH1 0x0 DUP1 REVERT JUMPDEST PUSH1 0x0 PUSH20 0xFFFFFFFFFFFFFFFFFFFFFFFFFFFFFFFFFFFFFFFF AND DUP4 PUSH20 0xFFFFFFFFFFFFFFFFFFFFFFFFFFFFFFFFFFFFFFFF AND EQ ISZERO ISZERO ISZERO PUSH2 0x1D88 JUMPI PUSH1 0x0 DUP1 REVERT JUMPDEST PUSH2 0x1DD9 DUP3 PUSH1 0x0 DUP1 CALLER PUSH20 0xFFFFFFFFFFFFFFFFFFFFFFFFFFFFFFFFFFFFFFFF AND PUSH20 0xFFFFFFFFFFFFFFFFFFFFFFFFFFFFFFFFFFFFFFFF AND DUP2 MSTORE PUSH1 0x20 ADD SWAP1 DUP2 MSTORE PUSH1 0x20 ADD PUSH1 0x0 KECCAK256 SLOAD PUSH2 0x2119 SWAP1 SWAP2 SWAP1 PUSH4 0xFFFFFFFF AND JUMP JUMPDEST PUSH1 0x0 DUP1 CALLER PUSH20 0xFFFFFFFFFFFFFFFFFFFFFFFFFFFFFFFFFFFFFFFF AND PUSH20 0xFFFFFFFFFFFFFFFFFFFFFFFFFFFFFFFFFFFFFFFF AND DUP2 MSTORE PUSH1 0x20 ADD SWAP1 DUP2 MSTORE PUSH1 0x20 ADD PUSH1 0x0 KECCAK256 DUP2 SWAP1 SSTORE POP PUSH2 0x1E6C DUP3 PUSH1 0x0 DUP1 DUP7 PUSH20 0xFFFFFFFFFFFFFFFFFFFFFFFFFFFFFFFFFFFFFFFF AND PUSH20 0xFFFFFFFFFFFFFFFFFFFFFFFFFFFFFFFFFFFFFFFF AND DUP2 MSTORE PUSH1 0x20 ADD SWAP1 DUP2 MSTORE PUSH1 0x20 ADD PUSH1 0x0 KECCAK256 SLOAD PUSH2 0x1A42 SWAP1 SWAP2 SWAP1 PUSH4 0xFFFFFFFF AND JUMP JUMPDEST PUSH1 0x0 DUP1 DUP6 PUSH20 0xFFFFFFFFFFFFFFFFFFFFFFFFFFFFFFFFFFFFFFFF AND PUSH20 0xFFFFFFFFFFFFFFFFFFFFFFFFFFFFFFFFFFFFFFFF AND DUP2 MSTORE PUSH1 0x20 ADD SWAP1 DUP2 MSTORE PUSH1 0x20 ADD PUSH1 0x0 KECCAK256 DUP2 SWAP1 SSTORE POP DUP3 PUSH20 0xFFFFFFFFFFFFFFFFFFFFFFFFFFFFFFFFFFFFFFFF AND CALLER PUSH20 0xFFFFFFFFFFFFFFFFFFFFFFFFFFFFFFFFFFFFFFFF AND PUSH32 0xDDF252AD1BE2C89B69C2B068FC378DAA952BA7F163C4A11628F55A4DF523B3EF DUP5 PUSH1 0x40 MLOAD DUP1 DUP3 DUP2 MSTORE PUSH1 0x20 ADD SWAP2 POP POP PUSH1 0x40 MLOAD DUP1 SWAP2 SUB SWAP1 LOG3 PUSH1 0x1 SWAP1 POP SWAP3 SWAP2 POP POP JUMP JUMPDEST PUSH1 0x0 PUSH2 0x1FAE DUP3 PUSH1 0x2 PUSH1 0x0 CALLER PUSH20 0xFFFFFFFFFFFFFFFFFFFFFFFFFFFFFFFFFFFFFFFF AND PUSH20 0xFFFFFFFFFFFFFFFFFFFFFFFFFFFFFFFFFFFFFFFF AND DUP2 MSTORE PUSH1 0x20 ADD SWAP1 DUP2 MSTORE PUSH1 0x20 ADD PUSH1 0x0 KECCAK256 PUSH1 0x0 DUP7 PUSH20 0xFFFFFFFFFFFFFFFFFFFFFFFFFFFFFFFFFFFFFFFF AND PUSH20 0xFFFFFFFFFFFFFFFFFFFFFFFFFFFFFFFFFFFFFFFF AND DUP2 MSTORE PUSH1 0x20 ADD SWAP1 DUP2 MSTORE PUSH1 0x20 ADD PUSH1 0x0 KECCAK256 SLOAD PUSH2 0x1A42 SWAP1 SWAP2 SWAP1 PUSH4 0xFFFFFFFF AND JUMP JUMPDEST PUSH1 0x2 PUSH1 0x0 CALLER PUSH20 0xFFFFFFFFFFFFFFFFFFFFFFFFFFFFFFFFFFFFFFFF AND PUSH20 0xFFFFFFFFFFFFFFFFFFFFFFFFFFFFFFFFFFFFFFFF AND DUP2 MSTORE PUSH1 0x20 ADD SWAP1 DUP2 MSTORE PUSH1 0x20 ADD PUSH1 0x0 KECCAK256 PUSH1 0x0 DUP6 PUSH20 0xFFFFFFFFFFFFFFFFFFFFFFFFFFFFFFFFFFFFFFFF AND PUSH20 0xFFFFFFFFFFFFFFFFFFFFFFFFFFFFFFFFFFFFFFFF AND DUP2 MSTORE PUSH1 0x20 ADD SWAP1 DUP2 MSTORE PUSH1 0x20 ADD PUSH1 0x0 KECCAK256 DUP2 SWAP1 SSTORE POP DUP3 PUSH20 0xFFFFFFFFFFFFFFFFFFFFFFFFFFFFFFFFFFFFFFFF AND CALLER PUSH20 0xFFFFFFFFFFFFFFFFFFFFFFFFFFFFFFFFFFFFFFFF AND PUSH32 0x8C5BE1E5EBEC7D5BD14F71427D1E84F3DD0314C0F7B2291E5B200AC8C7C3B925 PUSH1 0x2 PUSH1 0x0 CALLER PUSH20 0xFFFFFFFFFFFFFFFFFFFFFFFFFFFFFFFFFFFFFFFF AND PUSH20 0xFFFFFFFFFFFFFFFFFFFFFFFFFFFFFFFFFFFFFFFF AND DUP2 MSTORE PUSH1 0x20 ADD SWAP1 DUP2 MSTORE PUSH1 0x20 ADD PUSH1 0x0 KECCAK256 PUSH1 0x0 DUP8 PUSH20 0xFFFFFFFFFFFFFFFFFFFFFFFFFFFFFFFFFFFFFFFF AND PUSH20 0xFFFFFFFFFFFFFFFFFFFFFFFFFFFFFFFFFFFFFFFF AND DUP2 MSTORE PUSH1 0x20 ADD SWAP1 DUP2 MSTORE PUSH1 0x20 ADD PUSH1 0x0 KECCAK256 SLOAD PUSH1 0x40 MLOAD DUP1 DUP3 DUP2 MSTORE PUSH1 0x20 ADD SWAP2 POP POP PUSH1 0x40 MLOAD DUP1 SWAP2 SUB SWAP1 LOG3 PUSH1 0x1 SWAP1 POP SWAP3 SWAP2 POP POP JUMP JUMPDEST PUSH1 0x0 DUP3 DUP3 GT ISZERO ISZERO ISZERO PUSH2 0x2127 JUMPI INVALID JUMPDEST DUP2 DUP4 SUB SWAP1 POP SWAP3 SWAP2 POP POP JUMP JUMPDEST PUSH1 0x0 DUP1 DUP4 PUSH20 0xFFFFFFFFFFFFFFFFFFFFFFFFFFFFFFFFFFFFFFFF AND PUSH20 0xFFFFFFFFFFFFFFFFFFFFFFFFFFFFFFFFFFFFFFFF AND DUP2 MSTORE PUSH1 0x20 ADD SWAP1 DUP2 MSTORE PUSH1 0x20 ADD PUSH1 0x0 KECCAK256 SLOAD DUP2 GT ISZERO ISZERO ISZERO PUSH2 0x217F JUMPI PUSH1 0x0 DUP1 REVERT JUMPDEST PUSH2 0x21D0 DUP2 PUSH1 0x0 DUP1 DUP6 PUSH20 0xFFFFFFFFFFFFFFFFFFFFFFFFFFFFFFFFFFFFFFFF AND PUSH20 0xFFFFFFFFFFFFFFFFFFFFFFFFFFFFFFFFFFFFFFFF AND DUP2 MSTORE PUSH1 0x20 ADD SWAP1 DUP2 MSTORE PUSH1 0x20 ADD PUSH1 0x0 KECCAK256 SLOAD PUSH2 0x2119 SWAP1 SWAP2 SWAP1 PUSH4 0xFFFFFFFF AND JUMP JUMPDEST PUSH1 0x0 DUP1 DUP5 PUSH20 0xFFFFFFFFFFFFFFFFFFFFFFFFFFFFFFFFFFFFFFFF AND PUSH20 0xFFFFFFFFFFFFFFFFFFFFFFFFFFFFFFFFFFFFFFFF AND DUP2 MSTORE PUSH1 0x20 ADD SWAP1 DUP2 MSTORE PUSH1 0x20 ADD PUSH1 0x0 KECCAK256 DUP2 SWAP1 SSTORE POP PUSH2 0x2227 DUP2 PUSH1 0x1 SLOAD PUSH2 0x2119 SWAP1 SWAP2 SWAP1 PUSH4 0xFFFFFFFF AND JUMP JUMPDEST PUSH1 0x1 DUP2 SWAP1 SSTORE POP DUP2 PUSH20 0xFFFFFFFFFFFFFFFFFFFFFFFFFFFFFFFFFFFFFFFF AND PUSH32 0xCC16F5DBB4873280815C1EE09DBD06736CFFCC184412CF7A71A0FDB75D397CA5 DUP3 PUSH1 0x40 MLOAD DUP1 DUP3 DUP2 MSTORE PUSH1 0x20 ADD SWAP2 POP POP PUSH1 0x40 MLOAD DUP1 SWAP2 SUB SWAP1 LOG2 PUSH1 0x0 PUSH20 0xFFFFFFFFFFFFFFFFFFFFFFFFFFFFFFFFFFFFFFFF AND DUP3 PUSH20 0xFFFFFFFFFFFFFFFFFFFFFFFFFFFFFFFFFFFFFFFF AND PUSH32 0xDDF252AD1BE2C89B69C2B068FC378DAA952BA7F163C4A11628F55A4DF523B3EF DUP4 PUSH1 0x40 MLOAD DUP1 DUP3 DUP2 MSTORE PUSH1 0x20 ADD SWAP2 POP POP PUSH1 0x40 MLOAD DUP1 SWAP2 SUB SWAP1 LOG3 POP POP JUMP STOP LOG1 PUSH6 0x627A7A723058 KECCAK256 DUP2 0xcc SLOAD DUP10 0xd3 0xce PUSH27 0xF59E0C479C22E434C295A30D96AF0C6CBB78F1F3DFFBA305C20029 "
				},
				"gasEstimates": {
					"creation": {
						"codeDepositCost": "1795400",
						"executionCost": "infinite",
						"totalCost": "infinite"
					},
					"external": {
						"allowance(address,address)": "1146",
						"approve(address,uint256)": "22735",
						"balanceOf(address)": "845",
						"burn(uint256)": "infinite",
						"claimOwnership()": "43516",
						"decimals()": "574",
						"decreaseApproval(address,uint256)": "infinite",
						"finishMinting()": "870",
						"increaseApproval(address,uint256)": "infinite",
						"mint(address,uint256)": "infinite",
						"mintingFinished()": "492",
						"name()": "infinite",
						"owner()": "866",
						"pause()": "22217",
						"paused()": "734",
						"pendingOwner()": "926",
						"reclaimToken(address)": "infinite",
						"renounceOwnership()": "881",
						"symbol()": "infinite",
						"totalSupply()": "490",
						"transfer(address,uint256)": "infinite",
						"transferFrom(address,address,uint256)": "infinite",
						"transferOwnership(address)": "21296",
						"unpause()": "22016"
					}
				},
				"methodIdentifiers": {
					"allowance(address,address)": "dd62ed3e",
					"approve(address,uint256)": "095ea7b3",
					"balanceOf(address)": "70a08231",
					"burn(uint256)": "42966c68",
					"claimOwnership()": "4e71e0c8",
					"decimals()": "313ce567",
					"decreaseApproval(address,uint256)": "66188463",
					"finishMinting()": "7d64bcb4",
					"increaseApproval(address,uint256)": "d73dd623",
					"mint(address,uint256)": "40c10f19",
					"mintingFinished()": "05d2035b",
					"name()": "06fdde03",
					"owner()": "8da5cb5b",
					"pause()": "8456cb59",
					"paused()": "5c975abb",
					"pendingOwner()": "e30c3978",
					"reclaimToken(address)": "17ffc320",
					"renounceOwnership()": "715018a6",
					"symbol()": "95d89b41",
					"totalSupply()": "18160ddd",
					"transfer(address,uint256)": "a9059cbb",
					"transferFrom(address,address,uint256)": "23b872dd",
					"transferOwnership(address)": "f2fde38b",
					"unpause()": "3f4ba83a"
				}
			},
			"userdoc": {
				"methods": {}
			}
		}
	}
}