{
	"DPay-proof-of-concept/contracts/coin_contracts/wbtc.sol": {
		"BurnableToken": {
			"abi": [
				{
					"constant": true,
					"inputs": [],
					"name": "totalSupply",
					"outputs": [
						{
							"name": "",
							"type": "uint256"
						}
					],
					"payable": false,
					"stateMutability": "view",
					"type": "function"
				},
				{
					"constant": false,
					"inputs": [
						{
							"name": "_value",
							"type": "uint256"
						}
					],
					"name": "burn",
					"outputs": [],
					"payable": false,
					"stateMutability": "nonpayable",
					"type": "function"
				},
				{
					"constant": true,
					"inputs": [
						{
							"name": "_owner",
							"type": "address"
						}
					],
					"name": "balanceOf",
					"outputs": [
						{
							"name": "",
							"type": "uint256"
						}
					],
					"payable": false,
					"stateMutability": "view",
					"type": "function"
				},
				{
					"constant": false,
					"inputs": [
						{
							"name": "_to",
							"type": "address"
						},
						{
							"name": "_value",
							"type": "uint256"
						}
					],
					"name": "transfer",
					"outputs": [
						{
							"name": "",
							"type": "bool"
						}
					],
					"payable": false,
					"stateMutability": "nonpayable",
					"type": "function"
				},
				{
					"anonymous": false,
					"inputs": [
						{
							"indexed": true,
							"name": "burner",
							"type": "address"
						},
						{
							"indexed": false,
							"name": "value",
							"type": "uint256"
						}
					],
					"name": "Burn",
					"type": "event"
				},
				{
					"anonymous": false,
					"inputs": [
						{
							"indexed": true,
							"name": "from",
							"type": "address"
						},
						{
							"indexed": true,
							"name": "to",
							"type": "address"
						},
						{
							"indexed": false,
							"name": "value",
							"type": "uint256"
						}
					],
					"name": "Transfer",
					"type": "event"
				}
			],
			"devdoc": {
				"methods": {
					"balanceOf(address)": {
						"details": "Gets the balance of the specified address.",
						"params": {
							"_owner": "The address to query the the balance of."
						},
						"return": "An uint256 representing the amount owned by the passed address."
					},
					"burn(uint256)": {
						"details": "Burns a specific amount of tokens.",
						"params": {
							"_value": "The amount of token to be burned."
						}
					},
					"totalSupply()": {
						"details": "Total number of tokens in existence"
					},
					"transfer(address,uint256)": {
						"details": "Transfer token for a specified address",
						"params": {
							"_to": "The address to transfer to.",
							"_value": "The amount to be transferred."
						}
					}
				},
				"title": "Burnable Token"
			},
			"evm": {
				"assembly": "    /* \"DPay-proof-of-concept/contracts/coin_contracts/wbtc.sol\":11713:12436  contract BurnableToken is BasicToken {... */\n  mstore(0x40, 0x80)\n  callvalue\n    /* \"--CODEGEN--\":8:17   */\n  dup1\n    /* \"--CODEGEN--\":5:7   */\n  iszero\n  tag_1\n  jumpi\n    /* \"--CODEGEN--\":30:31   */\n  0x0\n    /* \"--CODEGEN--\":27:28   */\n  dup1\n    /* \"--CODEGEN--\":20:32   */\n  revert\n    /* \"--CODEGEN--\":5:7   */\ntag_1:\n    /* \"DPay-proof-of-concept/contracts/coin_contracts/wbtc.sol\":11713:12436  contract BurnableToken is BasicToken {... */\n  pop\n  dataSize(sub_0)\n  dup1\n  dataOffset(sub_0)\n  0x0\n  codecopy\n  0x0\n  return\nstop\n\nsub_0: assembly {\n        /* \"DPay-proof-of-concept/contracts/coin_contracts/wbtc.sol\":11713:12436  contract BurnableToken is BasicToken {... */\n      mstore(0x40, 0x80)\n      jumpi(tag_1, lt(calldatasize, 0x4))\n      calldataload(0x0)\n      0x100000000000000000000000000000000000000000000000000000000\n      swap1\n      div\n      0xffffffff\n      and\n      dup1\n      0x18160ddd\n      eq\n      tag_2\n      jumpi\n      dup1\n      0x42966c68\n      eq\n      tag_3\n      jumpi\n      dup1\n      0x70a08231\n      eq\n      tag_4\n      jumpi\n      dup1\n      0xa9059cbb\n      eq\n      tag_5\n      jumpi\n    tag_1:\n      0x0\n      dup1\n      revert\n        /* \"DPay-proof-of-concept/contracts/coin_contracts/wbtc.sol\":2349:2432  function totalSupply() public view returns (uint256) {... */\n    tag_2:\n      callvalue\n        /* \"--CODEGEN--\":8:17   */\n      dup1\n        /* \"--CODEGEN--\":5:7   */\n      iszero\n      tag_6\n      jumpi\n        /* \"--CODEGEN--\":30:31   */\n      0x0\n        /* \"--CODEGEN--\":27:28   */\n      dup1\n        /* \"--CODEGEN--\":20:32   */\n      revert\n        /* \"--CODEGEN--\":5:7   */\n    tag_6:\n        /* \"DPay-proof-of-concept/contracts/coin_contracts/wbtc.sol\":2349:2432  function totalSupply() public view returns (uint256) {... */\n      pop\n      tag_7\n      jump(tag_8)\n    tag_7:\n      mload(0x40)\n      dup1\n      dup3\n      dup2\n      mstore\n      0x20\n      add\n      swap2\n      pop\n      pop\n      mload(0x40)\n      dup1\n      swap2\n      sub\n      swap1\n      return\n        /* \"DPay-proof-of-concept/contracts/coin_contracts/wbtc.sol\":11919:11992  function burn(uint256 _value) public {... */\n    tag_3:\n      callvalue\n        /* \"--CODEGEN--\":8:17   */\n      dup1\n        /* \"--CODEGEN--\":5:7   */\n      iszero\n      tag_9\n      jumpi\n        /* \"--CODEGEN--\":30:31   */\n      0x0\n        /* \"--CODEGEN--\":27:28   */\n      dup1\n        /* \"--CODEGEN--\":20:32   */\n      revert\n        /* \"--CODEGEN--\":5:7   */\n    tag_9:\n        /* \"DPay-proof-of-concept/contracts/coin_contracts/wbtc.sol\":11919:11992  function burn(uint256 _value) public {... */\n      pop\n      tag_10\n      0x4\n      dup1\n      calldatasize\n      sub\n      dup2\n      add\n      swap1\n      dup1\n      dup1\n      calldataload\n      swap1\n      0x20\n      add\n      swap1\n      swap3\n      swap2\n      swap1\n      pop\n      pop\n      pop\n      jump(tag_11)\n    tag_10:\n      stop\n        /* \"DPay-proof-of-concept/contracts/coin_contracts/wbtc.sol\":3109:3208  function balanceOf(address _owner) public view returns (uint256) {... */\n    tag_4:\n      callvalue\n        /* \"--CODEGEN--\":8:17   */\n      dup1\n        /* \"--CODEGEN--\":5:7   */\n      iszero\n      tag_12\n      jumpi\n        /* \"--CODEGEN--\":30:31   */\n      0x0\n        /* \"--CODEGEN--\":27:28   */\n      dup1\n        /* \"--CODEGEN--\":20:32   */\n      revert\n        /* \"--CODEGEN--\":5:7   */\n    tag_12:\n        /* \"DPay-proof-of-concept/contracts/coin_contracts/wbtc.sol\":3109:3208  function balanceOf(address _owner) public view returns (uint256) {... */\n      pop\n      tag_13\n      0x4\n      dup1\n      calldatasize\n      sub\n      dup2\n      add\n      swap1\n      dup1\n      dup1\n      calldataload\n      0xffffffffffffffffffffffffffffffffffffffff\n      and\n      swap1\n      0x20\n      add\n      swap1\n      swap3\n      swap2\n      swap1\n      pop\n      pop\n      pop\n      jump(tag_14)\n    tag_13:\n      mload(0x40)\n      dup1\n      dup3\n      dup2\n      mstore\n      0x20\n      add\n      swap2\n      pop\n      pop\n      mload(0x40)\n      dup1\n      swap2\n      sub\n      swap1\n      return\n        /* \"DPay-proof-of-concept/contracts/coin_contracts/wbtc.sol\":2586:2907  function transfer(address _to, uint256 _value) public returns (bool) {... */\n    tag_5:\n      callvalue\n        /* \"--CODEGEN--\":8:17   */\n      dup1\n        /* \"--CODEGEN--\":5:7   */\n      iszero\n      tag_15\n      jumpi\n        /* \"--CODEGEN--\":30:31   */\n      0x0\n        /* \"--CODEGEN--\":27:28   */\n      dup1\n        /* \"--CODEGEN--\":20:32   */\n      revert\n        /* \"--CODEGEN--\":5:7   */\n    tag_15:\n        /* \"DPay-proof-of-concept/contracts/coin_contracts/wbtc.sol\":2586:2907  function transfer(address _to, uint256 _value) public returns (bool) {... */\n      pop\n      tag_16\n      0x4\n      dup1\n      calldatasize\n      sub\n      dup2\n      add\n      swap1\n      dup1\n      dup1\n      calldataload\n      0xffffffffffffffffffffffffffffffffffffffff\n      and\n      swap1\n      0x20\n      add\n      swap1\n      swap3\n      swap2\n      swap1\n      dup1\n      calldataload\n      swap1\n      0x20\n      add\n      swap1\n      swap3\n      swap2\n      swap1\n      pop\n      pop\n      pop\n      jump(tag_17)\n    tag_16:\n      mload(0x40)\n      dup1\n      dup3\n      iszero\n      iszero\n      iszero\n      iszero\n      dup2\n      mstore\n      0x20\n      add\n      swap2\n      pop\n      pop\n      mload(0x40)\n      dup1\n      swap2\n      sub\n      swap1\n      return\n        /* \"DPay-proof-of-concept/contracts/coin_contracts/wbtc.sol\":2349:2432  function totalSupply() public view returns (uint256) {... */\n    tag_8:\n        /* \"DPay-proof-of-concept/contracts/coin_contracts/wbtc.sol\":2393:2400  uint256 */\n      0x0\n        /* \"DPay-proof-of-concept/contracts/coin_contracts/wbtc.sol\":2415:2427  totalSupply_ */\n      sload(0x1)\n        /* \"DPay-proof-of-concept/contracts/coin_contracts/wbtc.sol\":2408:2427  return totalSupply_ */\n      swap1\n      pop\n        /* \"DPay-proof-of-concept/contracts/coin_contracts/wbtc.sol\":2349:2432  function totalSupply() public view returns (uint256) {... */\n      swap1\n      jump\t// out\n        /* \"DPay-proof-of-concept/contracts/coin_contracts/wbtc.sol\":11919:11992  function burn(uint256 _value) public {... */\n    tag_11:\n        /* \"DPay-proof-of-concept/contracts/coin_contracts/wbtc.sol\":11962:11987  _burn(msg.sender, _value) */\n      tag_20\n        /* \"DPay-proof-of-concept/contracts/coin_contracts/wbtc.sol\":11968:11978  msg.sender */\n      caller\n        /* \"DPay-proof-of-concept/contracts/coin_contracts/wbtc.sol\":11980:11986  _value */\n      dup3\n        /* \"DPay-proof-of-concept/contracts/coin_contracts/wbtc.sol\":11962:11967  _burn */\n      tag_21\n        /* \"DPay-proof-of-concept/contracts/coin_contracts/wbtc.sol\":11962:11987  _burn(msg.sender, _value) */\n      jump\t// in\n    tag_20:\n        /* \"DPay-proof-of-concept/contracts/coin_contracts/wbtc.sol\":11919:11992  function burn(uint256 _value) public {... */\n      pop\n      jump\t// out\n        /* \"DPay-proof-of-concept/contracts/coin_contracts/wbtc.sol\":3109:3208  function balanceOf(address _owner) public view returns (uint256) {... */\n    tag_14:\n        /* \"DPay-proof-of-concept/contracts/coin_contracts/wbtc.sol\":3165:3172  uint256 */\n      0x0\n        /* \"DPay-proof-of-concept/contracts/coin_contracts/wbtc.sol\":3187:3195  balances */\n      dup1\n        /* \"DPay-proof-of-concept/contracts/coin_contracts/wbtc.sol\":3187:3203  balances[_owner] */\n      0x0\n        /* \"DPay-proof-of-concept/contracts/coin_contracts/wbtc.sol\":3196:3202  _owner */\n      dup4\n        /* \"DPay-proof-of-concept/contracts/coin_contracts/wbtc.sol\":3187:3203  balances[_owner] */\n      0xffffffffffffffffffffffffffffffffffffffff\n      and\n      0xffffffffffffffffffffffffffffffffffffffff\n      and\n      dup2\n      mstore\n      0x20\n      add\n      swap1\n      dup2\n      mstore\n      0x20\n      add\n      0x0\n      keccak256\n      sload\n        /* \"DPay-proof-of-concept/contracts/coin_contracts/wbtc.sol\":3180:3203  return balances[_owner] */\n      swap1\n      pop\n        /* \"DPay-proof-of-concept/contracts/coin_contracts/wbtc.sol\":3109:3208  function balanceOf(address _owner) public view returns (uint256) {... */\n      swap2\n      swap1\n      pop\n      jump\t// out\n        /* \"DPay-proof-of-concept/contracts/coin_contracts/wbtc.sol\":2586:2907  function transfer(address _to, uint256 _value) public returns (bool) {... */\n    tag_17:\n        /* \"DPay-proof-of-concept/contracts/coin_contracts/wbtc.sol\":2649:2653  bool */\n      0x0\n        /* \"DPay-proof-of-concept/contracts/coin_contracts/wbtc.sol\":2679:2687  balances */\n      dup1\n        /* \"DPay-proof-of-concept/contracts/coin_contracts/wbtc.sol\":2679:2699  balances[msg.sender] */\n      0x0\n        /* \"DPay-proof-of-concept/contracts/coin_contracts/wbtc.sol\":2688:2698  msg.sender */\n      caller\n        /* \"DPay-proof-of-concept/contracts/coin_contracts/wbtc.sol\":2679:2699  balances[msg.sender] */\n      0xffffffffffffffffffffffffffffffffffffffff\n      and\n      0xffffffffffffffffffffffffffffffffffffffff\n      and\n      dup2\n      mstore\n      0x20\n      add\n      swap1\n      dup2\n      mstore\n      0x20\n      add\n      0x0\n      keccak256\n      sload\n        /* \"DPay-proof-of-concept/contracts/coin_contracts/wbtc.sol\":2669:2675  _value */\n      dup3\n        /* \"DPay-proof-of-concept/contracts/coin_contracts/wbtc.sol\":2669:2699  _value <= balances[msg.sender] */\n      gt\n      iszero\n        /* \"DPay-proof-of-concept/contracts/coin_contracts/wbtc.sol\":2661:2700  require(_value <= balances[msg.sender]) */\n      iszero\n      iszero\n      tag_24\n      jumpi\n      0x0\n      dup1\n      revert\n    tag_24:\n        /* \"DPay-proof-of-concept/contracts/coin_contracts/wbtc.sol\":2729:2730  0 */\n      0x0\n        /* \"DPay-proof-of-concept/contracts/coin_contracts/wbtc.sol\":2714:2731  _to != address(0) */\n      0xffffffffffffffffffffffffffffffffffffffff\n      and\n        /* \"DPay-proof-of-concept/contracts/coin_contracts/wbtc.sol\":2714:2717  _to */\n      dup4\n        /* \"DPay-proof-of-concept/contracts/coin_contracts/wbtc.sol\":2714:2731  _to != address(0) */\n      0xffffffffffffffffffffffffffffffffffffffff\n      and\n      eq\n      iszero\n        /* \"DPay-proof-of-concept/contracts/coin_contracts/wbtc.sol\":2706:2732  require(_to != address(0)) */\n      iszero\n      iszero\n      tag_25\n      jumpi\n      0x0\n      dup1\n      revert\n    tag_25:\n        /* \"DPay-proof-of-concept/contracts/coin_contracts/wbtc.sol\":2762:2794  balances[msg.sender].sub(_value) */\n      tag_26\n        /* \"DPay-proof-of-concept/contracts/coin_contracts/wbtc.sol\":2787:2793  _value */\n      dup3\n        /* \"DPay-proof-of-concept/contracts/coin_contracts/wbtc.sol\":2762:2770  balances */\n      0x0\n        /* \"DPay-proof-of-concept/contracts/coin_contracts/wbtc.sol\":2762:2782  balances[msg.sender] */\n      dup1\n        /* \"DPay-proof-of-concept/contracts/coin_contracts/wbtc.sol\":2771:2781  msg.sender */\n      caller\n        /* \"DPay-proof-of-concept/contracts/coin_contracts/wbtc.sol\":2762:2782  balances[msg.sender] */\n      0xffffffffffffffffffffffffffffffffffffffff\n      and\n      0xffffffffffffffffffffffffffffffffffffffff\n      and\n      dup2\n      mstore\n      0x20\n      add\n      swap1\n      dup2\n      mstore\n      0x20\n      add\n      0x0\n      keccak256\n      sload\n        /* \"DPay-proof-of-concept/contracts/coin_contracts/wbtc.sol\":2762:2786  balances[msg.sender].sub */\n      tag_27\n      swap1\n        /* \"DPay-proof-of-concept/contracts/coin_contracts/wbtc.sol\":2762:2794  balances[msg.sender].sub(_value) */\n      swap2\n      swap1\n      0xffffffff\n      and\n      jump\t// in\n    tag_26:\n        /* \"DPay-proof-of-concept/contracts/coin_contracts/wbtc.sol\":2739:2747  balances */\n      0x0\n        /* \"DPay-proof-of-concept/contracts/coin_contracts/wbtc.sol\":2739:2759  balances[msg.sender] */\n      dup1\n        /* \"DPay-proof-of-concept/contracts/coin_contracts/wbtc.sol\":2748:2758  msg.sender */\n      caller\n        /* \"DPay-proof-of-concept/contracts/coin_contracts/wbtc.sol\":2739:2759  balances[msg.sender] */\n      0xffffffffffffffffffffffffffffffffffffffff\n      and\n      0xffffffffffffffffffffffffffffffffffffffff\n      and\n      dup2\n      mstore\n      0x20\n      add\n      swap1\n      dup2\n      mstore\n      0x20\n      add\n      0x0\n      keccak256\n        /* \"DPay-proof-of-concept/contracts/coin_contracts/wbtc.sol\":2739:2794  balances[msg.sender] = balances[msg.sender].sub(_value) */\n      dup2\n      swap1\n      sstore\n      pop\n        /* \"DPay-proof-of-concept/contracts/coin_contracts/wbtc.sol\":2816:2841  balances[_to].add(_value) */\n      tag_28\n        /* \"DPay-proof-of-concept/contracts/coin_contracts/wbtc.sol\":2834:2840  _value */\n      dup3\n        /* \"DPay-proof-of-concept/contracts/coin_contracts/wbtc.sol\":2816:2824  balances */\n      0x0\n        /* \"DPay-proof-of-concept/contracts/coin_contracts/wbtc.sol\":2816:2829  balances[_to] */\n      dup1\n        /* \"DPay-proof-of-concept/contracts/coin_contracts/wbtc.sol\":2825:2828  _to */\n      dup7\n        /* \"DPay-proof-of-concept/contracts/coin_contracts/wbtc.sol\":2816:2829  balances[_to] */\n      0xffffffffffffffffffffffffffffffffffffffff\n      and\n      0xffffffffffffffffffffffffffffffffffffffff\n      and\n      dup2\n      mstore\n      0x20\n      add\n      swap1\n      dup2\n      mstore\n      0x20\n      add\n      0x0\n      keccak256\n      sload\n        /* \"DPay-proof-of-concept/contracts/coin_contracts/wbtc.sol\":2816:2833  balances[_to].add */\n      tag_29\n      swap1\n        /* \"DPay-proof-of-concept/contracts/coin_contracts/wbtc.sol\":2816:2841  balances[_to].add(_value) */\n      swap2\n      swap1\n      0xffffffff\n      and\n      jump\t// in\n    tag_28:\n        /* \"DPay-proof-of-concept/contracts/coin_contracts/wbtc.sol\":2800:2808  balances */\n      0x0\n        /* \"DPay-proof-of-concept/contracts/coin_contracts/wbtc.sol\":2800:2813  balances[_to] */\n      dup1\n        /* \"DPay-proof-of-concept/contracts/coin_contracts/wbtc.sol\":2809:2812  _to */\n      dup6\n        /* \"DPay-proof-of-concept/contracts/coin_contracts/wbtc.sol\":2800:2813  balances[_to] */\n      0xffffffffffffffffffffffffffffffffffffffff\n      and\n      0xffffffffffffffffffffffffffffffffffffffff\n      and\n      dup2\n      mstore\n      0x20\n      add\n      swap1\n      dup2\n      mstore\n      0x20\n      add\n      0x0\n      keccak256\n        /* \"DPay-proof-of-concept/contracts/coin_contracts/wbtc.sol\":2800:2841  balances[_to] = balances[_to].add(_value) */\n      dup2\n      swap1\n      sstore\n      pop\n        /* \"DPay-proof-of-concept/contracts/coin_contracts/wbtc.sol\":2873:2876  _to */\n      dup3\n        /* \"DPay-proof-of-concept/contracts/coin_contracts/wbtc.sol\":2852:2885  Transfer(msg.sender, _to, _value) */\n      0xffffffffffffffffffffffffffffffffffffffff\n      and\n        /* \"DPay-proof-of-concept/contracts/coin_contracts/wbtc.sol\":2861:2871  msg.sender */\n      caller\n        /* \"DPay-proof-of-concept/contracts/coin_contracts/wbtc.sol\":2852:2885  Transfer(msg.sender, _to, _value) */\n      0xffffffffffffffffffffffffffffffffffffffff\n      and\n      0xddf252ad1be2c89b69c2b068fc378daa952ba7f163c4a11628f55a4df523b3ef\n        /* \"DPay-proof-of-concept/contracts/coin_contracts/wbtc.sol\":2878:2884  _value */\n      dup5\n        /* \"DPay-proof-of-concept/contracts/coin_contracts/wbtc.sol\":2852:2885  Transfer(msg.sender, _to, _value) */\n      mload(0x40)\n      dup1\n      dup3\n      dup2\n      mstore\n      0x20\n      add\n      swap2\n      pop\n      pop\n      mload(0x40)\n      dup1\n      swap2\n      sub\n      swap1\n      log3\n        /* \"DPay-proof-of-concept/contracts/coin_contracts/wbtc.sol\":2898:2902  true */\n      0x1\n        /* \"DPay-proof-of-concept/contracts/coin_contracts/wbtc.sol\":2891:2902  return true */\n      swap1\n      pop\n        /* \"DPay-proof-of-concept/contracts/coin_contracts/wbtc.sol\":2586:2907  function transfer(address _to, uint256 _value) public returns (bool) {... */\n      swap3\n      swap2\n      pop\n      pop\n      jump\t// out\n        /* \"DPay-proof-of-concept/contracts/coin_contracts/wbtc.sol\":11996:12434  function _burn(address _who, uint256 _value) internal {... */\n    tag_21:\n        /* \"DPay-proof-of-concept/contracts/coin_contracts/wbtc.sol\":12074:12082  balances */\n      0x0\n        /* \"DPay-proof-of-concept/contracts/coin_contracts/wbtc.sol\":12074:12088  balances[_who] */\n      dup1\n        /* \"DPay-proof-of-concept/contracts/coin_contracts/wbtc.sol\":12083:12087  _who */\n      dup4\n        /* \"DPay-proof-of-concept/contracts/coin_contracts/wbtc.sol\":12074:12088  balances[_who] */\n      0xffffffffffffffffffffffffffffffffffffffff\n      and\n      0xffffffffffffffffffffffffffffffffffffffff\n      and\n      dup2\n      mstore\n      0x20\n      add\n      swap1\n      dup2\n      mstore\n      0x20\n      add\n      0x0\n      keccak256\n      sload\n        /* \"DPay-proof-of-concept/contracts/coin_contracts/wbtc.sol\":12064:12070  _value */\n      dup2\n        /* \"DPay-proof-of-concept/contracts/coin_contracts/wbtc.sol\":12064:12088  _value <= balances[_who] */\n      gt\n      iszero\n        /* \"DPay-proof-of-concept/contracts/coin_contracts/wbtc.sol\":12056:12089  require(_value <= balances[_who]) */\n      iszero\n      iszero\n      tag_31\n      jumpi\n      0x0\n      dup1\n      revert\n    tag_31:\n        /* \"DPay-proof-of-concept/contracts/coin_contracts/wbtc.sol\":12284:12310  balances[_who].sub(_value) */\n      tag_32\n        /* \"DPay-proof-of-concept/contracts/coin_contracts/wbtc.sol\":12303:12309  _value */\n      dup2\n        /* \"DPay-proof-of-concept/contracts/coin_contracts/wbtc.sol\":12284:12292  balances */\n      0x0\n        /* \"DPay-proof-of-concept/contracts/coin_contracts/wbtc.sol\":12284:12298  balances[_who] */\n      dup1\n        /* \"DPay-proof-of-concept/contracts/coin_contracts/wbtc.sol\":12293:12297  _who */\n      dup6\n        /* \"DPay-proof-of-concept/contracts/coin_contracts/wbtc.sol\":12284:12298  balances[_who] */\n      0xffffffffffffffffffffffffffffffffffffffff\n      and\n      0xffffffffffffffffffffffffffffffffffffffff\n      and\n      dup2\n      mstore\n      0x20\n      add\n      swap1\n      dup2\n      mstore\n      0x20\n      add\n      0x0\n      keccak256\n      sload\n        /* \"DPay-proof-of-concept/contracts/coin_contracts/wbtc.sol\":12284:12302  balances[_who].sub */\n      tag_27\n      swap1\n        /* \"DPay-proof-of-concept/contracts/coin_contracts/wbtc.sol\":12284:12310  balances[_who].sub(_value) */\n      swap2\n      swap1\n      0xffffffff\n      and\n      jump\t// in\n    tag_32:\n        /* \"DPay-proof-of-concept/contracts/coin_contracts/wbtc.sol\":12267:12275  balances */\n      0x0\n        /* \"DPay-proof-of-concept/contracts/coin_contracts/wbtc.sol\":12267:12281  balances[_who] */\n      dup1\n        /* \"DPay-proof-of-concept/contracts/coin_contracts/wbtc.sol\":12276:12280  _who */\n      dup5\n        /* \"DPay-proof-of-concept/contracts/coin_contracts/wbtc.sol\":12267:12281  balances[_who] */\n      0xffffffffffffffffffffffffffffffffffffffff\n      and\n      0xffffffffffffffffffffffffffffffffffffffff\n      and\n      dup2\n      mstore\n      0x20\n      add\n      swap1\n      dup2\n      mstore\n      0x20\n      add\n      0x0\n      keccak256\n        /* \"DPay-proof-of-concept/contracts/coin_contracts/wbtc.sol\":12267:12310  balances[_who] = balances[_who].sub(_value) */\n      dup2\n      swap1\n      sstore\n      pop\n        /* \"DPay-proof-of-concept/contracts/coin_contracts/wbtc.sol\":12331:12355  totalSupply_.sub(_value) */\n      tag_33\n        /* \"DPay-proof-of-concept/contracts/coin_contracts/wbtc.sol\":12348:12354  _value */\n      dup2\n        /* \"DPay-proof-of-concept/contracts/coin_contracts/wbtc.sol\":12331:12343  totalSupply_ */\n      sload(0x1)\n        /* \"DPay-proof-of-concept/contracts/coin_contracts/wbtc.sol\":12331:12347  totalSupply_.sub */\n      tag_27\n      swap1\n        /* \"DPay-proof-of-concept/contracts/coin_contracts/wbtc.sol\":12331:12355  totalSupply_.sub(_value) */\n      swap2\n      swap1\n      0xffffffff\n      and\n      jump\t// in\n    tag_33:\n        /* \"DPay-proof-of-concept/contracts/coin_contracts/wbtc.sol\":12316:12328  totalSupply_ */\n      0x1\n        /* \"DPay-proof-of-concept/contracts/coin_contracts/wbtc.sol\":12316:12355  totalSupply_ = totalSupply_.sub(_value) */\n      dup2\n      swap1\n      sstore\n      pop\n        /* \"DPay-proof-of-concept/contracts/coin_contracts/wbtc.sol\":12371:12375  _who */\n      dup2\n        /* \"DPay-proof-of-concept/contracts/coin_contracts/wbtc.sol\":12366:12384  Burn(_who, _value) */\n      0xffffffffffffffffffffffffffffffffffffffff\n      and\n      0xcc16f5dbb4873280815c1ee09dbd06736cffcc184412cf7a71a0fdb75d397ca5\n        /* \"DPay-proof-of-concept/contracts/coin_contracts/wbtc.sol\":12377:12383  _value */\n      dup3\n        /* \"DPay-proof-of-concept/contracts/coin_contracts/wbtc.sol\":12366:12384  Burn(_who, _value) */\n      mload(0x40)\n      dup1\n      dup3\n      dup2\n      mstore\n      0x20\n      add\n      swap2\n      pop\n      pop\n      mload(0x40)\n      dup1\n      swap2\n      sub\n      swap1\n      log2\n        /* \"DPay-proof-of-concept/contracts/coin_contracts/wbtc.sol\":12418:12419  0 */\n      0x0\n        /* \"DPay-proof-of-concept/contracts/coin_contracts/wbtc.sol\":12395:12429  Transfer(_who, address(0), _value) */\n      0xffffffffffffffffffffffffffffffffffffffff\n      and\n        /* \"DPay-proof-of-concept/contracts/coin_contracts/wbtc.sol\":12404:12408  _who */\n      dup3\n        /* \"DPay-proof-of-concept/contracts/coin_contracts/wbtc.sol\":12395:12429  Transfer(_who, address(0), _value) */\n      0xffffffffffffffffffffffffffffffffffffffff\n      and\n      0xddf252ad1be2c89b69c2b068fc378daa952ba7f163c4a11628f55a4df523b3ef\n        /* \"DPay-proof-of-concept/contracts/coin_contracts/wbtc.sol\":12422:12428  _value */\n      dup4\n        /* \"DPay-proof-of-concept/contracts/coin_contracts/wbtc.sol\":12395:12429  Transfer(_who, address(0), _value) */\n      mload(0x40)\n      dup1\n      dup3\n      dup2\n      mstore\n      0x20\n      add\n      swap2\n      pop\n      pop\n      mload(0x40)\n      dup1\n      swap2\n      sub\n      swap1\n      log3\n        /* \"DPay-proof-of-concept/contracts/coin_contracts/wbtc.sol\":11996:12434  function _burn(address _who, uint256 _value) internal {... */\n      pop\n      pop\n      jump\t// out\n        /* \"DPay-proof-of-concept/contracts/coin_contracts/wbtc.sol\":1671:1787  function sub(uint256 _a, uint256 _b) internal pure returns (uint256) {... */\n    tag_27:\n        /* \"DPay-proof-of-concept/contracts/coin_contracts/wbtc.sol\":1731:1738  uint256 */\n      0x0\n        /* \"DPay-proof-of-concept/contracts/coin_contracts/wbtc.sol\":1759:1761  _a */\n      dup3\n        /* \"DPay-proof-of-concept/contracts/coin_contracts/wbtc.sol\":1753:1755  _b */\n      dup3\n        /* \"DPay-proof-of-concept/contracts/coin_contracts/wbtc.sol\":1753:1761  _b <= _a */\n      gt\n      iszero\n        /* \"DPay-proof-of-concept/contracts/coin_contracts/wbtc.sol\":1746:1762  assert(_b <= _a) */\n      iszero\n      iszero\n      tag_35\n      jumpi\n      invalid\n    tag_35:\n        /* \"DPay-proof-of-concept/contracts/coin_contracts/wbtc.sol\":1780:1782  _b */\n      dup2\n        /* \"DPay-proof-of-concept/contracts/coin_contracts/wbtc.sol\":1775:1777  _a */\n      dup4\n        /* \"DPay-proof-of-concept/contracts/coin_contracts/wbtc.sol\":1775:1782  _a - _b */\n      sub\n        /* \"DPay-proof-of-concept/contracts/coin_contracts/wbtc.sol\":1768:1782  return _a - _b */\n      swap1\n      pop\n        /* \"DPay-proof-of-concept/contracts/coin_contracts/wbtc.sol\":1671:1787  function sub(uint256 _a, uint256 _b) internal pure returns (uint256) {... */\n      swap3\n      swap2\n      pop\n      pop\n      jump\t// out\n        /* \"DPay-proof-of-concept/contracts/coin_contracts/wbtc.sol\":1849:1977  function add(uint256 _a, uint256 _b) internal pure returns (uint256 c) {... */\n    tag_29:\n        /* \"DPay-proof-of-concept/contracts/coin_contracts/wbtc.sol\":1909:1918  uint256 c */\n      0x0\n        /* \"DPay-proof-of-concept/contracts/coin_contracts/wbtc.sol\":1935:1937  _b */\n      dup2\n        /* \"DPay-proof-of-concept/contracts/coin_contracts/wbtc.sol\":1930:1932  _a */\n      dup4\n        /* \"DPay-proof-of-concept/contracts/coin_contracts/wbtc.sol\":1930:1937  _a + _b */\n      add\n        /* \"DPay-proof-of-concept/contracts/coin_contracts/wbtc.sol\":1926:1937  c = _a + _b */\n      swap1\n      pop\n        /* \"DPay-proof-of-concept/contracts/coin_contracts/wbtc.sol\":1955:1957  _a */\n      dup3\n        /* \"DPay-proof-of-concept/contracts/coin_contracts/wbtc.sol\":1950:1951  c */\n      dup2\n        /* \"DPay-proof-of-concept/contracts/coin_contracts/wbtc.sol\":1950:1957  c >= _a */\n      lt\n      iszero\n        /* \"DPay-proof-of-concept/contracts/coin_contracts/wbtc.sol\":1943:1958  assert(c >= _a) */\n      iszero\n      iszero\n      tag_37\n      jumpi\n      invalid\n    tag_37:\n        /* \"DPay-proof-of-concept/contracts/coin_contracts/wbtc.sol\":1971:1972  c */\n      dup1\n        /* \"DPay-proof-of-concept/contracts/coin_contracts/wbtc.sol\":1964:1972  return c */\n      swap1\n      pop\n        /* \"DPay-proof-of-concept/contracts/coin_contracts/wbtc.sol\":1849:1977  function add(uint256 _a, uint256 _b) internal pure returns (uint256 c) {... */\n      swap3\n      swap2\n      pop\n      pop\n      jump\t// out\n\n    auxdata: 0xa165627a7a72305820c6fa034db00560bc61bba5eca6bb95c83f8f0a04376d3fde8d9da3931dbb595f0029\n}\n",
				"bytecode": {
					"linkReferences": {},
					"object": "608060405234801561001057600080fd5b5061060e806100206000396000f300608060405260043610610062576000357c0100000000000000000000000000000000000000000000000000000000900463ffffffff16806318160ddd1461006757806342966c681461009257806370a08231146100bf578063a9059cbb14610116575b600080fd5b34801561007357600080fd5b5061007c61017b565b6040518082815260200191505060405180910390f35b34801561009e57600080fd5b506100bd60048036038101908080359060200190929190505050610185565b005b3480156100cb57600080fd5b50610100600480360381019080803573ffffffffffffffffffffffffffffffffffffffff169060200190929190505050610192565b6040518082815260200191505060405180910390f35b34801561012257600080fd5b50610161600480360381019080803573ffffffffffffffffffffffffffffffffffffffff169060200190929190803590602001909291905050506101da565b604051808215151515815260200191505060405180910390f35b6000600154905090565b61018f33826103fa565b50565b60008060008373ffffffffffffffffffffffffffffffffffffffff1673ffffffffffffffffffffffffffffffffffffffff168152602001908152602001600020549050919050565b60008060003373ffffffffffffffffffffffffffffffffffffffff1673ffffffffffffffffffffffffffffffffffffffff16815260200190815260200160002054821115151561022957600080fd5b600073ffffffffffffffffffffffffffffffffffffffff168373ffffffffffffffffffffffffffffffffffffffff161415151561026557600080fd5b6102b6826000803373ffffffffffffffffffffffffffffffffffffffff1673ffffffffffffffffffffffffffffffffffffffff168152602001908152602001600020546105ad90919063ffffffff16565b6000803373ffffffffffffffffffffffffffffffffffffffff1673ffffffffffffffffffffffffffffffffffffffff16815260200190815260200160002081905550610349826000808673ffffffffffffffffffffffffffffffffffffffff1673ffffffffffffffffffffffffffffffffffffffff168152602001908152602001600020546105c690919063ffffffff16565b6000808573ffffffffffffffffffffffffffffffffffffffff1673ffffffffffffffffffffffffffffffffffffffff168152602001908152602001600020819055508273ffffffffffffffffffffffffffffffffffffffff163373ffffffffffffffffffffffffffffffffffffffff167fddf252ad1be2c89b69c2b068fc378daa952ba7f163c4a11628f55a4df523b3ef846040518082815260200191505060405180910390a36001905092915050565b6000808373ffffffffffffffffffffffffffffffffffffffff1673ffffffffffffffffffffffffffffffffffffffff16815260200190815260200160002054811115151561044757600080fd5b610498816000808573ffffffffffffffffffffffffffffffffffffffff1673ffffffffffffffffffffffffffffffffffffffff168152602001908152602001600020546105ad90919063ffffffff16565b6000808473ffffffffffffffffffffffffffffffffffffffff1673ffffffffffffffffffffffffffffffffffffffff168152602001908152602001600020819055506104ef816001546105ad90919063ffffffff16565b6001819055508173ffffffffffffffffffffffffffffffffffffffff167fcc16f5dbb4873280815c1ee09dbd06736cffcc184412cf7a71a0fdb75d397ca5826040518082815260200191505060405180910390a2600073ffffffffffffffffffffffffffffffffffffffff168273ffffffffffffffffffffffffffffffffffffffff167fddf252ad1be2c89b69c2b068fc378daa952ba7f163c4a11628f55a4df523b3ef836040518082815260200191505060405180910390a35050565b60008282111515156105bb57fe5b818303905092915050565b600081830190508281101515156105d957fe5b809050929150505600a165627a7a72305820c6fa034db00560bc61bba5eca6bb95c83f8f0a04376d3fde8d9da3931dbb595f0029",
					"opcodes": "PUSH1 0x80 PUSH1 0x40 MSTORE CALLVALUE DUP1 ISZERO PUSH2 0x10 JUMPI PUSH1 0x0 DUP1 REVERT JUMPDEST POP PUSH2 0x60E DUP1 PUSH2 0x20 PUSH1 0x0 CODECOPY PUSH1 0x0 RETURN STOP PUSH1 0x80 PUSH1 0x40 MSTORE PUSH1 0x4 CALLDATASIZE LT PUSH2 0x62 JUMPI PUSH1 0x0 CALLDATALOAD PUSH29 0x100000000000000000000000000000000000000000000000000000000 SWAP1 DIV PUSH4 0xFFFFFFFF AND DUP1 PUSH4 0x18160DDD EQ PUSH2 0x67 JUMPI DUP1 PUSH4 0x42966C68 EQ PUSH2 0x92 JUMPI DUP1 PUSH4 0x70A08231 EQ PUSH2 0xBF JUMPI DUP1 PUSH4 0xA9059CBB EQ PUSH2 0x116 JUMPI JUMPDEST PUSH1 0x0 DUP1 REVERT JUMPDEST CALLVALUE DUP1 ISZERO PUSH2 0x73 JUMPI PUSH1 0x0 DUP1 REVERT JUMPDEST POP PUSH2 0x7C PUSH2 0x17B JUMP JUMPDEST PUSH1 0x40 MLOAD DUP1 DUP3 DUP2 MSTORE PUSH1 0x20 ADD SWAP2 POP POP PUSH1 0x40 MLOAD DUP1 SWAP2 SUB SWAP1 RETURN JUMPDEST CALLVALUE DUP1 ISZERO PUSH2 0x9E JUMPI PUSH1 0x0 DUP1 REVERT JUMPDEST POP PUSH2 0xBD PUSH1 0x4 DUP1 CALLDATASIZE SUB DUP2 ADD SWAP1 DUP1 DUP1 CALLDATALOAD SWAP1 PUSH1 0x20 ADD SWAP1 SWAP3 SWAP2 SWAP1 POP POP POP PUSH2 0x185 JUMP JUMPDEST STOP JUMPDEST CALLVALUE DUP1 ISZERO PUSH2 0xCB JUMPI PUSH1 0x0 DUP1 REVERT JUMPDEST POP PUSH2 0x100 PUSH1 0x4 DUP1 CALLDATASIZE SUB DUP2 ADD SWAP1 DUP1 DUP1 CALLDATALOAD PUSH20 0xFFFFFFFFFFFFFFFFFFFFFFFFFFFFFFFFFFFFFFFF AND SWAP1 PUSH1 0x20 ADD SWAP1 SWAP3 SWAP2 SWAP1 POP POP POP PUSH2 0x192 JUMP JUMPDEST PUSH1 0x40 MLOAD DUP1 DUP3 DUP2 MSTORE PUSH1 0x20 ADD SWAP2 POP POP PUSH1 0x40 MLOAD DUP1 SWAP2 SUB SWAP1 RETURN JUMPDEST CALLVALUE DUP1 ISZERO PUSH2 0x122 JUMPI PUSH1 0x0 DUP1 REVERT JUMPDEST POP PUSH2 0x161 PUSH1 0x4 DUP1 CALLDATASIZE SUB DUP2 ADD SWAP1 DUP1 DUP1 CALLDATALOAD PUSH20 0xFFFFFFFFFFFFFFFFFFFFFFFFFFFFFFFFFFFFFFFF AND SWAP1 PUSH1 0x20 ADD SWAP1 SWAP3 SWAP2 SWAP1 DUP1 CALLDATALOAD SWAP1 PUSH1 0x20 ADD SWAP1 SWAP3 SWAP2 SWAP1 POP POP POP PUSH2 0x1DA JUMP JUMPDEST PUSH1 0x40 MLOAD DUP1 DUP3 ISZERO ISZERO ISZERO ISZERO DUP2 MSTORE PUSH1 0x20 ADD SWAP2 POP POP PUSH1 0x40 MLOAD DUP1 SWAP2 SUB SWAP1 RETURN JUMPDEST PUSH1 0x0 PUSH1 0x1 SLOAD SWAP1 POP SWAP1 JUMP JUMPDEST PUSH2 0x18F CALLER DUP3 PUSH2 0x3FA JUMP JUMPDEST POP JUMP JUMPDEST PUSH1 0x0 DUP1 PUSH1 0x0 DUP4 PUSH20 0xFFFFFFFFFFFFFFFFFFFFFFFFFFFFFFFFFFFFFFFF AND PUSH20 0xFFFFFFFFFFFFFFFFFFFFFFFFFFFFFFFFFFFFFFFF AND DUP2 MSTORE PUSH1 0x20 ADD SWAP1 DUP2 MSTORE PUSH1 0x20 ADD PUSH1 0x0 KECCAK256 SLOAD SWAP1 POP SWAP2 SWAP1 POP JUMP JUMPDEST PUSH1 0x0 DUP1 PUSH1 0x0 CALLER PUSH20 0xFFFFFFFFFFFFFFFFFFFFFFFFFFFFFFFFFFFFFFFF AND PUSH20 0xFFFFFFFFFFFFFFFFFFFFFFFFFFFFFFFFFFFFFFFF AND DUP2 MSTORE PUSH1 0x20 ADD SWAP1 DUP2 MSTORE PUSH1 0x20 ADD PUSH1 0x0 KECCAK256 SLOAD DUP3 GT ISZERO ISZERO ISZERO PUSH2 0x229 JUMPI PUSH1 0x0 DUP1 REVERT JUMPDEST PUSH1 0x0 PUSH20 0xFFFFFFFFFFFFFFFFFFFFFFFFFFFFFFFFFFFFFFFF AND DUP4 PUSH20 0xFFFFFFFFFFFFFFFFFFFFFFFFFFFFFFFFFFFFFFFF AND EQ ISZERO ISZERO ISZERO PUSH2 0x265 JUMPI PUSH1 0x0 DUP1 REVERT JUMPDEST PUSH2 0x2B6 DUP3 PUSH1 0x0 DUP1 CALLER PUSH20 0xFFFFFFFFFFFFFFFFFFFFFFFFFFFFFFFFFFFFFFFF AND PUSH20 0xFFFFFFFFFFFFFFFFFFFFFFFFFFFFFFFFFFFFFFFF AND DUP2 MSTORE PUSH1 0x20 ADD SWAP1 DUP2 MSTORE PUSH1 0x20 ADD PUSH1 0x0 KECCAK256 SLOAD PUSH2 0x5AD SWAP1 SWAP2 SWAP1 PUSH4 0xFFFFFFFF AND JUMP JUMPDEST PUSH1 0x0 DUP1 CALLER PUSH20 0xFFFFFFFFFFFFFFFFFFFFFFFFFFFFFFFFFFFFFFFF AND PUSH20 0xFFFFFFFFFFFFFFFFFFFFFFFFFFFFFFFFFFFFFFFF AND DUP2 MSTORE PUSH1 0x20 ADD SWAP1 DUP2 MSTORE PUSH1 0x20 ADD PUSH1 0x0 KECCAK256 DUP2 SWAP1 SSTORE POP PUSH2 0x349 DUP3 PUSH1 0x0 DUP1 DUP7 PUSH20 0xFFFFFFFFFFFFFFFFFFFFFFFFFFFFFFFFFFFFFFFF AND PUSH20 0xFFFFFFFFFFFFFFFFFFFFFFFFFFFFFFFFFFFFFFFF AND DUP2 MSTORE PUSH1 0x20 ADD SWAP1 DUP2 MSTORE PUSH1 0x20 ADD PUSH1 0x0 KECCAK256 SLOAD PUSH2 0x5C6 SWAP1 SWAP2 SWAP1 PUSH4 0xFFFFFFFF AND JUMP JUMPDEST PUSH1 0x0 DUP1 DUP6 PUSH20 0xFFFFFFFFFFFFFFFFFFFFFFFFFFFFFFFFFFFFFFFF AND PUSH20 0xFFFFFFFFFFFFFFFFFFFFFFFFFFFFFFFFFFFFFFFF AND DUP2 MSTORE PUSH1 0x20 ADD SWAP1 DUP2 MSTORE PUSH1 0x20 ADD PUSH1 0x0 KECCAK256 DUP2 SWAP1 SSTORE POP DUP3 PUSH20 0xFFFFFFFFFFFFFFFFFFFFFFFFFFFFFFFFFFFFFFFF AND CALLER PUSH20 0xFFFFFFFFFFFFFFFFFFFFFFFFFFFFFFFFFFFFFFFF AND PUSH32 0xDDF252AD1BE2C89B69C2B068FC378DAA952BA7F163C4A11628F55A4DF523B3EF DUP5 PUSH1 0x40 MLOAD DUP1 DUP3 DUP2 MSTORE PUSH1 0x20 ADD SWAP2 POP POP PUSH1 0x40 MLOAD DUP1 SWAP2 SUB SWAP1 LOG3 PUSH1 0x1 SWAP1 POP SWAP3 SWAP2 POP POP JUMP JUMPDEST PUSH1 0x0 DUP1 DUP4 PUSH20 0xFFFFFFFFFFFFFFFFFFFFFFFFFFFFFFFFFFFFFFFF AND PUSH20 0xFFFFFFFFFFFFFFFFFFFFFFFFFFFFFFFFFFFFFFFF AND DUP2 MSTORE PUSH1 0x20 ADD SWAP1 DUP2 MSTORE PUSH1 0x20 ADD PUSH1 0x0 KECCAK256 SLOAD DUP2 GT ISZERO ISZERO ISZERO PUSH2 0x447 JUMPI PUSH1 0x0 DUP1 REVERT JUMPDEST PUSH2 0x498 DUP2 PUSH1 0x0 DUP1 DUP6 PUSH20 0xFFFFFFFFFFFFFFFFFFFFFFFFFFFFFFFFFFFFFFFF AND PUSH20 0xFFFFFFFFFFFFFFFFFFFFFFFFFFFFFFFFFFFFFFFF AND DUP2 MSTORE PUSH1 0x20 ADD SWAP1 DUP2 MSTORE PUSH1 0x20 ADD PUSH1 0x0 KECCAK256 SLOAD PUSH2 0x5AD SWAP1 SWAP2 SWAP1 PUSH4 0xFFFFFFFF AND JUMP JUMPDEST PUSH1 0x0 DUP1 DUP5 PUSH20 0xFFFFFFFFFFFFFFFFFFFFFFFFFFFFFFFFFFFFFFFF AND PUSH20 0xFFFFFFFFFFFFFFFFFFFFFFFFFFFFFFFFFFFFFFFF AND DUP2 MSTORE PUSH1 0x20 ADD SWAP1 DUP2 MSTORE PUSH1 0x20 ADD PUSH1 0x0 KECCAK256 DUP2 SWAP1 SSTORE POP PUSH2 0x4EF DUP2 PUSH1 0x1 SLOAD PUSH2 0x5AD SWAP1 SWAP2 SWAP1 PUSH4 0xFFFFFFFF AND JUMP JUMPDEST PUSH1 0x1 DUP2 SWAP1 SSTORE POP DUP2 PUSH20 0xFFFFFFFFFFFFFFFFFFFFFFFFFFFFFFFFFFFFFFFF AND PUSH32 0xCC16F5DBB4873280815C1EE09DBD06736CFFCC184412CF7A71A0FDB75D397CA5 DUP3 PUSH1 0x40 MLOAD DUP1 DUP3 DUP2 MSTORE PUSH1 0x20 ADD SWAP2 POP POP PUSH1 0x40 MLOAD DUP1 SWAP2 SUB SWAP1 LOG2 PUSH1 0x0 PUSH20 0xFFFFFFFFFFFFFFFFFFFFFFFFFFFFFFFFFFFFFFFF AND DUP3 PUSH20 0xFFFFFFFFFFFFFFFFFFFFFFFFFFFFFFFFFFFFFFFF AND PUSH32 0xDDF252AD1BE2C89B69C2B068FC378DAA952BA7F163C4A11628F55A4DF523B3EF DUP4 PUSH1 0x40 MLOAD DUP1 DUP3 DUP2 MSTORE PUSH1 0x20 ADD SWAP2 POP POP PUSH1 0x40 MLOAD DUP1 SWAP2 SUB SWAP1 LOG3 POP POP JUMP JUMPDEST PUSH1 0x0 DUP3 DUP3 GT ISZERO ISZERO ISZERO PUSH2 0x5BB JUMPI INVALID JUMPDEST DUP2 DUP4 SUB SWAP1 POP SWAP3 SWAP2 POP POP JUMP JUMPDEST PUSH1 0x0 DUP2 DUP4 ADD SWAP1 POP DUP3 DUP2 LT ISZERO ISZERO ISZERO PUSH2 0x5D9 JUMPI INVALID JUMPDEST DUP1 SWAP1 POP SWAP3 SWAP2 POP POP JUMP STOP LOG1 PUSH6 0x627A7A723058 KECCAK256 0xc6 STATICCALL SUB 0x4d 0xb0 SDIV PUSH1 0xBC PUSH2 0xBBA5 0xec 0xa6 0xbb SWAP6 0xc8 0x3f DUP16 EXP DIV CALLDATACOPY PUSH14 0x3FDE8D9DA3931DBB595F00290000 "
				},
				"gasEstimates": {
					"creation": {
						"codeDepositCost": "310000",
						"executionCost": "349",
						"totalCost": "310349"
					},
					"external": {
						"balanceOf(address)": "603",
						"burn(uint256)": "infinite",
						"totalSupply()": "402",
						"transfer(address,uint256)": "infinite"
					},
					"internal": {
						"_burn(address,uint256)": "infinite"
					}
				},
				"methodIdentifiers": {
					"balanceOf(address)": "70a08231",
					"burn(uint256)": "42966c68",
					"totalSupply()": "18160ddd",
					"transfer(address,uint256)": "a9059cbb"
				}
			},
			"userdoc": {
				"methods": {}
			}
		}
	}
}