{
	"DPay-proof-of-concept/contracts/coin_contracts/USDC.sol": {
		"AdminUpgradeabilityProxy": {
			"abi": [
				{
					"constant": false,
					"inputs": [
						{
							"name": "newImplementation",
							"type": "address"
						}
					],
					"name": "upgradeTo",
					"outputs": [],
					"payable": false,
					"stateMutability": "nonpayable",
					"type": "function"
				},
				{
					"constant": false,
					"inputs": [
						{
							"name": "newImplementation",
							"type": "address"
						},
						{
							"name": "data",
							"type": "bytes"
						}
					],
					"name": "upgradeToAndCall",
					"outputs": [],
					"payable": true,
					"stateMutability": "payable",
					"type": "function"
				},
				{
					"constant": true,
					"inputs": [],
					"name": "implementation",
					"outputs": [
						{
							"name": "",
							"type": "address"
						}
					],
					"payable": false,
					"stateMutability": "view",
					"type": "function"
				},
				{
					"constant": false,
					"inputs": [
						{
							"name": "newAdmin",
							"type": "address"
						}
					],
					"name": "changeAdmin",
					"outputs": [],
					"payable": false,
					"stateMutability": "nonpayable",
					"type": "function"
				},
				{
					"constant": true,
					"inputs": [],
					"name": "admin",
					"outputs": [
						{
							"name": "",
							"type": "address"
						}
					],
					"payable": false,
					"stateMutability": "view",
					"type": "function"
				},
				{
					"inputs": [
						{
							"name": "_implementation",
							"type": "address"
						}
					],
					"payable": false,
					"stateMutability": "nonpayable",
					"type": "constructor"
				},
				{
					"payable": true,
					"stateMutability": "payable",
					"type": "fallback"
				},
				{
					"anonymous": false,
					"inputs": [
						{
							"indexed": false,
							"name": "previousAdmin",
							"type": "address"
						},
						{
							"indexed": false,
							"name": "newAdmin",
							"type": "address"
						}
					],
					"name": "AdminChanged",
					"type": "event"
				},
				{
					"anonymous": false,
					"inputs": [
						{
							"indexed": false,
							"name": "implementation",
							"type": "address"
						}
					],
					"name": "Upgraded",
					"type": "event"
				}
			],
			"devdoc": {
				"methods": {
					"admin()": {
						"return": "The address of the proxy admin."
					},
					"changeAdmin(address)": {
						"details": "Changes the admin of the proxy. Only the current admin can call this function.",
						"params": {
							"newAdmin": "Address to transfer proxy administration to."
						}
					},
					"implementation()": {
						"return": "The address of the implementation."
					},
					"upgradeTo(address)": {
						"details": "Upgrade the backing implementation of the proxy. Only the admin can call this function.",
						"params": {
							"newImplementation": "Address of the new implementation."
						}
					},
					"upgradeToAndCall(address,bytes)": {
						"details": "Upgrade the backing implementation of the proxy and call a function on the new implementation. This is useful to initialize the proxied contract.",
						"params": {
							"data": "Data to send as msg.data in the low level call. It should include the signature and the parameters of the function to be called, as described in https://solidity.readthedocs.io/en/develop/abi-spec.html#function-selector-and-argument-encoding.",
							"newImplementation": "Address of the new implementation."
						}
					}
				},
				"title": "AdminUpgradeabilityProxy"
			},
			"evm": {
				"assembly": "    /* \"DPay-proof-of-concept/contracts/coin_contracts/USDC.sol\":5722:9318  contract AdminUpgradeabilityProxy is UpgradeabilityProxy {... */\n  mstore(0x40, 0x80)\n    /* \"DPay-proof-of-concept/contracts/coin_contracts/USDC.sol\":6769:6950  constructor(address _implementation) UpgradeabilityProxy(_implementation) public {... */\n  callvalue\n    /* \"--CODEGEN--\":8:17   */\n  dup1\n    /* \"--CODEGEN--\":5:7   */\n  iszero\n  tag_1\n  jumpi\n    /* \"--CODEGEN--\":30:31   */\n  0x0\n    /* \"--CODEGEN--\":27:28   */\n  dup1\n    /* \"--CODEGEN--\":20:32   */\n  revert\n    /* \"--CODEGEN--\":5:7   */\ntag_1:\n    /* \"DPay-proof-of-concept/contracts/coin_contracts/USDC.sol\":6769:6950  constructor(address _implementation) UpgradeabilityProxy(_implementation) public {... */\n  pop\n  mload(0x40)\n  0x20\n  dup1\n  bytecodeSize\n  dup4\n  codecopy\n  dup2\n  add\n  dup1\n  0x40\n  mstore\n  dup2\n  add\n  swap1\n  dup1\n  dup1\n  mload\n  swap1\n  0x20\n  add\n  swap1\n  swap3\n  swap2\n  swap1\n  pop\n  pop\n  pop\n    /* \"DPay-proof-of-concept/contracts/coin_contracts/USDC.sol\":6826:6841  _implementation */\n  dup1\n    /* \"DPay-proof-of-concept/contracts/coin_contracts/USDC.sol\":4219:4267  keccak256(\"org.zeppelinos.proxy.implementation\") */\n  mload(0x40)\n  dup1\n  dup1\n  0x6f72672e7a657070656c696e6f732e70726f78792e696d706c656d656e746174\n  dup2\n  mstore\n  0x20\n  add\n  0x696f6e0000000000000000000000000000000000000000000000000000000000\n  dup2\n  mstore\n  pop\n  0x23\n  add\n  swap1\n  pop\n  mload(0x40)\n  dup1\n  swap2\n  sub\n  swap1\n  keccak256\n    /* \"DPay-proof-of-concept/contracts/coin_contracts/USDC.sol\":4196:4267  IMPLEMENTATION_SLOT == keccak256(\"org.zeppelinos.proxy.implementation\") */\n  not(0x0)\n  and\n    /* \"DPay-proof-of-concept/contracts/coin_contracts/USDC.sol\":3957:4023  0x7050c9e0f4ca769c69bd3a8ef740bc37934f8e2c036e5a723fd8ee048ed3f8c3 */\n  0x7050c9e0f4ca769c69bd3a8ef740bc37934f8e2c036e5a723fd8ee048ed3f8c3\n    /* \"DPay-proof-of-concept/contracts/coin_contracts/USDC.sol\":4196:4215  IMPLEMENTATION_SLOT */\n  0x1\n  mul\n    /* \"DPay-proof-of-concept/contracts/coin_contracts/USDC.sol\":4196:4267  IMPLEMENTATION_SLOT == keccak256(\"org.zeppelinos.proxy.implementation\") */\n  not(0x0)\n  and\n  eq\n    /* \"DPay-proof-of-concept/contracts/coin_contracts/USDC.sol\":4189:4268  assert(IMPLEMENTATION_SLOT == keccak256(\"org.zeppelinos.proxy.implementation\")) */\n  iszero\n  iszero\n  tag_5\n  jumpi\n  invalid\ntag_5:\n    /* \"DPay-proof-of-concept/contracts/coin_contracts/USDC.sol\":4275:4310  _setImplementation(_implementation) */\n  tag_6\n    /* \"DPay-proof-of-concept/contracts/coin_contracts/USDC.sol\":4294:4309  _implementation */\n  dup2\n    /* \"DPay-proof-of-concept/contracts/coin_contracts/USDC.sol\":4275:4293  _setImplementation */\n  mul(0x100000000, tag_7)\n    /* \"DPay-proof-of-concept/contracts/coin_contracts/USDC.sol\":4275:4310  _setImplementation(_implementation) */\n  0x100000000\n  swap1\n  div\n  jump\t// in\ntag_6:\n    /* \"DPay-proof-of-concept/contracts/coin_contracts/USDC.sol\":4139:4315  constructor(address _implementation) public {... */\n  pop\n    /* \"DPay-proof-of-concept/contracts/coin_contracts/USDC.sol\":6877:6916  keccak256(\"org.zeppelinos.proxy.admin\") */\n  mload(0x40)\n  dup1\n  dup1\n  0x6f72672e7a657070656c696e6f732e70726f78792e61646d696e000000000000\n  dup2\n  mstore\n  pop\n  0x1a\n  add\n  swap1\n  pop\n  mload(0x40)\n  dup1\n  swap2\n  sub\n  swap1\n  keccak256\n    /* \"DPay-proof-of-concept/contracts/coin_contracts/USDC.sol\":6863:6916  ADMIN_SLOT == keccak256(\"org.zeppelinos.proxy.admin\") */\n  not(0x0)\n  and\n    /* \"DPay-proof-of-concept/contracts/coin_contracts/USDC.sol\":6240:6306  0x10d6a54a4754c8869d6886b5f5d7fbfa5b4522237ea5c60d11bc4e7a1ff9390b */\n  0x10d6a54a4754c8869d6886b5f5d7fbfa5b4522237ea5c60d11bc4e7a1ff9390b\n    /* \"DPay-proof-of-concept/contracts/coin_contracts/USDC.sol\":6863:6873  ADMIN_SLOT */\n  0x1\n  mul\n    /* \"DPay-proof-of-concept/contracts/coin_contracts/USDC.sol\":6863:6916  ADMIN_SLOT == keccak256(\"org.zeppelinos.proxy.admin\") */\n  not(0x0)\n  and\n  eq\n    /* \"DPay-proof-of-concept/contracts/coin_contracts/USDC.sol\":6856:6917  assert(ADMIN_SLOT == keccak256(\"org.zeppelinos.proxy.admin\")) */\n  iszero\n  iszero\n  tag_9\n  jumpi\n  invalid\ntag_9:\n    /* \"DPay-proof-of-concept/contracts/coin_contracts/USDC.sol\":6924:6945  _setAdmin(msg.sender) */\n  tag_10\n    /* \"DPay-proof-of-concept/contracts/coin_contracts/USDC.sol\":6934:6944  msg.sender */\n  caller\n    /* \"DPay-proof-of-concept/contracts/coin_contracts/USDC.sol\":6924:6933  _setAdmin */\n  mul(0x100000000, tag_11)\n    /* \"DPay-proof-of-concept/contracts/coin_contracts/USDC.sol\":6924:6945  _setAdmin(msg.sender) */\n  0x100000000\n  swap1\n  div\n  jump\t// in\ntag_10:\n    /* \"DPay-proof-of-concept/contracts/coin_contracts/USDC.sol\":6769:6950  constructor(address _implementation) UpgradeabilityProxy(_implementation) public {... */\n  pop\n    /* \"DPay-proof-of-concept/contracts/coin_contracts/USDC.sol\":5722:9318  contract AdminUpgradeabilityProxy is UpgradeabilityProxy {... */\n  jump(tag_12)\n    /* \"DPay-proof-of-concept/contracts/coin_contracts/USDC.sol\":4998:5287  function _setImplementation(address newImplementation) private {... */\ntag_7:\n    /* \"DPay-proof-of-concept/contracts/coin_contracts/USDC.sol\":5188:5200  bytes32 slot */\n  0x0\n    /* \"DPay-proof-of-concept/contracts/coin_contracts/USDC.sol\":5075:5117  AddressUtils.isContract(newImplementation) */\n  tag_14\n    /* \"DPay-proof-of-concept/contracts/coin_contracts/USDC.sol\":5099:5116  newImplementation */\n  dup3\n    /* \"DPay-proof-of-concept/contracts/coin_contracts/USDC.sol\":5075:5098  AddressUtils.isContract */\n  or(tag_0_90, mul(0x100000000, tag_15))\n    /* \"DPay-proof-of-concept/contracts/coin_contracts/USDC.sol\":5075:5117  AddressUtils.isContract(newImplementation) */\n  0x100000000\n  swap1\n  div\n  jump\t// in\ntag_14:\n    /* \"DPay-proof-of-concept/contracts/coin_contracts/USDC.sol\":5067:5181  require(AddressUtils.isContract(newImplementation), \"Cannot set a proxy implementation to a non-contract address\") */\n  iszero\n  iszero\n  tag_16\n  jumpi\n  mload(0x40)\n  0x8c379a000000000000000000000000000000000000000000000000000000000\n  dup2\n  mstore\n  0x4\n  add\n  dup1\n  dup1\n  0x20\n  add\n  dup3\n  dup2\n  sub\n  dup3\n  mstore\n  0x3b\n  dup2\n  mstore\n  0x20\n  add\n  dup1\n  0x43616e6e6f742073657420612070726f787920696d706c656d656e746174696f\n  dup2\n  mstore\n  0x20\n  add\n  0x6e20746f2061206e6f6e2d636f6e747261637420616464726573730000000000\n  dup2\n  mstore\n  pop\n  0x40\n  add\n  swap2\n  pop\n  pop\n  mload(0x40)\n  dup1\n  swap2\n  sub\n  swap1\n  revert\ntag_16:\n    /* \"DPay-proof-of-concept/contracts/coin_contracts/USDC.sol\":3957:4023  0x7050c9e0f4ca769c69bd3a8ef740bc37934f8e2c036e5a723fd8ee048ed3f8c3 */\n  0x7050c9e0f4ca769c69bd3a8ef740bc37934f8e2c036e5a723fd8ee048ed3f8c3\n    /* \"DPay-proof-of-concept/contracts/coin_contracts/USDC.sol\":5203:5222  IMPLEMENTATION_SLOT */\n  0x1\n  mul\n    /* \"DPay-proof-of-concept/contracts/coin_contracts/USDC.sol\":5188:5222  bytes32 slot = IMPLEMENTATION_SLOT */\n  swap1\n  pop\n    /* \"DPay-proof-of-concept/contracts/coin_contracts/USDC.sol\":5259:5276  newImplementation */\n  dup2\n    /* \"DPay-proof-of-concept/contracts/coin_contracts/USDC.sol\":5253:5257  slot */\n  dup2\n    /* \"DPay-proof-of-concept/contracts/coin_contracts/USDC.sol\":5246:5277  sstore(slot, newImplementation) */\n  sstore\n    /* \"DPay-proof-of-concept/contracts/coin_contracts/USDC.sol\":5238:5283  {... */\n  pop\n  pop\n  jump\t// out\n    /* \"DPay-proof-of-concept/contracts/coin_contracts/USDC.sol\":8951:9084  function _setAdmin(address newAdmin) internal {... */\ntag_11:\n    /* \"DPay-proof-of-concept/contracts/coin_contracts/USDC.sol\":9003:9015  bytes32 slot */\n  0x0\n    /* \"DPay-proof-of-concept/contracts/coin_contracts/USDC.sol\":6240:6306  0x10d6a54a4754c8869d6886b5f5d7fbfa5b4522237ea5c60d11bc4e7a1ff9390b */\n  0x10d6a54a4754c8869d6886b5f5d7fbfa5b4522237ea5c60d11bc4e7a1ff9390b\n    /* \"DPay-proof-of-concept/contracts/coin_contracts/USDC.sol\":9018:9028  ADMIN_SLOT */\n  0x1\n  mul\n    /* \"DPay-proof-of-concept/contracts/coin_contracts/USDC.sol\":9003:9028  bytes32 slot = ADMIN_SLOT */\n  swap1\n  pop\n    /* \"DPay-proof-of-concept/contracts/coin_contracts/USDC.sol\":9065:9073  newAdmin */\n  dup2\n    /* \"DPay-proof-of-concept/contracts/coin_contracts/USDC.sol\":9059:9063  slot */\n  dup2\n    /* \"DPay-proof-of-concept/contracts/coin_contracts/USDC.sol\":9052:9074  sstore(slot, newAdmin) */\n  sstore\n    /* \"DPay-proof-of-concept/contracts/coin_contracts/USDC.sol\":9044:9080  {... */\n  pop\n  pop\n  jump\t// out\n    /* \"DPay-proof-of-concept/contracts/coin_contracts/USDC.sol\":2636:3212  function isContract(address addr) internal view returns (bool) {... */\ntag_15:\n    /* \"DPay-proof-of-concept/contracts/coin_contracts/USDC.sol\":2693:2697  bool */\n  0x0\n    /* \"DPay-proof-of-concept/contracts/coin_contracts/USDC.sol\":2705:2717  uint256 size */\n  dup1\n    /* \"DPay-proof-of-concept/contracts/coin_contracts/USDC.sol\":3180:3184  addr */\n  dup3\n    /* \"DPay-proof-of-concept/contracts/coin_contracts/USDC.sol\":3168:3185  extcodesize(addr) */\n  extcodesize\n    /* \"DPay-proof-of-concept/contracts/coin_contracts/USDC.sol\":3160:3185  size := extcodesize(addr) */\n  swap1\n  pop\n    /* \"DPay-proof-of-concept/contracts/coin_contracts/USDC.sol\":3206:3207  0 */\n  0x0\n    /* \"DPay-proof-of-concept/contracts/coin_contracts/USDC.sol\":3199:3203  size */\n  dup2\n    /* \"DPay-proof-of-concept/contracts/coin_contracts/USDC.sol\":3199:3207  size > 0 */\n  gt\n    /* \"DPay-proof-of-concept/contracts/coin_contracts/USDC.sol\":3192:3207  return size > 0 */\n  swap2\n  pop\n    /* \"DPay-proof-of-concept/contracts/coin_contracts/USDC.sol\":2636:3212  function isContract(address addr) internal view returns (bool) {... */\n  pop\n  swap2\n  swap1\n  pop\n  jump\t// out\n    /* \"DPay-proof-of-concept/contracts/coin_contracts/USDC.sol\":5722:9318  contract AdminUpgradeabilityProxy is UpgradeabilityProxy {... */\ntag_12:\n  dataSize(sub_0)\n  dup1\n  dataOffset(sub_0)\n  0x0\n  codecopy\n  0x0\n  return\nstop\n\nsub_0: assembly {\n        /* \"DPay-proof-of-concept/contracts/coin_contracts/USDC.sol\":5722:9318  contract AdminUpgradeabilityProxy is UpgradeabilityProxy {... */\n      mstore(0x40, 0x80)\n      jumpi(tag_1, lt(calldatasize, 0x4))\n      calldataload(0x0)\n      0x100000000000000000000000000000000000000000000000000000000\n      swap1\n      div\n      0xffffffff\n      and\n      dup1\n      0x3659cfe6\n      eq\n      tag_2\n      jumpi\n      dup1\n      0x4f1ef286\n      eq\n      tag_3\n      jumpi\n      dup1\n      0x5c60da1b\n      eq\n      tag_4\n      jumpi\n      dup1\n      0x8f283970\n      eq\n      tag_5\n      jumpi\n      dup1\n      0xf851a440\n      eq\n      tag_6\n      jumpi\n    tag_1:\n        /* \"DPay-proof-of-concept/contracts/coin_contracts/USDC.sol\":574:585  _fallback() */\n      tag_9\n        /* \"DPay-proof-of-concept/contracts/coin_contracts/USDC.sol\":574:583  _fallback */\n      tag_10\n        /* \"DPay-proof-of-concept/contracts/coin_contracts/USDC.sol\":574:585  _fallback() */\n      jump\t// in\n    tag_9:\n        /* \"DPay-proof-of-concept/contracts/coin_contracts/USDC.sol\":5722:9318  contract AdminUpgradeabilityProxy is UpgradeabilityProxy {... */\n      stop\n        /* \"DPay-proof-of-concept/contracts/coin_contracts/USDC.sol\":7843:7946  function upgradeTo(address newImplementation) external ifAdmin {... */\n    tag_2:\n      callvalue\n        /* \"--CODEGEN--\":8:17   */\n      dup1\n        /* \"--CODEGEN--\":5:7   */\n      iszero\n      tag_11\n      jumpi\n        /* \"--CODEGEN--\":30:31   */\n      0x0\n        /* \"--CODEGEN--\":27:28   */\n      dup1\n        /* \"--CODEGEN--\":20:32   */\n      revert\n        /* \"--CODEGEN--\":5:7   */\n    tag_11:\n        /* \"DPay-proof-of-concept/contracts/coin_contracts/USDC.sol\":7843:7946  function upgradeTo(address newImplementation) external ifAdmin {... */\n      pop\n      tag_12\n      0x4\n      dup1\n      calldatasize\n      sub\n      dup2\n      add\n      swap1\n      dup1\n      dup1\n      calldataload\n      0xffffffffffffffffffffffffffffffffffffffff\n      and\n      swap1\n      0x20\n      add\n      swap1\n      swap3\n      swap2\n      swap1\n      pop\n      pop\n      pop\n      jump(tag_13)\n    tag_12:\n      stop\n        /* \"DPay-proof-of-concept/contracts/coin_contracts/USDC.sol\":8468:8654  function upgradeToAndCall(address newImplementation, bytes data) payable external ifAdmin {... */\n    tag_3:\n      tag_14\n      0x4\n      dup1\n      calldatasize\n      sub\n      dup2\n      add\n      swap1\n      dup1\n      dup1\n      calldataload\n      0xffffffffffffffffffffffffffffffffffffffff\n      and\n      swap1\n      0x20\n      add\n      swap1\n      swap3\n      swap2\n      swap1\n      dup1\n      calldataload\n      swap1\n      0x20\n      add\n      swap1\n      dup3\n      add\n      dup1\n      calldataload\n      swap1\n      0x20\n      add\n      swap2\n      swap1\n      swap2\n      swap3\n      swap4\n      swap2\n      swap3\n      swap4\n      swap1\n      pop\n      pop\n      pop\n      jump(tag_15)\n    tag_14:\n      stop\n        /* \"DPay-proof-of-concept/contracts/coin_contracts/USDC.sol\":7158:7259  function implementation() external view ifAdmin returns (address) {... */\n    tag_4:\n      callvalue\n        /* \"--CODEGEN--\":8:17   */\n      dup1\n        /* \"--CODEGEN--\":5:7   */\n      iszero\n      tag_16\n      jumpi\n        /* \"--CODEGEN--\":30:31   */\n      0x0\n        /* \"--CODEGEN--\":27:28   */\n      dup1\n        /* \"--CODEGEN--\":20:32   */\n      revert\n        /* \"--CODEGEN--\":5:7   */\n    tag_16:\n        /* \"DPay-proof-of-concept/contracts/coin_contracts/USDC.sol\":7158:7259  function implementation() external view ifAdmin returns (address) {... */\n      pop\n      tag_17\n      jump(tag_18)\n    tag_17:\n      mload(0x40)\n      dup1\n      dup3\n      0xffffffffffffffffffffffffffffffffffffffff\n      and\n      0xffffffffffffffffffffffffffffffffffffffff\n      and\n      dup2\n      mstore\n      0x20\n      add\n      swap2\n      pop\n      pop\n      mload(0x40)\n      dup1\n      swap2\n      sub\n      swap1\n      return\n        /* \"DPay-proof-of-concept/contracts/coin_contracts/USDC.sol\":7435:7659  function changeAdmin(address newAdmin) external ifAdmin {... */\n    tag_5:\n      callvalue\n        /* \"--CODEGEN--\":8:17   */\n      dup1\n        /* \"--CODEGEN--\":5:7   */\n      iszero\n      tag_19\n      jumpi\n        /* \"--CODEGEN--\":30:31   */\n      0x0\n        /* \"--CODEGEN--\":27:28   */\n      dup1\n        /* \"--CODEGEN--\":20:32   */\n      revert\n        /* \"--CODEGEN--\":5:7   */\n    tag_19:\n        /* \"DPay-proof-of-concept/contracts/coin_contracts/USDC.sol\":7435:7659  function changeAdmin(address newAdmin) external ifAdmin {... */\n      pop\n      tag_20\n      0x4\n      dup1\n      calldatasize\n      sub\n      dup2\n      add\n      swap1\n      dup1\n      dup1\n      calldataload\n      0xffffffffffffffffffffffffffffffffffffffff\n      and\n      swap1\n      0x20\n      add\n      swap1\n      swap3\n      swap2\n      swap1\n      pop\n      pop\n      pop\n      jump(tag_21)\n    tag_20:\n      stop\n        /* \"DPay-proof-of-concept/contracts/coin_contracts/USDC.sol\":7011:7094  function admin() external view ifAdmin returns (address) {... */\n    tag_6:\n      callvalue\n        /* \"--CODEGEN--\":8:17   */\n      dup1\n        /* \"--CODEGEN--\":5:7   */\n      iszero\n      tag_22\n      jumpi\n        /* \"--CODEGEN--\":30:31   */\n      0x0\n        /* \"--CODEGEN--\":27:28   */\n      dup1\n        /* \"--CODEGEN--\":20:32   */\n      revert\n        /* \"--CODEGEN--\":5:7   */\n    tag_22:\n        /* \"DPay-proof-of-concept/contracts/coin_contracts/USDC.sol\":7011:7094  function admin() external view ifAdmin returns (address) {... */\n      pop\n      tag_23\n      jump(tag_24)\n    tag_23:\n      mload(0x40)\n      dup1\n      dup3\n      0xffffffffffffffffffffffffffffffffffffffff\n      and\n      0xffffffffffffffffffffffffffffffffffffffff\n      and\n      dup2\n      mstore\n      0x20\n      add\n      swap2\n      pop\n      pop\n      mload(0x40)\n      dup1\n      swap2\n      sub\n      swap1\n      return\n        /* \"DPay-proof-of-concept/contracts/coin_contracts/USDC.sol\":2073:2163  function _fallback() internal {... */\n    tag_10:\n        /* \"DPay-proof-of-concept/contracts/coin_contracts/USDC.sol\":2109:2124  _willFallback() */\n      tag_26\n        /* \"DPay-proof-of-concept/contracts/coin_contracts/USDC.sol\":2109:2122  _willFallback */\n      tag_27\n        /* \"DPay-proof-of-concept/contracts/coin_contracts/USDC.sol\":2109:2124  _willFallback() */\n      jump\t// in\n    tag_26:\n        /* \"DPay-proof-of-concept/contracts/coin_contracts/USDC.sol\":2130:2158  _delegate(_implementation()) */\n      tag_28\n        /* \"DPay-proof-of-concept/contracts/coin_contracts/USDC.sol\":2140:2157  _implementation() */\n      tag_29\n        /* \"DPay-proof-of-concept/contracts/coin_contracts/USDC.sol\":2140:2155  _implementation */\n      tag_30\n        /* \"DPay-proof-of-concept/contracts/coin_contracts/USDC.sol\":2140:2157  _implementation() */\n      jump\t// in\n    tag_29:\n        /* \"DPay-proof-of-concept/contracts/coin_contracts/USDC.sol\":2130:2139  _delegate */\n      tag_31\n        /* \"DPay-proof-of-concept/contracts/coin_contracts/USDC.sol\":2130:2158  _delegate(_implementation()) */\n      jump\t// in\n    tag_28:\n        /* \"DPay-proof-of-concept/contracts/coin_contracts/USDC.sol\":2073:2163  function _fallback() internal {... */\n      jump\t// out\n        /* \"DPay-proof-of-concept/contracts/coin_contracts/USDC.sol\":7843:7946  function upgradeTo(address newImplementation) external ifAdmin {... */\n    tag_13:\n        /* \"DPay-proof-of-concept/contracts/coin_contracts/USDC.sol\":6539:6547  _admin() */\n      tag_33\n        /* \"DPay-proof-of-concept/contracts/coin_contracts/USDC.sol\":6539:6545  _admin */\n      tag_34\n        /* \"DPay-proof-of-concept/contracts/coin_contracts/USDC.sol\":6539:6547  _admin() */\n      jump\t// in\n    tag_33:\n        /* \"DPay-proof-of-concept/contracts/coin_contracts/USDC.sol\":6525:6547  msg.sender == _admin() */\n      0xffffffffffffffffffffffffffffffffffffffff\n      and\n        /* \"DPay-proof-of-concept/contracts/coin_contracts/USDC.sol\":6525:6535  msg.sender */\n      caller\n        /* \"DPay-proof-of-concept/contracts/coin_contracts/USDC.sol\":6525:6547  msg.sender == _admin() */\n      0xffffffffffffffffffffffffffffffffffffffff\n      and\n      eq\n        /* \"DPay-proof-of-concept/contracts/coin_contracts/USDC.sol\":6521:6597  if (msg.sender == _admin()) {... */\n      iszero\n      tag_35\n      jumpi\n        /* \"DPay-proof-of-concept/contracts/coin_contracts/USDC.sol\":7912:7941  _upgradeTo(newImplementation) */\n      tag_37\n        /* \"DPay-proof-of-concept/contracts/coin_contracts/USDC.sol\":7923:7940  newImplementation */\n      dup2\n        /* \"DPay-proof-of-concept/contracts/coin_contracts/USDC.sol\":7912:7922  _upgradeTo */\n      tag_38\n        /* \"DPay-proof-of-concept/contracts/coin_contracts/USDC.sol\":7912:7941  _upgradeTo(newImplementation) */\n      jump\t// in\n    tag_37:\n        /* \"DPay-proof-of-concept/contracts/coin_contracts/USDC.sol\":6521:6597  if (msg.sender == _admin()) {... */\n      jump(tag_39)\n    tag_35:\n        /* \"DPay-proof-of-concept/contracts/coin_contracts/USDC.sol\":6579:6590  _fallback() */\n      tag_40\n        /* \"DPay-proof-of-concept/contracts/coin_contracts/USDC.sol\":6579:6588  _fallback */\n      tag_10\n        /* \"DPay-proof-of-concept/contracts/coin_contracts/USDC.sol\":6579:6590  _fallback() */\n      jump\t// in\n    tag_40:\n        /* \"DPay-proof-of-concept/contracts/coin_contracts/USDC.sol\":6521:6597  if (msg.sender == _admin()) {... */\n    tag_39:\n        /* \"DPay-proof-of-concept/contracts/coin_contracts/USDC.sol\":7843:7946  function upgradeTo(address newImplementation) external ifAdmin {... */\n      pop\n      jump\t// out\n        /* \"DPay-proof-of-concept/contracts/coin_contracts/USDC.sol\":8468:8654  function upgradeToAndCall(address newImplementation, bytes data) payable external ifAdmin {... */\n    tag_15:\n        /* \"DPay-proof-of-concept/contracts/coin_contracts/USDC.sol\":6539:6547  _admin() */\n      tag_42\n        /* \"DPay-proof-of-concept/contracts/coin_contracts/USDC.sol\":6539:6545  _admin */\n      tag_34\n        /* \"DPay-proof-of-concept/contracts/coin_contracts/USDC.sol\":6539:6547  _admin() */\n      jump\t// in\n    tag_42:\n        /* \"DPay-proof-of-concept/contracts/coin_contracts/USDC.sol\":6525:6547  msg.sender == _admin() */\n      0xffffffffffffffffffffffffffffffffffffffff\n      and\n        /* \"DPay-proof-of-concept/contracts/coin_contracts/USDC.sol\":6525:6535  msg.sender */\n      caller\n        /* \"DPay-proof-of-concept/contracts/coin_contracts/USDC.sol\":6525:6547  msg.sender == _admin() */\n      0xffffffffffffffffffffffffffffffffffffffff\n      and\n      eq\n        /* \"DPay-proof-of-concept/contracts/coin_contracts/USDC.sol\":6521:6597  if (msg.sender == _admin()) {... */\n      iszero\n      tag_43\n      jumpi\n        /* \"DPay-proof-of-concept/contracts/coin_contracts/USDC.sol\":8564:8593  _upgradeTo(newImplementation) */\n      tag_45\n        /* \"DPay-proof-of-concept/contracts/coin_contracts/USDC.sol\":8575:8592  newImplementation */\n      dup4\n        /* \"DPay-proof-of-concept/contracts/coin_contracts/USDC.sol\":8564:8574  _upgradeTo */\n      tag_38\n        /* \"DPay-proof-of-concept/contracts/coin_contracts/USDC.sol\":8564:8593  _upgradeTo(newImplementation) */\n      jump\t// in\n    tag_45:\n        /* \"DPay-proof-of-concept/contracts/coin_contracts/USDC.sol\":8615:8619  this */\n      address\n        /* \"DPay-proof-of-concept/contracts/coin_contracts/USDC.sol\":8607:8625  address(this).call */\n      0xffffffffffffffffffffffffffffffffffffffff\n      and\n        /* \"DPay-proof-of-concept/contracts/coin_contracts/USDC.sol\":8632:8641  msg.value */\n      callvalue\n        /* \"DPay-proof-of-concept/contracts/coin_contracts/USDC.sol\":8643:8647  data */\n      dup4\n      dup4\n        /* \"DPay-proof-of-concept/contracts/coin_contracts/USDC.sol\":8607:8648  address(this).call.value(msg.value)(data) */\n      mload(0x40)\n      dup1\n      dup4\n      dup4\n      dup1\n      dup3\n      dup5\n      calldatacopy\n      dup3\n      add\n      swap2\n      pop\n      pop\n      swap3\n      pop\n      pop\n      pop\n      0x0\n      mload(0x40)\n      dup1\n      dup4\n      sub\n      dup2\n      dup6\n      dup8\n      gas\n      call\n      swap3\n      pop\n      pop\n      pop\n        /* \"DPay-proof-of-concept/contracts/coin_contracts/USDC.sol\":8599:8649  require(address(this).call.value(msg.value)(data)) */\n      iszero\n      iszero\n      tag_46\n      jumpi\n      0x0\n      dup1\n      revert\n    tag_46:\n        /* \"DPay-proof-of-concept/contracts/coin_contracts/USDC.sol\":6521:6597  if (msg.sender == _admin()) {... */\n      jump(tag_47)\n    tag_43:\n        /* \"DPay-proof-of-concept/contracts/coin_contracts/USDC.sol\":6579:6590  _fallback() */\n      tag_48\n        /* \"DPay-proof-of-concept/contracts/coin_contracts/USDC.sol\":6579:6588  _fallback */\n      tag_10\n        /* \"DPay-proof-of-concept/contracts/coin_contracts/USDC.sol\":6579:6590  _fallback() */\n      jump\t// in\n    tag_48:\n        /* \"DPay-proof-of-concept/contracts/coin_contracts/USDC.sol\":6521:6597  if (msg.sender == _admin()) {... */\n    tag_47:\n        /* \"DPay-proof-of-concept/contracts/coin_contracts/USDC.sol\":8468:8654  function upgradeToAndCall(address newImplementation, bytes data) payable external ifAdmin {... */\n      pop\n      pop\n      pop\n      jump\t// out\n        /* \"DPay-proof-of-concept/contracts/coin_contracts/USDC.sol\":7158:7259  function implementation() external view ifAdmin returns (address) {... */\n    tag_18:\n        /* \"DPay-proof-of-concept/contracts/coin_contracts/USDC.sol\":7215:7222  address */\n      0x0\n        /* \"DPay-proof-of-concept/contracts/coin_contracts/USDC.sol\":6539:6547  _admin() */\n      tag_50\n        /* \"DPay-proof-of-concept/contracts/coin_contracts/USDC.sol\":6539:6545  _admin */\n      tag_34\n        /* \"DPay-proof-of-concept/contracts/coin_contracts/USDC.sol\":6539:6547  _admin() */\n      jump\t// in\n    tag_50:\n        /* \"DPay-proof-of-concept/contracts/coin_contracts/USDC.sol\":6525:6547  msg.sender == _admin() */\n      0xffffffffffffffffffffffffffffffffffffffff\n      and\n        /* \"DPay-proof-of-concept/contracts/coin_contracts/USDC.sol\":6525:6535  msg.sender */\n      caller\n        /* \"DPay-proof-of-concept/contracts/coin_contracts/USDC.sol\":6525:6547  msg.sender == _admin() */\n      0xffffffffffffffffffffffffffffffffffffffff\n      and\n      eq\n        /* \"DPay-proof-of-concept/contracts/coin_contracts/USDC.sol\":6521:6597  if (msg.sender == _admin()) {... */\n      iszero\n      tag_51\n      jumpi\n        /* \"DPay-proof-of-concept/contracts/coin_contracts/USDC.sol\":7237:7254  _implementation() */\n      tag_53\n        /* \"DPay-proof-of-concept/contracts/coin_contracts/USDC.sol\":7237:7252  _implementation */\n      tag_30\n        /* \"DPay-proof-of-concept/contracts/coin_contracts/USDC.sol\":7237:7254  _implementation() */\n      jump\t// in\n    tag_53:\n        /* \"DPay-proof-of-concept/contracts/coin_contracts/USDC.sol\":7230:7254  return _implementation() */\n      swap1\n      pop\n        /* \"DPay-proof-of-concept/contracts/coin_contracts/USDC.sol\":6521:6597  if (msg.sender == _admin()) {... */\n      jump(tag_54)\n    tag_51:\n        /* \"DPay-proof-of-concept/contracts/coin_contracts/USDC.sol\":6579:6590  _fallback() */\n      tag_55\n        /* \"DPay-proof-of-concept/contracts/coin_contracts/USDC.sol\":6579:6588  _fallback */\n      tag_10\n        /* \"DPay-proof-of-concept/contracts/coin_contracts/USDC.sol\":6579:6590  _fallback() */\n      jump\t// in\n    tag_55:\n        /* \"DPay-proof-of-concept/contracts/coin_contracts/USDC.sol\":6521:6597  if (msg.sender == _admin()) {... */\n    tag_54:\n        /* \"DPay-proof-of-concept/contracts/coin_contracts/USDC.sol\":7158:7259  function implementation() external view ifAdmin returns (address) {... */\n      swap1\n      jump\t// out\n        /* \"DPay-proof-of-concept/contracts/coin_contracts/USDC.sol\":7435:7659  function changeAdmin(address newAdmin) external ifAdmin {... */\n    tag_21:\n        /* \"DPay-proof-of-concept/contracts/coin_contracts/USDC.sol\":6539:6547  _admin() */\n      tag_57\n        /* \"DPay-proof-of-concept/contracts/coin_contracts/USDC.sol\":6539:6545  _admin */\n      tag_34\n        /* \"DPay-proof-of-concept/contracts/coin_contracts/USDC.sol\":6539:6547  _admin() */\n      jump\t// in\n    tag_57:\n        /* \"DPay-proof-of-concept/contracts/coin_contracts/USDC.sol\":6525:6547  msg.sender == _admin() */\n      0xffffffffffffffffffffffffffffffffffffffff\n      and\n        /* \"DPay-proof-of-concept/contracts/coin_contracts/USDC.sol\":6525:6535  msg.sender */\n      caller\n        /* \"DPay-proof-of-concept/contracts/coin_contracts/USDC.sol\":6525:6547  msg.sender == _admin() */\n      0xffffffffffffffffffffffffffffffffffffffff\n      and\n      eq\n        /* \"DPay-proof-of-concept/contracts/coin_contracts/USDC.sol\":6521:6597  if (msg.sender == _admin()) {... */\n      iszero\n      tag_58\n      jumpi\n        /* \"DPay-proof-of-concept/contracts/coin_contracts/USDC.sol\":7525:7526  0 */\n      0x0\n        /* \"DPay-proof-of-concept/contracts/coin_contracts/USDC.sol\":7505:7527  newAdmin != address(0) */\n      0xffffffffffffffffffffffffffffffffffffffff\n      and\n        /* \"DPay-proof-of-concept/contracts/coin_contracts/USDC.sol\":7505:7513  newAdmin */\n      dup2\n        /* \"DPay-proof-of-concept/contracts/coin_contracts/USDC.sol\":7505:7527  newAdmin != address(0) */\n      0xffffffffffffffffffffffffffffffffffffffff\n      and\n      eq\n      iszero\n        /* \"DPay-proof-of-concept/contracts/coin_contracts/USDC.sol\":7497:7586  require(newAdmin != address(0), \"Cannot change the admin of a proxy to the zero address\") */\n      iszero\n      iszero\n      tag_60\n      jumpi\n      mload(0x40)\n      0x8c379a000000000000000000000000000000000000000000000000000000000\n      dup2\n      mstore\n      0x4\n      add\n      dup1\n      dup1\n      0x20\n      add\n      dup3\n      dup2\n      sub\n      dup3\n      mstore\n      0x36\n      dup2\n      mstore\n      0x20\n      add\n      dup1\n      0x43616e6e6f74206368616e6765207468652061646d696e206f6620612070726f\n      dup2\n      mstore\n      0x20\n      add\n      0x787920746f20746865207a65726f206164647265737300000000000000000000\n      dup2\n      mstore\n      pop\n      0x40\n      add\n      swap2\n      pop\n      pop\n      mload(0x40)\n      dup1\n      swap2\n      sub\n      swap1\n      revert\n    tag_60:\n        /* \"DPay-proof-of-concept/contracts/coin_contracts/USDC.sol\":7597:7629  AdminChanged(_admin(), newAdmin) */\n      0x7e644d79422f17c01e4894b5f4f588d331ebfa28653d42ae832dc59e38c9798f\n        /* \"DPay-proof-of-concept/contracts/coin_contracts/USDC.sol\":7610:7618  _admin() */\n      tag_61\n        /* \"DPay-proof-of-concept/contracts/coin_contracts/USDC.sol\":7610:7616  _admin */\n      tag_34\n        /* \"DPay-proof-of-concept/contracts/coin_contracts/USDC.sol\":7610:7618  _admin() */\n      jump\t// in\n    tag_61:\n        /* \"DPay-proof-of-concept/contracts/coin_contracts/USDC.sol\":7620:7628  newAdmin */\n      dup3\n        /* \"DPay-proof-of-concept/contracts/coin_contracts/USDC.sol\":7597:7629  AdminChanged(_admin(), newAdmin) */\n      mload(0x40)\n      dup1\n      dup4\n      0xffffffffffffffffffffffffffffffffffffffff\n      and\n      0xffffffffffffffffffffffffffffffffffffffff\n      and\n      dup2\n      mstore\n      0x20\n      add\n      dup3\n      0xffffffffffffffffffffffffffffffffffffffff\n      and\n      0xffffffffffffffffffffffffffffffffffffffff\n      and\n      dup2\n      mstore\n      0x20\n      add\n      swap3\n      pop\n      pop\n      pop\n      mload(0x40)\n      dup1\n      swap2\n      sub\n      swap1\n      log1\n        /* \"DPay-proof-of-concept/contracts/coin_contracts/USDC.sol\":7635:7654  _setAdmin(newAdmin) */\n      tag_62\n        /* \"DPay-proof-of-concept/contracts/coin_contracts/USDC.sol\":7645:7653  newAdmin */\n      dup2\n        /* \"DPay-proof-of-concept/contracts/coin_contracts/USDC.sol\":7635:7644  _setAdmin */\n      tag_63\n        /* \"DPay-proof-of-concept/contracts/coin_contracts/USDC.sol\":7635:7654  _setAdmin(newAdmin) */\n      jump\t// in\n    tag_62:\n        /* \"DPay-proof-of-concept/contracts/coin_contracts/USDC.sol\":6521:6597  if (msg.sender == _admin()) {... */\n      jump(tag_64)\n    tag_58:\n        /* \"DPay-proof-of-concept/contracts/coin_contracts/USDC.sol\":6579:6590  _fallback() */\n      tag_65\n        /* \"DPay-proof-of-concept/contracts/coin_contracts/USDC.sol\":6579:6588  _fallback */\n      tag_10\n        /* \"DPay-proof-of-concept/contracts/coin_contracts/USDC.sol\":6579:6590  _fallback() */\n      jump\t// in\n    tag_65:\n        /* \"DPay-proof-of-concept/contracts/coin_contracts/USDC.sol\":6521:6597  if (msg.sender == _admin()) {... */\n    tag_64:\n        /* \"DPay-proof-of-concept/contracts/coin_contracts/USDC.sol\":7435:7659  function changeAdmin(address newAdmin) external ifAdmin {... */\n      pop\n      jump\t// out\n        /* \"DPay-proof-of-concept/contracts/coin_contracts/USDC.sol\":7011:7094  function admin() external view ifAdmin returns (address) {... */\n    tag_24:\n        /* \"DPay-proof-of-concept/contracts/coin_contracts/USDC.sol\":7059:7066  address */\n      0x0\n        /* \"DPay-proof-of-concept/contracts/coin_contracts/USDC.sol\":6539:6547  _admin() */\n      tag_67\n        /* \"DPay-proof-of-concept/contracts/coin_contracts/USDC.sol\":6539:6545  _admin */\n      tag_34\n        /* \"DPay-proof-of-concept/contracts/coin_contracts/USDC.sol\":6539:6547  _admin() */\n      jump\t// in\n    tag_67:\n        /* \"DPay-proof-of-concept/contracts/coin_contracts/USDC.sol\":6525:6547  msg.sender == _admin() */\n      0xffffffffffffffffffffffffffffffffffffffff\n      and\n        /* \"DPay-proof-of-concept/contracts/coin_contracts/USDC.sol\":6525:6535  msg.sender */\n      caller\n        /* \"DPay-proof-of-concept/contracts/coin_contracts/USDC.sol\":6525:6547  msg.sender == _admin() */\n      0xffffffffffffffffffffffffffffffffffffffff\n      and\n      eq\n        /* \"DPay-proof-of-concept/contracts/coin_contracts/USDC.sol\":6521:6597  if (msg.sender == _admin()) {... */\n      iszero\n      tag_68\n      jumpi\n        /* \"DPay-proof-of-concept/contracts/coin_contracts/USDC.sol\":7081:7089  _admin() */\n      tag_70\n        /* \"DPay-proof-of-concept/contracts/coin_contracts/USDC.sol\":7081:7087  _admin */\n      tag_34\n        /* \"DPay-proof-of-concept/contracts/coin_contracts/USDC.sol\":7081:7089  _admin() */\n      jump\t// in\n    tag_70:\n        /* \"DPay-proof-of-concept/contracts/coin_contracts/USDC.sol\":7074:7089  return _admin() */\n      swap1\n      pop\n        /* \"DPay-proof-of-concept/contracts/coin_contracts/USDC.sol\":6521:6597  if (msg.sender == _admin()) {... */\n      jump(tag_71)\n    tag_68:\n        /* \"DPay-proof-of-concept/contracts/coin_contracts/USDC.sol\":6579:6590  _fallback() */\n      tag_72\n        /* \"DPay-proof-of-concept/contracts/coin_contracts/USDC.sol\":6579:6588  _fallback */\n      tag_10\n        /* \"DPay-proof-of-concept/contracts/coin_contracts/USDC.sol\":6579:6590  _fallback() */\n      jump\t// in\n    tag_72:\n        /* \"DPay-proof-of-concept/contracts/coin_contracts/USDC.sol\":6521:6597  if (msg.sender == _admin()) {... */\n    tag_71:\n        /* \"DPay-proof-of-concept/contracts/coin_contracts/USDC.sol\":7011:7094  function admin() external view ifAdmin returns (address) {... */\n      swap1\n      jump\t// out\n        /* \"DPay-proof-of-concept/contracts/coin_contracts/USDC.sol\":9159:9316  function _willFallback() internal {... */\n    tag_27:\n        /* \"DPay-proof-of-concept/contracts/coin_contracts/USDC.sol\":9221:9229  _admin() */\n      tag_74\n        /* \"DPay-proof-of-concept/contracts/coin_contracts/USDC.sol\":9221:9227  _admin */\n      tag_34\n        /* \"DPay-proof-of-concept/contracts/coin_contracts/USDC.sol\":9221:9229  _admin() */\n      jump\t// in\n    tag_74:\n        /* \"DPay-proof-of-concept/contracts/coin_contracts/USDC.sol\":9207:9229  msg.sender != _admin() */\n      0xffffffffffffffffffffffffffffffffffffffff\n      and\n        /* \"DPay-proof-of-concept/contracts/coin_contracts/USDC.sol\":9207:9217  msg.sender */\n      caller\n        /* \"DPay-proof-of-concept/contracts/coin_contracts/USDC.sol\":9207:9229  msg.sender != _admin() */\n      0xffffffffffffffffffffffffffffffffffffffff\n      and\n      eq\n      iszero\n        /* \"DPay-proof-of-concept/contracts/coin_contracts/USDC.sol\":9199:9284  require(msg.sender != _admin(), \"Cannot call fallback function from the proxy admin\") */\n      iszero\n      iszero\n      tag_75\n      jumpi\n      mload(0x40)\n      0x8c379a000000000000000000000000000000000000000000000000000000000\n      dup2\n      mstore\n      0x4\n      add\n      dup1\n      dup1\n      0x20\n      add\n      dup3\n      dup2\n      sub\n      dup3\n      mstore\n      0x32\n      dup2\n      mstore\n      0x20\n      add\n      dup1\n      0x43616e6e6f742063616c6c2066616c6c6261636b2066756e6374696f6e206672\n      dup2\n      mstore\n      0x20\n      add\n      0x6f6d207468652070726f78792061646d696e0000000000000000000000000000\n      dup2\n      mstore\n      pop\n      0x40\n      add\n      swap2\n      pop\n      pop\n      mload(0x40)\n      dup1\n      swap2\n      sub\n      swap1\n      revert\n    tag_75:\n        /* \"DPay-proof-of-concept/contracts/coin_contracts/USDC.sol\":9290:9311  super._willFallback() */\n      tag_76\n        /* \"DPay-proof-of-concept/contracts/coin_contracts/USDC.sol\":9290:9309  super._willFallback */\n      tag_77\n        /* \"DPay-proof-of-concept/contracts/coin_contracts/USDC.sol\":9290:9311  super._willFallback() */\n      jump\t// in\n    tag_76:\n        /* \"DPay-proof-of-concept/contracts/coin_contracts/USDC.sol\":9159:9316  function _willFallback() internal {... */\n      jump\t// out\n        /* \"DPay-proof-of-concept/contracts/coin_contracts/USDC.sol\":4428:4584  function _implementation() internal view returns (address impl) {... */\n    tag_30:\n        /* \"DPay-proof-of-concept/contracts/coin_contracts/USDC.sol\":4478:4490  address impl */\n      0x0\n        /* \"DPay-proof-of-concept/contracts/coin_contracts/USDC.sol\":4498:4510  bytes32 slot */\n      dup1\n        /* \"DPay-proof-of-concept/contracts/coin_contracts/USDC.sol\":3957:4023  0x7050c9e0f4ca769c69bd3a8ef740bc37934f8e2c036e5a723fd8ee048ed3f8c3 */\n      0x7050c9e0f4ca769c69bd3a8ef740bc37934f8e2c036e5a723fd8ee048ed3f8c3\n        /* \"DPay-proof-of-concept/contracts/coin_contracts/USDC.sol\":4513:4532  IMPLEMENTATION_SLOT */\n      0x1\n      mul\n        /* \"DPay-proof-of-concept/contracts/coin_contracts/USDC.sol\":4498:4532  bytes32 slot = IMPLEMENTATION_SLOT */\n      swap1\n      pop\n        /* \"DPay-proof-of-concept/contracts/coin_contracts/USDC.sol\":4569:4573  slot */\n      dup1\n        /* \"DPay-proof-of-concept/contracts/coin_contracts/USDC.sol\":4563:4574  sload(slot) */\n      sload\n        /* \"DPay-proof-of-concept/contracts/coin_contracts/USDC.sol\":4555:4574  impl := sload(slot) */\n      swap2\n      pop\n        /* \"DPay-proof-of-concept/contracts/coin_contracts/USDC.sol\":4547:4580  {... */\n      pop\n      swap1\n      jump\t// out\n        /* \"DPay-proof-of-concept/contracts/coin_contracts/USDC.sol\":999:1730  function _delegate(address implementation) internal {... */\n    tag_31:\n        /* \"DPay-proof-of-concept/contracts/coin_contracts/USDC.sol\":1301:1313  calldatasize */\n      calldatasize\n        /* \"DPay-proof-of-concept/contracts/coin_contracts/USDC.sol\":1298:1299  0 */\n      0x0\n        /* \"DPay-proof-of-concept/contracts/coin_contracts/USDC.sol\":1295:1296  0 */\n      dup1\n        /* \"DPay-proof-of-concept/contracts/coin_contracts/USDC.sol\":1282:1314  calldatacopy(0, 0, calldatasize) */\n      calldatacopy\n        /* \"DPay-proof-of-concept/contracts/coin_contracts/USDC.sol\":1491:1492  0 */\n      0x0\n        /* \"DPay-proof-of-concept/contracts/coin_contracts/USDC.sol\":1488:1489  0 */\n      dup1\n        /* \"DPay-proof-of-concept/contracts/coin_contracts/USDC.sol\":1474:1486  calldatasize */\n      calldatasize\n        /* \"DPay-proof-of-concept/contracts/coin_contracts/USDC.sol\":1471:1472  0 */\n      0x0\n        /* \"DPay-proof-of-concept/contracts/coin_contracts/USDC.sol\":1455:1469  implementation */\n      dup5\n        /* \"DPay-proof-of-concept/contracts/coin_contracts/USDC.sol\":1450:1453  gas */\n      gas\n        /* \"DPay-proof-of-concept/contracts/coin_contracts/USDC.sol\":1437:1493  delegatecall(gas, implementation, 0, calldatasize, 0, 0) */\n      delegatecall\n        /* \"DPay-proof-of-concept/contracts/coin_contracts/USDC.sol\":1555:1569  returndatasize */\n      returndatasize\n        /* \"DPay-proof-of-concept/contracts/coin_contracts/USDC.sol\":1552:1553  0 */\n      0x0\n        /* \"DPay-proof-of-concept/contracts/coin_contracts/USDC.sol\":1549:1550  0 */\n      dup1\n        /* \"DPay-proof-of-concept/contracts/coin_contracts/USDC.sol\":1534:1570  returndatacopy(0, 0, returndatasize) */\n      returndatacopy\n        /* \"DPay-proof-of-concept/contracts/coin_contracts/USDC.sol\":1585:1591  result */\n      dup1\n        /* \"DPay-proof-of-concept/contracts/coin_contracts/USDC.sol\":1645:1646  0 */\n      0x0\n        /* \"DPay-proof-of-concept/contracts/coin_contracts/USDC.sol\":1640:1676  case 0 { revert(0, returndatasize) } */\n      dup2\n      eq\n      tag_81\n      jumpi\n        /* \"DPay-proof-of-concept/contracts/coin_contracts/USDC.sol\":1703:1717  returndatasize */\n      returndatasize\n        /* \"DPay-proof-of-concept/contracts/coin_contracts/USDC.sol\":1700:1701  0 */\n      0x0\n        /* \"DPay-proof-of-concept/contracts/coin_contracts/USDC.sol\":1693:1718  return(0, returndatasize) */\n      return\n        /* \"DPay-proof-of-concept/contracts/coin_contracts/USDC.sol\":1640:1676  case 0 { revert(0, returndatasize) } */\n    tag_81:\n        /* \"DPay-proof-of-concept/contracts/coin_contracts/USDC.sol\":1659:1673  returndatasize */\n      returndatasize\n        /* \"DPay-proof-of-concept/contracts/coin_contracts/USDC.sol\":1656:1657  0 */\n      0x0\n        /* \"DPay-proof-of-concept/contracts/coin_contracts/USDC.sol\":1649:1674  revert(0, returndatasize) */\n      revert\n        /* \"DPay-proof-of-concept/contracts/coin_contracts/USDC.sol\":8699:8835  function _admin() internal view returns (address adm) {... */\n    tag_34:\n        /* \"DPay-proof-of-concept/contracts/coin_contracts/USDC.sol\":8740:8751  address adm */\n      0x0\n        /* \"DPay-proof-of-concept/contracts/coin_contracts/USDC.sol\":8759:8771  bytes32 slot */\n      dup1\n        /* \"DPay-proof-of-concept/contracts/coin_contracts/USDC.sol\":6240:6306  0x10d6a54a4754c8869d6886b5f5d7fbfa5b4522237ea5c60d11bc4e7a1ff9390b */\n      0x10d6a54a4754c8869d6886b5f5d7fbfa5b4522237ea5c60d11bc4e7a1ff9390b\n        /* \"DPay-proof-of-concept/contracts/coin_contracts/USDC.sol\":8774:8784  ADMIN_SLOT */\n      0x1\n      mul\n        /* \"DPay-proof-of-concept/contracts/coin_contracts/USDC.sol\":8759:8784  bytes32 slot = ADMIN_SLOT */\n      swap1\n      pop\n        /* \"DPay-proof-of-concept/contracts/coin_contracts/USDC.sol\":8820:8824  slot */\n      dup1\n        /* \"DPay-proof-of-concept/contracts/coin_contracts/USDC.sol\":8814:8825  sload(slot) */\n      sload\n        /* \"DPay-proof-of-concept/contracts/coin_contracts/USDC.sol\":8807:8825  adm := sload(slot) */\n      swap2\n      pop\n        /* \"DPay-proof-of-concept/contracts/coin_contracts/USDC.sol\":8799:8831  {... */\n      pop\n      swap1\n      jump\t// out\n        /* \"DPay-proof-of-concept/contracts/coin_contracts/USDC.sol\":4719:4861  function _upgradeTo(address newImplementation) internal {... */\n    tag_38:\n        /* \"DPay-proof-of-concept/contracts/coin_contracts/USDC.sol\":4781:4818  _setImplementation(newImplementation) */\n      tag_84\n        /* \"DPay-proof-of-concept/contracts/coin_contracts/USDC.sol\":4800:4817  newImplementation */\n      dup2\n        /* \"DPay-proof-of-concept/contracts/coin_contracts/USDC.sol\":4781:4799  _setImplementation */\n      tag_85\n        /* \"DPay-proof-of-concept/contracts/coin_contracts/USDC.sol\":4781:4818  _setImplementation(newImplementation) */\n      jump\t// in\n    tag_84:\n        /* \"DPay-proof-of-concept/contracts/coin_contracts/USDC.sol\":4829:4856  Upgraded(newImplementation) */\n      0xbc7cd75a20ee27fd9adebab32041f755214dbc6bffa90cc0225b39da2e5c2d3b\n        /* \"DPay-proof-of-concept/contracts/coin_contracts/USDC.sol\":4838:4855  newImplementation */\n      dup2\n        /* \"DPay-proof-of-concept/contracts/coin_contracts/USDC.sol\":4829:4856  Upgraded(newImplementation) */\n      mload(0x40)\n      dup1\n      dup3\n      0xffffffffffffffffffffffffffffffffffffffff\n      and\n      0xffffffffffffffffffffffffffffffffffffffff\n      and\n      dup2\n      mstore\n      0x20\n      add\n      swap2\n      pop\n      pop\n      mload(0x40)\n      dup1\n      swap2\n      sub\n      swap1\n      log1\n        /* \"DPay-proof-of-concept/contracts/coin_contracts/USDC.sol\":4719:4861  function _upgradeTo(address newImplementation) internal {... */\n      pop\n      jump\t// out\n        /* \"DPay-proof-of-concept/contracts/coin_contracts/USDC.sol\":8951:9084  function _setAdmin(address newAdmin) internal {... */\n    tag_63:\n        /* \"DPay-proof-of-concept/contracts/coin_contracts/USDC.sol\":9003:9015  bytes32 slot */\n      0x0\n        /* \"DPay-proof-of-concept/contracts/coin_contracts/USDC.sol\":6240:6306  0x10d6a54a4754c8869d6886b5f5d7fbfa5b4522237ea5c60d11bc4e7a1ff9390b */\n      0x10d6a54a4754c8869d6886b5f5d7fbfa5b4522237ea5c60d11bc4e7a1ff9390b\n        /* \"DPay-proof-of-concept/contracts/coin_contracts/USDC.sol\":9018:9028  ADMIN_SLOT */\n      0x1\n      mul\n        /* \"DPay-proof-of-concept/contracts/coin_contracts/USDC.sol\":9003:9028  bytes32 slot = ADMIN_SLOT */\n      swap1\n      pop\n        /* \"DPay-proof-of-concept/contracts/coin_contracts/USDC.sol\":9065:9073  newAdmin */\n      dup2\n        /* \"DPay-proof-of-concept/contracts/coin_contracts/USDC.sol\":9059:9063  slot */\n      dup2\n        /* \"DPay-proof-of-concept/contracts/coin_contracts/USDC.sol\":9052:9074  sstore(slot, newAdmin) */\n      sstore\n        /* \"DPay-proof-of-concept/contracts/coin_contracts/USDC.sol\":9044:9080  {... */\n      pop\n      pop\n      jump\t// out\n        /* \"DPay-proof-of-concept/contracts/coin_contracts/USDC.sol\":1939:1978  function _willFallback() internal {... */\n    tag_77:\n      jump\t// out\n        /* \"DPay-proof-of-concept/contracts/coin_contracts/USDC.sol\":4998:5287  function _setImplementation(address newImplementation) private {... */\n    tag_85:\n        /* \"DPay-proof-of-concept/contracts/coin_contracts/USDC.sol\":5188:5200  bytes32 slot */\n      0x0\n        /* \"DPay-proof-of-concept/contracts/coin_contracts/USDC.sol\":5075:5117  AddressUtils.isContract(newImplementation) */\n      tag_89\n        /* \"DPay-proof-of-concept/contracts/coin_contracts/USDC.sol\":5099:5116  newImplementation */\n      dup3\n        /* \"DPay-proof-of-concept/contracts/coin_contracts/USDC.sol\":5075:5098  AddressUtils.isContract */\n      tag_90\n        /* \"DPay-proof-of-concept/contracts/coin_contracts/USDC.sol\":5075:5117  AddressUtils.isContract(newImplementation) */\n      jump\t// in\n    tag_89:\n        /* \"DPay-proof-of-concept/contracts/coin_contracts/USDC.sol\":5067:5181  require(AddressUtils.isContract(newImplementation), \"Cannot set a proxy implementation to a non-contract address\") */\n      iszero\n      iszero\n      tag_91\n      jumpi\n      mload(0x40)\n      0x8c379a000000000000000000000000000000000000000000000000000000000\n      dup2\n      mstore\n      0x4\n      add\n      dup1\n      dup1\n      0x20\n      add\n      dup3\n      dup2\n      sub\n      dup3\n      mstore\n      0x3b\n      dup2\n      mstore\n      0x20\n      add\n      dup1\n      0x43616e6e6f742073657420612070726f787920696d706c656d656e746174696f\n      dup2\n      mstore\n      0x20\n      add\n      0x6e20746f2061206e6f6e2d636f6e747261637420616464726573730000000000\n      dup2\n      mstore\n      pop\n      0x40\n      add\n      swap2\n      pop\n      pop\n      mload(0x40)\n      dup1\n      swap2\n      sub\n      swap1\n      revert\n    tag_91:\n        /* \"DPay-proof-of-concept/contracts/coin_contracts/USDC.sol\":3957:4023  0x7050c9e0f4ca769c69bd3a8ef740bc37934f8e2c036e5a723fd8ee048ed3f8c3 */\n      0x7050c9e0f4ca769c69bd3a8ef740bc37934f8e2c036e5a723fd8ee048ed3f8c3\n        /* \"DPay-proof-of-concept/contracts/coin_contracts/USDC.sol\":5203:5222  IMPLEMENTATION_SLOT */\n      0x1\n      mul\n        /* \"DPay-proof-of-concept/contracts/coin_contracts/USDC.sol\":5188:5222  bytes32 slot = IMPLEMENTATION_SLOT */\n      swap1\n      pop\n        /* \"DPay-proof-of-concept/contracts/coin_contracts/USDC.sol\":5259:5276  newImplementation */\n      dup2\n        /* \"DPay-proof-of-concept/contracts/coin_contracts/USDC.sol\":5253:5257  slot */\n      dup2\n        /* \"DPay-proof-of-concept/contracts/coin_contracts/USDC.sol\":5246:5277  sstore(slot, newImplementation) */\n      sstore\n        /* \"DPay-proof-of-concept/contracts/coin_contracts/USDC.sol\":5238:5283  {... */\n      pop\n      pop\n      jump\t// out\n        /* \"DPay-proof-of-concept/contracts/coin_contracts/USDC.sol\":2636:3212  function isContract(address addr) internal view returns (bool) {... */\n    tag_90:\n        /* \"DPay-proof-of-concept/contracts/coin_contracts/USDC.sol\":2693:2697  bool */\n      0x0\n        /* \"DPay-proof-of-concept/contracts/coin_contracts/USDC.sol\":2705:2717  uint256 size */\n      dup1\n        /* \"DPay-proof-of-concept/contracts/coin_contracts/USDC.sol\":3180:3184  addr */\n      dup3\n        /* \"DPay-proof-of-concept/contracts/coin_contracts/USDC.sol\":3168:3185  extcodesize(addr) */\n      extcodesize\n        /* \"DPay-proof-of-concept/contracts/coin_contracts/USDC.sol\":3160:3185  size := extcodesize(addr) */\n      swap1\n      pop\n        /* \"DPay-proof-of-concept/contracts/coin_contracts/USDC.sol\":3206:3207  0 */\n      0x0\n        /* \"DPay-proof-of-concept/contracts/coin_contracts/USDC.sol\":3199:3203  size */\n      dup2\n        /* \"DPay-proof-of-concept/contracts/coin_contracts/USDC.sol\":3199:3207  size > 0 */\n      gt\n        /* \"DPay-proof-of-concept/contracts/coin_contracts/USDC.sol\":3192:3207  return size > 0 */\n      swap2\n      pop\n        /* \"DPay-proof-of-concept/contracts/coin_contracts/USDC.sol\":2636:3212  function isContract(address addr) internal view returns (bool) {... */\n      pop\n      swap2\n      swap1\n      pop\n      jump\t// out\n\n    auxdata: 0xa165627a7a723058205c7dea766270e3d9e8964a6a8151c24ad278291a8702e14031e3e29f531914030029\n}\n",
				"bytecode": {
					"linkReferences": {},
					"object": "608060405234801561001057600080fd5b50604051602080610b27833981018060405281019080805190602001909291905050508060405180807f6f72672e7a657070656c696e6f732e70726f78792e696d706c656d656e74617481526020017f696f6e000000000000000000000000000000000000000000000000000000000081525060230190506040518091039020600019167f7050c9e0f4ca769c69bd3a8ef740bc37934f8e2c036e5a723fd8ee048ed3f8c3600102600019161415156100c557fe5b6100dd81610167640100000000026401000000009004565b5060405180807f6f72672e7a657070656c696e6f732e70726f78792e61646d696e000000000000815250601a0190506040518091039020600019167f10d6a54a4754c8869d6886b5f5d7fbfa5b4522237ea5c60d11bc4e7a1ff9390b6001026000191614151561014957fe5b6101613361024c640100000000026401000000009004565b5061028e565b60006101858261027b6401000000000261084b176401000000009004565b151561021f576040517f08c379a000000000000000000000000000000000000000000000000000000000815260040180806020018281038252603b8152602001807f43616e6e6f742073657420612070726f787920696d706c656d656e746174696f81526020017f6e20746f2061206e6f6e2d636f6e74726163742061646472657373000000000081525060400191505060405180910390fd5b7f7050c9e0f4ca769c69bd3a8ef740bc37934f8e2c036e5a723fd8ee048ed3f8c360010290508181555050565b60007f10d6a54a4754c8869d6886b5f5d7fbfa5b4522237ea5c60d11bc4e7a1ff9390b60010290508181555050565b600080823b905060008111915050919050565b61088a8061029d6000396000f30060806040526004361061006d576000357c0100000000000000000000000000000000000000000000000000000000900463ffffffff1680633659cfe6146100775780634f1ef286146100ba5780635c60da1b146101085780638f2839701461015f578063f851a440146101a2575b6100756101f9565b005b34801561008357600080fd5b506100b8600480360381019080803573ffffffffffffffffffffffffffffffffffffffff169060200190929190505050610213565b005b610106600480360381019080803573ffffffffffffffffffffffffffffffffffffffff169060200190929190803590602001908201803590602001919091929391929390505050610268565b005b34801561011457600080fd5b5061011d610308565b604051808273ffffffffffffffffffffffffffffffffffffffff1673ffffffffffffffffffffffffffffffffffffffff16815260200191505060405180910390f35b34801561016b57600080fd5b506101a0600480360381019080803573ffffffffffffffffffffffffffffffffffffffff169060200190929190505050610360565b005b3480156101ae57600080fd5b506101b761051e565b604051808273ffffffffffffffffffffffffffffffffffffffff1673ffffffffffffffffffffffffffffffffffffffff16815260200191505060405180910390f35b610201610576565b61021161020c610651565b610682565b565b61021b6106a8565b73ffffffffffffffffffffffffffffffffffffffff163373ffffffffffffffffffffffffffffffffffffffff16141561025c57610257816106d9565b610265565b6102646101f9565b5b50565b6102706106a8565b73ffffffffffffffffffffffffffffffffffffffff163373ffffffffffffffffffffffffffffffffffffffff1614156102fa576102ac836106d9565b3073ffffffffffffffffffffffffffffffffffffffff163483836040518083838082843782019150509250505060006040518083038185875af19250505015156102f557600080fd5b610303565b6103026101f9565b5b505050565b60006103126106a8565b73ffffffffffffffffffffffffffffffffffffffff163373ffffffffffffffffffffffffffffffffffffffff1614156103545761034d610651565b905061035d565b61035c6101f9565b5b90565b6103686106a8565b73ffffffffffffffffffffffffffffffffffffffff163373ffffffffffffffffffffffffffffffffffffffff16141561051257600073ffffffffffffffffffffffffffffffffffffffff168173ffffffffffffffffffffffffffffffffffffffff1614151515610466576040517f08c379a00000000000000000000000000000000000000000000000000000000081526004018080602001828103825260368152602001807f43616e6e6f74206368616e6765207468652061646d696e206f6620612070726f81526020017f787920746f20746865207a65726f20616464726573730000000000000000000081525060400191505060405180910390fd5b7f7e644d79422f17c01e4894b5f4f588d331ebfa28653d42ae832dc59e38c9798f61048f6106a8565b82604051808373ffffffffffffffffffffffffffffffffffffffff1673ffffffffffffffffffffffffffffffffffffffff1681526020018273ffffffffffffffffffffffffffffffffffffffff1673ffffffffffffffffffffffffffffffffffffffff1681526020019250505060405180910390a161050d81610748565b61051b565b61051a6101f9565b5b50565b60006105286106a8565b73ffffffffffffffffffffffffffffffffffffffff163373ffffffffffffffffffffffffffffffffffffffff16141561056a576105636106a8565b9050610573565b6105726101f9565b5b90565b61057e6106a8565b73ffffffffffffffffffffffffffffffffffffffff163373ffffffffffffffffffffffffffffffffffffffff1614151515610647576040517f08c379a00000000000000000000000000000000000000000000000000000000081526004018080602001828103825260328152602001807f43616e6e6f742063616c6c2066616c6c6261636b2066756e6374696f6e20667281526020017f6f6d207468652070726f78792061646d696e000000000000000000000000000081525060400191505060405180910390fd5b61064f610777565b565b6000807f7050c9e0f4ca769c69bd3a8ef740bc37934f8e2c036e5a723fd8ee048ed3f8c36001029050805491505090565b3660008037600080366000845af43d6000803e80600081146106a3573d6000f35b3d6000fd5b6000807f10d6a54a4754c8869d6886b5f5d7fbfa5b4522237ea5c60d11bc4e7a1ff9390b6001029050805491505090565b6106e281610779565b7fbc7cd75a20ee27fd9adebab32041f755214dbc6bffa90cc0225b39da2e5c2d3b81604051808273ffffffffffffffffffffffffffffffffffffffff1673ffffffffffffffffffffffffffffffffffffffff16815260200191505060405180910390a150565b60007f10d6a54a4754c8869d6886b5f5d7fbfa5b4522237ea5c60d11bc4e7a1ff9390b60010290508181555050565b565b60006107848261084b565b151561081e576040517f08c379a000000000000000000000000000000000000000000000000000000000815260040180806020018281038252603b8152602001807f43616e6e6f742073657420612070726f787920696d706c656d656e746174696f81526020017f6e20746f2061206e6f6e2d636f6e74726163742061646472657373000000000081525060400191505060405180910390fd5b7f7050c9e0f4ca769c69bd3a8ef740bc37934f8e2c036e5a723fd8ee048ed3f8c360010290508181555050565b600080823b9050600081119150509190505600a165627a7a723058205c7dea766270e3d9e8964a6a8151c24ad278291a8702e14031e3e29f531914030029",
					"opcodes": "PUSH1 0x80 PUSH1 0x40 MSTORE CALLVALUE DUP1 ISZERO PUSH2 0x10 JUMPI PUSH1 0x0 DUP1 REVERT JUMPDEST POP PUSH1 0x40 MLOAD PUSH1 0x20 DUP1 PUSH2 0xB27 DUP4 CODECOPY DUP2 ADD DUP1 PUSH1 0x40 MSTORE DUP2 ADD SWAP1 DUP1 DUP1 MLOAD SWAP1 PUSH1 0x20 ADD SWAP1 SWAP3 SWAP2 SWAP1 POP POP POP DUP1 PUSH1 0x40 MLOAD DUP1 DUP1 PUSH32 0x6F72672E7A657070656C696E6F732E70726F78792E696D706C656D656E746174 DUP2 MSTORE PUSH1 0x20 ADD PUSH32 0x696F6E0000000000000000000000000000000000000000000000000000000000 DUP2 MSTORE POP PUSH1 0x23 ADD SWAP1 POP PUSH1 0x40 MLOAD DUP1 SWAP2 SUB SWAP1 KECCAK256 PUSH1 0x0 NOT AND PUSH32 0x7050C9E0F4CA769C69BD3A8EF740BC37934F8E2C036E5A723FD8EE048ED3F8C3 PUSH1 0x1 MUL PUSH1 0x0 NOT AND EQ ISZERO ISZERO PUSH2 0xC5 JUMPI INVALID JUMPDEST PUSH2 0xDD DUP2 PUSH2 0x167 PUSH5 0x100000000 MUL PUSH5 0x100000000 SWAP1 DIV JUMP JUMPDEST POP PUSH1 0x40 MLOAD DUP1 DUP1 PUSH32 0x6F72672E7A657070656C696E6F732E70726F78792E61646D696E000000000000 DUP2 MSTORE POP PUSH1 0x1A ADD SWAP1 POP PUSH1 0x40 MLOAD DUP1 SWAP2 SUB SWAP1 KECCAK256 PUSH1 0x0 NOT AND PUSH32 0x10D6A54A4754C8869D6886B5F5D7FBFA5B4522237EA5C60D11BC4E7A1FF9390B PUSH1 0x1 MUL PUSH1 0x0 NOT AND EQ ISZERO ISZERO PUSH2 0x149 JUMPI INVALID JUMPDEST PUSH2 0x161 CALLER PUSH2 0x24C PUSH5 0x100000000 MUL PUSH5 0x100000000 SWAP1 DIV JUMP JUMPDEST POP PUSH2 0x28E JUMP JUMPDEST PUSH1 0x0 PUSH2 0x185 DUP3 PUSH2 0x27B PUSH5 0x100000000 MUL PUSH2 0x84B OR PUSH5 0x100000000 SWAP1 DIV JUMP JUMPDEST ISZERO ISZERO PUSH2 0x21F JUMPI PUSH1 0x40 MLOAD PUSH32 0x8C379A000000000000000000000000000000000000000000000000000000000 DUP2 MSTORE PUSH1 0x4 ADD DUP1 DUP1 PUSH1 0x20 ADD DUP3 DUP2 SUB DUP3 MSTORE PUSH1 0x3B DUP2 MSTORE PUSH1 0x20 ADD DUP1 PUSH32 0x43616E6E6F742073657420612070726F787920696D706C656D656E746174696F DUP2 MSTORE PUSH1 0x20 ADD PUSH32 0x6E20746F2061206E6F6E2D636F6E747261637420616464726573730000000000 DUP2 MSTORE POP PUSH1 0x40 ADD SWAP2 POP POP PUSH1 0x40 MLOAD DUP1 SWAP2 SUB SWAP1 REVERT JUMPDEST PUSH32 0x7050C9E0F4CA769C69BD3A8EF740BC37934F8E2C036E5A723FD8EE048ED3F8C3 PUSH1 0x1 MUL SWAP1 POP DUP2 DUP2 SSTORE POP POP JUMP JUMPDEST PUSH1 0x0 PUSH32 0x10D6A54A4754C8869D6886B5F5D7FBFA5B4522237EA5C60D11BC4E7A1FF9390B PUSH1 0x1 MUL SWAP1 POP DUP2 DUP2 SSTORE POP POP JUMP JUMPDEST PUSH1 0x0 DUP1 DUP3 EXTCODESIZE SWAP1 POP PUSH1 0x0 DUP2 GT SWAP2 POP POP SWAP2 SWAP1 POP JUMP JUMPDEST PUSH2 0x88A DUP1 PUSH2 0x29D PUSH1 0x0 CODECOPY PUSH1 0x0 RETURN STOP PUSH1 0x80 PUSH1 0x40 MSTORE PUSH1 0x4 CALLDATASIZE LT PUSH2 0x6D JUMPI PUSH1 0x0 CALLDATALOAD PUSH29 0x100000000000000000000000000000000000000000000000000000000 SWAP1 DIV PUSH4 0xFFFFFFFF AND DUP1 PUSH4 0x3659CFE6 EQ PUSH2 0x77 JUMPI DUP1 PUSH4 0x4F1EF286 EQ PUSH2 0xBA JUMPI DUP1 PUSH4 0x5C60DA1B EQ PUSH2 0x108 JUMPI DUP1 PUSH4 0x8F283970 EQ PUSH2 0x15F JUMPI DUP1 PUSH4 0xF851A440 EQ PUSH2 0x1A2 JUMPI JUMPDEST PUSH2 0x75 PUSH2 0x1F9 JUMP JUMPDEST STOP JUMPDEST CALLVALUE DUP1 ISZERO PUSH2 0x83 JUMPI PUSH1 0x0 DUP1 REVERT JUMPDEST POP PUSH2 0xB8 PUSH1 0x4 DUP1 CALLDATASIZE SUB DUP2 ADD SWAP1 DUP1 DUP1 CALLDATALOAD PUSH20 0xFFFFFFFFFFFFFFFFFFFFFFFFFFFFFFFFFFFFFFFF AND SWAP1 PUSH1 0x20 ADD SWAP1 SWAP3 SWAP2 SWAP1 POP POP POP PUSH2 0x213 JUMP JUMPDEST STOP JUMPDEST PUSH2 0x106 PUSH1 0x4 DUP1 CALLDATASIZE SUB DUP2 ADD SWAP1 DUP1 DUP1 CALLDATALOAD PUSH20 0xFFFFFFFFFFFFFFFFFFFFFFFFFFFFFFFFFFFFFFFF AND SWAP1 PUSH1 0x20 ADD SWAP1 SWAP3 SWAP2 SWAP1 DUP1 CALLDATALOAD SWAP1 PUSH1 0x20 ADD SWAP1 DUP3 ADD DUP1 CALLDATALOAD SWAP1 PUSH1 0x20 ADD SWAP2 SWAP1 SWAP2 SWAP3 SWAP4 SWAP2 SWAP3 SWAP4 SWAP1 POP POP POP PUSH2 0x268 JUMP JUMPDEST STOP JUMPDEST CALLVALUE DUP1 ISZERO PUSH2 0x114 JUMPI PUSH1 0x0 DUP1 REVERT JUMPDEST POP PUSH2 0x11D PUSH2 0x308 JUMP JUMPDEST PUSH1 0x40 MLOAD DUP1 DUP3 PUSH20 0xFFFFFFFFFFFFFFFFFFFFFFFFFFFFFFFFFFFFFFFF AND PUSH20 0xFFFFFFFFFFFFFFFFFFFFFFFFFFFFFFFFFFFFFFFF AND DUP2 MSTORE PUSH1 0x20 ADD SWAP2 POP POP PUSH1 0x40 MLOAD DUP1 SWAP2 SUB SWAP1 RETURN JUMPDEST CALLVALUE DUP1 ISZERO PUSH2 0x16B JUMPI PUSH1 0x0 DUP1 REVERT JUMPDEST POP PUSH2 0x1A0 PUSH1 0x4 DUP1 CALLDATASIZE SUB DUP2 ADD SWAP1 DUP1 DUP1 CALLDATALOAD PUSH20 0xFFFFFFFFFFFFFFFFFFFFFFFFFFFFFFFFFFFFFFFF AND SWAP1 PUSH1 0x20 ADD SWAP1 SWAP3 SWAP2 SWAP1 POP POP POP PUSH2 0x360 JUMP JUMPDEST STOP JUMPDEST CALLVALUE DUP1 ISZERO PUSH2 0x1AE JUMPI PUSH1 0x0 DUP1 REVERT JUMPDEST POP PUSH2 0x1B7 PUSH2 0x51E JUMP JUMPDEST PUSH1 0x40 MLOAD DUP1 DUP3 PUSH20 0xFFFFFFFFFFFFFFFFFFFFFFFFFFFFFFFFFFFFFFFF AND PUSH20 0xFFFFFFFFFFFFFFFFFFFFFFFFFFFFFFFFFFFFFFFF AND DUP2 MSTORE PUSH1 0x20 ADD SWAP2 POP POP PUSH1 0x40 MLOAD DUP1 SWAP2 SUB SWAP1 RETURN JUMPDEST PUSH2 0x201 PUSH2 0x576 JUMP JUMPDEST PUSH2 0x211 PUSH2 0x20C PUSH2 0x651 JUMP JUMPDEST PUSH2 0x682 JUMP JUMPDEST JUMP JUMPDEST PUSH2 0x21B PUSH2 0x6A8 JUMP JUMPDEST PUSH20 0xFFFFFFFFFFFFFFFFFFFFFFFFFFFFFFFFFFFFFFFF AND CALLER PUSH20 0xFFFFFFFFFFFFFFFFFFFFFFFFFFFFFFFFFFFFFFFF AND EQ ISZERO PUSH2 0x25C JUMPI PUSH2 0x257 DUP2 PUSH2 0x6D9 JUMP JUMPDEST PUSH2 0x265 JUMP JUMPDEST PUSH2 0x264 PUSH2 0x1F9 JUMP JUMPDEST JUMPDEST POP JUMP JUMPDEST PUSH2 0x270 PUSH2 0x6A8 JUMP JUMPDEST PUSH20 0xFFFFFFFFFFFFFFFFFFFFFFFFFFFFFFFFFFFFFFFF AND CALLER PUSH20 0xFFFFFFFFFFFFFFFFFFFFFFFFFFFFFFFFFFFFFFFF AND EQ ISZERO PUSH2 0x2FA JUMPI PUSH2 0x2AC DUP4 PUSH2 0x6D9 JUMP JUMPDEST ADDRESS PUSH20 0xFFFFFFFFFFFFFFFFFFFFFFFFFFFFFFFFFFFFFFFF AND CALLVALUE DUP4 DUP4 PUSH1 0x40 MLOAD DUP1 DUP4 DUP4 DUP1 DUP3 DUP5 CALLDATACOPY DUP3 ADD SWAP2 POP POP SWAP3 POP POP POP PUSH1 0x0 PUSH1 0x40 MLOAD DUP1 DUP4 SUB DUP2 DUP6 DUP8 GAS CALL SWAP3 POP POP POP ISZERO ISZERO PUSH2 0x2F5 JUMPI PUSH1 0x0 DUP1 REVERT JUMPDEST PUSH2 0x303 JUMP JUMPDEST PUSH2 0x302 PUSH2 0x1F9 JUMP JUMPDEST JUMPDEST POP POP POP JUMP JUMPDEST PUSH1 0x0 PUSH2 0x312 PUSH2 0x6A8 JUMP JUMPDEST PUSH20 0xFFFFFFFFFFFFFFFFFFFFFFFFFFFFFFFFFFFFFFFF AND CALLER PUSH20 0xFFFFFFFFFFFFFFFFFFFFFFFFFFFFFFFFFFFFFFFF AND EQ ISZERO PUSH2 0x354 JUMPI PUSH2 0x34D PUSH2 0x651 JUMP JUMPDEST SWAP1 POP PUSH2 0x35D JUMP JUMPDEST PUSH2 0x35C PUSH2 0x1F9 JUMP JUMPDEST JUMPDEST SWAP1 JUMP JUMPDEST PUSH2 0x368 PUSH2 0x6A8 JUMP JUMPDEST PUSH20 0xFFFFFFFFFFFFFFFFFFFFFFFFFFFFFFFFFFFFFFFF AND CALLER PUSH20 0xFFFFFFFFFFFFFFFFFFFFFFFFFFFFFFFFFFFFFFFF AND EQ ISZERO PUSH2 0x512 JUMPI PUSH1 0x0 PUSH20 0xFFFFFFFFFFFFFFFFFFFFFFFFFFFFFFFFFFFFFFFF AND DUP2 PUSH20 0xFFFFFFFFFFFFFFFFFFFFFFFFFFFFFFFFFFFFFFFF AND EQ ISZERO ISZERO ISZERO PUSH2 0x466 JUMPI PUSH1 0x40 MLOAD PUSH32 0x8C379A000000000000000000000000000000000000000000000000000000000 DUP2 MSTORE PUSH1 0x4 ADD DUP1 DUP1 PUSH1 0x20 ADD DUP3 DUP2 SUB DUP3 MSTORE PUSH1 0x36 DUP2 MSTORE PUSH1 0x20 ADD DUP1 PUSH32 0x43616E6E6F74206368616E6765207468652061646D696E206F6620612070726F DUP2 MSTORE PUSH1 0x20 ADD PUSH32 0x787920746F20746865207A65726F206164647265737300000000000000000000 DUP2 MSTORE POP PUSH1 0x40 ADD SWAP2 POP POP PUSH1 0x40 MLOAD DUP1 SWAP2 SUB SWAP1 REVERT JUMPDEST PUSH32 0x7E644D79422F17C01E4894B5F4F588D331EBFA28653D42AE832DC59E38C9798F PUSH2 0x48F PUSH2 0x6A8 JUMP JUMPDEST DUP3 PUSH1 0x40 MLOAD DUP1 DUP4 PUSH20 0xFFFFFFFFFFFFFFFFFFFFFFFFFFFFFFFFFFFFFFFF AND PUSH20 0xFFFFFFFFFFFFFFFFFFFFFFFFFFFFFFFFFFFFFFFF AND DUP2 MSTORE PUSH1 0x20 ADD DUP3 PUSH20 0xFFFFFFFFFFFFFFFFFFFFFFFFFFFFFFFFFFFFFFFF AND PUSH20 0xFFFFFFFFFFFFFFFFFFFFFFFFFFFFFFFFFFFFFFFF AND DUP2 MSTORE PUSH1 0x20 ADD SWAP3 POP POP POP PUSH1 0x40 MLOAD DUP1 SWAP2 SUB SWAP1 LOG1 PUSH2 0x50D DUP2 PUSH2 0x748 JUMP JUMPDEST PUSH2 0x51B JUMP JUMPDEST PUSH2 0x51A PUSH2 0x1F9 JUMP JUMPDEST JUMPDEST POP JUMP JUMPDEST PUSH1 0x0 PUSH2 0x528 PUSH2 0x6A8 JUMP JUMPDEST PUSH20 0xFFFFFFFFFFFFFFFFFFFFFFFFFFFFFFFFFFFFFFFF AND CALLER PUSH20 0xFFFFFFFFFFFFFFFFFFFFFFFFFFFFFFFFFFFFFFFF AND EQ ISZERO PUSH2 0x56A JUMPI PUSH2 0x563 PUSH2 0x6A8 JUMP JUMPDEST SWAP1 POP PUSH2 0x573 JUMP JUMPDEST PUSH2 0x572 PUSH2 0x1F9 JUMP JUMPDEST JUMPDEST SWAP1 JUMP JUMPDEST PUSH2 0x57E PUSH2 0x6A8 JUMP JUMPDEST PUSH20 0xFFFFFFFFFFFFFFFFFFFFFFFFFFFFFFFFFFFFFFFF AND CALLER PUSH20 0xFFFFFFFFFFFFFFFFFFFFFFFFFFFFFFFFFFFFFFFF AND EQ ISZERO ISZERO ISZERO PUSH2 0x647 JUMPI PUSH1 0x40 MLOAD PUSH32 0x8C379A000000000000000000000000000000000000000000000000000000000 DUP2 MSTORE PUSH1 0x4 ADD DUP1 DUP1 PUSH1 0x20 ADD DUP3 DUP2 SUB DUP3 MSTORE PUSH1 0x32 DUP2 MSTORE PUSH1 0x20 ADD DUP1 PUSH32 0x43616E6E6F742063616C6C2066616C6C6261636B2066756E6374696F6E206672 DUP2 MSTORE PUSH1 0x20 ADD PUSH32 0x6F6D207468652070726F78792061646D696E0000000000000000000000000000 DUP2 MSTORE POP PUSH1 0x40 ADD SWAP2 POP POP PUSH1 0x40 MLOAD DUP1 SWAP2 SUB SWAP1 REVERT JUMPDEST PUSH2 0x64F PUSH2 0x777 JUMP JUMPDEST JUMP JUMPDEST PUSH1 0x0 DUP1 PUSH32 0x7050C9E0F4CA769C69BD3A8EF740BC37934F8E2C036E5A723FD8EE048ED3F8C3 PUSH1 0x1 MUL SWAP1 POP DUP1 SLOAD SWAP2 POP POP SWAP1 JUMP JUMPDEST CALLDATASIZE PUSH1 0x0 DUP1 CALLDATACOPY PUSH1 0x0 DUP1 CALLDATASIZE PUSH1 0x0 DUP5 GAS DELEGATECALL RETURNDATASIZE PUSH1 0x0 DUP1 RETURNDATACOPY DUP1 PUSH1 0x0 DUP2 EQ PUSH2 0x6A3 JUMPI RETURNDATASIZE PUSH1 0x0 RETURN JUMPDEST RETURNDATASIZE PUSH1 0x0 REVERT JUMPDEST PUSH1 0x0 DUP1 PUSH32 0x10D6A54A4754C8869D6886B5F5D7FBFA5B4522237EA5C60D11BC4E7A1FF9390B PUSH1 0x1 MUL SWAP1 POP DUP1 SLOAD SWAP2 POP POP SWAP1 JUMP JUMPDEST PUSH2 0x6E2 DUP2 PUSH2 0x779 JUMP JUMPDEST PUSH32 0xBC7CD75A20EE27FD9ADEBAB32041F755214DBC6BFFA90CC0225B39DA2E5C2D3B DUP2 PUSH1 0x40 MLOAD DUP1 DUP3 PUSH20 0xFFFFFFFFFFFFFFFFFFFFFFFFFFFFFFFFFFFFFFFF AND PUSH20 0xFFFFFFFFFFFFFFFFFFFFFFFFFFFFFFFFFFFFFFFF AND DUP2 MSTORE PUSH1 0x20 ADD SWAP2 POP POP PUSH1 0x40 MLOAD DUP1 SWAP2 SUB SWAP1 LOG1 POP JUMP JUMPDEST PUSH1 0x0 PUSH32 0x10D6A54A4754C8869D6886B5F5D7FBFA5B4522237EA5C60D11BC4E7A1FF9390B PUSH1 0x1 MUL SWAP1 POP DUP2 DUP2 SSTORE POP POP JUMP JUMPDEST JUMP JUMPDEST PUSH1 0x0 PUSH2 0x784 DUP3 PUSH2 0x84B JUMP JUMPDEST ISZERO ISZERO PUSH2 0x81E JUMPI PUSH1 0x40 MLOAD PUSH32 0x8C379A000000000000000000000000000000000000000000000000000000000 DUP2 MSTORE PUSH1 0x4 ADD DUP1 DUP1 PUSH1 0x20 ADD DUP3 DUP2 SUB DUP3 MSTORE PUSH1 0x3B DUP2 MSTORE PUSH1 0x20 ADD DUP1 PUSH32 0x43616E6E6F742073657420612070726F787920696D706C656D656E746174696F DUP2 MSTORE PUSH1 0x20 ADD PUSH32 0x6E20746F2061206E6F6E2D636F6E747261637420616464726573730000000000 DUP2 MSTORE POP PUSH1 0x40 ADD SWAP2 POP POP PUSH1 0x40 MLOAD DUP1 SWAP2 SUB SWAP1 REVERT JUMPDEST PUSH32 0x7050C9E0F4CA769C69BD3A8EF740BC37934F8E2C036E5A723FD8EE048ED3F8C3 PUSH1 0x1 MUL SWAP1 POP DUP2 DUP2 SSTORE POP POP JUMP JUMPDEST PUSH1 0x0 DUP1 DUP3 EXTCODESIZE SWAP1 POP PUSH1 0x0 DUP2 GT SWAP2 POP POP SWAP2 SWAP1 POP JUMP STOP LOG1 PUSH6 0x627A7A723058 KECCAK256 0x5c PUSH30 0xEA766270E3D9E8964A6A8151C24AD278291A8702E14031E3E29F53191403 STOP 0x29 "
				},
				"gasEstimates": {
					"creation": {
						"codeDepositCost": "437200",
						"executionCost": "infinite",
						"totalCost": "infinite"
					},
					"external": {
						"": "infinite",
						"admin()": "infinite",
						"changeAdmin(address)": "infinite",
						"implementation()": "infinite",
						"upgradeTo(address)": "infinite",
						"upgradeToAndCall(address,bytes)": "infinite"
					},
					"internal": {
						"_admin()": "244",
						"_setAdmin(address)": "20038",
						"_willFallback()": "infinite"
					}
				},
				"methodIdentifiers": {
					"admin()": "f851a440",
					"changeAdmin(address)": "8f283970",
					"implementation()": "5c60da1b",
					"upgradeTo(address)": "3659cfe6",
					"upgradeToAndCall(address,bytes)": "4f1ef286"
				}
			},
			"userdoc": {
				"methods": {}
			}
		}
	}
}